{
  "contractName": "UniCore_Vault",
  "abi": [
    {
      "inputs": [
        {
          "internalType": "address",
          "name": "_UniCore",
          "type": "address"
        }
      ],
      "stateMutability": "nonpayable",
      "type": "constructor"
    },
    {
      "anonymous": false,
      "inputs": [
        {
          "indexed": true,
          "internalType": "address",
          "name": "owner",
          "type": "address"
        },
        {
          "indexed": true,
          "internalType": "address",
          "name": "spender",
          "type": "address"
        },
        {
          "indexed": false,
          "internalType": "uint256",
          "name": "_pid",
          "type": "uint256"
        },
        {
          "indexed": false,
          "internalType": "uint256",
          "name": "value",
          "type": "uint256"
        }
      ],
      "name": "Approval",
      "type": "event"
    },
    {
      "anonymous": false,
      "inputs": [
        {
          "indexed": true,
          "internalType": "address",
          "name": "user",
          "type": "address"
        },
        {
          "indexed": true,
          "internalType": "uint256",
          "name": "pid",
          "type": "uint256"
        },
        {
          "indexed": false,
          "internalType": "uint256",
          "name": "amount",
          "type": "uint256"
        }
      ],
      "name": "Deposit",
      "type": "event"
    },
    {
      "anonymous": false,
      "inputs": [
        {
          "indexed": true,
          "internalType": "address",
          "name": "user",
          "type": "address"
        },
        {
          "indexed": true,
          "internalType": "uint256",
          "name": "pid",
          "type": "uint256"
        },
        {
          "indexed": false,
          "internalType": "uint256",
          "name": "amount",
          "type": "uint256"
        }
      ],
      "name": "EmergencyWithdraw",
      "type": "event"
    },
    {
      "anonymous": false,
      "inputs": [
        {
          "indexed": true,
          "internalType": "address",
          "name": "user",
          "type": "address"
        },
        {
          "indexed": true,
          "internalType": "uint256",
          "name": "pid",
          "type": "uint256"
        },
        {
          "indexed": false,
          "internalType": "uint256",
          "name": "amount",
          "type": "uint256"
        }
      ],
      "name": "Withdraw",
      "type": "event"
    },
    {
      "inputs": [],
      "name": "Treasury1",
      "outputs": [
        {
          "internalType": "address",
          "name": "",
          "type": "address"
        }
      ],
      "stateMutability": "view",
      "type": "function"
    },
    {
      "inputs": [],
      "name": "Treasury2",
      "outputs": [
        {
          "internalType": "address",
          "name": "",
          "type": "address"
        }
      ],
      "stateMutability": "view",
      "type": "function"
    },
    {
      "inputs": [],
      "name": "Treasury3",
      "outputs": [
        {
          "internalType": "address",
          "name": "",
          "type": "address"
        }
      ],
      "stateMutability": "view",
      "type": "function"
    },
    {
      "inputs": [],
      "name": "UniCore",
      "outputs": [
        {
          "internalType": "address",
          "name": "",
          "type": "address"
        }
      ],
      "stateMutability": "view",
      "type": "function"
    },
    {
      "inputs": [],
      "name": "contractStartBlock",
      "outputs": [
        {
          "internalType": "uint256",
          "name": "",
          "type": "uint256"
        }
      ],
      "stateMutability": "view",
      "type": "function"
    },
    {
      "inputs": [],
      "name": "cumulativeRewardsSinceStart",
      "outputs": [
        {
          "internalType": "uint256",
          "name": "",
          "type": "uint256"
        }
      ],
      "stateMutability": "view",
      "type": "function"
    },
    {
      "inputs": [],
      "name": "epoch",
      "outputs": [
        {
          "internalType": "uint256",
          "name": "",
          "type": "uint256"
        }
      ],
      "stateMutability": "view",
      "type": "function"
    },
    {
      "inputs": [],
      "name": "epochCalculationStartBlock",
      "outputs": [
        {
          "internalType": "uint256",
          "name": "",
          "type": "uint256"
        }
      ],
      "stateMutability": "view",
      "type": "function"
    },
    {
      "inputs": [
        {
          "internalType": "uint256",
          "name": "",
          "type": "uint256"
        }
      ],
      "name": "epochRewards",
      "outputs": [
        {
          "internalType": "uint256",
          "name": "",
          "type": "uint256"
        }
      ],
      "stateMutability": "view",
      "type": "function"
    },
    {
      "inputs": [],
      "name": "pendingRewards",
      "outputs": [
        {
          "internalType": "uint256",
          "name": "",
          "type": "uint256"
        }
      ],
      "stateMutability": "view",
      "type": "function"
    },
    {
      "inputs": [],
      "name": "pendingTreasuryRewards",
      "outputs": [
        {
          "internalType": "uint256",
          "name": "",
          "type": "uint256"
        }
      ],
      "stateMutability": "view",
      "type": "function"
    },
    {
      "inputs": [
        {
          "internalType": "uint256",
          "name": "",
          "type": "uint256"
        }
      ],
      "name": "poolInfo",
      "outputs": [
        {
          "internalType": "address",
          "name": "stakedToken",
          "type": "address"
        },
        {
          "internalType": "uint256",
          "name": "allocPoint",
          "type": "uint256"
        },
        {
          "internalType": "uint256",
          "name": "accUniCorePerShare",
          "type": "uint256"
        },
        {
          "internalType": "bool",
          "name": "withdrawable",
          "type": "bool"
        }
      ],
      "stateMutability": "view",
      "type": "function"
    },
    {
      "inputs": [],
      "name": "rewardsInThisEpoch",
      "outputs": [
        {
          "internalType": "uint256",
          "name": "",
          "type": "uint256"
        }
      ],
      "stateMutability": "view",
      "type": "function"
    },
    {
      "inputs": [],
      "name": "totalAllocPoint",
      "outputs": [
        {
          "internalType": "uint256",
          "name": "",
          "type": "uint256"
        }
      ],
      "stateMutability": "view",
      "type": "function"
    },
    {
      "inputs": [],
      "name": "treasuryFee",
      "outputs": [
        {
          "internalType": "uint256",
          "name": "",
          "type": "uint256"
        }
      ],
      "stateMutability": "view",
      "type": "function"
    },
    {
      "inputs": [
        {
          "internalType": "uint256",
          "name": "",
          "type": "uint256"
        },
        {
          "internalType": "address",
          "name": "",
          "type": "address"
        }
      ],
      "name": "userInfo",
      "outputs": [
        {
          "internalType": "uint256",
          "name": "amount",
          "type": "uint256"
        },
        {
          "internalType": "uint256",
          "name": "rewardPaid",
          "type": "uint256"
        }
      ],
      "stateMutability": "view",
      "type": "function"
    },
    {
      "inputs": [],
      "name": "poolLength",
      "outputs": [
        {
          "internalType": "uint256",
          "name": "",
          "type": "uint256"
        }
      ],
      "stateMutability": "view",
      "type": "function"
    },
    {
      "inputs": [],
      "name": "averageFeesPerBlockSinceStart",
      "outputs": [
        {
          "internalType": "uint256",
          "name": "averagePerBlock",
          "type": "uint256"
        }
      ],
      "stateMutability": "view",
      "type": "function"
    },
    {
      "inputs": [],
      "name": "averageFeesPerBlockEpoch",
      "outputs": [
        {
          "internalType": "uint256",
          "name": "averagePerBlock",
          "type": "uint256"
        }
      ],
      "stateMutability": "view",
      "type": "function"
    },
    {
      "inputs": [
        {
          "internalType": "uint256",
          "name": "_allocPoint",
          "type": "uint256"
        },
        {
          "internalType": "address",
          "name": "_stakedToken",
          "type": "address"
        },
        {
          "internalType": "bool",
          "name": "_withdrawable",
          "type": "bool"
        }
      ],
      "name": "addPool",
      "outputs": [],
      "stateMutability": "nonpayable",
      "type": "function"
    },
    {
      "inputs": [
        {
          "internalType": "uint256",
          "name": "_pid",
          "type": "uint256"
        },
        {
          "internalType": "uint256",
          "name": "_allocPoint",
          "type": "uint256"
        },
        {
          "internalType": "bool",
          "name": "_withUpdate",
          "type": "bool"
        }
      ],
      "name": "setPool",
      "outputs": [],
      "stateMutability": "nonpayable",
      "type": "function"
    },
    {
      "inputs": [
        {
          "internalType": "uint256",
          "name": "_pid",
          "type": "uint256"
        },
        {
          "internalType": "bool",
          "name": "_withdrawable",
          "type": "bool"
        }
      ],
      "name": "setPoolWithdrawable",
      "outputs": [],
      "stateMutability": "nonpayable",
      "type": "function"
    },
    {
      "inputs": [],
      "name": "startNewEpoch",
      "outputs": [],
      "stateMutability": "nonpayable",
      "type": "function"
    },
    {
      "inputs": [],
      "name": "massUpdatePools",
      "outputs": [],
      "stateMutability": "nonpayable",
      "type": "function"
    },
    {
      "inputs": [],
      "name": "updateRewards",
      "outputs": [],
      "stateMutability": "nonpayable",
      "type": "function"
    },
    {
      "inputs": [
        {
          "internalType": "uint256",
          "name": "_pid",
          "type": "uint256"
        },
        {
          "internalType": "uint256",
          "name": "_amount",
          "type": "uint256"
        }
      ],
      "name": "deposit",
      "outputs": [],
      "stateMutability": "nonpayable",
      "type": "function"
    },
    {
      "inputs": [
        {
          "internalType": "uint256",
          "name": "_pid",
          "type": "uint256"
        },
        {
          "internalType": "uint256",
          "name": "_amount",
          "type": "uint256"
        }
      ],
      "name": "withdraw",
      "outputs": [],
      "stateMutability": "nonpayable",
      "type": "function"
    },
    {
      "inputs": [
        {
          "internalType": "uint256",
          "name": "_pid",
          "type": "uint256"
        },
        {
          "internalType": "address",
          "name": "_user",
          "type": "address"
        }
      ],
      "name": "pendingUniCore",
      "outputs": [
        {
          "internalType": "uint256",
          "name": "",
          "type": "uint256"
        }
      ],
      "stateMutability": "view",
      "type": "function"
    },
    {
      "inputs": [],
      "name": "transferTreasuryFees",
      "outputs": [],
      "stateMutability": "nonpayable",
      "type": "function"
    },
    {
      "inputs": [
        {
          "internalType": "address",
          "name": "_address",
          "type": "address"
        }
      ],
      "name": "viewGovernanceLevel",
      "outputs": [
        {
          "internalType": "uint8",
          "name": "",
          "type": "uint8"
        }
      ],
      "stateMutability": "view",
      "type": "function"
    },
    {
      "inputs": [
        {
          "internalType": "uint256",
          "name": "_newFee",
          "type": "uint256"
        }
      ],
      "name": "setTreasuryFee",
      "outputs": [],
      "stateMutability": "nonpayable",
      "type": "function"
    },
    {
      "inputs": [
        {
          "internalType": "address",
          "name": "_new",
          "type": "address"
        }
      ],
      "name": "chgTreasury1",
      "outputs": [],
      "stateMutability": "nonpayable",
      "type": "function"
    },
    {
      "inputs": [
        {
          "internalType": "address",
          "name": "_new",
          "type": "address"
        }
      ],
      "name": "chgTreasury2",
      "outputs": [],
      "stateMutability": "nonpayable",
      "type": "function"
    },
    {
      "inputs": [
        {
          "internalType": "address",
          "name": "_new",
          "type": "address"
        }
      ],
      "name": "chgTreasury3",
      "outputs": [],
      "stateMutability": "nonpayable",
      "type": "function"
    },
    {
      "inputs": [
        {
          "internalType": "address",
          "name": "_token",
          "type": "address"
        }
      ],
      "name": "isNonWithdrawbleByAdmins",
      "outputs": [
        {
          "internalType": "bool",
          "name": "",
          "type": "bool"
        }
      ],
      "stateMutability": "view",
      "type": "function"
    },
    {
      "inputs": [
        {
          "internalType": "address",
          "name": "_recipient",
          "type": "address"
        },
        {
          "internalType": "address",
          "name": "_ERC20address",
          "type": "address"
        },
        {
          "internalType": "uint256",
          "name": "_amount",
          "type": "uint256"
        }
      ],
      "name": "_widthdrawAnyToken",
      "outputs": [
        {
          "internalType": "bool",
          "name": "",
          "type": "bool"
        }
      ],
      "stateMutability": "nonpayable",
      "type": "function"
    }
  ],
  "bytecode": "0x608060405234801561001057600080fd5b506040516137a83803806137a88339818101604052602081101561003357600080fd5b8101908080519060200190929190505050806000806101000a81548173ffffffffffffffffffffffffffffffffffffffff021916908373ffffffffffffffffffffffffffffffffffffffff16021790555073688c3ee6e470b63a4edfc9a798908b473b5caa93600160006101000a81548173ffffffffffffffffffffffffffffffffffffffff021916908373ffffffffffffffffffffffffffffffffffffffff1602179055507358071aeb3e5550a9359efbff98b7ecf59057799d600260006101000a81548173ffffffffffffffffffffffffffffffffffffffff021916908373ffffffffffffffffffffffffffffffffffffffff1602179055507305957f3344255fdc9fe172e30016ee148d684313600360006101000a81548173ffffffffffffffffffffffffffffffffffffffff021916908373ffffffffffffffffffffffffffffffffffffffff1602179055506102bc60048190555043600a8190555050613605806101a36000396000f3fe608060405234801561001057600080fd5b506004361061021c5760003560e01c8063630b5ba111610125578063bb0f03f2116100ad578063de2ccedf1161007c578063de2ccedf146108ed578063e0447f781461090b578063e2bbb15814610955578063eded3fda1461098d578063f87a879b146109ab5761021c565b8063bb0f03f21461080f578063c25cc8af14610853578063c8ffb873146108b1578063cc32d176146108cf5761021c565b80637f0b2ffc116100f45780637f0b2ffc146106ca578063900cf0cf1461070e57806393f1a40b1461072c5780639dbc2d9014610795578063b5760d27146107b35761021c565b8063630b5ba11461062e57806368f7471e1461063857806377e741c7146106425780637abceffd146106705761021c565b80633aab0a62116101a857806349c5468d1161017757806349c5468d146105585780634dc47d34146105765780635207cc0d146105b85780635d577c18146105f2578063608c8d3a146106105761021c565b80633aab0a62146104c85780633e158b0c146104d2578063441a3e70146104dc57806346ca6bea146105145761021c565b80631526fe27116101ef5780631526fe271461032d57806317caf6f1146103b457806319076e20146103d25780631a6af7af146104345780633081d2581461047e5761021c565b806303dec00914610221578063081e3eda1461023f5780630d3e805a1461025d5780631156c724146102a7575b600080fd5b6102296109ef565b6040518082815260200191505060405180910390f35b610247610a1f565b6040518082815260200191505060405180910390f35b610265610a2c565b604051808273ffffffffffffffffffffffffffffffffffffffff1673ffffffffffffffffffffffffffffffffffffffff16815260200191505060405180910390f35b610313600480360360608110156102bd57600080fd5b81019080803573ffffffffffffffffffffffffffffffffffffffff169060200190929190803573ffffffffffffffffffffffffffffffffffffffff16906020019092919080359060200190929190505050610a52565b604051808215151515815260200191505060405180910390f35b6103596004803603602081101561034357600080fd5b8101908080359060200190929190505050610cf2565b604051808573ffffffffffffffffffffffffffffffffffffffff1673ffffffffffffffffffffffffffffffffffffffff1681526020018481526020018381526020018215151515815260200194505050505060405180910390f35b6103bc610d5c565b6040518082815260200191505060405180910390f35b61041e600480360360408110156103e857600080fd5b8101908080359060200190929190803573ffffffffffffffffffffffffffffffffffffffff169060200190929190505050610d62565b6040518082815260200191505060405180910390f35b61043c610e31565b604051808273ffffffffffffffffffffffffffffffffffffffff1673ffffffffffffffffffffffffffffffffffffffff16815260200191505060405180910390f35b610486610e56565b604051808273ffffffffffffffffffffffffffffffffffffffff1673ffffffffffffffffffffffffffffffffffffffff16815260200191505060405180910390f35b6104d0610e7c565b005b6104da610f51565b005b610512600480360360408110156104f257600080fd5b8101908080359060200190929190803590602001909291905050506111bd565b005b6105566004803603606081101561052a57600080fd5b81019080803590602001909291908035906020019092919080351515906020019092919050505061133e565b005b6105606114bd565b6040518082815260200191505060405180910390f35b6105a26004803603602081101561058c57600080fd5b81019080803590602001909291905050506114c3565b6040518082815260200191505060405180910390f35b6105f0600480360360408110156105ce57600080fd5b81019080803590602001909291908035151590602001909291905050506114db565b005b6105fa61159c565b6040518082815260200191505060405180910390f35b6106186115a2565b6040518082815260200191505060405180910390f35b6106366115a8565b005b61064061160a565b005b61066e6004803603602081101561065857600080fd5b8101908080359060200190929190505050611c00565b005b6106c86004803603606081101561068657600080fd5b8101908080359060200190929190803573ffffffffffffffffffffffffffffffffffffffff169060200190929190803515159060200190929190505050611d08565b005b61070c600480360360208110156106e057600080fd5b81019080803573ffffffffffffffffffffffffffffffffffffffff16906020019092919050505061206c565b005b610716612173565b6040518082815260200191505060405180910390f35b6107786004803603604081101561074257600080fd5b8101908080359060200190929190803573ffffffffffffffffffffffffffffffffffffffff169060200190929190505050612179565b604051808381526020018281526020019250505060405180910390f35b61079d6121aa565b6040518082815260200191505060405180910390f35b6107f5600480360360208110156107c957600080fd5b81019080803573ffffffffffffffffffffffffffffffffffffffff1690602001909291905050506121ee565b604051808215151515815260200191505060405180910390f35b6108516004803603602081101561082557600080fd5b81019080803573ffffffffffffffffffffffffffffffffffffffff169060200190929190505050612244565b005b6108956004803603602081101561086957600080fd5b81019080803573ffffffffffffffffffffffffffffffffffffffff16906020019092919050505061234b565b604051808260ff1660ff16815260200191505060405180910390f35b6108b961242d565b6040518082815260200191505060405180910390f35b6108d7612433565b6040518082815260200191505060405180910390f35b6108f5612439565b6040518082815260200191505060405180910390f35b61091361243f565b604051808273ffffffffffffffffffffffffffffffffffffffff1673ffffffffffffffffffffffffffffffffffffffff16815260200191505060405180910390f35b61098b6004803603604081101561096b57600080fd5b810190808035906020019092919080359060200190929190505050612465565b005b610995612801565b6040518082815260200191505060405180910390f35b6109ed600480360360208110156109c157600080fd5b81019080803573ffffffffffffffffffffffffffffffffffffffff169060200190929190505050612807565b005b6000610a1a610a09600b544361290e90919063ffffffff16565b600d5461295890919063ffffffff16565b905090565b6000600780549050905090565b600360009054906101000a900473ffffffffffffffffffffffffffffffffffffffff1681565b600060028060ff16610a633361234b565b60ff161015610ada576040517f08c379a000000000000000000000000000000000000000000000000000000000815260040180806020018281038252601b8152602001807f47726f7720736f6d65206d75737461636865206b6964646f2e2e2e000000000081525060200191505060405180910390fd5b6000809054906101000a900473ffffffffffffffffffffffffffffffffffffffff1673ffffffffffffffffffffffffffffffffffffffff168473ffffffffffffffffffffffffffffffffffffffff161415610b80576040517f08c379a000000000000000000000000000000000000000000000000000000000815260040180806020018281038252602681526020018061357e6026913960400191505060405180910390fd5b601260008573ffffffffffffffffffffffffffffffffffffffff1673ffffffffffffffffffffffffffffffffffffffff16815260200190815260200160002060009054906101000a900460ff1615610c23576040517f08c379a00000000000000000000000000000000000000000000000000000000081526004018080602001828103825260308152602001806135076030913960400191505060405180910390fd5b8373ffffffffffffffffffffffffffffffffffffffff1663a9059cbb86856040518363ffffffff1660e01b8152600401808373ffffffffffffffffffffffffffffffffffffffff1673ffffffffffffffffffffffffffffffffffffffff16815260200182815260200192505050602060405180830381600087803b158015610caa57600080fd5b505af1158015610cbe573d6000803e3d6000fd5b505050506040513d6020811015610cd457600080fd5b81019080805190602001909291905050505060019150509392505050565b60078181548110610cff57fe5b90600052602060002090600502016000915090508060000160009054906101000a900473ffffffffffffffffffffffffffffffffffffffff16908060010154908060020154908060030160009054906101000a900460ff16905084565b60085481565b60008060078481548110610d7257fe5b9060005260206000209060050201905060006006600086815260200190815260200160002060008573ffffffffffffffffffffffffffffffffffffffff1673ffffffffffffffffffffffffffffffffffffffff1681526020019081526020016000209050600082600201549050610e268260010154610e18670de0b6b3a7640000610e0a8587600001546129a290919063ffffffff16565b61295890919063ffffffff16565b61290e90919063ffffffff16565b935050505092915050565b6000809054906101000a900473ffffffffffffffffffffffffffffffffffffffff1681565b600260009054906101000a900473ffffffffffffffffffffffffffffffffffffffff1681565b4361c350600b540110610ef7576040517f08c379a00000000000000000000000000000000000000000000000000000000081526004018080602001828103825260178152602001807f4e65772065706f6368206e6f742072656164792079657400000000000000000081525060200191505060405180910390fd5b600d54600f6000600e54815260200190815260200160002081905550610f2a600d54600c54612a2890919063ffffffff16565b600c819055506000600d8190555043600b81905550600e6000815460010191905081905550565b6000809054906101000a900473ffffffffffffffffffffffffffffffffffffffff1673ffffffffffffffffffffffffffffffffffffffff163373ffffffffffffffffffffffffffffffffffffffff1614610faa57600080fd5b60006110996010546000809054906101000a900473ffffffffffffffffffffffffffffffffffffffff1673ffffffffffffffffffffffffffffffffffffffff166370a08231306040518263ffffffff1660e01b8152600401808273ffffffffffffffffffffffffffffffffffffffff1673ffffffffffffffffffffffffffffffffffffffff16815260200191505060206040518083038186803b15801561105057600080fd5b505afa158015611064573d6000803e3d6000fd5b505050506040513d602081101561107a57600080fd5b810190808051906020019092919050505061290e90919063ffffffff16565b905060008111156111ba576000809054906101000a900473ffffffffffffffffffffffffffffffffffffffff1673ffffffffffffffffffffffffffffffffffffffff166370a08231306040518263ffffffff1660e01b8152600401808273ffffffffffffffffffffffffffffffffffffffff1673ffffffffffffffffffffffffffffffffffffffff16815260200191505060206040518083038186803b15801561114257600080fd5b505afa158015611156573d6000803e3d6000fd5b505050506040513d602081101561116c57600080fd5b810190808051906020019092919050505060108190555061119881600954612a2890919063ffffffff16565b6009819055506111b381600d54612a2890919063ffffffff16565b600d819055505b50565b33601160008273ffffffffffffffffffffffffffffffffffffffff1673ffffffffffffffffffffffffffffffffffffffff168152602001908152602001600020544311611255576040517f08c379a000000000000000000000000000000000000000000000000000000000815260040180806020018281038252602c8152602001806135a4602c913960400191505060405180910390fd5b43601160003373ffffffffffffffffffffffffffffffffffffffff1673ffffffffffffffffffffffffffffffffffffffff168152602001908152602001600020819055506112a583833333612ab0565b6112ad61160a565b6000809054906101000a900473ffffffffffffffffffffffffffffffffffffffff1673ffffffffffffffffffffffffffffffffffffffff16631fca1d65836040518263ffffffff1660e01b815260040180828152602001915050600060405180830381600087803b15801561132157600080fd5b505af1158015611335573d6000803e3d6000fd5b50505050505050565b60028060ff1661134d3361234b565b60ff1610156113c4576040517f08c379a000000000000000000000000000000000000000000000000000000000815260040180806020018281038252601b8152602001807f47726f7720736f6d65206d75737461636865206b6964646f2e2e2e000000000081525060200191505060405180910390fd5b6000831161143a576040517f08c379a000000000000000000000000000000000000000000000000000000000815260040180806020018281038252601d8152602001807f5a65726f20616c6c6f6320706f696e7473206e6f7420616c6c6f77656400000081525060200191505060405180910390fd5b8115611449576114486115a8565b5b61148e836114806007878154811061145d57fe5b90600052602060002090600502016001015460085461290e90919063ffffffff16565b612a2890919063ffffffff16565b60088190555082600785815481106114a257fe5b90600052602060002090600502016001018190555050505050565b600a5481565b600f6020528060005260406000206000915090505481565b60028060ff166114ea3361234b565b60ff161015611561576040517f08c379a000000000000000000000000000000000000000000000000000000000815260040180806020018281038252601b8152602001807f47726f7720736f6d65206d75737461636865206b6964646f2e2e2e000000000081525060200191505060405180910390fd5b816007848154811061156f57fe5b906000526020600020906005020160030160006101000a81548160ff021916908315150217905550505050565b600b5481565b600d5481565b60006007805490509050600080600090505b828110156115ea576115dd6115ce82612d95565b83612a2890919063ffffffff16565b91508060010190506115ba565b506116008160095461290e90919063ffffffff16565b6009819055505050565b6000600554141561161a57611bfe565b60008060009054906101000a900473ffffffffffffffffffffffffffffffffffffffff1673ffffffffffffffffffffffffffffffffffffffff166370a08231306040518263ffffffff1660e01b8152600401808273ffffffffffffffffffffffffffffffffffffffff1673ffffffffffffffffffffffffffffffffffffffff16815260200191505060206040518083038186803b1580156116ba57600080fd5b505afa1580156116ce573d6000803e3d6000fd5b505050506040513d60208110156116e457600080fd5b810190808051906020019092919050505090506000611722606461171460136005546129a290919063ffffffff16565b61295890919063ffffffff16565b9050600061174f606461174160136005546129a290919063ffffffff16565b61295890919063ffffffff16565b9050600061177a8261176c8560055461290e90919063ffffffff16565b61290e90919063ffffffff16565b9050836005541115611800576117ad606461179f6013876129a290919063ffffffff16565b61295890919063ffffffff16565b92506117d660646117c86013876129a290919063ffffffff16565b61295890919063ffffffff16565b91506117fd826117ef858761290e90919063ffffffff16565b61290e90919063ffffffff16565b90505b6000809054906101000a900473ffffffffffffffffffffffffffffffffffffffff1673ffffffffffffffffffffffffffffffffffffffff1663a9059cbb600360009054906101000a900473ffffffffffffffffffffffffffffffffffffffff16856040518363ffffffff1660e01b8152600401808373ffffffffffffffffffffffffffffffffffffffff1673ffffffffffffffffffffffffffffffffffffffff16815260200182815260200192505050602060405180830381600087803b1580156118ca57600080fd5b505af11580156118de573d6000803e3d6000fd5b505050506040513d60208110156118f457600080fd5b8101908080519060200190929190505050506000809054906101000a900473ffffffffffffffffffffffffffffffffffffffff1673ffffffffffffffffffffffffffffffffffffffff1663a9059cbb600260009054906101000a900473ffffffffffffffffffffffffffffffffffffffff16846040518363ffffffff1660e01b8152600401808373ffffffffffffffffffffffffffffffffffffffff1673ffffffffffffffffffffffffffffffffffffffff16815260200182815260200192505050602060405180830381600087803b1580156119d057600080fd5b505af11580156119e4573d6000803e3d6000fd5b505050506040513d60208110156119fa57600080fd5b8101908080519060200190929190505050506000809054906101000a900473ffffffffffffffffffffffffffffffffffffffff1673ffffffffffffffffffffffffffffffffffffffff1663a9059cbb600160009054906101000a900473ffffffffffffffffffffffffffffffffffffffff16836040518363ffffffff1660e01b8152600401808373ffffffffffffffffffffffffffffffffffffffff1673ffffffffffffffffffffffffffffffffffffffff16815260200182815260200192505050602060405180830381600087803b158015611ad657600080fd5b505af1158015611aea573d6000803e3d6000fd5b505050506040513d6020811015611b0057600080fd5b8101908080519060200190929190505050506000809054906101000a900473ffffffffffffffffffffffffffffffffffffffff1673ffffffffffffffffffffffffffffffffffffffff166370a08231306040518263ffffffff1660e01b8152600401808273ffffffffffffffffffffffffffffffffffffffff1673ffffffffffffffffffffffffffffffffffffffff16815260200191505060206040518083038186803b158015611bb057600080fd5b505afa158015611bc4573d6000803e3d6000fd5b505050506040513d6020811015611bda57600080fd5b81019080805190602001909291905050506010819055506000600581905550505050505b565b60028060ff16611c0f3361234b565b60ff161015611c86576040517f08c379a000000000000000000000000000000000000000000000000000000000815260040180806020018281038252601b8152602001807f47726f7720736f6d65206d75737461636865206b6964646f2e2e2e000000000081525060200191505060405180910390fd5b6096821115611cfd576040517f08c379a00000000000000000000000000000000000000000000000000000000081526004018080602001828103825260198152602001807f747265617375727946656520636170706564206174203135250000000000000081525060200191505060405180910390fd5b816004819055505050565b60028060ff16611d173361234b565b60ff161015611d8e576040517f08c379a000000000000000000000000000000000000000000000000000000000815260040180806020018281038252601b8152602001807f47726f7720736f6d65206d75737461636865206b6964646f2e2e2e000000000081525060200191505060405180910390fd5b60008411611e04576040517f08c379a000000000000000000000000000000000000000000000000000000000815260040180806020018281038252601d8152602001807f5a65726f20616c6c6f6320706f696e7473206e6f7420616c6c6f77656400000081525060200191505060405180910390fd5b6001601260008573ffffffffffffffffffffffffffffffffffffffff1673ffffffffffffffffffffffffffffffffffffffff16815260200190815260200160002060006101000a81548160ff021916908315150217905550611e646115a8565b6000600780549050905060008090505b81811015611f67578473ffffffffffffffffffffffffffffffffffffffff1660078281548110611ea057fe5b906000526020600020906005020160000160009054906101000a900473ffffffffffffffffffffffffffffffffffffffff1673ffffffffffffffffffffffffffffffffffffffff161415611f5c576040517f08c379a00000000000000000000000000000000000000000000000000000000081526004018080602001828103825260188152602001807f4572726f7220706f6f6c20616c7265616479206164646564000000000000000081525060200191505060405180910390fd5b806001019050611e74565b50611f7d85600854612a2890919063ffffffff16565b600881905550600760405180608001604052808673ffffffffffffffffffffffffffffffffffffffff16815260200187815260200160008152602001851515815250908060018154018082558091505060019003906000526020600020906005020160009091909190915060008201518160000160006101000a81548173ffffffffffffffffffffffffffffffffffffffff021916908373ffffffffffffffffffffffffffffffffffffffff160217905550602082015181600101556040820151816002015560608201518160030160006101000a81548160ff02191690831515021790555050505050505050565b600360009054906101000a900473ffffffffffffffffffffffffffffffffffffffff1673ffffffffffffffffffffffffffffffffffffffff163373ffffffffffffffffffffffffffffffffffffffff161461212f576040517f08c379a00000000000000000000000000000000000000000000000000000000081526004018080602001828103825260148152602001807f547265617375727920686f6c646572206f6e6c7900000000000000000000000081525060200191505060405180910390fd5b80600360006101000a81548173ffffffffffffffffffffffffffffffffffffffff021916908373ffffffffffffffffffffffffffffffffffffffff16021790555050565b600e5481565b6006602052816000526040600020602052806000526040600020600091509150508060000154908060010154905082565b60006121e96121c4600a544361290e90919063ffffffff16565b6121db600d54600c54612a2890919063ffffffff16565b61295890919063ffffffff16565b905090565b6000601260008373ffffffffffffffffffffffffffffffffffffffff1673ffffffffffffffffffffffffffffffffffffffff16815260200190815260200160002060009054906101000a900460ff169050919050565b600160009054906101000a900473ffffffffffffffffffffffffffffffffffffffff1673ffffffffffffffffffffffffffffffffffffffff163373ffffffffffffffffffffffffffffffffffffffff1614612307576040517f08c379a00000000000000000000000000000000000000000000000000000000081526004018080602001828103825260148152602001807f547265617375727920686f6c646572206f6e6c7900000000000000000000000081525060200191505060405180910390fd5b80600160006101000a81548173ffffffffffffffffffffffffffffffffffffffff021916908373ffffffffffffffffffffffffffffffffffffffff16021790555050565b60008060009054906101000a900473ffffffffffffffffffffffffffffffffffffffff1673ffffffffffffffffffffffffffffffffffffffff1663c25cc8af836040518263ffffffff1660e01b8152600401808273ffffffffffffffffffffffffffffffffffffffff1673ffffffffffffffffffffffffffffffffffffffff16815260200191505060206040518083038186803b1580156123eb57600080fd5b505afa1580156123ff573d6000803e3d6000fd5b505050506040513d602081101561241557600080fd5b81019080805190602001909291905050509050919050565b600c5481565b60045481565b60055481565b600160009054906101000a900473ffffffffffffffffffffffffffffffffffffffff1681565b33601160008273ffffffffffffffffffffffffffffffffffffffff1673ffffffffffffffffffffffffffffffffffffffff1681526020019081526020016000205443116124fd576040517f08c379a000000000000000000000000000000000000000000000000000000000815260040180806020018281038252602c8152602001806135a4602c913960400191505060405180910390fd5b43601160003373ffffffffffffffffffffffffffffffffffffffff1673ffffffffffffffffffffffffffffffffffffffff16815260200190815260200160002081905550600082116125b7576040517f08c379a000000000000000000000000000000000000000000000000000000000815260040180806020018281038252601a8152602001807f63616e6e6f74206465706f736974207a65726f20746f6b656e7300000000000081525060200191505060405180910390fd5b6000600784815481106125c657fe5b9060005260206000209060050201905060006006600086815260200190815260200160002060003373ffffffffffffffffffffffffffffffffffffffff1673ffffffffffffffffffffffffffffffffffffffff16815260200190815260200160002090506126348533612f8c565b8160000160009054906101000a900473ffffffffffffffffffffffffffffffffffffffff1673ffffffffffffffffffffffffffffffffffffffff166323b872dd3330876040518463ffffffff1660e01b8152600401808473ffffffffffffffffffffffffffffffffffffffff1673ffffffffffffffffffffffffffffffffffffffff1681526020018373ffffffffffffffffffffffffffffffffffffffff1673ffffffffffffffffffffffffffffffffffffffff1681526020018281526020019350505050602060405180830381600087803b15801561271357600080fd5b505af1158015612727573d6000803e3d6000fd5b505050506040513d602081101561273d57600080fd5b810190808051906020019092919050505050612766848260000154612a2890919063ffffffff16565b81600001819055506127a3670de0b6b3a7640000612795846002015484600001546129a290919063ffffffff16565b61295890919063ffffffff16565b8160010181905550843373ffffffffffffffffffffffffffffffffffffffff167f90890809c654f11d6e72a28fa60149770a0d11ec6c92319d6ceb2bb0a4ea1a15866040518082815260200191505060405180910390a35050505050565b60095481565b600260009054906101000a900473ffffffffffffffffffffffffffffffffffffffff1673ffffffffffffffffffffffffffffffffffffffff163373ffffffffffffffffffffffffffffffffffffffff16146128ca576040517f08c379a00000000000000000000000000000000000000000000000000000000081526004018080602001828103825260148152602001807f547265617375727920686f6c646572206f6e6c7900000000000000000000000081525060200191505060405180910390fd5b80600260006101000a81548173ffffffffffffffffffffffffffffffffffffffff021916908373ffffffffffffffffffffffffffffffffffffffff16021790555050565b600061295083836040518060400160405280601e81526020017f536166654d6174683a207375627472616374696f6e206f766572666c6f770000815250612fb1565b905092915050565b600061299a83836040518060400160405280601a81526020017f536166654d6174683a206469766973696f6e206279207a65726f000000000000815250613071565b905092915050565b6000808314156129b55760009050612a22565b60008284029050828482816129c657fe5b0414612a1d576040517f08c379a00000000000000000000000000000000000000000000000000000000081526004018080602001828103825260218152602001806135376021913960400191505060405180910390fd5b809150505b92915050565b600080828401905083811015612aa6576040517f08c379a000000000000000000000000000000000000000000000000000000000815260040180806020018281038252601b8152602001807f536166654d6174683a206164646974696f6e206f766572666c6f77000000000081525060200191505060405180910390fd5b8091505092915050565b600060078581548110612abf57fe5b906000526020600020906005020190508060030160009054906101000a900460ff16612b36576040517f08c379a00000000000000000000000000000000000000000000000000000000081526004018080602001828103825260268152602001806135586026913960400191505060405180910390fd5b60006006600087815260200190815260200160002060008573ffffffffffffffffffffffffffffffffffffffff1673ffffffffffffffffffffffffffffffffffffffff16815260200190815260200160002090508481600001541015612be7576040517f08c379a00000000000000000000000000000000000000000000000000000000081526004018080602001828103825260228152602001806134e56022913960400191505060405180910390fd5b612bf18685612f8c565b6000851115612d0157612c1185826000015461290e90919063ffffffff16565b81600001819055508160000160009054906101000a900473ffffffffffffffffffffffffffffffffffffffff1673ffffffffffffffffffffffffffffffffffffffff1663a9059cbb84876040518363ffffffff1660e01b8152600401808373ffffffffffffffffffffffffffffffffffffffff1673ffffffffffffffffffffffffffffffffffffffff16815260200182815260200192505050602060405180830381600087803b158015612cc457600080fd5b505af1158015612cd8573d6000803e3d6000fd5b505050506040513d6020811015612cee57600080fd5b8101908080519060200190929190505050505b612d36670de0b6b3a7640000612d28846002015484600001546129a290919063ffffffff16565b61295890919063ffffffff16565b8160010181905550858373ffffffffffffffffffffffffffffffffffffffff167ff279e6a1f5e320cca91135676d9cb6e44ca8a08c0b88342bcdb1144f6511b568876040518082815260200191505060405180910390a3505050505050565b60008060078381548110612da557fe5b9060005260206000209060050201905060008160000160009054906101000a900473ffffffffffffffffffffffffffffffffffffffff1673ffffffffffffffffffffffffffffffffffffffff166370a08231306040518263ffffffff1660e01b8152600401808273ffffffffffffffffffffffffffffffffffffffff1673ffffffffffffffffffffffffffffffffffffffff16815260200191505060206040518083038186803b158015612e5857600080fd5b505afa158015612e6c573d6000803e3d6000fd5b505050506040513d6020811015612e8257600080fd5b810190808051906020019092919050505090506000811415612ea957600092505050612f87565b612ed6600854612ec884600101546009546129a290919063ffffffff16565b61295890919063ffffffff16565b92506000612f03612710612ef5600454876129a290919063ffffffff16565b61295890919063ffffffff16565b90506000612f1a828661290e90919063ffffffff16565b9050612f3182600554612a2890919063ffffffff16565b600581905550612f7a612f6784612f59670de0b6b3a7640000856129a290919063ffffffff16565b61295890919063ffffffff16565b8560020154612a2890919063ffffffff16565b8460020181905550505050505b919050565b612f946115a8565b6000612fa08383610d62565b9050612fac8282613137565b505050565b600083831115829061305e576040517f08c379a00000000000000000000000000000000000000000000000000000000081526004018080602001828103825283818151815260200191508051906020019080838360005b83811015613023578082015181840152602081019050613008565b50505050905090810190601f1680156130505780820380516001836020036101000a031916815260200191505b509250505060405180910390fd5b5060008385039050809150509392505050565b6000808311829061311d576040517f08c379a00000000000000000000000000000000000000000000000000000000081526004018080602001828103825283818151815260200191508051906020019080838360005b838110156130e25780820151818401526020810190506130c7565b50505050905090810190601f16801561310f5780820380516001836020036101000a031916815260200191505b509250505060405180910390fd5b50600083858161312957fe5b049050809150509392505050565b6000811415613145576134e0565b60008060009054906101000a900473ffffffffffffffffffffffffffffffffffffffff1673ffffffffffffffffffffffffffffffffffffffff166370a08231306040518263ffffffff1660e01b8152600401808273ffffffffffffffffffffffffffffffffffffffff1673ffffffffffffffffffffffffffffffffffffffff16815260200191505060206040518083038186803b1580156131e557600080fd5b505afa1580156131f9573d6000803e3d6000fd5b505050506040513d602081101561320f57600080fd5b81019080805190602001909291905050509050808210613312576000809054906101000a900473ffffffffffffffffffffffffffffffffffffffff1673ffffffffffffffffffffffffffffffffffffffff1663a9059cbb84836040518363ffffffff1660e01b8152600401808373ffffffffffffffffffffffffffffffffffffffff1673ffffffffffffffffffffffffffffffffffffffff16815260200182815260200192505050602060405180830381600087803b1580156132d157600080fd5b505af11580156132e5573d6000803e3d6000fd5b505050506040513d60208110156132fb57600080fd5b8101908080519060200190929190505050506133f7565b6000809054906101000a900473ffffffffffffffffffffffffffffffffffffffff1673ffffffffffffffffffffffffffffffffffffffff1663a9059cbb84846040518363ffffffff1660e01b8152600401808373ffffffffffffffffffffffffffffffffffffffff1673ffffffffffffffffffffffffffffffffffffffff16815260200182815260200192505050602060405180830381600087803b1580156133ba57600080fd5b505af11580156133ce573d6000803e3d6000fd5b505050506040513d60208110156133e457600080fd5b8101908080519060200190929190505050505b6133ff61160a565b6000809054906101000a900473ffffffffffffffffffffffffffffffffffffffff1673ffffffffffffffffffffffffffffffffffffffff166370a08231306040518263ffffffff1660e01b8152600401808273ffffffffffffffffffffffffffffffffffffffff1673ffffffffffffffffffffffffffffffffffffffff16815260200191505060206040518083038186803b15801561349d57600080fd5b505afa1580156134b1573d6000803e3d6000fd5b505050506040513d60208110156134c757600080fd5b8101908080519060200190929190505050601081905550505b505056fe77697468647261773a207573657220616d6f756e7420696e73756666696369656e747468697320746f6b656e20697320696e746f206120706f6f6c20616e2063616e6e6f742077652077697468647261776e536166654d6174683a206d756c7469706c69636174696f6e206f766572666c6f775769746864726177696e672066726f6d207468697320706f6f6c2069732064697361626c656443616e6e6f7420776974686472617720556e69636f72652066726f6d2074686520706f6f6c7357616974203120626c6f636b206265747765656e2065616368206465706f7369742f7769746864726177616ca264697066735822122054e5a56428d9380fb8d52398f08ba3b6222a201843db08fb3f6f6a61569756f764736f6c63430006060033",
  "immutableReferences": {},
  "source": "// SPDX-License-Identifier: WHO GIVES A FUCK ANYWAY??\r\n// but thanks a million Gwei to MIT and Zeppelin. You guys rock!!!\r\n\r\n// MAINNET VERSION.\r\n\r\npragma solidity ^0.6.6;\r\n\r\nimport \"./UniCore_Libraries.sol\";\r\nimport \"./UniCore_Interfaces.sol\";\r\n\r\n\r\n// Vault distributes fees equally amongst staked pools\r\n\r\ncontract UniCore_Vault {\r\n    using SafeMath for uint256;\r\n\r\n\r\n    address public UniCore; //token address\r\n    \r\n    address public Treasury1;\r\n    address public Treasury2;\r\n    address public Treasury3;\r\n    uint256 public treasuryFee;\r\n    uint256 public pendingTreasuryRewards;\r\n    \r\n\r\n//USERS METRICS\r\n    struct UserInfo {\r\n        uint256 amount; // How many tokens the user has provided.\r\n        uint256 rewardPaid; // Already Paid. See explanation below.\r\n        //  pending reward = (user.amount * pool.UniCorePerShare) - user.rewardPaid\r\n    }\r\n    mapping(uint256 => mapping(address => UserInfo)) public userInfo;\r\n    \r\n//POOL METRICS\r\n    struct PoolInfo {\r\n        address stakedToken;                // Address of staked token contract.\r\n        uint256 allocPoint;           // How many allocation points assigned to this pool. UniCores to distribute per block. (ETH = 2.3M blocks per year)\r\n        uint256 accUniCorePerShare;   // Accumulated UniCores per share, times 1e18. See below.\r\n        bool withdrawable;            // Is this pool withdrawable or not\r\n        \r\n        mapping(address => mapping(address => uint256)) allowance;\r\n    }\r\n    PoolInfo[] public poolInfo;\r\n\r\n    uint256 public totalAllocPoint;     // Total allocation points. Must be the sum of all allocation points in all pools.\r\n    uint256 public pendingRewards;      // pending rewards awaiting anyone to massUpdate\r\n    uint256 public contractStartBlock;\r\n    uint256 public epochCalculationStartBlock;\r\n    uint256 public cumulativeRewardsSinceStart;\r\n    uint256 public rewardsInThisEpoch;\r\n    uint public epoch;\r\n\r\n//EVENTS\r\n    event Deposit(address indexed user, uint256 indexed pid, uint256 amount);\r\n    event Withdraw(address indexed user, uint256 indexed pid, uint256 amount);\r\n    event EmergencyWithdraw(address indexed user, uint256 indexed pid, uint256 amount);\r\n    event Approval(address indexed owner, address indexed spender, uint256 _pid, uint256 value);\r\n\r\n    \r\n//INITIALIZE \r\n    constructor(address _UniCore) public {\r\n\r\n        UniCore = _UniCore;\r\n        \r\n        Treasury1 = address(0x688C3eE6E470b63a4Edfc9A798908b473B5CaA93); // UniCore Central\r\n        Treasury2 = address(0x58071aeb3e5550A9359efBff98b7eCF59057799d); //stpd \r\n        Treasury3 = address(0x05957F3344255fDC9fE172E30016ee148D684313); //QS \r\n        \r\n        treasuryFee = 700; //7%\r\n        \r\n        contractStartBlock = block.number;\r\n    }\r\n    \r\n//==================================================================================================================================\r\n//POOL\r\n    \r\n //view stuff\r\n \r\n    function poolLength() external view returns (uint256) {\r\n        return poolInfo.length; //number of pools (per pid)\r\n    }\r\n    \r\n    // Returns fees generated since start of this contract\r\n    function averageFeesPerBlockSinceStart() external view returns (uint averagePerBlock) {\r\n        averagePerBlock = cumulativeRewardsSinceStart.add(rewardsInThisEpoch).div(block.number.sub(contractStartBlock));\r\n    }\r\n\r\n    // Returns averge fees in this epoch\r\n    function averageFeesPerBlockEpoch() external view returns (uint256 averagePerBlock) {\r\n        averagePerBlock = rewardsInThisEpoch.div(block.number.sub(epochCalculationStartBlock));\r\n    }\r\n\r\n    // For easy graphing historical epoch rewards\r\n    mapping(uint => uint256) public epochRewards;\r\n\r\n //set stuff (govenrors)\r\n\r\n    // Add a new token pool. Can only be called by governors.\r\n    function addPool( uint256 _allocPoint, address _stakedToken, bool _withdrawable) public governanceLevel(2) {\r\n        require(_allocPoint > 0, \"Zero alloc points not allowed\");\r\n        nonWithdrawableByAdmin[_stakedToken] = true; // stakedToken is now non-widthrawable by the admins.\r\n        \r\n        /* @dev Addressing potential issues with zombie pools.\r\n        *  https://medium.com/@DraculaProtocol/sushiswap-smart-contract-bug-and-quality-of-audits-in-community-f50ee0545bc6\r\n        *  Thank you @DraculaProtocol for this interesting post.\r\n        */\r\n        massUpdatePools();\r\n\r\n        uint256 length = poolInfo.length;\r\n        for (uint256 pid = 0; pid < length; ++pid) {\r\n            require(poolInfo[pid].stakedToken != _stakedToken,\"Error pool already added\");\r\n        }\r\n\r\n        totalAllocPoint = totalAllocPoint.add(_allocPoint); //pre-allocation\r\n\r\n        poolInfo.push(\r\n            PoolInfo({\r\n                stakedToken: _stakedToken,\r\n                allocPoint: _allocPoint,\r\n                accUniCorePerShare: 0,\r\n                withdrawable : _withdrawable\r\n            })\r\n        );\r\n    }\r\n\r\n    // Updates the given pool's  allocation points. Can only be called with right governance levels.\r\n    function setPool(uint256 _pid, uint256 _allocPoint, bool _withUpdate) public governanceLevel(2) {\r\n        require(_allocPoint > 0, \"Zero alloc points not allowed\");\r\n        if (_withUpdate) {massUpdatePools();}\r\n\r\n        totalAllocPoint = totalAllocPoint.sub(poolInfo[_pid].allocPoint).add(_allocPoint);\r\n        poolInfo[_pid].allocPoint = _allocPoint;\r\n    }\r\n\r\n    // Update the given pool's ability to withdraw tokens\r\n    function setPoolWithdrawable(uint256 _pid, bool _withdrawable) public governanceLevel(2) {\r\n        poolInfo[_pid].withdrawable = _withdrawable;\r\n    }\r\n    \r\n //set stuff (anybody)\r\n  \r\n    //Starts a new calculation epoch; Because average since start will not be accurate\r\n    function startNewEpoch() public {\r\n        require(epochCalculationStartBlock + 50000 < block.number, \"New epoch not ready yet\"); // 50k blocks = About a week\r\n        epochRewards[epoch] = rewardsInThisEpoch;\r\n        cumulativeRewardsSinceStart = cumulativeRewardsSinceStart.add(rewardsInThisEpoch);\r\n        rewardsInThisEpoch = 0;\r\n        epochCalculationStartBlock = block.number;\r\n        ++epoch;\r\n    }\r\n    \r\n    // Updates the reward variables of the given pool\r\n    function updatePool(uint256 _pid) internal returns (uint256 UniCoreRewardWhole) {\r\n        PoolInfo storage pool = poolInfo[_pid];\r\n\r\n        uint256 tokenSupply = IERC20(pool.stakedToken).balanceOf(address(this));\r\n        if (tokenSupply == 0) { // avoids division by 0 errors\r\n            return 0;\r\n        }\r\n        UniCoreRewardWhole = pendingRewards     // Multiplies pending rewards by allocation point of this pool and then total allocation\r\n            .mul(pool.allocPoint)               // getting the percent of total pending rewards this pool should get\r\n            .div(totalAllocPoint);              // we can do this because pools are only mass updated\r\n        \r\n        uint256 UniCoreRewardFee = UniCoreRewardWhole.mul(treasuryFee).div(10000);\r\n        uint256 UniCoreRewardToDistribute = UniCoreRewardWhole.sub(UniCoreRewardFee);\r\n\r\n        pendingTreasuryRewards = pendingTreasuryRewards.add(UniCoreRewardFee);\r\n\r\n        pool.accUniCorePerShare = pool.accUniCorePerShare.add(UniCoreRewardToDistribute.mul(1e18).div(tokenSupply));\r\n    }\r\n    function massUpdatePools() public {\r\n        uint256 length = poolInfo.length; \r\n        uint allRewards;\r\n        \r\n        for (uint256 pid = 0; pid < length; ++pid) {\r\n            allRewards = allRewards.add(updatePool(pid)); //calls updatePool(pid)\r\n        }\r\n        pendingRewards = pendingRewards.sub(allRewards);\r\n    }\r\n    \r\n    //payout of UniCore Rewards, uses SafeUnicoreTransfer\r\n    function updateAndPayOutPending(uint256 _pid, address user) internal {\r\n        \r\n        massUpdatePools();\r\n\r\n        uint256 pending = pendingUniCore(_pid, user);\r\n\r\n        safeUniCoreTransfer(user, pending);\r\n    }\r\n    \r\n    \r\n    // Safe UniCore transfer function, Manages rounding errors.\r\n    function safeUniCoreTransfer(address _to, uint256 _amount) internal {\r\n        if(_amount == 0) return;\r\n\r\n        uint256 UniCoreBal = IERC20(UniCore).balanceOf(address(this));\r\n        if (_amount >= UniCoreBal) { IERC20(UniCore).transfer(_to, UniCoreBal);} \r\n        else { IERC20(UniCore).transfer(_to, _amount);}\r\n\r\n        transferTreasuryFees(); //adds unecessary gas for users, team can trigger the function manually\r\n        UniCoreBalance = IERC20(UniCore).balanceOf(address(this));\r\n    }\r\n\r\n//external call from token when rewards are loaded\r\n\r\n    /* @dev called by the token after each fee transfer to the vault.\r\n    *       updates the pendingRewards and the rewardsInThisEpoch variables\r\n    */      \r\n    modifier onlyUniCore() {\r\n        require(msg.sender == UniCore);\r\n        _;\r\n    }\r\n    \r\n    uint256 private UniCoreBalance;\r\n    function updateRewards() external onlyUniCore {  //function addPendingRewards(uint256 _) for CORE\r\n        uint256 newRewards = IERC20(UniCore).balanceOf(address(this)).sub(UniCoreBalance); //delta vs previous balanceOf\r\n\r\n        if(newRewards > 0) {\r\n            UniCoreBalance =  IERC20(UniCore).balanceOf(address(this)); //balance snapshot\r\n            pendingRewards = pendingRewards.add(newRewards);\r\n            rewardsInThisEpoch = rewardsInThisEpoch.add(newRewards);\r\n        }\r\n    }\r\n\r\n//==================================================================================================================================\r\n//USERS\r\n\r\n    \r\n    /* protects from a potential reentrancy in Deposits and Withdraws \r\n     * users can only make 1 deposit or 1 wd per block\r\n     */\r\n     \r\n    mapping(address => uint256) private lastTXBlock;\r\n    modifier NoReentrant(address _address) {\r\n        require(block.number > lastTXBlock[_address], \"Wait 1 block between each deposit/withdrawal\");\r\n        _;\r\n    }\r\n    \r\n    // Deposit tokens to Vault to get allocation rewards\r\n    function deposit(uint256 _pid, uint256 _amount) external NoReentrant(msg.sender) {\r\n        lastTXBlock[msg.sender] = block.number;\r\n        \r\n        require(_amount > 0, \"cannot deposit zero tokens\");\r\n        \r\n        PoolInfo storage pool = poolInfo[_pid];\r\n        UserInfo storage user = userInfo[_pid][msg.sender];\r\n\r\n        updateAndPayOutPending(_pid, msg.sender); //Transfer pending tokens, updates the pools \r\n\r\n        //Transfer the amounts from user\r\n        IERC20(pool.stakedToken).transferFrom(msg.sender, address(this), _amount);\r\n        user.amount = user.amount.add(_amount);\r\n\r\n        //Finalize\r\n        user.rewardPaid = user.amount.mul(pool.accUniCorePerShare).div(1e18);\r\n        \r\n        emit Deposit(msg.sender, _pid, _amount);\r\n    }\r\n\r\n    // Withdraw tokens from Vault.\r\n    function withdraw(uint256 _pid, uint256 _amount) external NoReentrant(msg.sender) {\r\n        lastTXBlock[msg.sender] = block.number;\r\n        _withdraw(_pid, _amount, msg.sender, msg.sender);\r\n        transferTreasuryFees(); //incurs a gas penalty -> treasury fees transfer\r\n        IUniCore(UniCore).burnFromUni(_amount); //performs the burn on UniSwap pool\r\n    }\r\n    function _withdraw(uint256 _pid, uint256 _amount, address from, address to) internal {\r\n\r\n        PoolInfo storage pool = poolInfo[_pid];\r\n        require(pool.withdrawable, \"Withdrawing from this pool is disabled\");\r\n        \r\n        UserInfo storage user = userInfo[_pid][from];\r\n        require(user.amount >= _amount, \"withdraw: user amount insufficient\");\r\n\r\n        updateAndPayOutPending(_pid, from); // //Transfer pending tokens, massupdates the pools \r\n\r\n        if(_amount > 0) {\r\n            user.amount = user.amount.sub(_amount);\r\n            IERC20(pool.stakedToken).transfer(address(to), _amount);\r\n        }\r\n        user.rewardPaid = user.amount.mul(pool.accUniCorePerShare).div(1e18);\r\n\r\n        emit Withdraw(to, _pid, _amount);\r\n    }\r\n\r\n    // Getter function to see pending UniCore rewards per user.\r\n    function pendingUniCore(uint256 _pid, address _user) public view returns (uint256) {\r\n        PoolInfo storage pool = poolInfo[_pid];\r\n        UserInfo storage user = userInfo[_pid][_user];\r\n        uint256 accUniCorePerShare = pool.accUniCorePerShare;\r\n\r\n        return user.amount.mul(accUniCorePerShare).div(1e18).sub(user.rewardPaid);\r\n    }\r\n\r\n//==================================================================================================================================\r\n//TREASURY \r\n\r\n    function transferTreasuryFees() public {\r\n        if(pendingTreasuryRewards == 0) return;\r\n\r\n        uint256 UniCorebal = IERC20(UniCore).balanceOf(address(this));\r\n        \r\n        //splitRewards\r\n        uint256 rewards3 = pendingTreasuryRewards.mul(19).div(100); //stpd\r\n        uint256 rewards2 = pendingTreasuryRewards.mul(19).div(100); //qtsr\r\n        uint256 rewards1 = pendingTreasuryRewards.sub(rewards3).sub(rewards2); //team -> could\r\n        \r\n        \r\n        //manages overflows or bad math\r\n        if (pendingTreasuryRewards > UniCorebal) {\r\n            rewards3 = UniCorebal.mul(19).div(100); //stpd\r\n            rewards2 = UniCorebal.mul(19).div(100); //qtsr\r\n            rewards1 = UniCorebal.sub(rewards3).sub(rewards2); //team\r\n        } \r\n\r\n            IERC20(UniCore).transfer(Treasury3, rewards3);\r\n            IERC20(UniCore).transfer(Treasury2, rewards2);\r\n            IERC20(UniCore).transfer(Treasury1, rewards1);\r\n\r\n            UniCoreBalance = IERC20(UniCore).balanceOf(address(this));\r\n        \r\n            pendingTreasuryRewards = 0;\r\n    }\r\n\r\n\r\n//==================================================================================================================================\r\n//GOVERNANCE & UTILS\r\n\r\n//Governance inherited from governance levels of UniCoreVaultAddress\r\n    function viewGovernanceLevel(address _address) public view returns(uint8) {\r\n        return IUniCore(UniCore).viewGovernanceLevel(_address);\r\n    }\r\n    \r\n    modifier governanceLevel(uint8 _level){\r\n        require(viewGovernanceLevel(msg.sender) >= _level, \"Grow some mustache kiddo...\");\r\n        _;\r\n    }\r\n    \r\n    function setTreasuryFee(uint256 _newFee) public governanceLevel(2) {\r\n        require(_newFee <= 150, \"treasuryFee capped at 15%\");\r\n        treasuryFee = _newFee;\r\n    }\r\n    \r\n    function chgTreasury1(address _new) public {\r\n        require(msg.sender == Treasury1, \"Treasury holder only\");\r\n        Treasury1 = _new;\r\n    }\r\n    function chgTreasury2(address _new) public {\r\n        require(msg.sender == Treasury2, \"Treasury holder only\");\r\n        Treasury2 = _new;\r\n    }\r\n    function chgTreasury3(address _new) public {\r\n        require(msg.sender == Treasury3, \"Treasury holder only\");\r\n        Treasury3 = _new;\r\n    }\r\n\r\n// utils    \r\n    mapping(address => bool) nonWithdrawableByAdmin;\r\n    function isNonWithdrawbleByAdmins(address _token) public view returns(bool) {\r\n        return nonWithdrawableByAdmin[_token];\r\n    }\r\n    function _widthdrawAnyToken(address _recipient, address _ERC20address, uint256 _amount) public governanceLevel(2) returns(bool) {\r\n        require(_ERC20address != UniCore, \"Cannot withdraw Unicore from the pools\");\r\n        require(!nonWithdrawableByAdmin[_ERC20address], \"this token is into a pool an cannot we withdrawn\");\r\n        IERC20(_ERC20address).transfer(_recipient, _amount); //use of the _ERC20 traditional transfer\r\n        return true;\r\n    } //get tokens sent by error, excelt UniCore and those used for Staking.\r\n    \r\n    \r\n}\r\n",
  "sourcePath": "/Users/noahcoomer/source/unicore-vault/unicore-vault-contracts/contracts/UniCore_Vault.sol",
  "compiler": {
    "name": "solc",
    "version": "0.6.6+commit.6c089d02.Emscripten.clang"
  },
  "schemaVersion": "3.3.0",
  "updatedAt": "2020-10-18T19:26:20.801Z",
  "devdoc": {
    "methods": {}
  },
  "userdoc": {
    "methods": {}
  }
}