{
  "contractName": "UniCore_Vault",
  "abi": [
    {
      "inputs": [
        {
          "internalType": "address",
          "name": "_UniCore",
          "type": "address"
        }
      ],
      "stateMutability": "nonpayable",
      "type": "constructor"
    },
    {
      "anonymous": false,
      "inputs": [
        {
          "indexed": true,
          "internalType": "address",
          "name": "owner",
          "type": "address"
        },
        {
          "indexed": true,
          "internalType": "address",
          "name": "spender",
          "type": "address"
        },
        {
          "indexed": false,
          "internalType": "uint256",
          "name": "_pid",
          "type": "uint256"
        },
        {
          "indexed": false,
          "internalType": "uint256",
          "name": "value",
          "type": "uint256"
        }
      ],
      "name": "Approval",
      "type": "event"
    },
    {
      "anonymous": false,
      "inputs": [
        {
          "indexed": true,
          "internalType": "address",
          "name": "user",
          "type": "address"
        },
        {
          "indexed": true,
          "internalType": "uint256",
          "name": "pid",
          "type": "uint256"
        },
        {
          "indexed": false,
          "internalType": "uint256",
          "name": "amount",
          "type": "uint256"
        }
      ],
      "name": "Deposit",
      "type": "event"
    },
    {
      "anonymous": false,
      "inputs": [
        {
          "indexed": true,
          "internalType": "address",
          "name": "user",
          "type": "address"
        },
        {
          "indexed": true,
          "internalType": "uint256",
          "name": "pid",
          "type": "uint256"
        },
        {
          "indexed": false,
          "internalType": "uint256",
          "name": "amount",
          "type": "uint256"
        }
      ],
      "name": "EmergencyWithdraw",
      "type": "event"
    },
    {
      "anonymous": false,
      "inputs": [
        {
          "indexed": true,
          "internalType": "address",
          "name": "user",
          "type": "address"
        },
        {
          "indexed": true,
          "internalType": "uint256",
          "name": "pid",
          "type": "uint256"
        },
        {
          "indexed": false,
          "internalType": "uint256",
          "name": "amount",
          "type": "uint256"
        }
      ],
      "name": "Withdraw",
      "type": "event"
    },
    {
      "inputs": [],
      "name": "Treasury1",
      "outputs": [
        {
          "internalType": "address",
          "name": "",
          "type": "address"
        }
      ],
      "stateMutability": "view",
      "type": "function"
    },
    {
      "inputs": [],
      "name": "Treasury2",
      "outputs": [
        {
          "internalType": "address",
          "name": "",
          "type": "address"
        }
      ],
      "stateMutability": "view",
      "type": "function"
    },
    {
      "inputs": [],
      "name": "Treasury3",
      "outputs": [
        {
          "internalType": "address",
          "name": "",
          "type": "address"
        }
      ],
      "stateMutability": "view",
      "type": "function"
    },
    {
      "inputs": [],
      "name": "UniCore",
      "outputs": [
        {
          "internalType": "address",
          "name": "",
          "type": "address"
        }
      ],
      "stateMutability": "view",
      "type": "function"
    },
    {
      "inputs": [],
      "name": "contractStartBlock",
      "outputs": [
        {
          "internalType": "uint256",
          "name": "",
          "type": "uint256"
        }
      ],
      "stateMutability": "view",
      "type": "function"
    },
    {
      "inputs": [],
      "name": "cumulativeRewardsSinceStart",
      "outputs": [
        {
          "internalType": "uint256",
          "name": "",
          "type": "uint256"
        }
      ],
      "stateMutability": "view",
      "type": "function"
    },
    {
      "inputs": [],
      "name": "epoch",
      "outputs": [
        {
          "internalType": "uint256",
          "name": "",
          "type": "uint256"
        }
      ],
      "stateMutability": "view",
      "type": "function"
    },
    {
      "inputs": [],
      "name": "epochCalculationStartBlock",
      "outputs": [
        {
          "internalType": "uint256",
          "name": "",
          "type": "uint256"
        }
      ],
      "stateMutability": "view",
      "type": "function"
    },
    {
      "inputs": [
        {
          "internalType": "uint256",
          "name": "",
          "type": "uint256"
        }
      ],
      "name": "epochRewards",
      "outputs": [
        {
          "internalType": "uint256",
          "name": "",
          "type": "uint256"
        }
      ],
      "stateMutability": "view",
      "type": "function"
    },
    {
      "inputs": [],
      "name": "pendingRewards",
      "outputs": [
        {
          "internalType": "uint256",
          "name": "",
          "type": "uint256"
        }
      ],
      "stateMutability": "view",
      "type": "function"
    },
    {
      "inputs": [],
      "name": "pendingTreasuryRewards",
      "outputs": [
        {
          "internalType": "uint256",
          "name": "",
          "type": "uint256"
        }
      ],
      "stateMutability": "view",
      "type": "function"
    },
    {
      "inputs": [
        {
          "internalType": "uint256",
          "name": "",
          "type": "uint256"
        }
      ],
      "name": "poolInfo",
      "outputs": [
        {
          "internalType": "address",
          "name": "stakedToken",
          "type": "address"
        },
        {
          "internalType": "uint256",
          "name": "allocPoint",
          "type": "uint256"
        },
        {
          "internalType": "uint256",
          "name": "accUniCorePerShare",
          "type": "uint256"
        },
        {
          "internalType": "bool",
          "name": "withdrawable",
          "type": "bool"
        }
      ],
      "stateMutability": "view",
      "type": "function"
    },
    {
      "inputs": [],
      "name": "rewardsInThisEpoch",
      "outputs": [
        {
          "internalType": "uint256",
          "name": "",
          "type": "uint256"
        }
      ],
      "stateMutability": "view",
      "type": "function"
    },
    {
      "inputs": [],
      "name": "totalAllocPoint",
      "outputs": [
        {
          "internalType": "uint256",
          "name": "",
          "type": "uint256"
        }
      ],
      "stateMutability": "view",
      "type": "function"
    },
    {
      "inputs": [],
      "name": "treasuryFee",
      "outputs": [
        {
          "internalType": "uint256",
          "name": "",
          "type": "uint256"
        }
      ],
      "stateMutability": "view",
      "type": "function"
    },
    {
      "inputs": [
        {
          "internalType": "uint256",
          "name": "",
          "type": "uint256"
        },
        {
          "internalType": "address",
          "name": "",
          "type": "address"
        }
      ],
      "name": "userInfo",
      "outputs": [
        {
          "internalType": "uint256",
          "name": "amount",
          "type": "uint256"
        },
        {
          "internalType": "uint256",
          "name": "rewardPaid",
          "type": "uint256"
        }
      ],
      "stateMutability": "view",
      "type": "function"
    },
    {
      "inputs": [],
      "name": "poolLength",
      "outputs": [
        {
          "internalType": "uint256",
          "name": "",
          "type": "uint256"
        }
      ],
      "stateMutability": "view",
      "type": "function"
    },
    {
      "inputs": [],
      "name": "averageFeesPerBlockSinceStart",
      "outputs": [
        {
          "internalType": "uint256",
          "name": "averagePerBlock",
          "type": "uint256"
        }
      ],
      "stateMutability": "view",
      "type": "function"
    },
    {
      "inputs": [],
      "name": "averageFeesPerBlockEpoch",
      "outputs": [
        {
          "internalType": "uint256",
          "name": "averagePerBlock",
          "type": "uint256"
        }
      ],
      "stateMutability": "view",
      "type": "function"
    },
    {
      "inputs": [
        {
          "internalType": "uint256",
          "name": "_allocPoint",
          "type": "uint256"
        },
        {
          "internalType": "address",
          "name": "_stakedToken",
          "type": "address"
        },
        {
          "internalType": "bool",
          "name": "_withdrawable",
          "type": "bool"
        }
      ],
      "name": "addPool",
      "outputs": [],
      "stateMutability": "nonpayable",
      "type": "function"
    },
    {
      "inputs": [
        {
          "internalType": "uint256",
          "name": "_pid",
          "type": "uint256"
        },
        {
          "internalType": "uint256",
          "name": "_allocPoint",
          "type": "uint256"
        },
        {
          "internalType": "bool",
          "name": "_withUpdate",
          "type": "bool"
        }
      ],
      "name": "setPool",
      "outputs": [],
      "stateMutability": "nonpayable",
      "type": "function"
    },
    {
      "inputs": [
        {
          "internalType": "uint256",
          "name": "_pid",
          "type": "uint256"
        },
        {
          "internalType": "bool",
          "name": "_withdrawable",
          "type": "bool"
        }
      ],
      "name": "setPoolWithdrawable",
      "outputs": [],
      "stateMutability": "nonpayable",
      "type": "function"
    },
    {
      "inputs": [],
      "name": "startNewEpoch",
      "outputs": [],
      "stateMutability": "nonpayable",
      "type": "function"
    },
    {
      "inputs": [],
      "name": "massUpdatePools",
      "outputs": [],
      "stateMutability": "nonpayable",
      "type": "function"
    },
    {
      "inputs": [],
      "name": "updateRewards",
      "outputs": [],
      "stateMutability": "nonpayable",
      "type": "function"
    },
    {
      "inputs": [
        {
          "internalType": "uint256",
          "name": "_pid",
          "type": "uint256"
        },
        {
          "internalType": "uint256",
          "name": "_amount",
          "type": "uint256"
        }
      ],
      "name": "deposit",
      "outputs": [],
      "stateMutability": "nonpayable",
      "type": "function"
    },
    {
      "inputs": [
        {
          "internalType": "uint256",
          "name": "_pid",
          "type": "uint256"
        },
        {
          "internalType": "uint256",
          "name": "_amount",
          "type": "uint256"
        }
      ],
      "name": "withdraw",
      "outputs": [],
      "stateMutability": "nonpayable",
      "type": "function"
    },
    {
      "inputs": [
        {
          "internalType": "uint256",
          "name": "_pid",
          "type": "uint256"
        },
        {
          "internalType": "address",
          "name": "_user",
          "type": "address"
        }
      ],
      "name": "pendingUniCore",
      "outputs": [
        {
          "internalType": "uint256",
          "name": "",
          "type": "uint256"
        }
      ],
      "stateMutability": "view",
      "type": "function"
    },
    {
      "inputs": [],
      "name": "transferTreasuryFees",
      "outputs": [],
      "stateMutability": "nonpayable",
      "type": "function"
    },
    {
      "inputs": [
        {
          "internalType": "address",
          "name": "_address",
          "type": "address"
        }
      ],
      "name": "viewGovernanceLevel",
      "outputs": [
        {
          "internalType": "uint8",
          "name": "",
          "type": "uint8"
        }
      ],
      "stateMutability": "view",
      "type": "function"
    },
    {
      "inputs": [
        {
          "internalType": "uint256",
          "name": "_newFee",
          "type": "uint256"
        }
      ],
      "name": "setTreasuryFee",
      "outputs": [],
      "stateMutability": "nonpayable",
      "type": "function"
    },
    {
      "inputs": [
        {
          "internalType": "address",
          "name": "_token",
          "type": "address"
        }
      ],
      "name": "isNonWithdrawbleByAdmins",
      "outputs": [
        {
          "internalType": "bool",
          "name": "",
          "type": "bool"
        }
      ],
      "stateMutability": "view",
      "type": "function"
    }
  ],
  "bytecode": "0x608060405234801561001057600080fd5b50604051612cdb380380612cdb8339818101604052602081101561003357600080fd5b8101908080519060200190929190505050806000806101000a81548173ffffffffffffffffffffffffffffffffffffffff021916908373ffffffffffffffffffffffffffffffffffffffff16021790555073f4d7a0e8a68345442172f45cabd272c25320aa96600160006101000a81548173ffffffffffffffffffffffffffffffffffffffff021916908373ffffffffffffffffffffffffffffffffffffffff16021790555073397f9694ca604c2bbdfb5c86227a64853940fb49600260006101000a81548173ffffffffffffffffffffffffffffffffffffffff021916908373ffffffffffffffffffffffffffffffffffffffff16021790555073397f9694ca604c2bbdfb5c86227a64853940fb49600360006101000a81548173ffffffffffffffffffffffffffffffffffffffff021916908373ffffffffffffffffffffffffffffffffffffffff1602179055506102bc60048190555043600a8190555050612b38806101a36000396000f3fe608060405234801561001057600080fd5b50600436106101f05760003560e01c8063608c8d3a1161010f578063b5760d27116100a2578063de2ccedf11610071578063de2ccedf146107b3578063e0447f78146107d1578063e2bbb1581461081b578063eded3fda14610853576101f0565b8063b5760d27146106bd578063c25cc8af14610719578063c8ffb87314610777578063cc32d17614610795576101f0565b80637abceffd116100de5780637abceffd146105be578063900cf0cf1461061857806393f1a40b146106365780639dbc2d901461069f576101f0565b8063608c8d3a1461055e578063630b5ba11461057c57806368f7471e1461058657806377e741c714610590576101f0565b80633aab0a621161018757806349c5468d1161015657806349c5468d146104a65780634dc47d34146104c45780635207cc0d146105065780635d577c1814610540576101f0565b80633aab0a62146104165780633e158b0c14610420578063441a3e701461042a57806346ca6bea14610462576101f0565b806317caf6f1116101c357806317caf6f11461030257806319076e20146103205780631a6af7af146103825780633081d258146103cc576101f0565b806303dec009146101f5578063081e3eda146102135780630d3e805a146102315780631526fe271461027b575b600080fd5b6101fd610871565b6040518082815260200191505060405180910390f35b61021b6108a1565b6040518082815260200191505060405180910390f35b6102396108ae565b604051808273ffffffffffffffffffffffffffffffffffffffff1673ffffffffffffffffffffffffffffffffffffffff16815260200191505060405180910390f35b6102a76004803603602081101561029157600080fd5b81019080803590602001909291905050506108d4565b604051808573ffffffffffffffffffffffffffffffffffffffff1673ffffffffffffffffffffffffffffffffffffffff1681526020018481526020018381526020018215151515815260200194505050505060405180910390f35b61030a61093e565b6040518082815260200191505060405180910390f35b61036c6004803603604081101561033657600080fd5b8101908080359060200190929190803573ffffffffffffffffffffffffffffffffffffffff169060200190929190505050610944565b6040518082815260200191505060405180910390f35b61038a610a13565b604051808273ffffffffffffffffffffffffffffffffffffffff1673ffffffffffffffffffffffffffffffffffffffff16815260200191505060405180910390f35b6103d4610a38565b604051808273ffffffffffffffffffffffffffffffffffffffff1673ffffffffffffffffffffffffffffffffffffffff16815260200191505060405180910390f35b61041e610a5e565b005b610428610b33565b005b6104606004803603604081101561044057600080fd5b810190808035906020019092919080359060200190929190505050610d9f565b005b6104a46004803603606081101561047857600080fd5b810190808035906020019092919080359060200190929190803515159060200190929190505050610db7565b005b6104ae610ecd565b6040518082815260200191505060405180910390f35b6104f0600480360360208110156104da57600080fd5b8101908080359060200190929190505050610ed3565b6040518082815260200191505060405180910390f35b61053e6004803603604081101561051c57600080fd5b8101908080359060200190929190803515159060200190929190505050610eeb565b005b610548610fac565b6040518082815260200191505060405180910390f35b610566610fb2565b6040518082815260200191505060405180910390f35b610584610fb8565b005b61058e61101a565b005b6105bc600480360360208110156105a657600080fd5b8101908080359060200190929190505050611610565b005b610616600480360360608110156105d457600080fd5b8101908080359060200190929190803573ffffffffffffffffffffffffffffffffffffffff169060200190929190803515159060200190929190505050611718565b005b610620611a13565b6040518082815260200191505060405180910390f35b6106826004803603604081101561064c57600080fd5b8101908080359060200190929190803573ffffffffffffffffffffffffffffffffffffffff169060200190929190505050611a19565b604051808381526020018281526020019250505060405180910390f35b6106a7611a4a565b6040518082815260200191505060405180910390f35b6106ff600480360360208110156106d357600080fd5b81019080803573ffffffffffffffffffffffffffffffffffffffff169060200190929190505050611a8e565b604051808215151515815260200191505060405180910390f35b61075b6004803603602081101561072f57600080fd5b81019080803573ffffffffffffffffffffffffffffffffffffffff169060200190929190505050611ae4565b604051808260ff1660ff16815260200191505060405180910390f35b61077f611bc6565b6040518082815260200191505060405180910390f35b61079d611bcc565b6040518082815260200191505060405180910390f35b6107bb611bd2565b6040518082815260200191505060405180910390f35b6107d9611bd8565b604051808273ffffffffffffffffffffffffffffffffffffffff1673ffffffffffffffffffffffffffffffffffffffff16815260200191505060405180910390f35b6108516004803603604081101561083157600080fd5b810190808035906020019092919080359060200190929190505050611bfe565b005b61085b611ebd565b6040518082815260200191505060405180910390f35b600061089c61088b600b5443611ec390919063ffffffff16565b600d54611f0d90919063ffffffff16565b905090565b6000600780549050905090565b600360009054906101000a900473ffffffffffffffffffffffffffffffffffffffff1681565b600781815481106108e157fe5b90600052602060002090600502016000915090508060000160009054906101000a900473ffffffffffffffffffffffffffffffffffffffff16908060010154908060020154908060030160009054906101000a900460ff16905084565b60085481565b6000806007848154811061095457fe5b9060005260206000209060050201905060006006600086815260200190815260200160002060008573ffffffffffffffffffffffffffffffffffffffff1673ffffffffffffffffffffffffffffffffffffffff1681526020019081526020016000209050600082600201549050610a0882600101546109fa670de0b6b3a76400006109ec858760000154611f5790919063ffffffff16565b611f0d90919063ffffffff16565b611ec390919063ffffffff16565b935050505092915050565b6000809054906101000a900473ffffffffffffffffffffffffffffffffffffffff1681565b600260009054906101000a900473ffffffffffffffffffffffffffffffffffffffff1681565b4361c350600b540110610ad9576040517f08c379a00000000000000000000000000000000000000000000000000000000081526004018080602001828103825260178152602001807f4e65772065706f6368206e6f742072656164792079657400000000000000000081525060200191505060405180910390fd5b600d54600f6000600e54815260200190815260200160002081905550610b0c600d54600c54611fdd90919063ffffffff16565b600c819055506000600d8190555043600b81905550600e6000815460010191905081905550565b6000809054906101000a900473ffffffffffffffffffffffffffffffffffffffff1673ffffffffffffffffffffffffffffffffffffffff163373ffffffffffffffffffffffffffffffffffffffff1614610b8c57600080fd5b6000610c7b6010546000809054906101000a900473ffffffffffffffffffffffffffffffffffffffff1673ffffffffffffffffffffffffffffffffffffffff166370a08231306040518263ffffffff1660e01b8152600401808273ffffffffffffffffffffffffffffffffffffffff1673ffffffffffffffffffffffffffffffffffffffff16815260200191505060206040518083038186803b158015610c3257600080fd5b505afa158015610c46573d6000803e3d6000fd5b505050506040513d6020811015610c5c57600080fd5b8101908080519060200190929190505050611ec390919063ffffffff16565b90506000811115610d9c576000809054906101000a900473ffffffffffffffffffffffffffffffffffffffff1673ffffffffffffffffffffffffffffffffffffffff166370a08231306040518263ffffffff1660e01b8152600401808273ffffffffffffffffffffffffffffffffffffffff1673ffffffffffffffffffffffffffffffffffffffff16815260200191505060206040518083038186803b158015610d2457600080fd5b505afa158015610d38573d6000803e3d6000fd5b505050506040513d6020811015610d4e57600080fd5b8101908080519060200190929190505050601081905550610d7a81600954611fdd90919063ffffffff16565b600981905550610d9581600d54611fdd90919063ffffffff16565b600d819055505b50565b610dab82823333612065565b610db361101a565b5050565b60028060ff16610dc633611ae4565b60ff161015610e3d576040517f08c379a000000000000000000000000000000000000000000000000000000000815260040180806020018281038252601b8152602001807f47726f7720736f6d65206d75737461636865206b6964646f2e2e2e000000000081525060200191505060405180910390fd5b60008311610e4a57600080fd5b8115610e5957610e58610fb8565b5b610e9e83610e9060078781548110610e6d57fe5b906000526020600020906005020160010154600854611ec390919063ffffffff16565b611fdd90919063ffffffff16565b6008819055508260078581548110610eb257fe5b90600052602060002090600502016001018190555050505050565b600a5481565b600f6020528060005260406000206000915090505481565b60028060ff16610efa33611ae4565b60ff161015610f71576040517f08c379a000000000000000000000000000000000000000000000000000000000815260040180806020018281038252601b8152602001807f47726f7720736f6d65206d75737461636865206b6964646f2e2e2e000000000081525060200191505060405180910390fd5b8160078481548110610f7f57fe5b906000526020600020906005020160030160006101000a81548160ff021916908315150217905550505050565b600b5481565b600d5481565b60006007805490509050600080600090505b82811015610ffa57610fed610fde8261234a565b83611fdd90919063ffffffff16565b9150806001019050610fca565b5061101081600954611ec390919063ffffffff16565b6009819055505050565b6000600554141561102a5761160e565b60008060009054906101000a900473ffffffffffffffffffffffffffffffffffffffff1673ffffffffffffffffffffffffffffffffffffffff166370a08231306040518263ffffffff1660e01b8152600401808273ffffffffffffffffffffffffffffffffffffffff1673ffffffffffffffffffffffffffffffffffffffff16815260200191505060206040518083038186803b1580156110ca57600080fd5b505afa1580156110de573d6000803e3d6000fd5b505050506040513d60208110156110f457600080fd5b81019080805190602001909291905050509050600061113260646111246013600554611f5790919063ffffffff16565b611f0d90919063ffffffff16565b9050600061115f60646111516013600554611f5790919063ffffffff16565b611f0d90919063ffffffff16565b9050600061118a8261117c85600554611ec390919063ffffffff16565b611ec390919063ffffffff16565b9050836005541115611210576111bd60646111af601387611f5790919063ffffffff16565b611f0d90919063ffffffff16565b92506111e660646111d8601387611f5790919063ffffffff16565b611f0d90919063ffffffff16565b915061120d826111ff8587611ec390919063ffffffff16565b611ec390919063ffffffff16565b90505b6000809054906101000a900473ffffffffffffffffffffffffffffffffffffffff1673ffffffffffffffffffffffffffffffffffffffff1663a9059cbb600360009054906101000a900473ffffffffffffffffffffffffffffffffffffffff16856040518363ffffffff1660e01b8152600401808373ffffffffffffffffffffffffffffffffffffffff1673ffffffffffffffffffffffffffffffffffffffff16815260200182815260200192505050602060405180830381600087803b1580156112da57600080fd5b505af11580156112ee573d6000803e3d6000fd5b505050506040513d602081101561130457600080fd5b8101908080519060200190929190505050506000809054906101000a900473ffffffffffffffffffffffffffffffffffffffff1673ffffffffffffffffffffffffffffffffffffffff1663a9059cbb600260009054906101000a900473ffffffffffffffffffffffffffffffffffffffff16846040518363ffffffff1660e01b8152600401808373ffffffffffffffffffffffffffffffffffffffff1673ffffffffffffffffffffffffffffffffffffffff16815260200182815260200192505050602060405180830381600087803b1580156113e057600080fd5b505af11580156113f4573d6000803e3d6000fd5b505050506040513d602081101561140a57600080fd5b8101908080519060200190929190505050506000809054906101000a900473ffffffffffffffffffffffffffffffffffffffff1673ffffffffffffffffffffffffffffffffffffffff1663a9059cbb600160009054906101000a900473ffffffffffffffffffffffffffffffffffffffff16836040518363ffffffff1660e01b8152600401808373ffffffffffffffffffffffffffffffffffffffff1673ffffffffffffffffffffffffffffffffffffffff16815260200182815260200192505050602060405180830381600087803b1580156114e657600080fd5b505af11580156114fa573d6000803e3d6000fd5b505050506040513d602081101561151057600080fd5b8101908080519060200190929190505050506000809054906101000a900473ffffffffffffffffffffffffffffffffffffffff1673ffffffffffffffffffffffffffffffffffffffff166370a08231306040518263ffffffff1660e01b8152600401808273ffffffffffffffffffffffffffffffffffffffff1673ffffffffffffffffffffffffffffffffffffffff16815260200191505060206040518083038186803b1580156115c057600080fd5b505afa1580156115d4573d6000803e3d6000fd5b505050506040513d60208110156115ea57600080fd5b81019080805190602001909291905050506010819055506000600581905550505050505b565b60028060ff1661161f33611ae4565b60ff161015611696576040517f08c379a000000000000000000000000000000000000000000000000000000000815260040180806020018281038252601b8152602001807f47726f7720736f6d65206d75737461636865206b6964646f2e2e2e000000000081525060200191505060405180910390fd5b609682111561170d576040517f08c379a00000000000000000000000000000000000000000000000000000000081526004018080602001828103825260198152602001807f747265617375727946656520636170706564206174203135250000000000000081525060200191505060405180910390fd5b816004819055505050565b60028060ff1661172733611ae4565b60ff16101561179e576040517f08c379a000000000000000000000000000000000000000000000000000000000815260040180806020018281038252601b8152602001807f47726f7720736f6d65206d75737461636865206b6964646f2e2e2e000000000081525060200191505060405180910390fd5b600084116117ab57600080fd5b6001601160008573ffffffffffffffffffffffffffffffffffffffff1673ffffffffffffffffffffffffffffffffffffffff16815260200190815260200160002060006101000a81548160ff02191690831515021790555061180b610fb8565b6000600780549050905060008090505b8181101561190e578473ffffffffffffffffffffffffffffffffffffffff166007828154811061184757fe5b906000526020600020906005020160000160009054906101000a900473ffffffffffffffffffffffffffffffffffffffff1673ffffffffffffffffffffffffffffffffffffffff161415611903576040517f08c379a00000000000000000000000000000000000000000000000000000000081526004018080602001828103825260188152602001807f4572726f7220706f6f6c20616c7265616479206164646564000000000000000081525060200191505060405180910390fd5b80600101905061181b565b5061192485600854611fdd90919063ffffffff16565b600881905550600760405180608001604052808673ffffffffffffffffffffffffffffffffffffffff16815260200187815260200160008152602001851515815250908060018154018082558091505060019003906000526020600020906005020160009091909190915060008201518160000160006101000a81548173ffffffffffffffffffffffffffffffffffffffff021916908373ffffffffffffffffffffffffffffffffffffffff160217905550602082015181600101556040820151816002015560608201518160030160006101000a81548160ff02191690831515021790555050505050505050565b600e5481565b6006602052816000526040600020602052806000526040600020600091509150508060000154908060010154905082565b6000611a89611a64600a5443611ec390919063ffffffff16565b611a7b600d54600c54611fdd90919063ffffffff16565b611f0d90919063ffffffff16565b905090565b6000601160008373ffffffffffffffffffffffffffffffffffffffff1673ffffffffffffffffffffffffffffffffffffffff16815260200190815260200160002060009054906101000a900460ff169050919050565b60008060009054906101000a900473ffffffffffffffffffffffffffffffffffffffff1673ffffffffffffffffffffffffffffffffffffffff1663c25cc8af836040518263ffffffff1660e01b8152600401808273ffffffffffffffffffffffffffffffffffffffff1673ffffffffffffffffffffffffffffffffffffffff16815260200191505060206040518083038186803b158015611b8457600080fd5b505afa158015611b98573d6000803e3d6000fd5b505050506040513d6020811015611bae57600080fd5b81019080805190602001909291905050509050919050565b600c5481565b60045481565b60055481565b600160009054906101000a900473ffffffffffffffffffffffffffffffffffffffff1681565b60008111611c74576040517f08c379a000000000000000000000000000000000000000000000000000000000815260040180806020018281038252601a8152602001807f63616e6e6f74206465706f736974207a65726f20746f6b656e7300000000000081525060200191505060405180910390fd5b600060078381548110611c8357fe5b9060005260206000209060050201905060006006600085815260200190815260200160002060003373ffffffffffffffffffffffffffffffffffffffff1673ffffffffffffffffffffffffffffffffffffffff1681526020019081526020016000209050611cf18433612541565b8160000160009054906101000a900473ffffffffffffffffffffffffffffffffffffffff1673ffffffffffffffffffffffffffffffffffffffff166323b872dd3330866040518463ffffffff1660e01b8152600401808473ffffffffffffffffffffffffffffffffffffffff1673ffffffffffffffffffffffffffffffffffffffff1681526020018373ffffffffffffffffffffffffffffffffffffffff1673ffffffffffffffffffffffffffffffffffffffff1681526020018281526020019350505050602060405180830381600087803b158015611dd057600080fd5b505af1158015611de4573d6000803e3d6000fd5b505050506040513d6020811015611dfa57600080fd5b810190808051906020019092919050505050611e23838260000154611fdd90919063ffffffff16565b8160000181905550611e60670de0b6b3a7640000611e5284600201548460000154611f5790919063ffffffff16565b611f0d90919063ffffffff16565b8160010181905550833373ffffffffffffffffffffffffffffffffffffffff167f90890809c654f11d6e72a28fa60149770a0d11ec6c92319d6ceb2bb0a4ea1a15856040518082815260200191505060405180910390a350505050565b60095481565b6000611f0583836040518060400160405280601e81526020017f536166654d6174683a207375627472616374696f6e206f766572666c6f770000815250612566565b905092915050565b6000611f4f83836040518060400160405280601a81526020017f536166654d6174683a206469766973696f6e206279207a65726f000000000000815250612626565b905092915050565b600080831415611f6a5760009050611fd7565b6000828402905082848281611f7b57fe5b0414611fd2576040517f08c379a0000000000000000000000000000000000000000000000000000000008152600401808060200182810382526021815260200180612abc6021913960400191505060405180910390fd5b809150505b92915050565b60008082840190508381101561205b576040517f08c379a000000000000000000000000000000000000000000000000000000000815260040180806020018281038252601b8152602001807f536166654d6174683a206164646974696f6e206f766572666c6f77000000000081525060200191505060405180910390fd5b8091505092915050565b60006007858154811061207457fe5b906000526020600020906005020190508060030160009054906101000a900460ff166120eb576040517f08c379a0000000000000000000000000000000000000000000000000000000008152600401808060200182810382526026815260200180612add6026913960400191505060405180910390fd5b60006006600087815260200190815260200160002060008573ffffffffffffffffffffffffffffffffffffffff1673ffffffffffffffffffffffffffffffffffffffff1681526020019081526020016000209050848160000154101561219c576040517f08c379a0000000000000000000000000000000000000000000000000000000008152600401808060200182810382526022815260200180612a9a6022913960400191505060405180910390fd5b6121a68685612541565b60008511156122b6576121c6858260000154611ec390919063ffffffff16565b81600001819055508160000160009054906101000a900473ffffffffffffffffffffffffffffffffffffffff1673ffffffffffffffffffffffffffffffffffffffff1663a9059cbb84876040518363ffffffff1660e01b8152600401808373ffffffffffffffffffffffffffffffffffffffff1673ffffffffffffffffffffffffffffffffffffffff16815260200182815260200192505050602060405180830381600087803b15801561227957600080fd5b505af115801561228d573d6000803e3d6000fd5b505050506040513d60208110156122a357600080fd5b8101908080519060200190929190505050505b6122eb670de0b6b3a76400006122dd84600201548460000154611f5790919063ffffffff16565b611f0d90919063ffffffff16565b8160010181905550858373ffffffffffffffffffffffffffffffffffffffff167ff279e6a1f5e320cca91135676d9cb6e44ca8a08c0b88342bcdb1144f6511b568876040518082815260200191505060405180910390a3505050505050565b6000806007838154811061235a57fe5b9060005260206000209060050201905060008160000160009054906101000a900473ffffffffffffffffffffffffffffffffffffffff1673ffffffffffffffffffffffffffffffffffffffff166370a08231306040518263ffffffff1660e01b8152600401808273ffffffffffffffffffffffffffffffffffffffff1673ffffffffffffffffffffffffffffffffffffffff16815260200191505060206040518083038186803b15801561240d57600080fd5b505afa158015612421573d6000803e3d6000fd5b505050506040513d602081101561243757600080fd5b81019080805190602001909291905050509050600081141561245e5760009250505061253c565b61248b60085461247d8460010154600954611f5790919063ffffffff16565b611f0d90919063ffffffff16565b925060006124b86127106124aa60045487611f5790919063ffffffff16565b611f0d90919063ffffffff16565b905060006124cf8286611ec390919063ffffffff16565b90506124e682600554611fdd90919063ffffffff16565b60058190555061252f61251c8461250e670de0b6b3a764000085611f5790919063ffffffff16565b611f0d90919063ffffffff16565b8560020154611fdd90919063ffffffff16565b8460020181905550505050505b919050565b612549610fb8565b60006125558383610944565b905061256182826126ec565b505050565b6000838311158290612613576040517f08c379a00000000000000000000000000000000000000000000000000000000081526004018080602001828103825283818151815260200191508051906020019080838360005b838110156125d85780820151818401526020810190506125bd565b50505050905090810190601f1680156126055780820380516001836020036101000a031916815260200191505b509250505060405180910390fd5b5060008385039050809150509392505050565b600080831182906126d2576040517f08c379a00000000000000000000000000000000000000000000000000000000081526004018080602001828103825283818151815260200191508051906020019080838360005b8381101561269757808201518184015260208101905061267c565b50505050905090810190601f1680156126c45780820380516001836020036101000a031916815260200191505b509250505060405180910390fd5b5060008385816126de57fe5b049050809150509392505050565b60008114156126fa57612a95565b60008060009054906101000a900473ffffffffffffffffffffffffffffffffffffffff1673ffffffffffffffffffffffffffffffffffffffff166370a08231306040518263ffffffff1660e01b8152600401808273ffffffffffffffffffffffffffffffffffffffff1673ffffffffffffffffffffffffffffffffffffffff16815260200191505060206040518083038186803b15801561279a57600080fd5b505afa1580156127ae573d6000803e3d6000fd5b505050506040513d60208110156127c457600080fd5b810190808051906020019092919050505090508082106128c7576000809054906101000a900473ffffffffffffffffffffffffffffffffffffffff1673ffffffffffffffffffffffffffffffffffffffff1663a9059cbb84836040518363ffffffff1660e01b8152600401808373ffffffffffffffffffffffffffffffffffffffff1673ffffffffffffffffffffffffffffffffffffffff16815260200182815260200192505050602060405180830381600087803b15801561288657600080fd5b505af115801561289a573d6000803e3d6000fd5b505050506040513d60208110156128b057600080fd5b8101908080519060200190929190505050506129ac565b6000809054906101000a900473ffffffffffffffffffffffffffffffffffffffff1673ffffffffffffffffffffffffffffffffffffffff1663a9059cbb84846040518363ffffffff1660e01b8152600401808373ffffffffffffffffffffffffffffffffffffffff1673ffffffffffffffffffffffffffffffffffffffff16815260200182815260200192505050602060405180830381600087803b15801561296f57600080fd5b505af1158015612983573d6000803e3d6000fd5b505050506040513d602081101561299957600080fd5b8101908080519060200190929190505050505b6129b461101a565b6000809054906101000a900473ffffffffffffffffffffffffffffffffffffffff1673ffffffffffffffffffffffffffffffffffffffff166370a08231306040518263ffffffff1660e01b8152600401808273ffffffffffffffffffffffffffffffffffffffff1673ffffffffffffffffffffffffffffffffffffffff16815260200191505060206040518083038186803b158015612a5257600080fd5b505afa158015612a66573d6000803e3d6000fd5b505050506040513d6020811015612a7c57600080fd5b8101908080519060200190929190505050601081905550505b505056fe77697468647261773a207573657220616d6f756e7420696e73756666696369656e74536166654d6174683a206d756c7469706c69636174696f6e206f766572666c6f775769746864726177696e672066726f6d207468697320706f6f6c2069732064697361626c6564a26469706673582212205e773dd07e9e5046843592d84001aec45d1f841252db902c91160055a8d6c9e164736f6c63430006060033",
  "immutableReferences": {},
  "source": "// SPDX-License-Identifier: WHO GIVES A FUCK ANYWAY??\r\n\r\npragma solidity ^0.6.6;\r\n\r\nimport \"./UniCore_Libraries.sol\";\r\nimport \"./UniCore_Interfaces.sol\";\r\n\r\n\r\n// Vault distributes fees equally amongst staked pools\r\n\r\ncontract UniCore_Vault {\r\n    using SafeMath for uint256;\r\n\r\n\r\n    address public UniCore; //token address\r\n    \r\n    address public Treasury1;\r\n    address public Treasury2;\r\n    address public Treasury3;\r\n    uint256 public treasuryFee;\r\n    uint256 public pendingTreasuryRewards;\r\n    \r\n\r\n//USERS METRICS\r\n    struct UserInfo {\r\n        uint256 amount; // How many tokens the user has provided.\r\n        uint256 rewardPaid; // Already Paid. See explanation below.\r\n        //  pending reward = (user.amount * pool.UniCorePerShare) - user.rewardPaid\r\n    }\r\n    mapping(uint256 => mapping(address => UserInfo)) public userInfo;\r\n    \r\n//POOL METRICS\r\n    struct PoolInfo {\r\n        address stakedToken;                // Address of staked token contract.\r\n        uint256 allocPoint;           // How many allocation points assigned to this pool. UniCores to distribute per block. (ETH = 2.3M blocks per year)\r\n        uint256 accUniCorePerShare;   // Accumulated UniCores per share, times 1e18. See below.\r\n        bool withdrawable;            // Is this pool withdrawable or not\r\n        \r\n        mapping(address => mapping(address => uint256)) allowance;\r\n    }\r\n    PoolInfo[] public poolInfo;\r\n\r\n    uint256 public totalAllocPoint;     // Total allocation points. Must be the sum of all allocation points in all pools.\r\n    uint256 public pendingRewards;      // pending rewards awaiting anyone to massUpdate\r\n    uint256 public contractStartBlock;\r\n    uint256 public epochCalculationStartBlock;\r\n    uint256 public cumulativeRewardsSinceStart;\r\n    uint256 public rewardsInThisEpoch;\r\n    uint public epoch;\r\n\r\n//EVENTS\r\n    event Deposit(address indexed user, uint256 indexed pid, uint256 amount);\r\n    event Withdraw(address indexed user, uint256 indexed pid, uint256 amount);\r\n    event EmergencyWithdraw(address indexed user, uint256 indexed pid, uint256 amount);\r\n    event Approval(address indexed owner, address indexed spender, uint256 _pid, uint256 value);\r\n\r\n    \r\n//INITIALIZE \r\n    constructor(address _UniCore) public {\r\n\r\n        UniCore = _UniCore;\r\n        \r\n        Treasury1 = address(0xF4D7a0E8a68345442172F45cAbD272c25320AA96); //TESTNET\r\n        Treasury2 = address(0x397f9694Ca604c2bbdfB5c86227A64853940FB49); //stpd \r\n        Treasury3 = address(0x397f9694Ca604c2bbdfB5c86227A64853940FB49); //QS \r\n        \r\n        treasuryFee = 700; //7%\r\n        \r\n        contractStartBlock = block.number;\r\n    }\r\n    \r\n//==================================================================================================================================\r\n//POOL\r\n    \r\n //view stuff\r\n \r\n    function poolLength() external view returns (uint256) {\r\n        return poolInfo.length; //number of pools (per pid)\r\n    }\r\n    \r\n    // Returns fees generated since start of this contract\r\n    function averageFeesPerBlockSinceStart() external view returns (uint averagePerBlock) {\r\n        averagePerBlock = cumulativeRewardsSinceStart.add(rewardsInThisEpoch).div(block.number.sub(contractStartBlock));\r\n    }\r\n\r\n    // Returns averge fees in this epoch\r\n    function averageFeesPerBlockEpoch() external view returns (uint256 averagePerBlock) {\r\n        averagePerBlock = rewardsInThisEpoch.div(block.number.sub(epochCalculationStartBlock));\r\n    }\r\n\r\n    // For easy graphing historical epoch rewards\r\n    mapping(uint => uint256) public epochRewards;\r\n\r\n //set stuff (govenrors)\r\n\r\n    // Add a new token pool. Can only be called by governors.\r\n    function addPool( uint256 _allocPoint, address _stakedToken, bool _withdrawable) public governanceLevel(2) {\r\n        require(_allocPoint > 0);\r\n        nonWithdrawableByAdmin[_stakedToken] = true; // stakedToken is now non-widthrawable by the admins.\r\n        \r\n        /* @dev Addressing potential issues with zombie pools.\r\n        *  https://medium.com/@DraculaProtocol/sushiswap-smart-contract-bug-and-quality-of-audits-in-community-f50ee0545bc6\r\n        *  Thank you @DraculaProtocol for this interesting post.\r\n        */\r\n        massUpdatePools();\r\n\r\n        uint256 length = poolInfo.length;\r\n        for (uint256 pid = 0; pid < length; ++pid) {\r\n            require(poolInfo[pid].stakedToken != _stakedToken,\"Error pool already added\");\r\n        }\r\n\r\n        totalAllocPoint = totalAllocPoint.add(_allocPoint); //pre-allocation\r\n\r\n        poolInfo.push(\r\n            PoolInfo({\r\n                stakedToken: _stakedToken,\r\n                allocPoint: _allocPoint,\r\n                accUniCorePerShare: 0,\r\n                withdrawable : _withdrawable\r\n            })\r\n        );\r\n    }\r\n\r\n    // Updates the given pool's  allocation points. Can only be called with right governance levels.\r\n    function setPool(uint256 _pid, uint256 _allocPoint, bool _withUpdate) public governanceLevel(2) {\r\n        require(_allocPoint > 0);\r\n        if (_withUpdate) {massUpdatePools();}\r\n\r\n        totalAllocPoint = totalAllocPoint.sub(poolInfo[_pid].allocPoint).add(_allocPoint);\r\n        poolInfo[_pid].allocPoint = _allocPoint;\r\n    }\r\n\r\n    // Update the given pool's ability to withdraw tokens\r\n    function setPoolWithdrawable(uint256 _pid, bool _withdrawable) public governanceLevel(2) {\r\n        poolInfo[_pid].withdrawable = _withdrawable;\r\n    }\r\n    \r\n //set stuff (anybody)\r\n  \r\n    //Starts a new calculation epoch; Because average since start will not be accurate\r\n    function startNewEpoch() public {\r\n        require(epochCalculationStartBlock + 50000 < block.number, \"New epoch not ready yet\"); // 50k blocks = About a week\r\n        epochRewards[epoch] = rewardsInThisEpoch;\r\n        cumulativeRewardsSinceStart = cumulativeRewardsSinceStart.add(rewardsInThisEpoch);\r\n        rewardsInThisEpoch = 0;\r\n        epochCalculationStartBlock = block.number;\r\n        ++epoch;\r\n    }\r\n    \r\n    // Updates the reward variables of the given pool\r\n    function updatePool(uint256 _pid) internal returns (uint256 UniCoreRewardWhole) {\r\n        PoolInfo storage pool = poolInfo[_pid];\r\n\r\n        uint256 tokenSupply = IERC20(pool.stakedToken).balanceOf(address(this));\r\n        if (tokenSupply == 0) { // avoids division by 0 errors\r\n            return 0;\r\n        }\r\n        UniCoreRewardWhole = pendingRewards     // Multiplies pending rewards by allocation point of this pool and then total allocation\r\n            .mul(pool.allocPoint)               // getting the percent of total pending rewards this pool should get\r\n            .div(totalAllocPoint);              // we can do this because pools are only mass updated\r\n        \r\n        uint256 UniCoreRewardFee = UniCoreRewardWhole.mul(treasuryFee).div(10000);\r\n        uint256 UniCoreRewardToDistribute = UniCoreRewardWhole.sub(UniCoreRewardFee);\r\n\r\n        pendingTreasuryRewards = pendingTreasuryRewards.add(UniCoreRewardFee);\r\n\r\n        pool.accUniCorePerShare = pool.accUniCorePerShare.add(UniCoreRewardToDistribute.mul(1e18).div(tokenSupply));\r\n    }\r\n    function massUpdatePools() public {\r\n        uint256 length = poolInfo.length; \r\n        uint allRewards;\r\n        \r\n        for (uint256 pid = 0; pid < length; ++pid) {\r\n            allRewards = allRewards.add(updatePool(pid)); //calls updatePool(pid)\r\n        }\r\n        pendingRewards = pendingRewards.sub(allRewards);\r\n    }\r\n    \r\n    //payout of UniCore Rewards, uses SafeUnicoreTransfer\r\n    function updateAndPayOutPending(uint256 _pid, address user) internal {\r\n        \r\n        massUpdatePools();\r\n\r\n        uint256 pending = pendingUniCore(_pid, user);\r\n\r\n        safeUniCoreTransfer(user, pending);\r\n    }\r\n    \r\n    \r\n    // Safe UniCore transfer function, Manages rounding errors.\r\n    function safeUniCoreTransfer(address _to, uint256 _amount) internal {\r\n        if(_amount == 0) return;\r\n\r\n        uint256 UniCoreBal = IERC20(UniCore).balanceOf(address(this));\r\n        if (_amount >= UniCoreBal) { IERC20(UniCore).transfer(_to, UniCoreBal);} \r\n        else { IERC20(UniCore).transfer(_to, _amount);}\r\n\r\n        transferTreasuryFees(); //adds unecessary gas for users, team can trigger the function manually\r\n        UniCoreBalance = IERC20(UniCore).balanceOf(address(this));\r\n    }\r\n\r\n//external call from token when rewards are loaded\r\n\r\n    /* @dev called by the token after each fee transfer to the vault.\r\n    *       updates the pendingRewards and the rewardsInThisEpoch variables\r\n    */      \r\n    modifier onlyUniCore() {\r\n        require(msg.sender == UniCore);\r\n        _;\r\n    }\r\n    \r\n    uint256 private UniCoreBalance;\r\n    function updateRewards() external onlyUniCore {  //function addPendingRewards(uint256 _) for CORE\r\n        uint256 newRewards = IERC20(UniCore).balanceOf(address(this)).sub(UniCoreBalance); //delta vs previous balanceOf\r\n\r\n        if(newRewards > 0) {\r\n            UniCoreBalance =  IERC20(UniCore).balanceOf(address(this)); //balance snapshot\r\n            pendingRewards = pendingRewards.add(newRewards);\r\n            rewardsInThisEpoch = rewardsInThisEpoch.add(newRewards);\r\n        }\r\n    }\r\n\r\n//==================================================================================================================================\r\n//USERS\r\n\r\n    // Deposit tokens to Vault to get allocation rewards\r\n    function deposit(uint256 _pid, uint256 _amount) external {\r\n        require(_amount > 0, \"cannot deposit zero tokens\");\r\n        \r\n        PoolInfo storage pool = poolInfo[_pid];\r\n        UserInfo storage user = userInfo[_pid][msg.sender];\r\n\r\n        updateAndPayOutPending(_pid, msg.sender); //Transfer pending tokens, updates the pools \r\n\r\n        //Transfer the amounts from user\r\n        IERC20(pool.stakedToken).transferFrom(msg.sender, address(this), _amount);\r\n        user.amount = user.amount.add(_amount);\r\n\r\n        //Finalize\r\n        user.rewardPaid = user.amount.mul(pool.accUniCorePerShare).div(1e18);\r\n        \r\n        emit Deposit(msg.sender, _pid, _amount);\r\n    }\r\n\r\n    // Withdraw tokens from Vault.\r\n    function withdraw(uint256 _pid, uint256 _amount) external {\r\n        _withdraw(_pid, _amount, msg.sender, msg.sender);\r\n        transferTreasuryFees(); //incurs a gas penalty -> treasury fees transfer\r\n    }\r\n    function _withdraw(uint256 _pid, uint256 _amount, address from, address to) internal {\r\n\r\n        PoolInfo storage pool = poolInfo[_pid];\r\n        require(pool.withdrawable, \"Withdrawing from this pool is disabled\");\r\n        \r\n        UserInfo storage user = userInfo[_pid][from];\r\n        require(user.amount >= _amount, \"withdraw: user amount insufficient\");\r\n\r\n        updateAndPayOutPending(_pid, from); // //Transfer pending tokens, massupdates the pools \r\n\r\n        if(_amount > 0) {\r\n            user.amount = user.amount.sub(_amount);\r\n            IERC20(pool.stakedToken).transfer(address(to), _amount);\r\n        }\r\n        user.rewardPaid = user.amount.mul(pool.accUniCorePerShare).div(1e18);\r\n\r\n        emit Withdraw(to, _pid, _amount);\r\n    }\r\n\r\n    // Getter function to see pending UniCore rewards per user.\r\n    function pendingUniCore(uint256 _pid, address _user) public view returns (uint256) {\r\n        PoolInfo storage pool = poolInfo[_pid];\r\n        UserInfo storage user = userInfo[_pid][_user];\r\n        uint256 accUniCorePerShare = pool.accUniCorePerShare;\r\n\r\n        return user.amount.mul(accUniCorePerShare).div(1e18).sub(user.rewardPaid);\r\n    }\r\n\r\n//==================================================================================================================================\r\n//TREASURY \r\n\r\n    function transferTreasuryFees() public {\r\n        if(pendingTreasuryRewards == 0) return;\r\n\r\n        uint256 UniCorebal = IERC20(UniCore).balanceOf(address(this));\r\n        \r\n        //splitRewards\r\n        uint256 rewards3 = pendingTreasuryRewards.mul(19).div(100); //stpd\r\n        uint256 rewards2 = pendingTreasuryRewards.mul(19).div(100); //qtsr\r\n        uint256 rewards1 = pendingTreasuryRewards.sub(rewards3).sub(rewards2); //team -> could\r\n        \r\n        \r\n        //manages overflows or bad math\r\n        if (pendingTreasuryRewards > UniCorebal) {\r\n            rewards3 = UniCorebal.mul(19).div(100); //stpd\r\n            rewards2 = UniCorebal.mul(19).div(100); //qtsr\r\n            rewards1 = UniCorebal.sub(rewards3).sub(rewards2); //team\r\n        } \r\n\r\n            IERC20(UniCore).transfer(Treasury3, rewards3);\r\n            IERC20(UniCore).transfer(Treasury2, rewards2);\r\n            IERC20(UniCore).transfer(Treasury1, rewards1);\r\n\r\n            UniCoreBalance = IERC20(UniCore).balanceOf(address(this));\r\n        \r\n            pendingTreasuryRewards = 0;\r\n    }\r\n\r\n\r\n//==================================================================================================================================\r\n//GOVERNANCE & UTILS\r\n\r\n//Governance inherited from governance levels of UniCoreVaultAddress\r\n    function viewGovernanceLevel(address _address) public view returns(uint8) {\r\n        return IUniCore(UniCore).viewGovernanceLevel(_address);\r\n    }\r\n    modifier governanceLevel(uint8 _level){\r\n        require(viewGovernanceLevel(msg.sender) >= _level, \"Grow some mustache kiddo...\");\r\n        _;\r\n    }\r\n    \r\n    function setTreasuryFee(uint256 _newFee) public governanceLevel(2) {\r\n        require(_newFee <= 150, \"treasuryFee capped at 15%\");\r\n        treasuryFee = _newFee;\r\n    }\r\n\r\n// utils    \r\n    mapping(address => bool) nonWithdrawableByAdmin;\r\n    function isNonWithdrawbleByAdmins(address _token) public view returns(bool) {\r\n        return nonWithdrawableByAdmin[_token];\r\n    }\r\n    function _widthdrawAnyToken(address _recipient, address _ERC20address, uint256 _amount) internal returns (bool) {\r\n        require(_ERC20address != UniCore, \"Cannot withdraw Unicore from the pools\");\r\n        require(nonWithdrawableByAdmin[_ERC20address], \"this token is into a pool an cannot we withdrawn\");\r\n        IERC20(_ERC20address).transfer(_recipient, _amount); //use of the _ERC20 traditional transfer\r\n        return true;\r\n    } //get tokens sent by error, excelt UniCore and those used for Staking.\r\n    \r\n    \r\n}\r\n",
  "sourcePath": "/Users/noahcoomer/source/unicore-vault/unicore-vault-contracts/contracts/UniCore_Vault.sol",
  "compiler": {
    "name": "solc",
    "version": "0.6.6+commit.6c089d02.Emscripten.clang"
  },
  "schemaVersion": "3.3.0",
  "updatedAt": "2020-10-17T15:46:57.687Z",
  "devdoc": {
    "methods": {}
  },
  "userdoc": {
    "methods": {}
  }
}