{
  "contractName": "UniCore_Token",
  "abi": [
    {
      "anonymous": false,
      "inputs": [
        {
          "indexed": true,
          "internalType": "address",
          "name": "owner",
          "type": "address"
        },
        {
          "indexed": true,
          "internalType": "address",
          "name": "spender",
          "type": "address"
        },
        {
          "indexed": false,
          "internalType": "uint256",
          "name": "value",
          "type": "uint256"
        }
      ],
      "name": "Approval",
      "type": "event"
    },
    {
      "anonymous": false,
      "inputs": [
        {
          "indexed": false,
          "internalType": "address",
          "name": "dst",
          "type": "address"
        },
        {
          "indexed": false,
          "internalType": "uint256",
          "name": "value",
          "type": "uint256"
        }
      ],
      "name": "LPTokenClaimed",
      "type": "event"
    },
    {
      "anonymous": false,
      "inputs": [
        {
          "indexed": true,
          "internalType": "address",
          "name": "dst",
          "type": "address"
        },
        {
          "indexed": false,
          "internalType": "uint256",
          "name": "value",
          "type": "uint256"
        }
      ],
      "name": "LiquidityAddition",
      "type": "event"
    },
    {
      "anonymous": false,
      "inputs": [
        {
          "indexed": false,
          "internalType": "string",
          "name": "log",
          "type": "string"
        }
      ],
      "name": "Log",
      "type": "event"
    },
    {
      "anonymous": false,
      "inputs": [
        {
          "indexed": true,
          "internalType": "address",
          "name": "from",
          "type": "address"
        },
        {
          "indexed": true,
          "internalType": "address",
          "name": "to",
          "type": "address"
        },
        {
          "indexed": false,
          "internalType": "uint256",
          "name": "value",
          "type": "uint256"
        }
      ],
      "name": "Transfer",
      "type": "event"
    },
    {
      "inputs": [],
      "name": "LPGenerationCompleted",
      "outputs": [
        {
          "internalType": "bool",
          "name": "",
          "type": "bool"
        }
      ],
      "stateMutability": "view",
      "type": "function"
    },
    {
      "inputs": [],
      "name": "LPperETHUnit",
      "outputs": [
        {
          "internalType": "uint256",
          "name": "",
          "type": "uint256"
        }
      ],
      "stateMutability": "view",
      "type": "function"
    },
    {
      "inputs": [],
      "name": "Treasury1",
      "outputs": [
        {
          "internalType": "address",
          "name": "",
          "type": "address"
        }
      ],
      "stateMutability": "view",
      "type": "function"
    },
    {
      "inputs": [],
      "name": "Treasury2",
      "outputs": [
        {
          "internalType": "address",
          "name": "",
          "type": "address"
        }
      ],
      "stateMutability": "view",
      "type": "function"
    },
    {
      "inputs": [],
      "name": "Treasury3",
      "outputs": [
        {
          "internalType": "address",
          "name": "",
          "type": "address"
        }
      ],
      "stateMutability": "view",
      "type": "function"
    },
    {
      "inputs": [],
      "name": "UniswapPair",
      "outputs": [
        {
          "internalType": "address",
          "name": "",
          "type": "address"
        }
      ],
      "stateMutability": "view",
      "type": "function"
    },
    {
      "inputs": [],
      "name": "Vault",
      "outputs": [
        {
          "internalType": "address",
          "name": "",
          "type": "address"
        }
      ],
      "stateMutability": "view",
      "type": "function"
    },
    {
      "inputs": [],
      "name": "buyFee",
      "outputs": [
        {
          "internalType": "uint256",
          "name": "",
          "type": "uint256"
        }
      ],
      "stateMutability": "view",
      "type": "function"
    },
    {
      "inputs": [],
      "name": "contractStartTimestamp",
      "outputs": [
        {
          "internalType": "uint256",
          "name": "",
          "type": "uint256"
        }
      ],
      "stateMutability": "view",
      "type": "function"
    },
    {
      "inputs": [],
      "name": "coolDown",
      "outputs": [
        {
          "internalType": "uint8",
          "name": "",
          "type": "uint8"
        }
      ],
      "stateMutability": "view",
      "type": "function"
    },
    {
      "inputs": [
        {
          "internalType": "address",
          "name": "",
          "type": "address"
        }
      ],
      "name": "ethContributed",
      "outputs": [
        {
          "internalType": "uint256",
          "name": "",
          "type": "uint256"
        }
      ],
      "stateMutability": "view",
      "type": "function"
    },
    {
      "inputs": [
        {
          "internalType": "address",
          "name": "",
          "type": "address"
        }
      ],
      "name": "governanceLevels",
      "outputs": [
        {
          "internalType": "uint8",
          "name": "",
          "type": "uint8"
        }
      ],
      "stateMutability": "view",
      "type": "function"
    },
    {
      "inputs": [],
      "name": "initialSupply",
      "outputs": [
        {
          "internalType": "uint256",
          "name": "",
          "type": "uint256"
        }
      ],
      "stateMutability": "view",
      "type": "function"
    },
    {
      "inputs": [],
      "name": "lastTotalSupplyOfLPTokens",
      "outputs": [
        {
          "internalType": "uint256",
          "name": "",
          "type": "uint256"
        }
      ],
      "stateMutability": "view",
      "type": "function"
    },
    {
      "inputs": [
        {
          "internalType": "address",
          "name": "",
          "type": "address"
        }
      ],
      "name": "lastTransfer",
      "outputs": [
        {
          "internalType": "uint256",
          "name": "",
          "type": "uint256"
        }
      ],
      "stateMutability": "view",
      "type": "function"
    },
    {
      "inputs": [],
      "name": "liquidityGenerationParticipationAgreement",
      "outputs": [
        {
          "internalType": "string",
          "name": "",
          "type": "string"
        }
      ],
      "stateMutability": "view",
      "type": "function"
    },
    {
      "inputs": [
        {
          "internalType": "address",
          "name": "",
          "type": "address"
        }
      ],
      "name": "noFeeList",
      "outputs": [
        {
          "internalType": "bool",
          "name": "",
          "type": "bool"
        }
      ],
      "stateMutability": "view",
      "type": "function"
    },
    {
      "inputs": [],
      "name": "sellFee",
      "outputs": [
        {
          "internalType": "uint256",
          "name": "",
          "type": "uint256"
        }
      ],
      "stateMutability": "view",
      "type": "function"
    },
    {
      "inputs": [],
      "name": "totalETHContributed",
      "outputs": [
        {
          "internalType": "uint256",
          "name": "",
          "type": "uint256"
        }
      ],
      "stateMutability": "view",
      "type": "function"
    },
    {
      "inputs": [],
      "name": "totalLPTokensMinted",
      "outputs": [
        {
          "internalType": "uint256",
          "name": "",
          "type": "uint256"
        }
      ],
      "stateMutability": "view",
      "type": "function"
    },
    {
      "inputs": [],
      "name": "uniswapFactory",
      "outputs": [
        {
          "internalType": "contract IUniswapV2Factory",
          "name": "",
          "type": "address"
        }
      ],
      "stateMutability": "view",
      "type": "function"
    },
    {
      "inputs": [],
      "name": "uniswapRouterV2",
      "outputs": [
        {
          "internalType": "contract IUniswapV2Router02",
          "name": "",
          "type": "address"
        }
      ],
      "stateMutability": "view",
      "type": "function"
    },
    {
      "inputs": [],
      "name": "liquidityGenerationOngoing",
      "outputs": [
        {
          "internalType": "bool",
          "name": "",
          "type": "bool"
        }
      ],
      "stateMutability": "view",
      "type": "function"
    },
    {
      "inputs": [],
      "name": "emergencyDrain24hAfterLiquidityGenerationEventIsDone",
      "outputs": [],
      "stateMutability": "nonpayable",
      "type": "function"
    },
    {
      "inputs": [
        {
          "internalType": "address",
          "name": "router",
          "type": "address"
        },
        {
          "internalType": "address",
          "name": "factory",
          "type": "address"
        }
      ],
      "name": "POOL_CreateUniswapPair",
      "outputs": [
        {
          "internalType": "address",
          "name": "",
          "type": "address"
        }
      ],
      "stateMutability": "nonpayable",
      "type": "function"
    },
    {
      "inputs": [
        {
          "internalType": "bool",
          "name": "agreesToTermsOutlinedInLiquidityGenerationParticipationAgreement",
          "type": "bool"
        }
      ],
      "name": "USER_addLiquidity",
      "outputs": [],
      "stateMutability": "payable",
      "type": "function"
    },
    {
      "inputs": [],
      "name": "USER_RemoveLiquidity",
      "outputs": [],
      "stateMutability": "nonpayable",
      "type": "function"
    },
    {
      "inputs": [],
      "name": "POOL_CreateLiquidity",
      "outputs": [],
      "stateMutability": "nonpayable",
      "type": "function"
    },
    {
      "inputs": [],
      "name": "name",
      "outputs": [
        {
          "internalType": "string",
          "name": "",
          "type": "string"
        }
      ],
      "stateMutability": "view",
      "type": "function"
    },
    {
      "inputs": [],
      "name": "symbol",
      "outputs": [
        {
          "internalType": "string",
          "name": "",
          "type": "string"
        }
      ],
      "stateMutability": "view",
      "type": "function"
    },
    {
      "inputs": [],
      "name": "decimals",
      "outputs": [
        {
          "internalType": "uint8",
          "name": "",
          "type": "uint8"
        }
      ],
      "stateMutability": "view",
      "type": "function"
    },
    {
      "inputs": [],
      "name": "totalSupply",
      "outputs": [
        {
          "internalType": "uint256",
          "name": "",
          "type": "uint256"
        }
      ],
      "stateMutability": "view",
      "type": "function"
    },
    {
      "inputs": [
        {
          "internalType": "address",
          "name": "_owner",
          "type": "address"
        }
      ],
      "name": "balanceOf",
      "outputs": [
        {
          "internalType": "uint256",
          "name": "",
          "type": "uint256"
        }
      ],
      "stateMutability": "view",
      "type": "function"
    },
    {
      "inputs": [
        {
          "internalType": "address",
          "name": "recipient",
          "type": "address"
        },
        {
          "internalType": "uint256",
          "name": "amount",
          "type": "uint256"
        }
      ],
      "name": "transfer",
      "outputs": [
        {
          "internalType": "bool",
          "name": "",
          "type": "bool"
        }
      ],
      "stateMutability": "nonpayable",
      "type": "function"
    },
    {
      "inputs": [
        {
          "internalType": "address",
          "name": "owner",
          "type": "address"
        },
        {
          "internalType": "address",
          "name": "spender",
          "type": "address"
        }
      ],
      "name": "allowance",
      "outputs": [
        {
          "internalType": "uint256",
          "name": "",
          "type": "uint256"
        }
      ],
      "stateMutability": "view",
      "type": "function"
    },
    {
      "inputs": [
        {
          "internalType": "address",
          "name": "spender",
          "type": "address"
        },
        {
          "internalType": "uint256",
          "name": "amount",
          "type": "uint256"
        }
      ],
      "name": "approve",
      "outputs": [
        {
          "internalType": "bool",
          "name": "",
          "type": "bool"
        }
      ],
      "stateMutability": "nonpayable",
      "type": "function"
    },
    {
      "inputs": [
        {
          "internalType": "address",
          "name": "sender",
          "type": "address"
        },
        {
          "internalType": "address",
          "name": "recipient",
          "type": "address"
        },
        {
          "internalType": "uint256",
          "name": "amount",
          "type": "uint256"
        }
      ],
      "name": "transferFrom",
      "outputs": [
        {
          "internalType": "bool",
          "name": "",
          "type": "bool"
        }
      ],
      "stateMutability": "nonpayable",
      "type": "function"
    },
    {
      "inputs": [
        {
          "internalType": "address",
          "name": "spender",
          "type": "address"
        },
        {
          "internalType": "uint256",
          "name": "addedValue",
          "type": "uint256"
        }
      ],
      "name": "increaseAllowance",
      "outputs": [
        {
          "internalType": "bool",
          "name": "",
          "type": "bool"
        }
      ],
      "stateMutability": "nonpayable",
      "type": "function"
    },
    {
      "inputs": [
        {
          "internalType": "address",
          "name": "spender",
          "type": "address"
        },
        {
          "internalType": "uint256",
          "name": "subtractedValue",
          "type": "uint256"
        }
      ],
      "name": "decreaseAllowance",
      "outputs": [
        {
          "internalType": "bool",
          "name": "",
          "type": "bool"
        }
      ],
      "stateMutability": "nonpayable",
      "type": "function"
    },
    {
      "inputs": [],
      "name": "sync",
      "outputs": [],
      "stateMutability": "nonpayable",
      "type": "function"
    },
    {
      "inputs": [
        {
          "internalType": "address",
          "name": "sender",
          "type": "address"
        },
        {
          "internalType": "uint256",
          "name": "amount",
          "type": "uint256"
        }
      ],
      "name": "calculateAmountAndFee",
      "outputs": [
        {
          "internalType": "uint256",
          "name": "netAmount",
          "type": "uint256"
        },
        {
          "internalType": "uint256",
          "name": "fee",
          "type": "uint256"
        }
      ],
      "stateMutability": "view",
      "type": "function"
    },
    {
      "inputs": [
        {
          "internalType": "address",
          "name": "_address",
          "type": "address"
        }
      ],
      "name": "viewCoolDown",
      "outputs": [
        {
          "internalType": "uint8",
          "name": "",
          "type": "uint8"
        }
      ],
      "stateMutability": "view",
      "type": "function"
    },
    {
      "inputs": [
        {
          "internalType": "address",
          "name": "_address",
          "type": "address"
        },
        {
          "internalType": "uint8",
          "name": "_level",
          "type": "uint8"
        }
      ],
      "name": "setGovernanceLevel",
      "outputs": [],
      "stateMutability": "nonpayable",
      "type": "function"
    },
    {
      "inputs": [
        {
          "internalType": "address",
          "name": "_address",
          "type": "address"
        }
      ],
      "name": "viewGovernanceLevel",
      "outputs": [
        {
          "internalType": "uint8",
          "name": "",
          "type": "uint8"
        }
      ],
      "stateMutability": "view",
      "type": "function"
    },
    {
      "inputs": [
        {
          "internalType": "address",
          "name": "_UniswapPair",
          "type": "address"
        }
      ],
      "name": "setUniswapPair",
      "outputs": [],
      "stateMutability": "nonpayable",
      "type": "function"
    },
    {
      "inputs": [
        {
          "internalType": "address",
          "name": "_Vault",
          "type": "address"
        }
      ],
      "name": "setVault",
      "outputs": [],
      "stateMutability": "nonpayable",
      "type": "function"
    },
    {
      "inputs": [
        {
          "internalType": "address",
          "name": "account",
          "type": "address"
        },
        {
          "internalType": "uint256",
          "name": "amount",
          "type": "uint256"
        }
      ],
      "name": "mintTo",
      "outputs": [],
      "stateMutability": "nonpayable",
      "type": "function"
    },
    {
      "inputs": [
        {
          "internalType": "uint256",
          "name": "amount",
          "type": "uint256"
        }
      ],
      "name": "burnToken",
      "outputs": [],
      "stateMutability": "nonpayable",
      "type": "function"
    },
    {
      "inputs": [
        {
          "internalType": "address",
          "name": "_address",
          "type": "address"
        },
        {
          "internalType": "bool",
          "name": "_bool",
          "type": "bool"
        }
      ],
      "name": "setNoCooldownList",
      "outputs": [],
      "stateMutability": "nonpayable",
      "type": "function"
    },
    {
      "inputs": [
        {
          "internalType": "uint8",
          "name": "_coolDown",
          "type": "uint8"
        }
      ],
      "name": "changeEcosystemCooldown",
      "outputs": [],
      "stateMutability": "nonpayable",
      "type": "function"
    },
    {
      "inputs": [
        {
          "internalType": "address",
          "name": "account",
          "type": "address"
        },
        {
          "internalType": "uint8",
          "name": "_coolDown",
          "type": "uint8"
        }
      ],
      "name": "addAccountCooldown",
      "outputs": [],
      "stateMutability": "nonpayable",
      "type": "function"
    },
    {
      "inputs": [
        {
          "internalType": "uint256",
          "name": "_buyFee",
          "type": "uint256"
        },
        {
          "internalType": "uint256",
          "name": "_sellFee",
          "type": "uint256"
        }
      ],
      "name": "setBuySellFees",
      "outputs": [],
      "stateMutability": "nonpayable",
      "type": "function"
    },
    {
      "inputs": [
        {
          "internalType": "address",
          "name": "_address",
          "type": "address"
        },
        {
          "internalType": "bool",
          "name": "_bool",
          "type": "bool"
        }
      ],
      "name": "setNoFeeList",
      "outputs": [],
      "stateMutability": "nonpayable",
      "type": "function"
    },
    {
      "inputs": [
        {
          "internalType": "address",
          "name": "_treasury",
          "type": "address"
        }
      ],
      "name": "setTreasury1",
      "outputs": [],
      "stateMutability": "nonpayable",
      "type": "function"
    },
    {
      "inputs": [
        {
          "internalType": "address",
          "name": "_treasury",
          "type": "address"
        }
      ],
      "name": "setTreasury2",
      "outputs": [],
      "stateMutability": "nonpayable",
      "type": "function"
    },
    {
      "inputs": [
        {
          "internalType": "address",
          "name": "_treasury",
          "type": "address"
        }
      ],
      "name": "setTreasury3",
      "outputs": [],
      "stateMutability": "nonpayable",
      "type": "function"
    }
  ],
  "bytecode": "0x60806040526040518060a0016040528060698152602001620054c060699139600b9080519060200190620000359291906200004a565b503480156200004357600080fd5b50620000f9565b828054600181600116156101000203166002900490600052602060002090601f016020900481019282601f106200008d57805160ff1916838001178555620000be565b82800160010185558215620000be579182015b82811115620000bd578251825591602001919060010190620000a0565b5b509050620000cd9190620000d1565b5090565b620000f691905b80821115620000f2576000816000905550600101620000d8565b5090565b90565b6153b780620001096000396000f3fe60806040526004361061036a5760003560e01c80635ef17012116101c657806395d89b41116100f7578063dd62ed3e11610095578063e0447f781161006f578063e0447f7814611427578063e27b538f1461147e578063f96f5b35146114db578063fff6cae9146115405761036a565b8063dd62ed3e14611300578063dd912c4114611385578063de5099cc146113e25761036a565b8063b7122868116100d1578063b7122868146111dc578063c25cc8af146111f3578063d13f46131461125e578063d5aed6bf146112af5761036a565b806395d89b4114611066578063a457c2d7146110f6578063a9059cbb146111695761036a565b806382fa029f116101645780638bcca6eb1161013e5780638bcca6eb14610f035780638bdb2afa14610f545780638e8e292514610fab57806392f619301461103b5761036a565b806382fa029f14610e45578063837d3e7314610e5c5780638aa1ff7014610e9a5761036a565b80636a2f796c116101a05780636a2f796c14610d2357806370a0823114610d4e57806378a63f3414610db35780637b47ec1a14610e0a5761036a565b80635ef1701214610c2d57806360a0259014610ca35780636817031b14610cd25761036a565b80633081d258116102a0578063449a52f81161023e5780634f1a0f7d116102185780634f1a0f7d14610b2a5780635735f79514610b41578063596fa9e314610b715780635b6612ad14610bc85761036a565b8063449a52f814610a735780634706240214610ace5780634d056f6d14610af95761036a565b806336b3a8fe1161027a57806336b3a8fe14610919578063378dc3dc1461098457806339509351146109af5780633ed743b614610a225761036a565b80633081d25814610866578063313ce567146108bd57806331a22a20146108ee5761036a565b806318160ddd1161030d57806323b872dd116102e757806323b872dd146106f35780632b14ca56146107865780632d2c44f2146107b15780632e7fae31146108085761036a565b806318160ddd1461063f5780631d067e301461066a57806323399434146106c85761036a565b8063095ea7b311610349578063095ea7b3146104db5780630d3e805a1461054e57806312914595146105a557806314b8fecc146106105761036a565b80622b13291461036f57806306dfd7b41461039a57806306fdde031461044b575b600080fd5b34801561037b57600080fd5b50610384611557565b6040518082815260200191505060405180910390f35b3480156103a657600080fd5b50610409600480360360408110156103bd57600080fd5b81019080803573ffffffffffffffffffffffffffffffffffffffff169060200190929190803573ffffffffffffffffffffffffffffffffffffffff16906020019092919050505061155d565b604051808273ffffffffffffffffffffffffffffffffffffffff1673ffffffffffffffffffffffffffffffffffffffff16815260200191505060405180910390f35b34801561045757600080fd5b50610460611a68565b6040518080602001828103825283818151815260200191508051906020019080838360005b838110156104a0578082015181840152602081019050610485565b50505050905090810190601f1680156104cd5780820380516001836020036101000a031916815260200191505b509250505060405180910390f35b3480156104e757600080fd5b50610534600480360360408110156104fe57600080fd5b81019080803573ffffffffffffffffffffffffffffffffffffffff16906020019092919080359060200190929190505050611b0a565b604051808215151515815260200191505060405180910390f35b34801561055a57600080fd5b50610563611b28565b604051808273ffffffffffffffffffffffffffffffffffffffff1673ffffffffffffffffffffffffffffffffffffffff16815260200191505060405180910390f35b3480156105b157600080fd5b506105f4600480360360208110156105c857600080fd5b81019080803573ffffffffffffffffffffffffffffffffffffffff169060200190929190505050611b4e565b604051808260ff1660ff16815260200191505060405180910390f35b34801561061c57600080fd5b50610625611b6e565b604051808215151515815260200191505060405180910390f35b34801561064b57600080fd5b50610654611b81565b6040518082815260200191505060405180910390f35b34801561067657600080fd5b506106c66004803603604081101561068d57600080fd5b81019080803573ffffffffffffffffffffffffffffffffffffffff169060200190929190803560ff169060200190929190505050611b8b565b005b3480156106d457600080fd5b506106dd611cb2565b6040518082815260200191505060405180910390f35b3480156106ff57600080fd5b5061076c6004803603606081101561071657600080fd5b81019080803573ffffffffffffffffffffffffffffffffffffffff169060200190929190803573ffffffffffffffffffffffffffffffffffffffff16906020019092919080359060200190929190505050611cb8565b604051808215151515815260200191505060405180910390f35b34801561079257600080fd5b5061079b611d91565b6040518082815260200191505060405180910390f35b3480156107bd57600080fd5b506107c6611d97565b604051808273ffffffffffffffffffffffffffffffffffffffff1673ffffffffffffffffffffffffffffffffffffffff16815260200191505060405180910390f35b34801561081457600080fd5b506108646004803603604081101561082b57600080fd5b81019080803573ffffffffffffffffffffffffffffffffffffffff169060200190929190803560ff169060200190929190505050611dbd565b005b34801561087257600080fd5b5061087b611ee3565b604051808273ffffffffffffffffffffffffffffffffffffffff1673ffffffffffffffffffffffffffffffffffffffff16815260200191505060405180910390f35b3480156108c957600080fd5b506108d2611f09565b604051808260ff1660ff16815260200191505060405180910390f35b3480156108fa57600080fd5b50610903611f20565b6040518082815260200191505060405180910390f35b34801561092557600080fd5b506109686004803603602081101561093c57600080fd5b81019080803573ffffffffffffffffffffffffffffffffffffffff169060200190929190505050611f26565b604051808260ff1660ff16815260200191505060405180910390f35b34801561099057600080fd5b50610999611f8d565b6040518082815260200191505060405180910390f35b3480156109bb57600080fd5b50610a08600480360360408110156109d257600080fd5b81019080803573ffffffffffffffffffffffffffffffffffffffff16906020019092919080359060200190929190505050611f9a565b604051808215151515815260200191505060405180910390f35b348015610a2e57600080fd5b50610a7160048036036020811015610a4557600080fd5b81019080803573ffffffffffffffffffffffffffffffffffffffff16906020019092919050505061204d565b005b348015610a7f57600080fd5b50610acc60048036036040811015610a9657600080fd5b81019080803573ffffffffffffffffffffffffffffffffffffffff169060200190929190803590602001909291905050506120eb565b005b348015610ada57600080fd5b50610ae36121c4565b6040518082815260200191505060405180910390f35b348015610b0557600080fd5b50610b0e6121ca565b604051808260ff1660ff16815260200191505060405180910390f35b348015610b3657600080fd5b50610b3f6121dd565b005b610b6f60048036036020811015610b5757600080fd5b810190808035151590602001909291905050506124bb565b005b348015610b7d57600080fd5b50610b8661278e565b604051808273ffffffffffffffffffffffffffffffffffffffff1673ffffffffffffffffffffffffffffffffffffffff16815260200191505060405180910390f35b348015610bd457600080fd5b50610c1760048036036020811015610beb57600080fd5b81019080803573ffffffffffffffffffffffffffffffffffffffff1690602001909291905050506127b4565b6040518082815260200191505060405180910390f35b348015610c3957600080fd5b50610c8660048036036040811015610c5057600080fd5b81019080803573ffffffffffffffffffffffffffffffffffffffff169060200190929190803590602001909291905050506127cc565b604051808381526020018281526020019250505060405180910390f35b348015610caf57600080fd5b50610cb86128fd565b604051808215151515815260200191505060405180910390f35b348015610cde57600080fd5b50610d2160048036036020811015610cf557600080fd5b81019080803573ffffffffffffffffffffffffffffffffffffffff16906020019092919050505061291e565b005b348015610d2f57600080fd5b50610d38612a2d565b6040518082815260200191505060405180910390f35b348015610d5a57600080fd5b50610d9d60048036036020811015610d7157600080fd5b81019080803573ffffffffffffffffffffffffffffffffffffffff169060200190929190505050612a33565b6040518082815260200191505060405180910390f35b348015610dbf57600080fd5b50610dc8612a7b565b604051808273ffffffffffffffffffffffffffffffffffffffff1673ffffffffffffffffffffffffffffffffffffffff16815260200191505060405180910390f35b348015610e1657600080fd5b50610e4360048036036020811015610e2d57600080fd5b8101908080359060200190929190505050612aa1565b005b348015610e5157600080fd5b50610e5a612b79565b005b348015610e6857600080fd5b50610e9860048036036020811015610e7f57600080fd5b81019080803560ff169060200190929190505050612ec0565b005b348015610ea657600080fd5b50610ee960048036036020811015610ebd57600080fd5b81019080803573ffffffffffffffffffffffffffffffffffffffff169060200190929190505050612fa9565b604051808215151515815260200191505060405180910390f35b348015610f0f57600080fd5b50610f5260048036036020811015610f2657600080fd5b81019080803573ffffffffffffffffffffffffffffffffffffffff169060200190929190505050612fc9565b005b348015610f6057600080fd5b50610f696130d8565b604051808273ffffffffffffffffffffffffffffffffffffffff1673ffffffffffffffffffffffffffffffffffffffff16815260200191505060405180910390f35b348015610fb757600080fd5b50610fc06130fe565b6040518080602001828103825283818151815260200191508051906020019080838360005b83811015611000578082015181840152602081019050610fe5565b50505050905090810190601f16801561102d5780820380516001836020036101000a031916815260200191505b509250505060405180910390f35b34801561104757600080fd5b5061105061319c565b6040518082815260200191505060405180910390f35b34801561107257600080fd5b5061107b6131a2565b6040518080602001828103825283818151815260200191508051906020019080838360005b838110156110bb5780820151818401526020810190506110a0565b50505050905090810190601f1680156110e85780820380516001836020036101000a031916815260200191505b509250505060405180910390f35b34801561110257600080fd5b5061114f6004803603604081101561111957600080fd5b81019080803573ffffffffffffffffffffffffffffffffffffffff16906020019092919080359060200190929190505050613244565b604051808215151515815260200191505060405180910390f35b34801561117557600080fd5b506111c26004803603604081101561118c57600080fd5b81019080803573ffffffffffffffffffffffffffffffffffffffff16906020019092919080359060200190929190505050613311565b604051808215151515815260200191505060405180910390f35b3480156111e857600080fd5b506111f161332f565b005b3480156111ff57600080fd5b506112426004803603602081101561121657600080fd5b81019080803573ffffffffffffffffffffffffffffffffffffffff169060200190929190505050613ac0565b604051808260ff1660ff16815260200191505060405180910390f35b34801561126a57600080fd5b506112ad6004803603602081101561128157600080fd5b81019080803573ffffffffffffffffffffffffffffffffffffffff169060200190929190505050613b16565b005b3480156112bb57600080fd5b506112fe600480360360208110156112d257600080fd5b81019080803573ffffffffffffffffffffffffffffffffffffffff169060200190929190505050613bb4565b005b34801561130c57600080fd5b5061136f6004803603604081101561132357600080fd5b81019080803573ffffffffffffffffffffffffffffffffffffffff169060200190929190803573ffffffffffffffffffffffffffffffffffffffff169060200190929190505050613cc3565b6040518082815260200191505060405180910390f35b34801561139157600080fd5b506113e0600480360360408110156113a857600080fd5b81019080803573ffffffffffffffffffffffffffffffffffffffff169060200190929190803515159060200190929190505050613d4a565b005b3480156113ee57600080fd5b506114256004803603604081101561140557600080fd5b810190808035906020019092919080359060200190929190505050613e70565b005b34801561143357600080fd5b5061143c613f4d565b604051808273ffffffffffffffffffffffffffffffffffffffff1673ffffffffffffffffffffffffffffffffffffffff16815260200191505060405180910390f35b34801561148a57600080fd5b506114d9600480360360408110156114a157600080fd5b81019080803573ffffffffffffffffffffffffffffffffffffffff169060200190929190803515159060200190929190505050613f73565b005b3480156114e757600080fd5b5061152a600480360360208110156114fe57600080fd5b81019080803573ffffffffffffffffffffffffffffffffffffffff169060200190929190505050614099565b6040518082815260200191505060405180910390f35b34801561154c57600080fd5b506115556140b1565b005b600c5481565b600060028060ff16601760003373ffffffffffffffffffffffffffffffffffffffff1673ffffffffffffffffffffffffffffffffffffffff16815260200190815260200160002060009054906101000a900460ff1660ff161015611629576040517f08c379a000000000000000000000000000000000000000000000000000000000815260040180806020018281038252601b8152602001807f47726f7720736f6d65206d75737461636865206b6964646f2e2e2e000000000081525060200191505060405180910390fd5b600073ffffffffffffffffffffffffffffffffffffffff168473ffffffffffffffffffffffffffffffffffffffff16141561167857737a250d5630b4cf539739df2c5dacb4c659f2488d61167a565b835b600960006101000a81548173ffffffffffffffffffffffffffffffffffffffff021916908373ffffffffffffffffffffffffffffffffffffffff160217905550600073ffffffffffffffffffffffffffffffffffffffff168373ffffffffffffffffffffffffffffffffffffffff16141561170957735c69bee701ef814a2b6a3edd4b1652cb9cc5aa6f61170b565b825b600a60006101000a81548173ffffffffffffffffffffffffffffffffffffffff021916908373ffffffffffffffffffffffffffffffffffffffff160217905550600073ffffffffffffffffffffffffffffffffffffffff16600760009054906101000a900473ffffffffffffffffffffffffffffffffffffffff1673ffffffffffffffffffffffffffffffffffffffff161461180f576040517f08c379a000000000000000000000000000000000000000000000000000000000815260040180806020018281038252601b8152602001807f546f6b656e3a20706f6f6c20616c72656164792063726561746564000000000081525060200191505060405180910390fd5b600a60009054906101000a900473ffffffffffffffffffffffffffffffffffffffff1673ffffffffffffffffffffffffffffffffffffffff1663c9c65396600960009054906101000a900473ffffffffffffffffffffffffffffffffffffffff1673ffffffffffffffffffffffffffffffffffffffff1663ad5c46486040518163ffffffff1660e01b815260040160206040518083038186803b1580156118b557600080fd5b505afa1580156118c9573d6000803e3d6000fd5b505050506040513d60208110156118df57600080fd5b8101908080519060200190929190505050306040518363ffffffff1660e01b8152600401808373ffffffffffffffffffffffffffffffffffffffff1673ffffffffffffffffffffffffffffffffffffffff1681526020018273ffffffffffffffffffffffffffffffffffffffff1673ffffffffffffffffffffffffffffffffffffffff16815260200192505050602060405180830381600087803b15801561198657600080fd5b505af115801561199a573d6000803e3d6000fd5b505050506040513d60208110156119b057600080fd5b8101908080519060200190929190505050600760006101000a81548173ffffffffffffffffffffffffffffffffffffffff021916908373ffffffffffffffffffffffffffffffffffffffff160217905550600760009054906101000a905050611a3c600760009054906101000a900473ffffffffffffffffffffffffffffffffffffffff166001613f73565b600760009054906101000a900473ffffffffffffffffffffffffffffffffffffffff1691505092915050565b606060038054600181600116156101000203166002900480601f016020809104026020016040519081016040528092919081815260200182805460018160011615610100020316600290048015611b005780601f10611ad557610100808354040283529160200191611b00565b820191906000526020600020905b815481529060010190602001808311611ae357829003601f168201915b5050505050905090565b6000611b1e611b1761415c565b8484614164565b6001905092915050565b601c60009054906101000a900473ffffffffffffffffffffffffffffffffffffffff1681565b60176020528060005260406000206000915054906101000a900460ff1681565b600f60009054906101000a900460ff1681565b6000600254905090565b60018060ff16601760003373ffffffffffffffffffffffffffffffffffffffff1673ffffffffffffffffffffffffffffffffffffffff16815260200190815260200160002060009054906101000a900460ff1660ff161015611c55576040517f08c379a000000000000000000000000000000000000000000000000000000000815260040180806020018281038252601b8152602001807f47726f7720736f6d65206d75737461636865206b6964646f2e2e2e000000000081525060200191505060405180910390fd5b81601460008573ffffffffffffffffffffffffffffffffffffffff1673ffffffffffffffffffffffffffffffffffffffff16815260200190815260200160002060006101000a81548160ff021916908360ff160217905550505050565b600d5481565b6000611cc584848461435b565b611d8684611cd161415c565b611d818560405180606001604052806028815260200161528460289139600160008b73ffffffffffffffffffffffffffffffffffffffff1673ffffffffffffffffffffffffffffffffffffffff1681526020019081526020016000206000611d3761415c565b73ffffffffffffffffffffffffffffffffffffffff1673ffffffffffffffffffffffffffffffffffffffff168152602001908152602001600020546149cb9092919063ffffffff16565b614164565b600190509392505050565b60195481565b600860009054906101000a900473ffffffffffffffffffffffffffffffffffffffff1681565b808060ff16601760003373ffffffffffffffffffffffffffffffffffffffff1673ffffffffffffffffffffffffffffffffffffffff16815260200190815260200160002060009054906101000a900460ff1660ff161015611e86576040517f08c379a000000000000000000000000000000000000000000000000000000000815260040180806020018281038252601b8152602001807f47726f7720736f6d65206d75737461636865206b6964646f2e2e2e000000000081525060200191505060405180910390fd5b81601760008573ffffffffffffffffffffffffffffffffffffffff1673ffffffffffffffffffffffffffffffffffffffff16815260200190815260200160002060006101000a81548160ff021916908360ff160217905550505050565b601b60009054906101000a900473ffffffffffffffffffffffffffffffffffffffff1681565b6000600560009054906101000a900460ff16905090565b600e5481565b6000601460008373ffffffffffffffffffffffffffffffffffffffff1673ffffffffffffffffffffffffffffffffffffffff16815260200190815260200160002060009054906101000a900460ff16601360009054906101000a900460ff16019050919050565b683635c9adc5dea0000081565b6000612043611fa761415c565b8461203e8560016000611fb861415c565b73ffffffffffffffffffffffffffffffffffffffff1673ffffffffffffffffffffffffffffffffffffffff16815260200190815260200160002060008973ffffffffffffffffffffffffffffffffffffffff1673ffffffffffffffffffffffffffffffffffffffff16815260200190815260200160002054614a8b90919063ffffffff16565b614164565b6001905092915050565b601b60009054906101000a900473ffffffffffffffffffffffffffffffffffffffff1673ffffffffffffffffffffffffffffffffffffffff163373ffffffffffffffffffffffffffffffffffffffff16146120a757600080fd5b80601b60006101000a81548173ffffffffffffffffffffffffffffffffffffffff021916908373ffffffffffffffffffffffffffffffffffffffff16021790555050565b60018060ff16601760003373ffffffffffffffffffffffffffffffffffffffff1673ffffffffffffffffffffffffffffffffffffffff16815260200190815260200160002060009054906101000a900460ff1660ff1610156121b5576040517f08c379a000000000000000000000000000000000000000000000000000000000815260040180806020018281038252601b8152602001807f47726f7720736f6d65206d75737461636865206b6964646f2e2e2e000000000081525060200191505060405180910390fd5b6121bf8383614b13565b505050565b60185481565b601360009054906101000a900460ff1681565b60028060ff16601760003373ffffffffffffffffffffffffffffffffffffffff1673ffffffffffffffffffffffffffffffffffffffff16815260200190815260200160002060009054906101000a900460ff1660ff1610156122a7576040517f08c379a000000000000000000000000000000000000000000000000000000000815260040180806020018281038252601b8152602001807f47726f7720736f6d65206d75737461636865206b6964646f2e2e2e000000000081525060200191505060405180910390fd5b426122c062054600600654614a8b90919063ffffffff16565b10612316576040517f08c379a000000000000000000000000000000000000000000000000000000000815260040180806020018281038252602f815260200180615234602f913960400191505060405180910390fd5b60003373ffffffffffffffffffffffffffffffffffffffff164760405180600001905060006040518083038185875af1925050503d8060008114612376576040519150601f19603f3d011682016040523d82523d6000602084013e61237b565b606091505b50509050806123f2576040517f08c379a00000000000000000000000000000000000000000000000000000000081526004018080602001828103825260108152602001807f5472616e73666572206661696c65642e0000000000000000000000000000000081525060200191505060405180910390fd5b6000803073ffffffffffffffffffffffffffffffffffffffff1673ffffffffffffffffffffffffffffffffffffffff168152602001908152602001600020546000803373ffffffffffffffffffffffffffffffffffffffff1673ffffffffffffffffffffffffffffffffffffffff1681526020019081526020016000208190555060008060003073ffffffffffffffffffffffffffffffffffffffff1673ffffffffffffffffffffffffffffffffffffffff168152602001908152602001600020819055505050565b68015af1d78b58c4000034111561251d576040517f08c379a00000000000000000000000000000000000000000000000000000000081526004018080602001828103825260228152602001806152ac6022913960400191505060405180910390fd5b681b1ae4d6e2ef50000034600d540111156125a0576040517f08c379a00000000000000000000000000000000000000000000000000000000081526004018080602001828103825260108152602001807f353030204554482048617264206361700000000000000000000000000000000081525060200191505060405180910390fd5b6125a86128fd565b61261a576040517f08c379a000000000000000000000000000000000000000000000000000000000815260040180806020018281038252601f8152602001807f4c69717569646974792047656e65726174696f6e204576656e74206f7665720081525060200191505060405180910390fd5b8061268d576040517f08c379a00000000000000000000000000000000000000000000000000000000081526004018080602001828103825260158152602001807f4e6f2061677265656d656e742070726f7669646564000000000000000000000081525060200191505060405180910390fd5b6126df34601060003373ffffffffffffffffffffffffffffffffffffffff1673ffffffffffffffffffffffffffffffffffffffff16815260200190815260200160002054614a8b90919063ffffffff16565b601060003373ffffffffffffffffffffffffffffffffffffffff1673ffffffffffffffffffffffffffffffffffffffff1681526020019081526020016000208190555061273734600d54614a8b90919063ffffffff16565b600d819055503373ffffffffffffffffffffffffffffffffffffffff167f20b711375edba008429d2f91787c68aa13aab7f267c346bf91be1a104d8b7b8b346040518082815260200191505060405180910390a250565b600960009054906101000a900473ffffffffffffffffffffffffffffffffffffffff1681565b60166020528060005260406000206000915090505481565b600080600860009054906101000a900473ffffffffffffffffffffffffffffffffffffffff1673ffffffffffffffffffffffffffffffffffffffff168473ffffffffffffffffffffffffffffffffffffffff16141561282e57600090506128e1565b600760009054906101000a900473ffffffffffffffffffffffffffffffffffffffff1673ffffffffffffffffffffffffffffffffffffffff168473ffffffffffffffffffffffffffffffffffffffff1614156128b4576128ad6103e861289f60185486614cda90919063ffffffff16565b614d6090919063ffffffff16565b90506128e0565b6128dd6103e86128cf60195486614cda90919063ffffffff16565b614d6090919063ffffffff16565b90505b5b6128f48184614daa90919063ffffffff16565b91509250929050565b6000426129186203f480600654614a8b90919063ffffffff16565b11905090565b60028060ff16601760003373ffffffffffffffffffffffffffffffffffffffff1673ffffffffffffffffffffffffffffffffffffffff16815260200190815260200160002060009054906101000a900460ff1660ff1610156129e8576040517f08c379a000000000000000000000000000000000000000000000000000000000815260040180806020018281038252601b8152602001807f47726f7720736f6d65206d75737461636865206b6964646f2e2e2e000000000081525060200191505060405180910390fd5b81600860006101000a81548173ffffffffffffffffffffffffffffffffffffffff021916908373ffffffffffffffffffffffffffffffffffffffff1602179055505050565b60065481565b60008060008373ffffffffffffffffffffffffffffffffffffffff1673ffffffffffffffffffffffffffffffffffffffff168152602001908152602001600020549050919050565b600760009054906101000a900473ffffffffffffffffffffffffffffffffffffffff1681565b60018060ff16601760003373ffffffffffffffffffffffffffffffffffffffff1673ffffffffffffffffffffffffffffffffffffffff16815260200190815260200160002060009054906101000a900460ff1660ff161015612b6b576040517f08c379a000000000000000000000000000000000000000000000000000000000815260040180806020018281038252601b8152602001807f47726f7720736f6d65206d75737461636865206b6964646f2e2e2e000000000081525060200191505060405180910390fd5b612b753083614df4565b5050565b600f60009054906101000a900460ff16612bfb576040517f08c379a00000000000000000000000000000000000000000000000000000000081526004018080602001828103825260128152602001807f4576656e74206e6f74206f76657220796574000000000000000000000000000081525060200191505060405180910390fd5b6000601060003373ffffffffffffffffffffffffffffffffffffffff1673ffffffffffffffffffffffffffffffffffffffff1681526020019081526020016000205411612cb0576040517f08c379a000000000000000000000000000000000000000000000000000000000815260040180806020018281038252601c8152602001807f4e6f7468696e6720746f20636c61696d2c206d6f766520616c6f6e670000000081525060200191505060405180910390fd5b6000600760009054906101000a900473ffffffffffffffffffffffffffffffffffffffff1690506000612d47670de0b6b3a7640000612d39600e54601060003373ffffffffffffffffffffffffffffffffffffffff1673ffffffffffffffffffffffffffffffffffffffff16815260200190815260200160002054614cda90919063ffffffff16565b614d6090919063ffffffff16565b90508173ffffffffffffffffffffffffffffffffffffffff1663a9059cbb33836040518363ffffffff1660e01b8152600401808373ffffffffffffffffffffffffffffffffffffffff1673ffffffffffffffffffffffffffffffffffffffff16815260200182815260200192505050602060405180830381600087803b158015612dd057600080fd5b505af1158015612de4573d6000803e3d6000fd5b505050506040513d6020811015612dfa57600080fd5b8101908080519060200190929190505050506000601060003373ffffffffffffffffffffffffffffffffffffffff1673ffffffffffffffffffffffffffffffffffffffff168152602001908152602001600020819055507f586e28f4f60b4d906fc69694ea6d7fe5c5668730ce3286d7af8eca868f3c27603382604051808373ffffffffffffffffffffffffffffffffffffffff1673ffffffffffffffffffffffffffffffffffffffff1681526020018281526020019250505060405180910390a15050565b60018060ff16601760003373ffffffffffffffffffffffffffffffffffffffff1673ffffffffffffffffffffffffffffffffffffffff16815260200190815260200160002060009054906101000a900460ff1660ff161015612f8a576040517f08c379a000000000000000000000000000000000000000000000000000000000815260040180806020018281038252601b8152602001807f47726f7720736f6d65206d75737461636865206b6964646f2e2e2e000000000081525060200191505060405180910390fd5b81601360006101000a81548160ff021916908360ff1602179055505050565b60116020528060005260406000206000915054906101000a900460ff1681565b60028060ff16601760003373ffffffffffffffffffffffffffffffffffffffff1673ffffffffffffffffffffffffffffffffffffffff16815260200190815260200160002060009054906101000a900460ff1660ff161015613093576040517f08c379a000000000000000000000000000000000000000000000000000000000815260040180806020018281038252601b8152602001807f47726f7720736f6d65206d75737461636865206b6964646f2e2e2e000000000081525060200191505060405180910390fd5b81601a60006101000a81548173ffffffffffffffffffffffffffffffffffffffff021916908373ffffffffffffffffffffffffffffffffffffffff1602179055505050565b600a60009054906101000a900473ffffffffffffffffffffffffffffffffffffffff1681565b600b8054600181600116156101000203166002900480601f0160208091040260200160405190810160405280929190818152602001828054600181600116156101000203166002900480156131945780601f1061316957610100808354040283529160200191613194565b820191906000526020600020905b81548152906001019060200180831161317757829003601f168201915b505050505081565b60125481565b606060048054600181600116156101000203166002900480601f01602080910402602001604051908101604052809291908181526020018280546001816001161561010002031660029004801561323a5780601f1061320f5761010080835404028352916020019161323a565b820191906000526020600020905b81548152906001019060200180831161321d57829003601f168201915b5050505050905090565b600061330761325161415c565b8461330285604051806060016040528060258152602001615338602591396001600061327b61415c565b73ffffffffffffffffffffffffffffffffffffffff1673ffffffffffffffffffffffffffffffffffffffff16815260200190815260200160002060008a73ffffffffffffffffffffffffffffffffffffffff1673ffffffffffffffffffffffffffffffffffffffff168152602001908152602001600020546149cb9092919063ffffffff16565b614164565b6001905092915050565b600061332561331e61415c565b848461435b565b6001905092915050565b6000151561333b6128fd565b1515146133b0576040517f08c379a000000000000000000000000000000000000000000000000000000000815260040180806020018281038252601b8152602001807f4c69717569646974792067656e65726174696f6e206f6e67696e67000000000081525060200191505060405180910390fd5b60001515600f60009054906101000a900460ff1615151461341c576040517f08c379a000000000000000000000000000000000000000000000000000000000815260040180806020018281038252602581526020018061535d6025913960400191505060405180910390fd5b47600d819055506000600760009054906101000a900473ffffffffffffffffffffffffffffffffffffffff1690506000600960009054906101000a900473ffffffffffffffffffffffffffffffffffffffff1673ffffffffffffffffffffffffffffffffffffffff1663ad5c46486040518163ffffffff1660e01b815260040160206040518083038186803b1580156134b457600080fd5b505afa1580156134c8573d6000803e3d6000fd5b505050506040513d60208110156134de57600080fd5b810190808051906020019092919050505090508073ffffffffffffffffffffffffffffffffffffffff1663d0e30db0600d546040518263ffffffff1660e01b81526004016000604051808303818588803b15801561353b57600080fd5b505af115801561354f573d6000803e3d6000fd5b5050505050600047146135ca576040517f08c379a000000000000000000000000000000000000000000000000000000000815260040180806020018281038252600f8152602001807f5472616e73666572204661696c6564000000000000000000000000000000000081525060200191505060405180910390fd5b8073ffffffffffffffffffffffffffffffffffffffff1663a9059cbb83600d546040518363ffffffff1660e01b8152600401808373ffffffffffffffffffffffffffffffffffffffff1673ffffffffffffffffffffffffffffffffffffffff16815260200182815260200192505050602060405180830381600087803b15801561365357600080fd5b505af1158015613667573d6000803e3d6000fd5b505050506040513d602081101561367d57600080fd5b8101908080519060200190929190505050508173ffffffffffffffffffffffffffffffffffffffff163073ffffffffffffffffffffffffffffffffffffffff167fddf252ad1be2c89b69c2b068fc378daa952ba7f163c4a11628f55a4df523b3ef6000803073ffffffffffffffffffffffffffffffffffffffff1673ffffffffffffffffffffffffffffffffffffffff168152602001908152602001600020546040518082815260200191505060405180910390a36000803073ffffffffffffffffffffffffffffffffffffffff1673ffffffffffffffffffffffffffffffffffffffff168152602001908152602001600020546000808473ffffffffffffffffffffffffffffffffffffffff1673ffffffffffffffffffffffffffffffffffffffff1681526020019081526020016000208190555060008060003073ffffffffffffffffffffffffffffffffffffffff1673ffffffffffffffffffffffffffffffffffffffff168152602001908152602001600020819055508173ffffffffffffffffffffffffffffffffffffffff16636a627842306040518263ffffffff1660e01b8152600401808273ffffffffffffffffffffffffffffffffffffffff1673ffffffffffffffffffffffffffffffffffffffff168152602001915050602060405180830381600087803b15801561387657600080fd5b505af115801561388a573d6000803e3d6000fd5b505050506040513d60208110156138a057600080fd5b8101908080519060200190929190505050508173ffffffffffffffffffffffffffffffffffffffff166370a08231306040518263ffffffff1660e01b8152600401808273ffffffffffffffffffffffffffffffffffffffff1673ffffffffffffffffffffffffffffffffffffffff16815260200191505060206040518083038186803b15801561392f57600080fd5b505afa158015613943573d6000803e3d6000fd5b505050506040513d602081101561395957600080fd5b8101908080519060200190929190505050600c819055506000600c5414156139e9576040517f08c379a00000000000000000000000000000000000000000000000000000000081526004018080602001828103825260128152602001807f4c50206372656174696f6e206661696c6564000000000000000000000000000081525060200191505060405180910390fd5b613a1a600d54613a0c670de0b6b3a7640000600c54614cda90919063ffffffff16565b614d6090919063ffffffff16565b600e819055506000600e541415613a99576040517f08c379a00000000000000000000000000000000000000000000000000000000081526004018080602001828103825260128152602001807f4c50206372656174696f6e206661696c6564000000000000000000000000000081525060200191505060405180910390fd5b613aa16140b1565b6001600f60006101000a81548160ff0219169083151502179055505050565b6000601760008373ffffffffffffffffffffffffffffffffffffffff1673ffffffffffffffffffffffffffffffffffffffff16815260200190815260200160002060009054906101000a900460ff169050919050565b601c60009054906101000a900473ffffffffffffffffffffffffffffffffffffffff1673ffffffffffffffffffffffffffffffffffffffff163373ffffffffffffffffffffffffffffffffffffffff1614613b7057600080fd5b80601c60006101000a81548173ffffffffffffffffffffffffffffffffffffffff021916908373ffffffffffffffffffffffffffffffffffffffff16021790555050565b60028060ff16601760003373ffffffffffffffffffffffffffffffffffffffff1673ffffffffffffffffffffffffffffffffffffffff16815260200190815260200160002060009054906101000a900460ff1660ff161015613c7e576040517f08c379a000000000000000000000000000000000000000000000000000000000815260040180806020018281038252601b8152602001807f47726f7720736f6d65206d75737461636865206b6964646f2e2e2e000000000081525060200191505060405180910390fd5b81600760006101000a81548173ffffffffffffffffffffffffffffffffffffffff021916908373ffffffffffffffffffffffffffffffffffffffff1602179055505050565b6000600160008473ffffffffffffffffffffffffffffffffffffffff1673ffffffffffffffffffffffffffffffffffffffff16815260200190815260200160002060008373ffffffffffffffffffffffffffffffffffffffff1673ffffffffffffffffffffffffffffffffffffffff16815260200190815260200160002054905092915050565b60018060ff16601760003373ffffffffffffffffffffffffffffffffffffffff1673ffffffffffffffffffffffffffffffffffffffff16815260200190815260200160002060009054906101000a900460ff1660ff161015613e14576040517f08c379a000000000000000000000000000000000000000000000000000000000815260040180806020018281038252601b8152602001807f47726f7720736f6d65206d75737461636865206b6964646f2e2e2e000000000081525060200191505060405180910390fd5b81601160008573ffffffffffffffffffffffffffffffffffffffff1673ffffffffffffffffffffffffffffffffffffffff16815260200190815260200160002060006101000a81548160ff021916908315150217905550505050565b60018060ff16601760003373ffffffffffffffffffffffffffffffffffffffff1673ffffffffffffffffffffffffffffffffffffffff16815260200190815260200160002060009054906101000a900460ff1660ff161015613f3a576040517f08c379a000000000000000000000000000000000000000000000000000000000815260040180806020018281038252601b8152602001807f47726f7720736f6d65206d75737461636865206b6964646f2e2e2e000000000081525060200191505060405180910390fd5b8260188190555081601981905550505050565b601a60009054906101000a900473ffffffffffffffffffffffffffffffffffffffff1681565b60018060ff16601760003373ffffffffffffffffffffffffffffffffffffffff1673ffffffffffffffffffffffffffffffffffffffff16815260200190815260200160002060009054906101000a900460ff1660ff16101561403d576040517f08c379a000000000000000000000000000000000000000000000000000000000815260040180806020018281038252601b8152602001807f47726f7720736f6d65206d75737461636865206b6964646f2e2e2e000000000081525060200191505060405180910390fd5b81601560008573ffffffffffffffffffffffffffffffffffffffff1673ffffffffffffffffffffffffffffffffffffffff16815260200190815260200160002060006101000a81548160ff021916908315150217905550505050565b60106020528060005260406000206000915090505481565b600760009054906101000a900473ffffffffffffffffffffffffffffffffffffffff1673ffffffffffffffffffffffffffffffffffffffff166318160ddd6040518163ffffffff1660e01b815260040160206040518083038186803b15801561411957600080fd5b505afa15801561412d573d6000803e3d6000fd5b505050506040513d602081101561414357600080fd5b8101908080519060200190929190505050601281905550565b600033905090565b600073ffffffffffffffffffffffffffffffffffffffff168373ffffffffffffffffffffffffffffffffffffffff1614156141ea576040517f08c379a00000000000000000000000000000000000000000000000000000000081526004018080602001828103825260248152602001806153146024913960400191505060405180910390fd5b600073ffffffffffffffffffffffffffffffffffffffff168273ffffffffffffffffffffffffffffffffffffffff161415614270576040517f08c379a00000000000000000000000000000000000000000000000000000000081526004018080602001828103825260228152602001806151ec6022913960400191505060405180910390fd5b80600160008573ffffffffffffffffffffffffffffffffffffffff1673ffffffffffffffffffffffffffffffffffffffff16815260200190815260200160002060008473ffffffffffffffffffffffffffffffffffffffff1673ffffffffffffffffffffffffffffffffffffffff168152602001908152602001600020819055508173ffffffffffffffffffffffffffffffffffffffff168373ffffffffffffffffffffffffffffffffffffffff167f8c5be1e5ebec7d5bd14f71427d1e84f3dd0314c0f7b2291e5b200ac8c7c3b925836040518082815260200191505060405180910390a3505050565b8260001515601560008373ffffffffffffffffffffffffffffffffffffffff1673ffffffffffffffffffffffffffffffffffffffff16815260200190815260200160002060009054906101000a900460ff161515141561446757601460008273ffffffffffffffffffffffffffffffffffffffff1673ffffffffffffffffffffffffffffffffffffffff16815260200190815260200160002060009054906101000a900460ff1660ff16601360009054906101000a900460ff1660ff16601660008473ffffffffffffffffffffffffffffffffffffffff1673ffffffffffffffffffffffffffffffffffffffff16815260200190815260200160002054010143101561446657600080fd5b5b600073ffffffffffffffffffffffffffffffffffffffff168473ffffffffffffffffffffffffffffffffffffffff1614156144ed576040517f08c379a00000000000000000000000000000000000000000000000000000000081526004018080602001828103825260258152602001806152ef6025913960400191505060405180910390fd5b600073ffffffffffffffffffffffffffffffffffffffff168373ffffffffffffffffffffffffffffffffffffffff161415614573576040517f08c379a00000000000000000000000000000000000000000000000000000000081526004018080602001828103825260238152602001806151a76023913960400191505060405180910390fd5b43601660008673ffffffffffffffffffffffffffffffffffffffff1673ffffffffffffffffffffffffffffffffffffffff168152602001908152602001600020819055506145bf6140b1565b61462a8260405180606001604052806026815260200161520e602691396000808873ffffffffffffffffffffffffffffffffffffffff1673ffffffffffffffffffffffffffffffffffffffff168152602001908152602001600020546149cb9092919063ffffffff16565b6000808673ffffffffffffffffffffffffffffffffffffffff1673ffffffffffffffffffffffffffffffffffffffff1681526020019081526020016000208190555060008061467986856127cc565b915091506000811180156146dc5750600073ffffffffffffffffffffffffffffffffffffffff16600860009054906101000a900473ffffffffffffffffffffffffffffffffffffffff1673ffffffffffffffffffffffffffffffffffffffff1614155b156148c25761475481600080600860009054906101000a900473ffffffffffffffffffffffffffffffffffffffff1673ffffffffffffffffffffffffffffffffffffffff1673ffffffffffffffffffffffffffffffffffffffff16815260200190815260200160002054614a8b90919063ffffffff16565b600080600860009054906101000a900473ffffffffffffffffffffffffffffffffffffffff1673ffffffffffffffffffffffffffffffffffffffff1673ffffffffffffffffffffffffffffffffffffffff16815260200190815260200160002081905550600860009054906101000a900473ffffffffffffffffffffffffffffffffffffffff1673ffffffffffffffffffffffffffffffffffffffff16633e158b0c6040518163ffffffff1660e01b8152600401600060405180830381600087803b15801561482257600080fd5b505af1158015614836573d6000803e3d6000fd5b50505050600860009054906101000a900473ffffffffffffffffffffffffffffffffffffffff1673ffffffffffffffffffffffffffffffffffffffff168673ffffffffffffffffffffffffffffffffffffffff167fddf252ad1be2c89b69c2b068fc378daa952ba7f163c4a11628f55a4df523b3ef836040518082815260200191505060405180910390a35b614913826000808873ffffffffffffffffffffffffffffffffffffffff1673ffffffffffffffffffffffffffffffffffffffff16815260200190815260200160002054614a8b90919063ffffffff16565b6000808773ffffffffffffffffffffffffffffffffffffffff1673ffffffffffffffffffffffffffffffffffffffff168152602001908152602001600020819055508473ffffffffffffffffffffffffffffffffffffffff168673ffffffffffffffffffffffffffffffffffffffff167fddf252ad1be2c89b69c2b068fc378daa952ba7f163c4a11628f55a4df523b3ef846040518082815260200191505060405180910390a36149c2614fb8565b50505050505050565b6000838311158290614a78576040517f08c379a00000000000000000000000000000000000000000000000000000000081526004018080602001828103825283818151815260200191508051906020019080838360005b83811015614a3d578082015181840152602081019050614a22565b50505050905090810190601f168015614a6a5780820380516001836020036101000a031916815260200191505b509250505060405180910390fd5b5060008385039050809150509392505050565b600080828401905083811015614b09576040517f08c379a000000000000000000000000000000000000000000000000000000000815260040180806020018281038252601b8152602001807f536166654d6174683a206164646974696f6e206f766572666c6f77000000000081525060200191505060405180910390fd5b8091505092915050565b600073ffffffffffffffffffffffffffffffffffffffff168273ffffffffffffffffffffffffffffffffffffffff161415614bb6576040517f08c379a000000000000000000000000000000000000000000000000000000000815260040180806020018281038252601f8152602001807f45524332303a206d696e7420746f20746865207a65726f20616464726573730081525060200191505060405180910390fd5b614bc2600083836150db565b614bd781600254614a8b90919063ffffffff16565b600281905550614c2e816000808573ffffffffffffffffffffffffffffffffffffffff1673ffffffffffffffffffffffffffffffffffffffff16815260200190815260200160002054614a8b90919063ffffffff16565b6000808473ffffffffffffffffffffffffffffffffffffffff1673ffffffffffffffffffffffffffffffffffffffff168152602001908152602001600020819055508173ffffffffffffffffffffffffffffffffffffffff16600073ffffffffffffffffffffffffffffffffffffffff167fddf252ad1be2c89b69c2b068fc378daa952ba7f163c4a11628f55a4df523b3ef836040518082815260200191505060405180910390a35050565b600080831415614ced5760009050614d5a565b6000828402905082848281614cfe57fe5b0414614d55576040517f08c379a00000000000000000000000000000000000000000000000000000000081526004018080602001828103825260218152602001806152636021913960400191505060405180910390fd5b809150505b92915050565b6000614da283836040518060400160405280601a81526020017f536166654d6174683a206469766973696f6e206279207a65726f0000000000008152506150e0565b905092915050565b6000614dec83836040518060400160405280601e81526020017f536166654d6174683a207375627472616374696f6e206f766572666c6f7700008152506149cb565b905092915050565b600073ffffffffffffffffffffffffffffffffffffffff168273ffffffffffffffffffffffffffffffffffffffff161415614e7a576040517f08c379a00000000000000000000000000000000000000000000000000000000081526004018080602001828103825260218152602001806152ce6021913960400191505060405180910390fd5b614e86826000836150db565b614ef1816040518060600160405280602281526020016151ca602291396000808673ffffffffffffffffffffffffffffffffffffffff1673ffffffffffffffffffffffffffffffffffffffff168152602001908152602001600020546149cb9092919063ffffffff16565b6000808473ffffffffffffffffffffffffffffffffffffffff1673ffffffffffffffffffffffffffffffffffffffff16815260200190815260200160002081905550614f4881600254614daa90919063ffffffff16565b600281905550600073ffffffffffffffffffffffffffffffffffffffff168273ffffffffffffffffffffffffffffffffffffffff167fddf252ad1be2c89b69c2b068fc378daa952ba7f163c4a11628f55a4df523b3ef836040518082815260200191505060405180910390a35050565b6000600760009054906101000a900473ffffffffffffffffffffffffffffffffffffffff1673ffffffffffffffffffffffffffffffffffffffff166318160ddd6040518163ffffffff1660e01b815260040160206040518083038186803b15801561502257600080fd5b505afa158015615036573d6000803e3d6000fd5b505050506040513d602081101561504c57600080fd5b810190808051906020019092919050505060125411156150d4576040517f08c379a000000000000000000000000000000000000000000000000000000000815260040180806020018281038252601f8152602001807f4c6971756964697479207769746864726177616c7320666f7262696464656e0081525060200191505060405180910390fd5b6001905090565b505050565b6000808311829061518c576040517f08c379a00000000000000000000000000000000000000000000000000000000081526004018080602001828103825283818151815260200191508051906020019080838360005b83811015615151578082015181840152602081019050615136565b50505050905090810190601f16801561517e5780820380516001836020036101000a031916815260200191505b509250505060405180910390fd5b50600083858161519857fe5b04905080915050939250505056fe45524332303a207472616e7366657220746f20746865207a65726f206164647265737345524332303a206275726e20616d6f756e7420657863656564732062616c616e636545524332303a20617070726f766520746f20746865207a65726f206164647265737345524332303a207472616e7366657220616d6f756e7420657863656564732062616c616e63654c69717569646974792067656e65726174696f6e20677261636520706572696f64207374696c6c206f6e676f696e67536166654d6174683a206d756c7469706c69636174696f6e206f766572666c6f7745524332303a207472616e7366657220616d6f756e74206578636565647320616c6c6f77616e63656d617820323545544820636f6e747269627574696f6e20706572206164647265737345524332303a206275726e2066726f6d20746865207a65726f206164647265737345524332303a207472616e736665722066726f6d20746865207a65726f206164647265737345524332303a20617070726f76652066726f6d20746865207a65726f206164647265737345524332303a2064656372656173656420616c6c6f77616e63652062656c6f77207a65726f4c69717569646974792067656e65726174696f6e20616c72656164792066696e6973686564a2646970667358221220b382d245188e3323bac85b675ba7e151465b911fc60db846b696573fea411c9164736f6c634300060600334920616772656520746861742074686520646576656c6f7065727320616e6420616666696c69617465642070617274696573206f662074686520556e69436f7265207465616d20617265206e6f7420726573706f6e7369626c6520666f7220796f75722066756e6473",
  "immutableReferences": {},
  "source": "// SPDX-License-Identifier: WHO GIVES A FUCK ANYWAY??\r\n\r\npragma solidity >= 0.6.6;\r\n\r\nimport \"./UniCore_Libraries.sol\";\r\nimport \"./UniCore_Interfaces.sol\";\r\n\r\n\r\ncontract UniCore_Token is Context, IERC20 {\r\n    using SafeMath for uint256;\r\n    using Address for address;\r\n\r\n    mapping(address => uint256) private _balances;\r\n\r\n    mapping(address => mapping(address => uint256)) private _allowances;\r\n\r\n    event LiquidityAddition(address indexed dst, uint value);\r\n    event LPTokenClaimed(address dst, uint value);\r\n\r\n    uint256 private _totalSupply;\r\n\r\n    string private _name;\r\n    string private _symbol;\r\n    uint8 private _decimals;\r\n    uint256 public constant initialSupply = 1000*1e18; // 1k\r\n    uint256 public contractStartTimestamp;\r\n\r\n    address public UniswapPair;\r\n    address public Vault;\r\n    \r\n    IUniswapV2Router02 public uniswapRouterV2;\r\n    IUniswapV2Factory public uniswapFactory;\r\n    \r\n//=========================================================================================================================================\r\n\r\n    function initialSetup() internal {\r\n        _name = \"UniCore\";\r\n        _symbol = \"UNICORE\";\r\n        _decimals = 18;\r\n        _mint(address(this), initialSupply); //tokens minted to the token contract.\r\n        \r\n        setBuySellFees(5, 11); //0.5% on buy, 1.1% on sell\r\n        contractStartTimestamp = block.timestamp;\r\n        \r\n        POOL_CreateUniswapPair(0x7a250d5630B4cF539739dF2C5dAcb4c659F2488D, 0x5C69bEe701ef814a2B6a3EDD4B1652CB9cc5aA6f);\r\n        //UniswapV2Router02 = UniswapV2Router02\r\n        //0x5C69bEe701ef814a2B6a3EDD4B1652CB9cc5aA6f = UniswapV2Factory\r\n    }\r\n\r\n\r\n//=========================================================================================================================================\r\n    /* Liquidity generation logic\r\n    * Steps - All tokens that will ever exist go to this contract\r\n    *  \r\n    * This contract accepts ETH as payable\r\n    * ETH is mapped to people\r\n    *    \r\n    * When liquidity generation event is over \r\n    * everyone can call the mint LP function.\r\n    *    \r\n    * which will put all the ETH and tokens inside the uniswap contract\r\n    * without any involvement\r\n    *    \r\n    * This LP will go into this contract\r\n    * And will be able to proportionally be withdrawn based on ETH put in\r\n    *\r\n    * emergency drain function allows the contract owner to drain all ETH and tokens from this contract\r\n    * After the liquidity generation event happened. In case something goes wrong, to send ETH back\r\n    */\r\n\r\n    string public liquidityGenerationParticipationAgreement = \"I agree that the developers and affiliated parties of the UniCore team are not responsible for your funds\";\r\n\r\n    function liquidityGenerationOngoing() public view returns (bool) {\r\n        return contractStartTimestamp.add(3 days) > block.timestamp;\r\n    }\r\n\r\n    // Emergency drain in case of a bug\r\n    function emergencyDrain24hAfterLiquidityGenerationEventIsDone() public governanceLevel(2) {\r\n        require(contractStartTimestamp.add(4 days) < block.timestamp, \"Liquidity generation grace period still ongoing\"); // About 24h after liquidity generation happens\r\n        (bool success, ) = msg.sender.call{value:(address(this).balance)}(\"\");\r\n        require(success, \"Transfer failed.\");\r\n       \r\n        _balances[msg.sender] = _balances[address(this)];\r\n        _balances[address(this)] = 0;\r\n    }\r\n\r\n    uint256 public totalLPTokensMinted;\r\n    uint256 public totalETHContributed;\r\n    uint256 public LPperETHUnit;\r\n    bool public LPGenerationCompleted;\r\n\r\n    mapping (address => uint)  public ethContributed;\r\n\r\n//Pool UniSwap pair creation method (see InitialSetup() )\r\n    function POOL_CreateUniswapPair(address router, address factory) public governanceLevel(2) returns (address) {\r\n        uniswapRouterV2 = IUniswapV2Router02(router != address(0) ? router : 0x7a250d5630B4cF539739dF2C5dAcb4c659F2488D);\r\n        uniswapFactory = IUniswapV2Factory(factory != address(0) ? factory : 0x5C69bEe701ef814a2B6a3EDD4B1652CB9cc5aA6f); \r\n        require(UniswapPair == address(0), \"Token: pool already created\");\r\n        \r\n        UniswapPair = uniswapFactory.createPair(address(uniswapRouterV2.WETH()),address(this));\r\n        \r\n        (UniswapPair); //whitelisting the pair (no fee, no cooldown)\r\n        \r\n        setNoCooldownList(UniswapPair, true);\r\n        return UniswapPair;\r\n    }\r\n\r\n//During LP Generation Event: Users deposit funds\r\n\r\n    function USER_addLiquidity(bool agreesToTermsOutlinedInLiquidityGenerationParticipationAgreement) public payable {\r\n        require(msg.value <= 25*1e18, \"max 25ETH contribution per address\");\r\n        require(totalETHContributed+msg.value <= 500*1e18, \"500 ETH Hard cap\"); \r\n        \r\n        require(liquidityGenerationOngoing(), \"Liquidity Generation Event over\");\r\n        require(agreesToTermsOutlinedInLiquidityGenerationParticipationAgreement, \"No agreement provided\");\r\n        \r\n        ethContributed[msg.sender] = ethContributed[msg.sender].add(msg.value);\r\n        totalETHContributed = totalETHContributed.add(msg.value); // for front end display during LGE\r\n        emit LiquidityAddition(msg.sender, msg.value);\r\n    }\r\n\r\n    function USER_RemoveLiquidity() public {\r\n        require(LPGenerationCompleted, \"Event not over yet\");\r\n        require(ethContributed[msg.sender] > 0 , \"Nothing to claim, move along\");\r\n        \r\n        IUniswapV2Pair pair = IUniswapV2Pair(UniswapPair);\r\n        uint256 amountLPToTransfer = ethContributed[msg.sender].mul(LPperETHUnit).div(1e18);\r\n        pair.transfer(msg.sender, amountLPToTransfer); // stored as 1e18x value for change\r\n        ethContributed[msg.sender] = 0;\r\n        emit LPTokenClaimed(msg.sender, amountLPToTransfer);\r\n    }\r\n\r\n//After LP Generation Event: Pool adds liquidity.\r\n\r\n    function POOL_CreateLiquidity() public {\r\n        require(liquidityGenerationOngoing() == false, \"Liquidity generation onging\");\r\n        require(LPGenerationCompleted == false, \"Liquidity generation already finished\");\r\n        \r\n        totalETHContributed = address(this).balance;\r\n        IUniswapV2Pair pair = IUniswapV2Pair(UniswapPair);\r\n        \r\n        //Wrap eth\r\n        address WETH = uniswapRouterV2.WETH();\r\n        \r\n        //Send to UniSwap\r\n        IWETH(WETH).deposit{value : totalETHContributed}();\r\n        require(address(this).balance == 0 , \"Transfer Failed\");\r\n        IWETH(WETH).transfer(address(pair),totalETHContributed);\r\n        \r\n        emit Transfer(address(this), address(pair), _balances[address(this)]);\r\n        \r\n        //UniCore balances transfer\r\n        _balances[address(pair)] = _balances[address(this)];\r\n        _balances[address(this)] = 0;\r\n        pair.mint(address(this));       //mint LP tokens. lock method in UniSwapPairV2 PREVENTS FROM DOING IT TWICE\r\n        \r\n        totalLPTokensMinted = pair.balanceOf(address(this));\r\n        \r\n        require(totalLPTokensMinted != 0 , \"LP creation failed\");\r\n        LPperETHUnit = totalLPTokensMinted.mul(1e18).div(totalETHContributed); // 1e18x for  change\r\n        require(LPperETHUnit != 0 , \"LP creation failed\");\r\n        \r\n        sync(); //snapshot of the LPtokens balance\r\n        LPGenerationCompleted = true;\r\n    }\r\n\r\n\r\n//=========================================================================================================================================\r\n    //overriden _transfer to take Fees\r\n    function _transfer(address sender, address recipient, uint256 amount) internal virtual CoolDown(sender) {\r\n        require(sender != address(0), \"ERC20: transfer from the zero address\");\r\n        require(recipient != address(0), \"ERC20: transfer to the zero address\");\r\n    \r\n        lastTransfer[sender] = block.number; //updates the last transfer of the sender\r\n        sync(); //snapshot  of Uniswap LPtoken totalSupply;\r\n        \r\n        \r\n        //updates _balances\r\n        _balances[sender] = _balances[sender].sub(amount, \"ERC20: transfer amount exceeds balance\");\r\n\r\n        //calculate net amounts and fee\r\n        (uint256 toAmount, uint256 toFee) = calculateAmountAndFee(sender, amount);\r\n        \r\n        //Send Reward to Vault 1st\r\n        if(toFee > 0 && Vault != address(0)){\r\n            _balances[Vault] = _balances[Vault].add(toFee);\r\n            IVault(Vault).updateRewards(); //keeping track of fees\r\n            emit Transfer(sender, Vault, toFee);\r\n        }\r\n        //transfer to recipient\r\n        _balances[recipient] = _balances[recipient].add(toAmount);\r\n        emit Transfer(sender, recipient, toAmount);\r\n\r\n        //checks if LPWithdrawal happened, throw if inconsistency between the UNIv2 tokens balance.\r\n        blockLPWithdrawal(); \r\n    }\r\n     \r\n//=========================================================================================================================================\r\n// ERC20 and Overrides\r\n\r\n    function name() public view returns (string memory) {\r\n        return _name;\r\n    }\r\n    \r\n    function symbol() public view returns (string memory) {\r\n        return _symbol;\r\n    }\r\n\r\n    function decimals() public view returns (uint8) {\r\n        return _decimals;\r\n    }\r\n\r\n    function totalSupply() public override view returns (uint256) {\r\n        return _totalSupply;\r\n    }\r\n\r\n    function balanceOf(address _owner) public override view returns (uint256) {\r\n        return _balances[_owner];\r\n    }\r\n    \r\n    function transfer(address recipient, uint256 amount) public virtual override returns (bool) {\r\n        _transfer(_msgSender(), recipient, amount);\r\n        return true;\r\n    }\r\n    \r\n    function allowance(address owner, address spender) public virtual  override view returns (uint256) {\r\n        return _allowances[owner][spender];\r\n    }\r\n    \r\n    function approve(address spender, uint256 amount) public virtual override  returns (bool) {\r\n        _approve(_msgSender(), spender, amount);\r\n        return true;\r\n    }\r\n    \r\n    function transferFrom( address sender, address recipient, uint256 amount) public virtual override returns (bool) {\r\n        _transfer(sender, recipient, amount);\r\n        _approve( sender, _msgSender(),  _allowances[sender][_msgSender()].sub(amount, \"ERC20: transfer amount exceeds allowance\"));\r\n        return true;\r\n    }\r\n    \r\n    function increaseAllowance(address spender, uint256 addedValue) public virtual returns (bool){\r\n        _approve(\r\n            _msgSender(),\r\n            spender,\r\n            _allowances[_msgSender()][spender].add(addedValue)\r\n        );\r\n        return true;\r\n    }\r\n    \r\n    function decreaseAllowance(address spender, uint256 subtractedValue) public virtual returns (bool) {\r\n        _approve(\r\n            _msgSender(),\r\n            spender,\r\n            _allowances[_msgSender()][spender].sub(\r\n                subtractedValue,\r\n                \"ERC20: decreased allowance below zero\"\r\n            )\r\n        );\r\n        return true;\r\n    }\r\n\r\n    function _mint(address account, uint256 amount) internal virtual {\r\n        require(account != address(0), \"ERC20: mint to the zero address\");\r\n\r\n        _beforeTokenTransfer(address(0), account, amount);\r\n\r\n        _totalSupply = _totalSupply.add(amount);\r\n        _balances[account] = _balances[account].add(amount);\r\n        emit Transfer(address(0), account, amount);\r\n    }\r\n    \r\n    function _burn(address account, uint256 amount) internal virtual {\r\n        require(account != address(0), \"ERC20: burn from the zero address\");\r\n\r\n        _beforeTokenTransfer(account, address(0), amount);\r\n\r\n        _balances[account] = _balances[account].sub(\r\n            amount,\r\n            \"ERC20: burn amount exceeds balance\"\r\n        );\r\n        _totalSupply = _totalSupply.sub(amount);\r\n        emit Transfer(account, address(0), amount);\r\n    }\r\n    \r\n    function _approve(address owner, address spender, uint256 amount) internal virtual {\r\n        require(owner != address(0), \"ERC20: approve from the zero address\");\r\n        require(spender != address(0), \"ERC20: approve to the zero address\");\r\n\r\n        _allowances[owner][spender] = amount;\r\n        emit Approval(owner, spender, amount);\r\n    }\r\n    \r\n    function _beforeTokenTransfer(address from, address to, uint256 amount) internal virtual{}\r\n\r\n\r\n\r\n//=========================================================================================================================================\r\n//FEE_APPROVER (now included into the token)\r\n\r\n    mapping (address => bool) public noFeeList;\r\n    \r\n    uint256 public lastTotalSupplyOfLPTokens;\r\n    function sync() public {\r\n        lastTotalSupplyOfLPTokens = IERC20(UniswapPair).totalSupply();\r\n    }\r\n\r\n    function blockLPWithdrawal() internal view returns(bool) {\r\n        require(lastTotalSupplyOfLPTokens <= IERC20(UniswapPair).totalSupply(), \"Liquidity withdrawals forbidden\");\r\n        return true;\r\n    }\r\n    \r\n    function calculateAmountAndFee(address sender, uint256 amount) public view returns (uint256 netAmount, uint256 fee){\r\n\r\n        if(sender == Vault) { fee = 0;} // Don't have a fee when Vault is sending, or infinite loop\r\n        else if(sender == UniswapPair){ fee = amount.mul(buyFee).div(1000);}\r\n        else { fee = amount.mul(sellFee).div(1000);}\r\n        \r\n        netAmount = amount.sub(fee);\r\n    }\r\n\r\n    \r\n//=========================================================================================================================================\r\n//cooldown (prevents frontrunning bots): forces to wait x blocks between transactions\r\n    uint8 public coolDown;                          // ecosysten cooldown: blocks to wait between to transactions\r\n    mapping(address => uint8) private addCoolDown;  // additional cooldown for specific users\r\n    mapping(address => bool) private noCoolDown;    // whitelisted contracts, like UniSwap\r\n    mapping(address => uint256) public lastTransfer; \r\n \r\n    modifier CoolDown(address _address) {\r\n        if(noCoolDown[_address] == false ){\r\n            require(block.number >= lastTransfer[_address]+coolDown+addCoolDown[_address]);\r\n        }\r\n        _;\r\n    }\r\n    function viewCoolDown(address _address) public view returns(uint8){\r\n        return coolDown+addCoolDown[_address];\r\n    }\r\n    \r\n//=========================================================================================================================================\r\n//Governance\r\n    /**\r\n     * @dev multi tiered governance logic\r\n     * \r\n     * 0: plebs\r\n     * 1: voting contracts (setup later in DAO)\r\n     * 2: governors\r\n     * \r\n    */\r\n    mapping(address => uint8) public governanceLevels;\r\n    \r\n    modifier governanceLevel(uint8 _level){\r\n        require(governanceLevels[msg.sender] >= _level, \"Grow some mustache kiddo...\");\r\n        _;\r\n    }\r\n    function setGovernanceLevel(address _address, uint8 _level) public governanceLevel(_level) {\r\n        governanceLevels[_address] = _level;\r\n    }\r\n    \r\n    function viewGovernanceLevel(address _address) public view returns(uint8) {\r\n        return governanceLevels[_address];\r\n    }\r\n\r\n//== Governable Functions\r\n    \r\n    //External variables\r\n        function setUniswapPair(address _UniswapPair) public governanceLevel(2) {\r\n            UniswapPair = _UniswapPair;\r\n        }\r\n        \r\n        function setVault(address _Vault) public governanceLevel(2) {\r\n            Vault = _Vault;\r\n        }\r\n        \r\n        //Mints tokens to a specified address\r\n        function mintTo(address account, uint256 amount) public governanceLevel(1) {\r\n            _mint(account, amount);\r\n        }\r\n       \r\n        //burns tokens from the contract (holding them)\r\n        function burnToken(uint256 amount) public governanceLevel(1) {\r\n            _burn(address(this), amount);\r\n        }\r\n        \r\n        \r\n    //CoolDown\r\n        function setNoCooldownList(address _address, bool _bool) public governanceLevel(1) {\r\n            noCoolDown[_address] = _bool;\r\n        }\r\n        \r\n        //Changes basic block cooldown a all users\r\n        function changeEcosystemCooldown(uint8 _coolDown) public governanceLevel(1) {\r\n            coolDown = _coolDown;\r\n        }\r\n        \r\n        //Adds additional cooldown a specific address (frontrunning bots mitigation\r\n        function addAccountCooldown(address account, uint8 _coolDown) public governanceLevel(1) {\r\n            addCoolDown[account] = _coolDown;\r\n        }\r\n    \r\n    \r\n    //Fees\r\n        uint256 public buyFee; uint256 public sellFee;\r\n        function setBuySellFees(uint256 _buyFee, uint256 _sellFee) public governanceLevel(1) {\r\n            buyFee = _buyFee;  //base 1000 -> 1 = 0.1%\r\n            sellFee = _sellFee;\r\n        }\r\n        \r\n        function setNoFeeList(address _address, bool _bool) public governanceLevel(1) {\r\n          noFeeList[_address] =  _bool;\r\n        }\r\n    \r\n    //Treasury management \r\n        address public Treasury1; //mktg\r\n        address public Treasury2; //stpd\r\n        address public Treasury3; //qtsr\r\n        \r\n        function setTreasury1(address _treasury) public governanceLevel(2) {\r\n            Treasury1 = _treasury;\r\n        }\r\n        function setTreasury2(address _treasury) public {\r\n            require(msg.sender == Treasury2);\r\n            Treasury2 = _treasury;\r\n        }\r\n        function setTreasury3(address _treasury) public  {\r\n            require(msg.sender == Treasury3);\r\n            Treasury3 = _treasury;\r\n        }\r\n        \r\n\r\n\r\n}\r\n\r\n",
  "sourcePath": "/Users/noahcoomer/source/unicore-vault/unicore-vault-contracts/contracts/UniCore.sol",
  "compiler": {
    "name": "solc",
    "version": "0.6.6+commit.6c089d02.Emscripten.clang"
  },
  "schemaVersion": "3.3.0",
  "updatedAt": "2020-10-14T06:11:29.379Z",
  "devdoc": {
    "methods": {}
  },
  "userdoc": {
    "methods": {}
  }
}