{
  "contractName": "UniCore_Vault",
  "abi": [
    {
      "inputs": [],
      "stateMutability": "nonpayable",
      "type": "constructor"
    },
    {
      "anonymous": false,
      "inputs": [
        {
          "indexed": true,
          "internalType": "address",
          "name": "owner",
          "type": "address"
        },
        {
          "indexed": true,
          "internalType": "address",
          "name": "spender",
          "type": "address"
        },
        {
          "indexed": false,
          "internalType": "uint256",
          "name": "_pid",
          "type": "uint256"
        },
        {
          "indexed": false,
          "internalType": "uint256",
          "name": "value",
          "type": "uint256"
        }
      ],
      "name": "Approval",
      "type": "event"
    },
    {
      "anonymous": false,
      "inputs": [
        {
          "indexed": true,
          "internalType": "address",
          "name": "user",
          "type": "address"
        },
        {
          "indexed": true,
          "internalType": "uint256",
          "name": "pid",
          "type": "uint256"
        },
        {
          "indexed": false,
          "internalType": "uint256",
          "name": "amount",
          "type": "uint256"
        }
      ],
      "name": "Deposit",
      "type": "event"
    },
    {
      "anonymous": false,
      "inputs": [
        {
          "indexed": true,
          "internalType": "address",
          "name": "user",
          "type": "address"
        },
        {
          "indexed": true,
          "internalType": "uint256",
          "name": "pid",
          "type": "uint256"
        },
        {
          "indexed": false,
          "internalType": "uint256",
          "name": "amount",
          "type": "uint256"
        }
      ],
      "name": "EmergencyWithdraw",
      "type": "event"
    },
    {
      "anonymous": false,
      "inputs": [
        {
          "indexed": true,
          "internalType": "address",
          "name": "user",
          "type": "address"
        },
        {
          "indexed": true,
          "internalType": "uint256",
          "name": "pid",
          "type": "uint256"
        },
        {
          "indexed": false,
          "internalType": "uint256",
          "name": "amount",
          "type": "uint256"
        }
      ],
      "name": "Withdraw",
      "type": "event"
    },
    {
      "inputs": [],
      "name": "Treasury1",
      "outputs": [
        {
          "internalType": "address",
          "name": "",
          "type": "address"
        }
      ],
      "stateMutability": "view",
      "type": "function"
    },
    {
      "inputs": [],
      "name": "Treasury2",
      "outputs": [
        {
          "internalType": "address",
          "name": "",
          "type": "address"
        }
      ],
      "stateMutability": "view",
      "type": "function"
    },
    {
      "inputs": [],
      "name": "Treasury3",
      "outputs": [
        {
          "internalType": "address",
          "name": "",
          "type": "address"
        }
      ],
      "stateMutability": "view",
      "type": "function"
    },
    {
      "inputs": [],
      "name": "UniCore",
      "outputs": [
        {
          "internalType": "address",
          "name": "",
          "type": "address"
        }
      ],
      "stateMutability": "view",
      "type": "function"
    },
    {
      "inputs": [],
      "name": "contractStartBlock",
      "outputs": [
        {
          "internalType": "uint256",
          "name": "",
          "type": "uint256"
        }
      ],
      "stateMutability": "view",
      "type": "function"
    },
    {
      "inputs": [],
      "name": "cumulativeRewardsSinceStart",
      "outputs": [
        {
          "internalType": "uint256",
          "name": "",
          "type": "uint256"
        }
      ],
      "stateMutability": "view",
      "type": "function"
    },
    {
      "inputs": [],
      "name": "epoch",
      "outputs": [
        {
          "internalType": "uint256",
          "name": "",
          "type": "uint256"
        }
      ],
      "stateMutability": "view",
      "type": "function"
    },
    {
      "inputs": [],
      "name": "epochCalculationStartBlock",
      "outputs": [
        {
          "internalType": "uint256",
          "name": "",
          "type": "uint256"
        }
      ],
      "stateMutability": "view",
      "type": "function"
    },
    {
      "inputs": [
        {
          "internalType": "uint256",
          "name": "",
          "type": "uint256"
        }
      ],
      "name": "epochRewards",
      "outputs": [
        {
          "internalType": "uint256",
          "name": "",
          "type": "uint256"
        }
      ],
      "stateMutability": "view",
      "type": "function"
    },
    {
      "inputs": [],
      "name": "pendingRewards",
      "outputs": [
        {
          "internalType": "uint256",
          "name": "",
          "type": "uint256"
        }
      ],
      "stateMutability": "view",
      "type": "function"
    },
    {
      "inputs": [
        {
          "internalType": "uint256",
          "name": "",
          "type": "uint256"
        }
      ],
      "name": "poolInfo",
      "outputs": [
        {
          "internalType": "address",
          "name": "token",
          "type": "address"
        },
        {
          "internalType": "uint256",
          "name": "allocPoint",
          "type": "uint256"
        },
        {
          "internalType": "uint256",
          "name": "accUniCorePerShare",
          "type": "uint256"
        },
        {
          "internalType": "bool",
          "name": "withdrawable",
          "type": "bool"
        }
      ],
      "stateMutability": "view",
      "type": "function"
    },
    {
      "inputs": [],
      "name": "rewardsInThisEpoch",
      "outputs": [
        {
          "internalType": "uint256",
          "name": "",
          "type": "uint256"
        }
      ],
      "stateMutability": "view",
      "type": "function"
    },
    {
      "inputs": [],
      "name": "totalAllocPoint",
      "outputs": [
        {
          "internalType": "uint256",
          "name": "",
          "type": "uint256"
        }
      ],
      "stateMutability": "view",
      "type": "function"
    },
    {
      "inputs": [
        {
          "internalType": "uint256",
          "name": "",
          "type": "uint256"
        },
        {
          "internalType": "address",
          "name": "",
          "type": "address"
        }
      ],
      "name": "userInfo",
      "outputs": [
        {
          "internalType": "uint256",
          "name": "amount",
          "type": "uint256"
        },
        {
          "internalType": "uint256",
          "name": "rewardPaid",
          "type": "uint256"
        }
      ],
      "stateMutability": "view",
      "type": "function"
    },
    {
      "inputs": [],
      "name": "poolLength",
      "outputs": [
        {
          "internalType": "uint256",
          "name": "",
          "type": "uint256"
        }
      ],
      "stateMutability": "view",
      "type": "function"
    },
    {
      "inputs": [],
      "name": "averageFeesPerBlockSinceStart",
      "outputs": [
        {
          "internalType": "uint256",
          "name": "averagePerBlock",
          "type": "uint256"
        }
      ],
      "stateMutability": "view",
      "type": "function"
    },
    {
      "inputs": [],
      "name": "averageFeesPerBlockEpoch",
      "outputs": [
        {
          "internalType": "uint256",
          "name": "averagePerBlock",
          "type": "uint256"
        }
      ],
      "stateMutability": "view",
      "type": "function"
    },
    {
      "inputs": [
        {
          "internalType": "uint256",
          "name": "_allocPoint",
          "type": "uint256"
        },
        {
          "internalType": "address",
          "name": "_token",
          "type": "address"
        },
        {
          "internalType": "bool",
          "name": "_withUpdate",
          "type": "bool"
        },
        {
          "internalType": "bool",
          "name": "_withdrawable",
          "type": "bool"
        }
      ],
      "name": "addPool",
      "outputs": [],
      "stateMutability": "nonpayable",
      "type": "function"
    },
    {
      "inputs": [
        {
          "internalType": "uint256",
          "name": "_pid",
          "type": "uint256"
        },
        {
          "internalType": "uint256",
          "name": "_allocPoint",
          "type": "uint256"
        },
        {
          "internalType": "bool",
          "name": "_withUpdate",
          "type": "bool"
        }
      ],
      "name": "setPool",
      "outputs": [],
      "stateMutability": "nonpayable",
      "type": "function"
    },
    {
      "inputs": [
        {
          "internalType": "uint256",
          "name": "_pid",
          "type": "uint256"
        },
        {
          "internalType": "bool",
          "name": "_withdrawable",
          "type": "bool"
        }
      ],
      "name": "setPoolWithdrawable",
      "outputs": [],
      "stateMutability": "nonpayable",
      "type": "function"
    },
    {
      "inputs": [],
      "name": "startNewEpoch",
      "outputs": [],
      "stateMutability": "nonpayable",
      "type": "function"
    },
    {
      "inputs": [],
      "name": "massUpdatePools",
      "outputs": [],
      "stateMutability": "nonpayable",
      "type": "function"
    },
    {
      "inputs": [],
      "name": "updateRewards",
      "outputs": [],
      "stateMutability": "nonpayable",
      "type": "function"
    },
    {
      "inputs": [
        {
          "internalType": "uint256",
          "name": "_pid",
          "type": "uint256"
        },
        {
          "internalType": "uint256",
          "name": "_amount",
          "type": "uint256"
        }
      ],
      "name": "deposit",
      "outputs": [],
      "stateMutability": "nonpayable",
      "type": "function"
    },
    {
      "inputs": [
        {
          "internalType": "uint256",
          "name": "_pid",
          "type": "uint256"
        },
        {
          "internalType": "uint256",
          "name": "_amount",
          "type": "uint256"
        }
      ],
      "name": "withdraw",
      "outputs": [],
      "stateMutability": "nonpayable",
      "type": "function"
    },
    {
      "inputs": [
        {
          "internalType": "uint256",
          "name": "_pid",
          "type": "uint256"
        },
        {
          "internalType": "address",
          "name": "_user",
          "type": "address"
        }
      ],
      "name": "pendingUniCore",
      "outputs": [
        {
          "internalType": "uint256",
          "name": "",
          "type": "uint256"
        }
      ],
      "stateMutability": "view",
      "type": "function"
    },
    {
      "inputs": [],
      "name": "transferTreasuryFees",
      "outputs": [],
      "stateMutability": "nonpayable",
      "type": "function"
    },
    {
      "inputs": [
        {
          "internalType": "address",
          "name": "_address",
          "type": "address"
        }
      ],
      "name": "viewGovernanceLevel",
      "outputs": [
        {
          "internalType": "uint8",
          "name": "",
          "type": "uint8"
        }
      ],
      "stateMutability": "view",
      "type": "function"
    },
    {
      "inputs": [
        {
          "internalType": "address",
          "name": "addr",
          "type": "address"
        }
      ],
      "name": "isContract",
      "outputs": [
        {
          "internalType": "bool",
          "name": "",
          "type": "bool"
        }
      ],
      "stateMutability": "view",
      "type": "function"
    },
    {
      "inputs": [
        {
          "internalType": "address",
          "name": "tokenAddress",
          "type": "address"
        },
        {
          "internalType": "uint256",
          "name": "_amount",
          "type": "uint256"
        },
        {
          "internalType": "address",
          "name": "contractAddress",
          "type": "address"
        }
      ],
      "name": "setContractAllowance",
      "outputs": [],
      "stateMutability": "nonpayable",
      "type": "function"
    }
  ],
  "bytecode": "0x608060405234801561001057600080fd5b5073bc935114084188636d7c854f49f03f0a85b8fdf16000806101000a81548173ffffffffffffffffffffffffffffffffffffffff021916908373ffffffffffffffffffffffffffffffffffffffff16021790555073f4d7a0e8a68345442172f45cabd272c25320aa96600160006101000a81548173ffffffffffffffffffffffffffffffffffffffff021916908373ffffffffffffffffffffffffffffffffffffffff16021790555073397f9694ca604c2bbdfb5c86227a64853940fb49600260006101000a81548173ffffffffffffffffffffffffffffffffffffffff021916908373ffffffffffffffffffffffffffffffffffffffff16021790555073397f9694ca604c2bbdfb5c86227a64853940fb49600360006101000a81548173ffffffffffffffffffffffffffffffffffffffff021916908373ffffffffffffffffffffffffffffffffffffffff1602179055506101f460048190555043600a81905550612bdd806101836000396000f3fe608060405234801561001057600080fd5b50600436106101da5760003560e01c80634dc47d341161010457806393f1a40b116100a2578063c8ffb87311610071578063c8ffb873146107ad578063e0447f78146107cb578063e2bbb15814610815578063eded3fda1461084d576101da565b806393f1a40b1461065a5780639dbc2d90146106c3578063bb9289a6146106e1578063c25cc8af1461074f576101da565b8063608c8d3a116100de578063608c8d3a1461060a578063630b5ba11461062857806368f7471e14610632578063900cf0cf1461063c576101da565b80634dc47d34146105705780635207cc0d146105b25780635d577c18146105ec576101da565b806319076e201161017c5780633e158b0c1161014b5780633e158b0c146104cc578063441a3e70146104d657806346ca6bea1461050e57806349c5468d14610552576101da565b806319076e20146103cc5780631a6af7af1461042e5780633081d258146104785780633aab0a62146104c2576101da565b80630d3e805a116101b85780630d3e805a146102815780631526fe27146102cb578063162790551461035257806317caf6f1146103ae576101da565b806303dec009146101df578063081e3eda146101fd5780630a0ee0361461021b575b600080fd5b6101e761086b565b6040518082815260200191505060405180910390f35b61020561089b565b6040518082815260200191505060405180910390f35b61027f6004803603608081101561023157600080fd5b8101908080359060200190929190803573ffffffffffffffffffffffffffffffffffffffff1690602001909291908035151590602001909291908035151590602001909291905050506108a8565b005b610289610b46565b604051808273ffffffffffffffffffffffffffffffffffffffff1673ffffffffffffffffffffffffffffffffffffffff16815260200191505060405180910390f35b6102f7600480360360208110156102e157600080fd5b8101908080359060200190929190505050610b6c565b604051808573ffffffffffffffffffffffffffffffffffffffff1673ffffffffffffffffffffffffffffffffffffffff1681526020018481526020018381526020018215151515815260200194505050505060405180910390f35b6103946004803603602081101561036857600080fd5b81019080803573ffffffffffffffffffffffffffffffffffffffff169060200190929190505050610bd6565b604051808215151515815260200191505060405180910390f35b6103b6610be9565b6040518082815260200191505060405180910390f35b610418600480360360408110156103e257600080fd5b8101908080359060200190929190803573ffffffffffffffffffffffffffffffffffffffff169060200190929190505050610bef565b6040518082815260200191505060405180910390f35b610436610cbe565b604051808273ffffffffffffffffffffffffffffffffffffffff1673ffffffffffffffffffffffffffffffffffffffff16815260200191505060405180910390f35b610480610ce3565b604051808273ffffffffffffffffffffffffffffffffffffffff1673ffffffffffffffffffffffffffffffffffffffff16815260200191505060405180910390f35b6104ca610d09565b005b6104d4610dde565b005b61050c600480360360408110156104ec57600080fd5b81019080803590602001909291908035906020019092919050505061104a565b005b6105506004803603606081101561052457600080fd5b810190808035906020019092919080359060200190929190803515159060200190929190505050611062565b005b61055a61116b565b6040518082815260200191505060405180910390f35b61059c6004803603602081101561058657600080fd5b8101908080359060200190929190505050611171565b6040518082815260200191505060405180910390f35b6105ea600480360360408110156105c857600080fd5b8101908080359060200190929190803515159060200190929190505050611189565b005b6105f461124a565b6040518082815260200191505060405180910390f35b610612611250565b6040518082815260200191505060405180910390f35b610630611256565b005b61063a6112b8565b005b6106446118ae565b6040518082815260200191505060405180910390f35b6106a66004803603604081101561067057600080fd5b8101908080359060200190929190803573ffffffffffffffffffffffffffffffffffffffff1690602001909291905050506118b4565b604051808381526020018281526020019250505060405180910390f35b6106cb6118e5565b6040518082815260200191505060405180910390f35b61074d600480360360608110156106f757600080fd5b81019080803573ffffffffffffffffffffffffffffffffffffffff16906020019092919080359060200190929190803573ffffffffffffffffffffffffffffffffffffffff169060200190929190505050611929565b005b6107916004803603602081101561076557600080fd5b81019080803573ffffffffffffffffffffffffffffffffffffffff169060200190929190505050611b45565b604051808260ff1660ff16815260200191505060405180910390f35b6107b5611c27565b6040518082815260200191505060405180910390f35b6107d3611c2d565b604051808273ffffffffffffffffffffffffffffffffffffffff1673ffffffffffffffffffffffffffffffffffffffff16815260200191505060405180910390f35b61084b6004803603604081101561082b57600080fd5b810190808035906020019092919080359060200190929190505050611c53565b005b610855611f12565b6040518082815260200191505060405180910390f35b6000610896610885600b5443611f1890919063ffffffff16565b600d54611f6290919063ffffffff16565b905090565b6000600780549050905090565b60028060ff166108b733611b45565b60ff16101561092e576040517f08c379a000000000000000000000000000000000000000000000000000000000815260040180806020018281038252601b8152602001807f47726f7720736f6d65206d75737461636865206b6964646f2e2e2e000000000081525060200191505060405180910390fd5b821561093d5761093c611256565b5b6000600780549050905060008090505b81811015610a40578573ffffffffffffffffffffffffffffffffffffffff166007828154811061097957fe5b906000526020600020906005020160000160009054906101000a900473ffffffffffffffffffffffffffffffffffffffff1673ffffffffffffffffffffffffffffffffffffffff161415610a35576040517f08c379a00000000000000000000000000000000000000000000000000000000081526004018080602001828103825260188152602001807f4572726f7220706f6f6c20616c7265616479206164646564000000000000000081525060200191505060405180910390fd5b80600101905061094d565b50610a5686600854611fac90919063ffffffff16565b600881905550600760405180608001604052808773ffffffffffffffffffffffffffffffffffffffff16815260200188815260200160008152602001851515815250908060018154018082558091505060019003906000526020600020906005020160009091909190915060008201518160000160006101000a81548173ffffffffffffffffffffffffffffffffffffffff021916908373ffffffffffffffffffffffffffffffffffffffff160217905550602082015181600101556040820151816002015560608201518160030160006101000a81548160ff0219169083151502179055505050505050505050565b600360009054906101000a900473ffffffffffffffffffffffffffffffffffffffff1681565b60078181548110610b7957fe5b90600052602060002090600502016000915090508060000160009054906101000a900473ffffffffffffffffffffffffffffffffffffffff16908060010154908060020154908060030160009054906101000a900460ff16905084565b600080823b905060008111915050919050565b60085481565b60008060078481548110610bff57fe5b9060005260206000209060050201905060006006600086815260200190815260200160002060008573ffffffffffffffffffffffffffffffffffffffff1673ffffffffffffffffffffffffffffffffffffffff1681526020019081526020016000209050600082600201549050610cb38260010154610ca5670de0b6b3a7640000610c9785876000015461203490919063ffffffff16565b611f6290919063ffffffff16565b611f1890919063ffffffff16565b935050505092915050565b6000809054906101000a900473ffffffffffffffffffffffffffffffffffffffff1681565b600260009054906101000a900473ffffffffffffffffffffffffffffffffffffffff1681565b4361c350600b540110610d84576040517f08c379a00000000000000000000000000000000000000000000000000000000081526004018080602001828103825260178152602001807f4e65772065706f6368206e6f742072656164792079657400000000000000000081525060200191505060405180910390fd5b600d54600f6000600e54815260200190815260200160002081905550610db7600d54600c54611fac90919063ffffffff16565b600c819055506000600d8190555043600b81905550600e6000815460010191905081905550565b6000809054906101000a900473ffffffffffffffffffffffffffffffffffffffff1673ffffffffffffffffffffffffffffffffffffffff163373ffffffffffffffffffffffffffffffffffffffff1614610e3757600080fd5b6000610f266010546000809054906101000a900473ffffffffffffffffffffffffffffffffffffffff1673ffffffffffffffffffffffffffffffffffffffff166370a08231306040518263ffffffff1660e01b8152600401808273ffffffffffffffffffffffffffffffffffffffff1673ffffffffffffffffffffffffffffffffffffffff16815260200191505060206040518083038186803b158015610edd57600080fd5b505afa158015610ef1573d6000803e3d6000fd5b505050506040513d6020811015610f0757600080fd5b8101908080519060200190929190505050611f1890919063ffffffff16565b90506000811115611047576000809054906101000a900473ffffffffffffffffffffffffffffffffffffffff1673ffffffffffffffffffffffffffffffffffffffff166370a08231306040518263ffffffff1660e01b8152600401808273ffffffffffffffffffffffffffffffffffffffff1673ffffffffffffffffffffffffffffffffffffffff16815260200191505060206040518083038186803b158015610fcf57600080fd5b505afa158015610fe3573d6000803e3d6000fd5b505050506040513d6020811015610ff957600080fd5b810190808051906020019092919050505060108190555061102581600954611fac90919063ffffffff16565b60098190555061104081600d54611fac90919063ffffffff16565b600d819055505b50565b611056828233336120ba565b61105e6112b8565b5050565b60028060ff1661107133611b45565b60ff1610156110e8576040517f08c379a000000000000000000000000000000000000000000000000000000000815260040180806020018281038252601b8152602001807f47726f7720736f6d65206d75737461636865206b6964646f2e2e2e000000000081525060200191505060405180910390fd5b81156110f7576110f6611256565b5b61113c8361112e6007878154811061110b57fe5b906000526020600020906005020160010154600854611f1890919063ffffffff16565b611fac90919063ffffffff16565b600881905550826007858154811061115057fe5b90600052602060002090600502016001018190555050505050565b600a5481565b600f6020528060005260406000206000915090505481565b60028060ff1661119833611b45565b60ff16101561120f576040517f08c379a000000000000000000000000000000000000000000000000000000000815260040180806020018281038252601b8152602001807f47726f7720736f6d65206d75737461636865206b6964646f2e2e2e000000000081525060200191505060405180910390fd5b816007848154811061121d57fe5b906000526020600020906005020160030160006101000a81548160ff021916908315150217905550505050565b600b5481565b600d5481565b60006007805490509050600080600090505b828110156112985761128b61127c8261239f565b83611fac90919063ffffffff16565b9150806001019050611268565b506112ae81600954611f1890919063ffffffff16565b6009819055505050565b600060055414156112c8576118ac565b60008060009054906101000a900473ffffffffffffffffffffffffffffffffffffffff1673ffffffffffffffffffffffffffffffffffffffff166370a08231306040518263ffffffff1660e01b8152600401808273ffffffffffffffffffffffffffffffffffffffff1673ffffffffffffffffffffffffffffffffffffffff16815260200191505060206040518083038186803b15801561136857600080fd5b505afa15801561137c573d6000803e3d6000fd5b505050506040513d602081101561139257600080fd5b8101908080519060200190929190505050905060006113d060646113c2601360055461203490919063ffffffff16565b611f6290919063ffffffff16565b905060006113fd60646113ef601360055461203490919063ffffffff16565b611f6290919063ffffffff16565b905060006114288261141a85600554611f1890919063ffffffff16565b611f1890919063ffffffff16565b90508360055411156114ae5761145b606461144d60138761203490919063ffffffff16565b611f6290919063ffffffff16565b9250611484606461147660138761203490919063ffffffff16565b611f6290919063ffffffff16565b91506114ab8261149d8587611f1890919063ffffffff16565b611f1890919063ffffffff16565b90505b6000809054906101000a900473ffffffffffffffffffffffffffffffffffffffff1673ffffffffffffffffffffffffffffffffffffffff1663a9059cbb600360009054906101000a900473ffffffffffffffffffffffffffffffffffffffff16856040518363ffffffff1660e01b8152600401808373ffffffffffffffffffffffffffffffffffffffff1673ffffffffffffffffffffffffffffffffffffffff16815260200182815260200192505050602060405180830381600087803b15801561157857600080fd5b505af115801561158c573d6000803e3d6000fd5b505050506040513d60208110156115a257600080fd5b8101908080519060200190929190505050506000809054906101000a900473ffffffffffffffffffffffffffffffffffffffff1673ffffffffffffffffffffffffffffffffffffffff1663a9059cbb600260009054906101000a900473ffffffffffffffffffffffffffffffffffffffff16846040518363ffffffff1660e01b8152600401808373ffffffffffffffffffffffffffffffffffffffff1673ffffffffffffffffffffffffffffffffffffffff16815260200182815260200192505050602060405180830381600087803b15801561167e57600080fd5b505af1158015611692573d6000803e3d6000fd5b505050506040513d60208110156116a857600080fd5b8101908080519060200190929190505050506000809054906101000a900473ffffffffffffffffffffffffffffffffffffffff1673ffffffffffffffffffffffffffffffffffffffff1663a9059cbb600160009054906101000a900473ffffffffffffffffffffffffffffffffffffffff16836040518363ffffffff1660e01b8152600401808373ffffffffffffffffffffffffffffffffffffffff1673ffffffffffffffffffffffffffffffffffffffff16815260200182815260200192505050602060405180830381600087803b15801561178457600080fd5b505af1158015611798573d6000803e3d6000fd5b505050506040513d60208110156117ae57600080fd5b8101908080519060200190929190505050506000809054906101000a900473ffffffffffffffffffffffffffffffffffffffff1673ffffffffffffffffffffffffffffffffffffffff166370a08231306040518263ffffffff1660e01b8152600401808273ffffffffffffffffffffffffffffffffffffffff1673ffffffffffffffffffffffffffffffffffffffff16815260200191505060206040518083038186803b15801561185e57600080fd5b505afa158015611872573d6000803e3d6000fd5b505050506040513d602081101561188857600080fd5b81019080805190602001909291905050506010819055506000600581905550505050505b565b600e5481565b6006602052816000526040600020602052806000526040600020600091509150508060000154908060010154905082565b60006119246118ff600a5443611f1890919063ffffffff16565b611916600d54600c54611fac90919063ffffffff16565b611f6290919063ffffffff16565b905090565b60028060ff1661193833611b45565b60ff1610156119af576040517f08c379a000000000000000000000000000000000000000000000000000000000815260040180806020018281038252601b8152602001807f47726f7720736f6d65206d75737461636865206b6964646f2e2e2e000000000081525060200191505060405180910390fd5b6119b882610bd6565b611a0d576040517f08c379a000000000000000000000000000000000000000000000000000000000815260040180806020018281038252602a815260200180612b11602a913960400191505060405180910390fd5b611a2562017318600a54611fac90919063ffffffff16565b4311611a7c576040517f08c379a0000000000000000000000000000000000000000000000000000000008152600401808060200182810382526026815260200180612b826026913960400191505060405180910390fd5b8373ffffffffffffffffffffffffffffffffffffffff1663095ea7b383856040518363ffffffff1660e01b8152600401808373ffffffffffffffffffffffffffffffffffffffff1673ffffffffffffffffffffffffffffffffffffffff16815260200182815260200192505050602060405180830381600087803b158015611b0357600080fd5b505af1158015611b17573d6000803e3d6000fd5b505050506040513d6020811015611b2d57600080fd5b81019080805190602001909291905050505050505050565b60008060009054906101000a900473ffffffffffffffffffffffffffffffffffffffff1673ffffffffffffffffffffffffffffffffffffffff1663c25cc8af836040518263ffffffff1660e01b8152600401808273ffffffffffffffffffffffffffffffffffffffff1673ffffffffffffffffffffffffffffffffffffffff16815260200191505060206040518083038186803b158015611be557600080fd5b505afa158015611bf9573d6000803e3d6000fd5b505050506040513d6020811015611c0f57600080fd5b81019080805190602001909291905050509050919050565b600c5481565b600160009054906101000a900473ffffffffffffffffffffffffffffffffffffffff1681565b60008111611cc9576040517f08c379a000000000000000000000000000000000000000000000000000000000815260040180806020018281038252601a8152602001807f63616e6e6f74206465706f736974207a65726f20746f6b656e7300000000000081525060200191505060405180910390fd5b600060078381548110611cd857fe5b9060005260206000209060050201905060006006600085815260200190815260200160002060003373ffffffffffffffffffffffffffffffffffffffff1673ffffffffffffffffffffffffffffffffffffffff1681526020019081526020016000209050611d468433612596565b8160000160009054906101000a900473ffffffffffffffffffffffffffffffffffffffff1673ffffffffffffffffffffffffffffffffffffffff166323b872dd3330866040518463ffffffff1660e01b8152600401808473ffffffffffffffffffffffffffffffffffffffff1673ffffffffffffffffffffffffffffffffffffffff1681526020018373ffffffffffffffffffffffffffffffffffffffff1673ffffffffffffffffffffffffffffffffffffffff1681526020018281526020019350505050602060405180830381600087803b158015611e2557600080fd5b505af1158015611e39573d6000803e3d6000fd5b505050506040513d6020811015611e4f57600080fd5b810190808051906020019092919050505050611e78838260000154611fac90919063ffffffff16565b8160000181905550611eb5670de0b6b3a7640000611ea78460020154846000015461203490919063ffffffff16565b611f6290919063ffffffff16565b8160010181905550833373ffffffffffffffffffffffffffffffffffffffff167f90890809c654f11d6e72a28fa60149770a0d11ec6c92319d6ceb2bb0a4ea1a15856040518082815260200191505060405180910390a350505050565b60095481565b6000611f5a83836040518060400160405280601e81526020017f536166654d6174683a207375627472616374696f6e206f766572666c6f7700008152506125bb565b905092915050565b6000611fa483836040518060400160405280601a81526020017f536166654d6174683a206469766973696f6e206279207a65726f00000000000081525061267b565b905092915050565b60008082840190508381101561202a576040517f08c379a000000000000000000000000000000000000000000000000000000000815260040180806020018281038252601b8152602001807f536166654d6174683a206164646974696f6e206f766572666c6f77000000000081525060200191505060405180910390fd5b8091505092915050565b60008083141561204757600090506120b4565b600082840290508284828161205857fe5b04146120af576040517f08c379a0000000000000000000000000000000000000000000000000000000008152600401808060200182810382526021815260200180612b3b6021913960400191505060405180910390fd5b809150505b92915050565b6000600785815481106120c957fe5b906000526020600020906005020190508060030160009054906101000a900460ff16612140576040517f08c379a0000000000000000000000000000000000000000000000000000000008152600401808060200182810382526026815260200180612b5c6026913960400191505060405180910390fd5b60006006600087815260200190815260200160002060008573ffffffffffffffffffffffffffffffffffffffff1673ffffffffffffffffffffffffffffffffffffffff168152602001908152602001600020905084816000015410156121f1576040517f08c379a0000000000000000000000000000000000000000000000000000000008152600401808060200182810382526022815260200180612aef6022913960400191505060405180910390fd5b6121fb8685612596565b600085111561230b5761221b858260000154611f1890919063ffffffff16565b81600001819055508160000160009054906101000a900473ffffffffffffffffffffffffffffffffffffffff1673ffffffffffffffffffffffffffffffffffffffff1663a9059cbb84876040518363ffffffff1660e01b8152600401808373ffffffffffffffffffffffffffffffffffffffff1673ffffffffffffffffffffffffffffffffffffffff16815260200182815260200192505050602060405180830381600087803b1580156122ce57600080fd5b505af11580156122e2573d6000803e3d6000fd5b505050506040513d60208110156122f857600080fd5b8101908080519060200190929190505050505b612340670de0b6b3a76400006123328460020154846000015461203490919063ffffffff16565b611f6290919063ffffffff16565b8160010181905550858373ffffffffffffffffffffffffffffffffffffffff167ff279e6a1f5e320cca91135676d9cb6e44ca8a08c0b88342bcdb1144f6511b568876040518082815260200191505060405180910390a3505050505050565b600080600783815481106123af57fe5b9060005260206000209060050201905060008160000160009054906101000a900473ffffffffffffffffffffffffffffffffffffffff1673ffffffffffffffffffffffffffffffffffffffff166370a08231306040518263ffffffff1660e01b8152600401808273ffffffffffffffffffffffffffffffffffffffff1673ffffffffffffffffffffffffffffffffffffffff16815260200191505060206040518083038186803b15801561246257600080fd5b505afa158015612476573d6000803e3d6000fd5b505050506040513d602081101561248c57600080fd5b8101908080519060200190929190505050905060008114156124b357600092505050612591565b6124e06008546124d2846001015460095461203490919063ffffffff16565b611f6290919063ffffffff16565b9250600061250d6127106124ff6004548761203490919063ffffffff16565b611f6290919063ffffffff16565b905060006125248286611f1890919063ffffffff16565b905061253b82600554611fac90919063ffffffff16565b60058190555061258461257184612563670de0b6b3a76400008561203490919063ffffffff16565b611f6290919063ffffffff16565b8560020154611fac90919063ffffffff16565b8460020181905550505050505b919050565b61259e611256565b60006125aa8383610bef565b90506125b68282612741565b505050565b6000838311158290612668576040517f08c379a00000000000000000000000000000000000000000000000000000000081526004018080602001828103825283818151815260200191508051906020019080838360005b8381101561262d578082015181840152602081019050612612565b50505050905090810190601f16801561265a5780820380516001836020036101000a031916815260200191505b509250505060405180910390fd5b5060008385039050809150509392505050565b60008083118290612727576040517f08c379a00000000000000000000000000000000000000000000000000000000081526004018080602001828103825283818151815260200191508051906020019080838360005b838110156126ec5780820151818401526020810190506126d1565b50505050905090810190601f1680156127195780820380516001836020036101000a031916815260200191505b509250505060405180910390fd5b50600083858161273357fe5b049050809150509392505050565b600081141561274f57612aea565b60008060009054906101000a900473ffffffffffffffffffffffffffffffffffffffff1673ffffffffffffffffffffffffffffffffffffffff166370a08231306040518263ffffffff1660e01b8152600401808273ffffffffffffffffffffffffffffffffffffffff1673ffffffffffffffffffffffffffffffffffffffff16815260200191505060206040518083038186803b1580156127ef57600080fd5b505afa158015612803573d6000803e3d6000fd5b505050506040513d602081101561281957600080fd5b8101908080519060200190929190505050905080821061291c576000809054906101000a900473ffffffffffffffffffffffffffffffffffffffff1673ffffffffffffffffffffffffffffffffffffffff1663a9059cbb84836040518363ffffffff1660e01b8152600401808373ffffffffffffffffffffffffffffffffffffffff1673ffffffffffffffffffffffffffffffffffffffff16815260200182815260200192505050602060405180830381600087803b1580156128db57600080fd5b505af11580156128ef573d6000803e3d6000fd5b505050506040513d602081101561290557600080fd5b810190808051906020019092919050505050612a01565b6000809054906101000a900473ffffffffffffffffffffffffffffffffffffffff1673ffffffffffffffffffffffffffffffffffffffff1663a9059cbb84846040518363ffffffff1660e01b8152600401808373ffffffffffffffffffffffffffffffffffffffff1673ffffffffffffffffffffffffffffffffffffffff16815260200182815260200192505050602060405180830381600087803b1580156129c457600080fd5b505af11580156129d8573d6000803e3d6000fd5b505050506040513d60208110156129ee57600080fd5b8101908080519060200190929190505050505b612a096112b8565b6000809054906101000a900473ffffffffffffffffffffffffffffffffffffffff1673ffffffffffffffffffffffffffffffffffffffff166370a08231306040518263ffffffff1660e01b8152600401808273ffffffffffffffffffffffffffffffffffffffff1673ffffffffffffffffffffffffffffffffffffffff16815260200191505060206040518083038186803b158015612aa757600080fd5b505afa158015612abb573d6000803e3d6000fd5b505050506040513d6020811015612ad157600080fd5b8101908080519060200190929190505050601081905550505b505056fe77697468647261773a207573657220616d6f756e7420696e73756666696369656e745265636970656e74206973206e6f74206120736d61727420636f6e74726163742c20424f4f4f4f4f4f4f536166654d6174683a206d756c7469706c69636174696f6e206f766572666c6f775769746864726177696e672066726f6d207468697320706f6f6c2069732064697361626c6564476f7665726e616e636520736574757020677261636520706572696f64206e6f74206f766572a26469706673582212208b0517112ee86d1e834e31013c167a9180465d0c668369d1f776a6e92167999a64736f6c63430006060033",
  "immutableReferences": {},
  "source": "// SPDX-License-Identifier: WHO GIVES A FUCK ANYWAY??\r\n\r\npragma solidity >= 0.6.0;\r\n\r\nimport \"./UniCore_Libraries.sol\";\r\nimport \"./UniCore_Interfaces.sol\";\r\n\r\n\r\n// Vault distributes fees equally amongst staked pools\r\n\r\ncontract UniCore_Vault {\r\n    using SafeMath for uint256;\r\n\r\n\r\n    address public UniCore; //token address\r\n    \r\n    address public Treasury1;\r\n    address public Treasury2;\r\n    address public Treasury3;\r\n    uint256 treasuryFee;\r\n    uint256 pendingTreasuryRewards;\r\n    \r\n\r\n//USERS METRICS\r\n    struct UserInfo {\r\n        uint256 amount; // How many tokens the user has provided.\r\n        uint256 rewardPaid; // Already Paid. See explanation below.\r\n        //  pending reward = (user.amount * pool.UniCorePerShare) - user.rewardPaid\r\n    }\r\n    mapping(uint256 => mapping(address => UserInfo)) public userInfo;\r\n    \r\n//POOL METRICS\r\n    struct PoolInfo {\r\n        address token;                // Address of staked token contract.\r\n        uint256 allocPoint;           // How many allocation points assigned to this pool. UniCores to distribute per block. (ETH = 2.3M blocks per year)\r\n        uint256 accUniCorePerShare;   // Accumulated UniCores per share, times 1e18. See below.\r\n        bool withdrawable;            // Is this pool withdrawable or not\r\n        \r\n        mapping(address => mapping(address => uint256)) allowance;\r\n    }\r\n    PoolInfo[] public poolInfo;\r\n\r\n    uint256 public totalAllocPoint;     // Total allocation points. Must be the sum of all allocation points in all pools.\r\n    uint256 public pendingRewards;      // pending rewards awaiting anyone to massUpdate\r\n    uint256 public contractStartBlock;\r\n    uint256 public epochCalculationStartBlock;\r\n    uint256 public cumulativeRewardsSinceStart;\r\n    uint256 public rewardsInThisEpoch;\r\n    uint public epoch;\r\n\r\n//EVENTS\r\n    event Deposit(address indexed user, uint256 indexed pid, uint256 amount);\r\n    event Withdraw(address indexed user, uint256 indexed pid, uint256 amount);\r\n    event EmergencyWithdraw(address indexed user, uint256 indexed pid, uint256 amount);\r\n    event Approval(address indexed owner, address indexed spender, uint256 _pid, uint256 value);\r\n\r\n    \r\n//INITIALIZE \r\n    constructor() public {\r\n\r\n        UniCore = address(0xBC935114084188636d7C854f49f03F0A85B8FDF1);\r\n        Treasury1 = address(0xF4D7a0E8a68345442172F45cAbD272c25320AA96); //TESTNET\r\n        \r\n        Treasury2 = address(0x397f9694Ca604c2bbdfB5c86227A64853940FB49); //stpd \r\n        Treasury3 = address(0x397f9694Ca604c2bbdfB5c86227A64853940FB49); //QS \r\n        treasuryFee = 500; //5%\r\n        \r\n        contractStartBlock = block.number;\r\n    }\r\n    \r\n//==================================================================================================================================\r\n//POOL\r\n    \r\n //view stuff\r\n \r\n    function poolLength() external view returns (uint256) {\r\n        return poolInfo.length; //number of pools (per pid)\r\n    }\r\n    \r\n    // Returns fees generated since start of this contract\r\n    function averageFeesPerBlockSinceStart() external view returns (uint averagePerBlock) {\r\n        averagePerBlock = cumulativeRewardsSinceStart.add(rewardsInThisEpoch).div(block.number.sub(contractStartBlock));\r\n    }\r\n\r\n    // Returns averge fees in this epoch\r\n    function averageFeesPerBlockEpoch() external view returns (uint256 averagePerBlock) {\r\n        averagePerBlock = rewardsInThisEpoch.div(block.number.sub(epochCalculationStartBlock));\r\n    }\r\n\r\n    // For easy graphing historical epoch rewards\r\n    mapping(uint => uint256) public epochRewards;\r\n\r\n //set stuff (govenrors)\r\n\r\n    // Add a new token pool. Can only be called by governors.\r\n    function addPool( uint256 _allocPoint, address _token, bool _withUpdate, bool _withdrawable) public governanceLevel(2) {\r\n        if (_withUpdate) { massUpdatePools();}\r\n\r\n        uint256 length = poolInfo.length;\r\n        for (uint256 pid = 0; pid < length; ++pid) {\r\n            require(poolInfo[pid].token != _token,\"Error pool already added\");\r\n        }\r\n\r\n        totalAllocPoint = totalAllocPoint.add(_allocPoint); //pre-allocation\r\n\r\n        poolInfo.push(\r\n            PoolInfo({\r\n                token: _token,\r\n                allocPoint: _allocPoint,\r\n                accUniCorePerShare: 0,\r\n                withdrawable : _withdrawable\r\n            })\r\n        );\r\n    }\r\n\r\n    // Updates the given pool's  allocation points. Can only be called with right governance levels.\r\n    function setPool(uint256 _pid, uint256 _allocPoint, bool _withUpdate) public governanceLevel(2) {\r\n        if (_withUpdate) {massUpdatePools();}\r\n\r\n        totalAllocPoint = totalAllocPoint.sub(poolInfo[_pid].allocPoint).add(_allocPoint);\r\n        poolInfo[_pid].allocPoint = _allocPoint;\r\n    }\r\n\r\n    // Update the given pool's ability to withdraw tokens\r\n    function setPoolWithdrawable(uint256 _pid, bool _withdrawable) public governanceLevel(2) {\r\n        poolInfo[_pid].withdrawable = _withdrawable;\r\n    }\r\n    \r\n //set stuff (anybody)\r\n  \r\n    //Starts a new calculation epoch; Because average since start will not be accurate\r\n    function startNewEpoch() public {\r\n        require(epochCalculationStartBlock + 50000 < block.number, \"New epoch not ready yet\"); // 50k blocks = About a week\r\n        epochRewards[epoch] = rewardsInThisEpoch;\r\n        cumulativeRewardsSinceStart = cumulativeRewardsSinceStart.add(rewardsInThisEpoch);\r\n        rewardsInThisEpoch = 0;\r\n        epochCalculationStartBlock = block.number;\r\n        ++epoch;\r\n    }\r\n    \r\n    // Updates the reward variables of the given pool\r\n    function updatePool(uint256 _pid) internal returns (uint256 UniCoreRewardWhole) {\r\n        PoolInfo storage pool = poolInfo[_pid];\r\n\r\n        uint256 tokenSupply = IERC20(pool.token).balanceOf(address(this));\r\n        if (tokenSupply == 0) { // avoids division by 0 errors\r\n            return 0;\r\n        }\r\n        UniCoreRewardWhole = pendingRewards     // Multiplies pending rewards by allocation point of this pool and then total allocation\r\n            .mul(pool.allocPoint)               // getting the percent of total pending rewards this pool should get\r\n            .div(totalAllocPoint);              // we can do this because pools are only mass updated\r\n        \r\n        uint256 UniCoreRewardFee = UniCoreRewardWhole.mul(treasuryFee).div(10000);\r\n        uint256 UniCoreRewardToDistribute = UniCoreRewardWhole.sub(UniCoreRewardFee);\r\n\r\n        pendingTreasuryRewards = pendingTreasuryRewards.add(UniCoreRewardFee);\r\n\r\n        pool.accUniCorePerShare = pool.accUniCorePerShare.add(UniCoreRewardToDistribute.mul(1e18).div(tokenSupply));\r\n    }\r\n    function massUpdatePools() public {\r\n        uint256 length = poolInfo.length; \r\n        uint allRewards;\r\n        \r\n        for (uint256 pid = 0; pid < length; ++pid) {\r\n            allRewards = allRewards.add(updatePool(pid)); //calls updatePool(pid)\r\n        }\r\n        pendingRewards = pendingRewards.sub(allRewards);\r\n    }\r\n    \r\n    //payout of UniCore Rewards, uses SafeUnicoreTransfer\r\n    function updateAndPayOutPending(uint256 _pid, address user) internal {\r\n        \r\n        massUpdatePools();\r\n\r\n        uint256 pending = pendingUniCore(_pid, user);\r\n\r\n        safeUniCoreTransfer(user, pending);\r\n    }\r\n    \r\n    \r\n    // Safe UniCore transfer function, Manages rounding errors.\r\n    function safeUniCoreTransfer(address _to, uint256 _amount) internal {   //TODO = pass internal\r\n        if(_amount == 0) return;\r\n\r\n        uint256 UniCoreBal = IERC20(UniCore).balanceOf(address(this));\r\n        if (_amount >= UniCoreBal) { IERC20(UniCore).transfer(_to, UniCoreBal);} \r\n        else { IERC20(UniCore).transfer(_to, _amount);}\r\n\r\n        transferTreasuryFees(); //adds unecessary gas for users, team can trigger the function manually\r\n        UniCoreBalance = IERC20(UniCore).balanceOf(address(this));\r\n    }\r\n\r\n//external call from token\r\n\r\n    /* @dev called by the token after each fee transfer to the vault.\r\n    *       updates the pendingRewards and the rewardsInThisEpoch variables\r\n    */      \r\n    modifier onlyUniCore() {\r\n        require(msg.sender == UniCore);\r\n        _;\r\n    }\r\n    \r\n    uint256 private UniCoreBalance;\r\n    function updateRewards() external onlyUniCore {  //function addPendingRewards(uint256 _) for CORE\r\n        uint256 newRewards = IERC20(UniCore).balanceOf(address(this)).sub(UniCoreBalance); //delta vs previous balanceOf\r\n\r\n        if(newRewards > 0) {\r\n            UniCoreBalance =  IERC20(UniCore).balanceOf(address(this)); //balance snapshot\r\n            pendingRewards = pendingRewards.add(newRewards);\r\n            rewardsInThisEpoch = rewardsInThisEpoch.add(newRewards);\r\n        }\r\n    }\r\n\r\n//==================================================================================================================================\r\n//USERS\r\n\r\n    // Deposit tokens to Vault to get allocation rewards\r\n    function deposit(uint256 _pid, uint256 _amount) external {\r\n        require(_amount > 0, \"cannot deposit zero tokens\");\r\n        \r\n        PoolInfo storage pool = poolInfo[_pid];\r\n        UserInfo storage user = userInfo[_pid][msg.sender];\r\n\r\n        updateAndPayOutPending(_pid, msg.sender); //Transfer pending tokens, updates the pools \r\n\r\n        //Transfer the amounts from user\r\n        IERC20(pool.token).transferFrom(msg.sender, address(this), _amount);\r\n        user.amount = user.amount.add(_amount);\r\n\r\n        //Finalize\r\n        user.rewardPaid = user.amount.mul(pool.accUniCorePerShare).div(1e18);\r\n        \r\n        emit Deposit(msg.sender, _pid, _amount);\r\n    }\r\n\r\n    // Withdraw tokens from Vault.\r\n    function withdraw(uint256 _pid, uint256 _amount) external {\r\n        _withdraw(_pid, _amount, msg.sender, msg.sender);\r\n        transferTreasuryFees(); //incurs a gas penalty -> treasury fees transfer\r\n    }\r\n    function _withdraw(uint256 _pid, uint256 _amount, address from, address to) internal {\r\n\r\n        PoolInfo storage pool = poolInfo[_pid];\r\n        require(pool.withdrawable, \"Withdrawing from this pool is disabled\");\r\n        \r\n        UserInfo storage user = userInfo[_pid][from];\r\n        require(user.amount >= _amount, \"withdraw: user amount insufficient\");\r\n\r\n        updateAndPayOutPending(_pid, from); // //Transfer pending tokens, updates the pools \r\n\r\n        if(_amount > 0) {\r\n            user.amount = user.amount.sub(_amount);\r\n            IERC20(pool.token).transfer(address(to), _amount);\r\n        }\r\n        user.rewardPaid = user.amount.mul(pool.accUniCorePerShare).div(1e18);\r\n\r\n        emit Withdraw(to, _pid, _amount);\r\n    }\r\n\r\n\r\n    // Getter function to see pending UniCore rewards per user.\r\n    function pendingUniCore(uint256 _pid, address _user) public view returns (uint256) {\r\n        PoolInfo storage pool = poolInfo[_pid];\r\n        UserInfo storage user = userInfo[_pid][_user];\r\n        uint256 accUniCorePerShare = pool.accUniCorePerShare;\r\n\r\n        return user.amount.mul(accUniCorePerShare).div(1e18).sub(user.rewardPaid);\r\n    }\r\n    \r\n\r\n//==================================================================================================================================\r\n//TREASURY \r\n\r\n    function transferTreasuryFees() public {\r\n        if(pendingTreasuryRewards == 0) return;\r\n\r\n        uint256 UniCorebal = IERC20(UniCore).balanceOf(address(this));\r\n        \r\n        //splitRewards\r\n        uint256 rewards3 = pendingTreasuryRewards.mul(19).div(100); //stpd\r\n        uint256 rewards2 = pendingTreasuryRewards.mul(19).div(100); //qtsr\r\n        uint256 rewards1 = pendingTreasuryRewards.sub(rewards3).sub(rewards2); //team\r\n        \r\n        \r\n        //manages overflows or bad math\r\n        if (pendingTreasuryRewards > UniCorebal) {\r\n            rewards3 = UniCorebal.mul(19).div(100); //stpd\r\n            rewards2 = UniCorebal.mul(19).div(100); //qtsr\r\n            rewards1 = UniCorebal.sub(rewards3).sub(rewards2); //team\r\n        } \r\n\r\n            IERC20(UniCore).transfer(Treasury3, rewards3);\r\n            IERC20(UniCore).transfer(Treasury2, rewards2);\r\n            IERC20(UniCore).transfer(Treasury1, rewards1);\r\n\r\n            UniCoreBalance = IERC20(UniCore).balanceOf(address(this));\r\n        \r\n            pendingTreasuryRewards = 0;\r\n    }\r\n\r\n\r\n//==================================================================================================================================\r\n//GOVERNANCE & UTILS\r\n\r\n//Governance inherited from governance levels of UniCoreVaultAddress\r\n    function viewGovernanceLevel(address _address) public view returns(uint8) {\r\n        return IUniCore(UniCore).viewGovernanceLevel(_address);\r\n    }\r\n    modifier governanceLevel(uint8 _level){\r\n        require(viewGovernanceLevel(msg.sender) >= _level, \"Grow some mustache kiddo...\");\r\n        _;\r\n    }\r\n\r\n// utils    \r\n    function isContract(address addr) public view returns (bool) {\r\n        uint size;\r\n        assembly { size := extcodesize(addr) }\r\n        return size > 0;\r\n    }\r\n    \r\n    // function that lets owner/governance contract\r\n    // approve allowance for any token inside this contract\r\n    // This means all future UNI like airdrops are covered\r\n    // And at the same time allows us to give allowance to strategy contracts.\r\n    // Upcoming cYFI etc vaults strategy contracts will use this function to manage and farm yield on value locked\r\n    function setContractAllowance(address tokenAddress, uint256 _amount, address contractAddress) public governanceLevel(2) {\r\n        require(isContract(contractAddress), \"Recipent is not a smart contract, BOOOOOOO\");\r\n        require(block.number > contractStartBlock.add(95000), \"Governance setup grace period not over\"); // about 2weeks\r\n        IERC20(tokenAddress).approve(contractAddress, _amount);\r\n    }\r\n}\r\n",
  "sourcePath": "/Users/noahcoomer/source/unicore-vault/unicore-vault-contracts/contracts/UniCore_Vault.sol",
  "compiler": {
    "name": "solc",
    "version": "0.6.6+commit.6c089d02.Emscripten.clang"
  },
  "schemaVersion": "3.3.0",
  "updatedAt": "2020-10-14T06:11:29.442Z",
  "devdoc": {
    "methods": {}
  },
  "userdoc": {
    "methods": {}
  }
}