{
  "contractName": "UniCore_Token_v3",
  "abi": [
    {
      "inputs": [],
      "stateMutability": "nonpayable",
      "type": "constructor"
    },
    {
      "anonymous": false,
      "inputs": [
        {
          "indexed": true,
          "internalType": "address",
          "name": "owner",
          "type": "address"
        },
        {
          "indexed": true,
          "internalType": "address",
          "name": "spender",
          "type": "address"
        },
        {
          "indexed": false,
          "internalType": "uint256",
          "name": "value",
          "type": "uint256"
        }
      ],
      "name": "Approval",
      "type": "event"
    },
    {
      "anonymous": false,
      "inputs": [
        {
          "indexed": false,
          "internalType": "address",
          "name": "dst",
          "type": "address"
        },
        {
          "indexed": false,
          "internalType": "uint256",
          "name": "value",
          "type": "uint256"
        }
      ],
      "name": "LPTokenClaimed",
      "type": "event"
    },
    {
      "anonymous": false,
      "inputs": [
        {
          "indexed": true,
          "internalType": "address",
          "name": "dst",
          "type": "address"
        },
        {
          "indexed": false,
          "internalType": "uint256",
          "name": "value",
          "type": "uint256"
        }
      ],
      "name": "LiquidityAddition",
      "type": "event"
    },
    {
      "anonymous": false,
      "inputs": [
        {
          "indexed": false,
          "internalType": "string",
          "name": "log",
          "type": "string"
        }
      ],
      "name": "Log",
      "type": "event"
    },
    {
      "anonymous": false,
      "inputs": [
        {
          "indexed": true,
          "internalType": "address",
          "name": "from",
          "type": "address"
        },
        {
          "indexed": true,
          "internalType": "address",
          "name": "to",
          "type": "address"
        },
        {
          "indexed": false,
          "internalType": "uint256",
          "name": "value",
          "type": "uint256"
        }
      ],
      "name": "Transfer",
      "type": "event"
    },
    {
      "inputs": [],
      "name": "LPGenerationCompleted",
      "outputs": [
        {
          "internalType": "bool",
          "name": "",
          "type": "bool"
        }
      ],
      "stateMutability": "view",
      "type": "function"
    },
    {
      "inputs": [],
      "name": "LPperETHUnit",
      "outputs": [
        {
          "internalType": "uint256",
          "name": "",
          "type": "uint256"
        }
      ],
      "stateMutability": "view",
      "type": "function"
    },
    {
      "inputs": [],
      "name": "UniswapPair",
      "outputs": [
        {
          "internalType": "address",
          "name": "",
          "type": "address"
        }
      ],
      "stateMutability": "view",
      "type": "function"
    },
    {
      "inputs": [],
      "name": "Vault",
      "outputs": [
        {
          "internalType": "address",
          "name": "",
          "type": "address"
        }
      ],
      "stateMutability": "view",
      "type": "function"
    },
    {
      "inputs": [],
      "name": "buyFee",
      "outputs": [
        {
          "internalType": "uint256",
          "name": "",
          "type": "uint256"
        }
      ],
      "stateMutability": "view",
      "type": "function"
    },
    {
      "inputs": [],
      "name": "contractStartTimestamp",
      "outputs": [
        {
          "internalType": "uint256",
          "name": "",
          "type": "uint256"
        }
      ],
      "stateMutability": "view",
      "type": "function"
    },
    {
      "inputs": [],
      "name": "coolDown",
      "outputs": [
        {
          "internalType": "uint8",
          "name": "",
          "type": "uint8"
        }
      ],
      "stateMutability": "view",
      "type": "function"
    },
    {
      "inputs": [
        {
          "internalType": "address",
          "name": "",
          "type": "address"
        }
      ],
      "name": "ethContributed",
      "outputs": [
        {
          "internalType": "uint256",
          "name": "",
          "type": "uint256"
        }
      ],
      "stateMutability": "view",
      "type": "function"
    },
    {
      "inputs": [
        {
          "internalType": "address",
          "name": "",
          "type": "address"
        }
      ],
      "name": "governanceLevels",
      "outputs": [
        {
          "internalType": "uint8",
          "name": "",
          "type": "uint8"
        }
      ],
      "stateMutability": "view",
      "type": "function"
    },
    {
      "inputs": [],
      "name": "initialSupply",
      "outputs": [
        {
          "internalType": "uint256",
          "name": "",
          "type": "uint256"
        }
      ],
      "stateMutability": "view",
      "type": "function"
    },
    {
      "inputs": [],
      "name": "lastTotalSupplyOfLPTokens",
      "outputs": [
        {
          "internalType": "uint256",
          "name": "",
          "type": "uint256"
        }
      ],
      "stateMutability": "view",
      "type": "function"
    },
    {
      "inputs": [
        {
          "internalType": "address",
          "name": "",
          "type": "address"
        }
      ],
      "name": "lastTransfer",
      "outputs": [
        {
          "internalType": "uint256",
          "name": "",
          "type": "uint256"
        }
      ],
      "stateMutability": "view",
      "type": "function"
    },
    {
      "inputs": [],
      "name": "liquidityGenerationParticipationAgreement",
      "outputs": [
        {
          "internalType": "string",
          "name": "",
          "type": "string"
        }
      ],
      "stateMutability": "view",
      "type": "function"
    },
    {
      "inputs": [
        {
          "internalType": "address",
          "name": "",
          "type": "address"
        }
      ],
      "name": "noFeeList",
      "outputs": [
        {
          "internalType": "bool",
          "name": "",
          "type": "bool"
        }
      ],
      "stateMutability": "view",
      "type": "function"
    },
    {
      "inputs": [],
      "name": "sellFee",
      "outputs": [
        {
          "internalType": "uint256",
          "name": "",
          "type": "uint256"
        }
      ],
      "stateMutability": "view",
      "type": "function"
    },
    {
      "inputs": [],
      "name": "totalETHContributed",
      "outputs": [
        {
          "internalType": "uint256",
          "name": "",
          "type": "uint256"
        }
      ],
      "stateMutability": "view",
      "type": "function"
    },
    {
      "inputs": [],
      "name": "totalLPTokensMinted",
      "outputs": [
        {
          "internalType": "uint256",
          "name": "",
          "type": "uint256"
        }
      ],
      "stateMutability": "view",
      "type": "function"
    },
    {
      "inputs": [],
      "name": "uniswapFactory",
      "outputs": [
        {
          "internalType": "contract IUniswapV2Factory",
          "name": "",
          "type": "address"
        }
      ],
      "stateMutability": "view",
      "type": "function"
    },
    {
      "inputs": [],
      "name": "uniswapRouterV2",
      "outputs": [
        {
          "internalType": "contract IUniswapV2Router02",
          "name": "",
          "type": "address"
        }
      ],
      "stateMutability": "view",
      "type": "function"
    },
    {
      "inputs": [],
      "name": "wUNIv2",
      "outputs": [
        {
          "internalType": "address",
          "name": "",
          "type": "address"
        }
      ],
      "stateMutability": "view",
      "type": "function"
    },
    {
      "inputs": [],
      "name": "initialSetup",
      "outputs": [],
      "stateMutability": "nonpayable",
      "type": "function"
    },
    {
      "inputs": [],
      "name": "liquidityGenerationOngoing",
      "outputs": [
        {
          "internalType": "bool",
          "name": "",
          "type": "bool"
        }
      ],
      "stateMutability": "view",
      "type": "function"
    },
    {
      "inputs": [],
      "name": "emergencyDrain24hAfterLiquidityGenerationEventIsDone",
      "outputs": [],
      "stateMutability": "nonpayable",
      "type": "function"
    },
    {
      "inputs": [
        {
          "internalType": "bool",
          "name": "agreesToTermsOutlinedInLiquidityGenerationParticipationAgreement",
          "type": "bool"
        }
      ],
      "name": "USER_PledgeLiquidity",
      "outputs": [],
      "stateMutability": "payable",
      "type": "function"
    },
    {
      "inputs": [],
      "name": "USER_UNPledgeLiquidity",
      "outputs": [],
      "stateMutability": "nonpayable",
      "type": "function"
    },
    {
      "inputs": [
        {
          "internalType": "address",
          "name": "_Vault",
          "type": "address"
        },
        {
          "internalType": "address",
          "name": "_wUNIv2",
          "type": "address"
        }
      ],
      "name": "POOL_CreateLiquidity",
      "outputs": [],
      "stateMutability": "nonpayable",
      "type": "function"
    },
    {
      "inputs": [],
      "name": "USER_ClaimLiquidity",
      "outputs": [],
      "stateMutability": "nonpayable",
      "type": "function"
    },
    {
      "inputs": [],
      "name": "USER_ClaimWrappedLiquidity",
      "outputs": [],
      "stateMutability": "nonpayable",
      "type": "function"
    },
    {
      "inputs": [],
      "name": "name",
      "outputs": [
        {
          "internalType": "string",
          "name": "",
          "type": "string"
        }
      ],
      "stateMutability": "view",
      "type": "function"
    },
    {
      "inputs": [],
      "name": "symbol",
      "outputs": [
        {
          "internalType": "string",
          "name": "",
          "type": "string"
        }
      ],
      "stateMutability": "view",
      "type": "function"
    },
    {
      "inputs": [],
      "name": "decimals",
      "outputs": [
        {
          "internalType": "uint8",
          "name": "",
          "type": "uint8"
        }
      ],
      "stateMutability": "view",
      "type": "function"
    },
    {
      "inputs": [],
      "name": "totalSupply",
      "outputs": [
        {
          "internalType": "uint256",
          "name": "",
          "type": "uint256"
        }
      ],
      "stateMutability": "view",
      "type": "function"
    },
    {
      "inputs": [
        {
          "internalType": "address",
          "name": "_owner",
          "type": "address"
        }
      ],
      "name": "balanceOf",
      "outputs": [
        {
          "internalType": "uint256",
          "name": "",
          "type": "uint256"
        }
      ],
      "stateMutability": "view",
      "type": "function"
    },
    {
      "inputs": [
        {
          "internalType": "address",
          "name": "recipient",
          "type": "address"
        },
        {
          "internalType": "uint256",
          "name": "amount",
          "type": "uint256"
        }
      ],
      "name": "transfer",
      "outputs": [
        {
          "internalType": "bool",
          "name": "",
          "type": "bool"
        }
      ],
      "stateMutability": "nonpayable",
      "type": "function"
    },
    {
      "inputs": [
        {
          "internalType": "address",
          "name": "owner",
          "type": "address"
        },
        {
          "internalType": "address",
          "name": "spender",
          "type": "address"
        }
      ],
      "name": "allowance",
      "outputs": [
        {
          "internalType": "uint256",
          "name": "",
          "type": "uint256"
        }
      ],
      "stateMutability": "view",
      "type": "function"
    },
    {
      "inputs": [
        {
          "internalType": "address",
          "name": "spender",
          "type": "address"
        },
        {
          "internalType": "uint256",
          "name": "amount",
          "type": "uint256"
        }
      ],
      "name": "approve",
      "outputs": [
        {
          "internalType": "bool",
          "name": "",
          "type": "bool"
        }
      ],
      "stateMutability": "nonpayable",
      "type": "function"
    },
    {
      "inputs": [
        {
          "internalType": "address",
          "name": "sender",
          "type": "address"
        },
        {
          "internalType": "address",
          "name": "recipient",
          "type": "address"
        },
        {
          "internalType": "uint256",
          "name": "amount",
          "type": "uint256"
        }
      ],
      "name": "transferFrom",
      "outputs": [
        {
          "internalType": "bool",
          "name": "",
          "type": "bool"
        }
      ],
      "stateMutability": "nonpayable",
      "type": "function"
    },
    {
      "inputs": [
        {
          "internalType": "address",
          "name": "spender",
          "type": "address"
        },
        {
          "internalType": "uint256",
          "name": "addedValue",
          "type": "uint256"
        }
      ],
      "name": "increaseAllowance",
      "outputs": [
        {
          "internalType": "bool",
          "name": "",
          "type": "bool"
        }
      ],
      "stateMutability": "nonpayable",
      "type": "function"
    },
    {
      "inputs": [
        {
          "internalType": "address",
          "name": "spender",
          "type": "address"
        },
        {
          "internalType": "uint256",
          "name": "subtractedValue",
          "type": "uint256"
        }
      ],
      "name": "decreaseAllowance",
      "outputs": [
        {
          "internalType": "bool",
          "name": "",
          "type": "bool"
        }
      ],
      "stateMutability": "nonpayable",
      "type": "function"
    },
    {
      "inputs": [],
      "name": "sync",
      "outputs": [],
      "stateMutability": "nonpayable",
      "type": "function"
    },
    {
      "inputs": [
        {
          "internalType": "address",
          "name": "sender",
          "type": "address"
        },
        {
          "internalType": "uint256",
          "name": "amount",
          "type": "uint256"
        }
      ],
      "name": "calculateAmountAndFee",
      "outputs": [
        {
          "internalType": "uint256",
          "name": "netAmount",
          "type": "uint256"
        },
        {
          "internalType": "uint256",
          "name": "fee",
          "type": "uint256"
        }
      ],
      "stateMutability": "view",
      "type": "function"
    },
    {
      "inputs": [
        {
          "internalType": "address",
          "name": "_address",
          "type": "address"
        }
      ],
      "name": "viewCoolDown",
      "outputs": [
        {
          "internalType": "uint8",
          "name": "",
          "type": "uint8"
        }
      ],
      "stateMutability": "view",
      "type": "function"
    },
    {
      "inputs": [
        {
          "internalType": "address",
          "name": "_address",
          "type": "address"
        },
        {
          "internalType": "uint8",
          "name": "_level",
          "type": "uint8"
        }
      ],
      "name": "setGovernanceLevel",
      "outputs": [],
      "stateMutability": "nonpayable",
      "type": "function"
    },
    {
      "inputs": [
        {
          "internalType": "address",
          "name": "_address",
          "type": "address"
        }
      ],
      "name": "viewGovernanceLevel",
      "outputs": [
        {
          "internalType": "uint8",
          "name": "",
          "type": "uint8"
        }
      ],
      "stateMutability": "view",
      "type": "function"
    },
    {
      "inputs": [
        {
          "internalType": "address",
          "name": "_UniswapPair",
          "type": "address"
        }
      ],
      "name": "setUniswapPair",
      "outputs": [],
      "stateMutability": "nonpayable",
      "type": "function"
    },
    {
      "inputs": [
        {
          "internalType": "address",
          "name": "_Vault",
          "type": "address"
        }
      ],
      "name": "setVault",
      "outputs": [],
      "stateMutability": "nonpayable",
      "type": "function"
    },
    {
      "inputs": [
        {
          "internalType": "address",
          "name": "account",
          "type": "address"
        },
        {
          "internalType": "uint256",
          "name": "amount",
          "type": "uint256"
        }
      ],
      "name": "mintTo",
      "outputs": [],
      "stateMutability": "nonpayable",
      "type": "function"
    },
    {
      "inputs": [
        {
          "internalType": "uint256",
          "name": "amount",
          "type": "uint256"
        }
      ],
      "name": "burnToken",
      "outputs": [],
      "stateMutability": "nonpayable",
      "type": "function"
    },
    {
      "inputs": [
        {
          "internalType": "address",
          "name": "_address",
          "type": "address"
        },
        {
          "internalType": "bool",
          "name": "_bool",
          "type": "bool"
        }
      ],
      "name": "setNoCooldownList",
      "outputs": [],
      "stateMutability": "nonpayable",
      "type": "function"
    },
    {
      "inputs": [
        {
          "internalType": "uint8",
          "name": "_coolDown",
          "type": "uint8"
        }
      ],
      "name": "changeEcosystemCooldown",
      "outputs": [],
      "stateMutability": "nonpayable",
      "type": "function"
    },
    {
      "inputs": [
        {
          "internalType": "address",
          "name": "account",
          "type": "address"
        },
        {
          "internalType": "uint8",
          "name": "_coolDown",
          "type": "uint8"
        }
      ],
      "name": "addAccountCooldown",
      "outputs": [],
      "stateMutability": "nonpayable",
      "type": "function"
    },
    {
      "inputs": [
        {
          "internalType": "uint256",
          "name": "_buyFee",
          "type": "uint256"
        },
        {
          "internalType": "uint256",
          "name": "_sellFee",
          "type": "uint256"
        }
      ],
      "name": "setBuySellFees",
      "outputs": [],
      "stateMutability": "nonpayable",
      "type": "function"
    },
    {
      "inputs": [
        {
          "internalType": "address",
          "name": "_address",
          "type": "address"
        },
        {
          "internalType": "bool",
          "name": "_bool",
          "type": "bool"
        }
      ],
      "name": "setNoFeeList",
      "outputs": [],
      "stateMutability": "nonpayable",
      "type": "function"
    },
    {
      "inputs": [],
      "name": "viewUNIv2",
      "outputs": [
        {
          "internalType": "address",
          "name": "",
          "type": "address"
        }
      ],
      "stateMutability": "view",
      "type": "function"
    },
    {
      "inputs": [],
      "name": "viewwWrappedUNIv2",
      "outputs": [
        {
          "internalType": "address",
          "name": "",
          "type": "address"
        }
      ],
      "stateMutability": "view",
      "type": "function"
    },
    {
      "inputs": [],
      "name": "viewVault",
      "outputs": [
        {
          "internalType": "address",
          "name": "",
          "type": "address"
        }
      ],
      "stateMutability": "view",
      "type": "function"
    }
  ],
  "bytecode": "0x60806040526040518060a001604052806069815260200162005b0560699139600c908051906020019062000035929190620003e2565b503480156200004357600080fd5b506040518060400160405280600781526020017f556e69436f7265000000000000000000000000000000000000000000000000008152506003908051906020019062000091929190620003e2565b506040518060400160405280600781526020017f554e49434f52450000000000000000000000000000000000000000000000000081525060049080519060200190620000df929190620003e2565b506012600560006101000a81548160ff021916908360ff1602179055506200011730683635c9adc5dea000006200017660201b60201c565b6002601860003373ffffffffffffffffffffffffffffffffffffffff1673ffffffffffffffffffffffffffffffffffffffff16815260200190815260200160002060006101000a81548160ff021916908360ff16021790555062000491565b600073ffffffffffffffffffffffffffffffffffffffff168273ffffffffffffffffffffffffffffffffffffffff1614156200021a576040517f08c379a000000000000000000000000000000000000000000000000000000000815260040180806020018281038252601f8152602001807f45524332303a206d696e7420746f20746865207a65726f20616464726573730081525060200191505060405180910390fd5b6200022e600083836200035460201b60201c565b6200024a816002546200035960201b620049951790919060201c565b600281905550620002a8816000808573ffffffffffffffffffffffffffffffffffffffff1673ffffffffffffffffffffffffffffffffffffffff168152602001908152602001600020546200035960201b620049951790919060201c565b6000808473ffffffffffffffffffffffffffffffffffffffff1673ffffffffffffffffffffffffffffffffffffffff168152602001908152602001600020819055508173ffffffffffffffffffffffffffffffffffffffff16600073ffffffffffffffffffffffffffffffffffffffff167fddf252ad1be2c89b69c2b068fc378daa952ba7f163c4a11628f55a4df523b3ef836040518082815260200191505060405180910390a35050565b505050565b600080828401905083811015620003d8576040517f08c379a000000000000000000000000000000000000000000000000000000000815260040180806020018281038252601b8152602001807f536166654d6174683a206164646974696f6e206f766572666c6f77000000000081525060200191505060405180910390fd5b8091505092915050565b828054600181600116156101000203166002900490600052602060002090601f016020900481019282601f106200042557805160ff191683800117855562000456565b8280016001018555821562000456579182015b828111156200045557825182559160200191906001019062000438565b5b50905062000465919062000469565b5090565b6200048e91905b808211156200048a57600081600090555060010162000470565b5090565b90565b61566480620004a16000396000f3fe60806040526004361061036a5760003560e01c80636a2f796c116101c6578063a457c2d7116100f7578063dd62ed3e11610095578063e27b538f1161006f578063e27b538f146113b9578063e7de43eb14611416578063f96f5b351461142d578063fff6cae9146114925761036a565b8063dd62ed3e14611292578063dd912c4114611317578063de5099cc146113745761036a565b8063b8752e70116100d1578063b8752e701461118f578063b88c712e146111a6578063c25cc8af146111d6578063d5aed6bf146112415761036a565b8063a457c2d714611038578063a894de3c146110ab578063a9059cbb1461111c5761036a565b80638aa1ff701161016457806392f619301161013e57806392f6193014610ecf57806395d89b4114610efa578063a19b083714610f8a578063a2b0a66e14610fe15761036a565b80638aa1ff7014610d7f5780638bdb2afa14610de85780638e8e292514610e3f5761036a565b806378a63f34116101a057806378a63f3414610c585780637b47ec1a14610caf578063803486e714610cea578063837d3e7314610d415761036a565b80636a2f796c14610b7157806370a0823114610b9c578063713a83e514610c015761036a565b806331a22a20116102a05780634d056f6d1161023e5780635b6612ad116102185780635b6612ad14610a165780635ef1701214610a7b57806360a0259014610af15780636817031b14610b205761036a565b80634d056f6d146109775780634f1a0f7d146109a8578063596fa9e3146109bf5761036a565b8063395093511161027a57806339509351146108675780634051b384146108da578063449a52f8146108f1578063470624021461094c5761036a565b806331a22a20146107a657806336b3a8fe146107d1578063378dc3dc1461083c5761036a565b8063233994341161030d5780632d2c44f2116102e75780632d2c44f2146106a95780632da9181c146107005780632e7fae3114610717578063313ce567146107755761036a565b806323399434146105c057806323b872dd146105eb5780632b14ca561461067e5761036a565b80631291459511610349578063129145951461049d57806314b8fecc1461050857806318160ddd146105375780631d067e30146105625761036a565b80622b13291461036f57806306fdde031461039a578063095ea7b31461042a575b600080fd5b34801561037b57600080fd5b506103846114a9565b6040518082815260200191505060405180910390f35b3480156103a657600080fd5b506103af6114af565b6040518080602001828103825283818151815260200191508051906020019080838360005b838110156103ef5780820151818401526020810190506103d4565b50505050905090810190601f16801561041c5780820380516001836020036101000a031916815260200191505b509250505060405180910390f35b34801561043657600080fd5b506104836004803603604081101561044d57600080fd5b81019080803573ffffffffffffffffffffffffffffffffffffffff16906020019092919080359060200190929190505050611551565b604051808215151515815260200191505060405180910390f35b3480156104a957600080fd5b506104ec600480360360208110156104c057600080fd5b81019080803573ffffffffffffffffffffffffffffffffffffffff16906020019092919050505061156f565b604051808260ff1660ff16815260200191505060405180910390f35b34801561051457600080fd5b5061051d61158f565b604051808215151515815260200191505060405180910390f35b34801561054357600080fd5b5061054c6115a2565b6040518082815260200191505060405180910390f35b34801561056e57600080fd5b506105be6004803603604081101561058557600080fd5b81019080803573ffffffffffffffffffffffffffffffffffffffff169060200190929190803560ff1690602001909291905050506115ac565b005b3480156105cc57600080fd5b506105d56116d3565b6040518082815260200191505060405180910390f35b3480156105f757600080fd5b506106646004803603606081101561060e57600080fd5b81019080803573ffffffffffffffffffffffffffffffffffffffff169060200190929190803573ffffffffffffffffffffffffffffffffffffffff169060200190929190803590602001909291905050506116d9565b604051808215151515815260200191505060405180910390f35b34801561068a57600080fd5b506106936117b2565b6040518082815260200191505060405180910390f35b3480156106b557600080fd5b506106be6117b8565b604051808273ffffffffffffffffffffffffffffffffffffffff1673ffffffffffffffffffffffffffffffffffffffff16815260200191505060405180910390f35b34801561070c57600080fd5b506107156117de565b005b34801561072357600080fd5b506107736004803603604081101561073a57600080fd5b81019080803573ffffffffffffffffffffffffffffffffffffffff169060200190929190803560ff169060200190929190505050611afb565b005b34801561078157600080fd5b5061078a611c21565b604051808260ff1660ff16815260200191505060405180910390f35b3480156107b257600080fd5b506107bb611c38565b6040518082815260200191505060405180910390f35b3480156107dd57600080fd5b50610820600480360360208110156107f457600080fd5b81019080803573ffffffffffffffffffffffffffffffffffffffff169060200190929190505050611c3e565b604051808260ff1660ff16815260200191505060405180910390f35b34801561084857600080fd5b50610851611ca5565b6040518082815260200191505060405180910390f35b34801561087357600080fd5b506108c06004803603604081101561088a57600080fd5b81019080803573ffffffffffffffffffffffffffffffffffffffff16906020019092919080359060200190929190505050611cb2565b604051808215151515815260200191505060405180910390f35b3480156108e657600080fd5b506108ef611d65565b005b3480156108fd57600080fd5b5061094a6004803603604081101561091457600080fd5b81019080803573ffffffffffffffffffffffffffffffffffffffff16906020019092919080359060200190929190505050611e78565b005b34801561095857600080fd5b50610961611f51565b6040518082815260200191505060405180910390f35b34801561098357600080fd5b5061098c611f57565b604051808260ff1660ff16815260200191505060405180910390f35b3480156109b457600080fd5b506109bd611f6a565b005b3480156109cb57600080fd5b506109d4612248565b604051808273ffffffffffffffffffffffffffffffffffffffff1673ffffffffffffffffffffffffffffffffffffffff16815260200191505060405180910390f35b348015610a2257600080fd5b50610a6560048036036020811015610a3957600080fd5b81019080803573ffffffffffffffffffffffffffffffffffffffff16906020019092919050505061226e565b6040518082815260200191505060405180910390f35b348015610a8757600080fd5b50610ad460048036036040811015610a9e57600080fd5b81019080803573ffffffffffffffffffffffffffffffffffffffff16906020019092919080359060200190929190505050612286565b604051808381526020018281526020019250505060405180910390f35b348015610afd57600080fd5b50610b066123b7565b604051808215151515815260200191505060405180910390f35b348015610b2c57600080fd5b50610b6f60048036036020811015610b4357600080fd5b81019080803573ffffffffffffffffffffffffffffffffffffffff1690602001909291905050506123d8565b005b348015610b7d57600080fd5b50610b866124e7565b6040518082815260200191505060405180910390f35b348015610ba857600080fd5b50610beb60048036036020811015610bbf57600080fd5b81019080803573ffffffffffffffffffffffffffffffffffffffff1690602001909291905050506124ed565b6040518082815260200191505060405180910390f35b348015610c0d57600080fd5b50610c16612535565b604051808273ffffffffffffffffffffffffffffffffffffffff1673ffffffffffffffffffffffffffffffffffffffff16815260200191505060405180910390f35b348015610c6457600080fd5b50610c6d61255b565b604051808273ffffffffffffffffffffffffffffffffffffffff1673ffffffffffffffffffffffffffffffffffffffff16815260200191505060405180910390f35b348015610cbb57600080fd5b50610ce860048036036020811015610cd257600080fd5b8101908080359060200190929190505050612581565b005b348015610cf657600080fd5b50610cff612659565b604051808273ffffffffffffffffffffffffffffffffffffffff1673ffffffffffffffffffffffffffffffffffffffff16815260200191505060405180910390f35b348015610d4d57600080fd5b50610d7d60048036036020811015610d6457600080fd5b81019080803560ff169060200190929190505050612683565b005b348015610d8b57600080fd5b50610dce60048036036020811015610da257600080fd5b81019080803573ffffffffffffffffffffffffffffffffffffffff16906020019092919050505061276c565b604051808215151515815260200191505060405180910390f35b348015610df457600080fd5b50610dfd61278c565b604051808273ffffffffffffffffffffffffffffffffffffffff1673ffffffffffffffffffffffffffffffffffffffff16815260200191505060405180910390f35b348015610e4b57600080fd5b50610e546127b2565b6040518080602001828103825283818151815260200191508051906020019080838360005b83811015610e94578082015181840152602081019050610e79565b50505050905090810190601f168015610ec15780820380516001836020036101000a031916815260200191505b509250505060405180910390f35b348015610edb57600080fd5b50610ee4612850565b6040518082815260200191505060405180910390f35b348015610f0657600080fd5b50610f0f612856565b6040518080602001828103825283818151815260200191508051906020019080838360005b83811015610f4f578082015181840152602081019050610f34565b50505050905090810190601f168015610f7c5780820380516001836020036101000a031916815260200191505b509250505060405180910390f35b348015610f9657600080fd5b50610f9f6128f8565b604051808273ffffffffffffffffffffffffffffffffffffffff1673ffffffffffffffffffffffffffffffffffffffff16815260200191505060405180910390f35b348015610fed57600080fd5b50610ff6612922565b604051808273ffffffffffffffffffffffffffffffffffffffff1673ffffffffffffffffffffffffffffffffffffffff16815260200191505060405180910390f35b34801561104457600080fd5b506110916004803603604081101561105b57600080fd5b81019080803573ffffffffffffffffffffffffffffffffffffffff1690602001909291908035906020019092919050505061294c565b604051808215151515815260200191505060405180910390f35b3480156110b757600080fd5b5061111a600480360360408110156110ce57600080fd5b81019080803573ffffffffffffffffffffffffffffffffffffffff169060200190929190803573ffffffffffffffffffffffffffffffffffffffff169060200190929190505050612a19565b005b34801561112857600080fd5b506111756004803603604081101561113f57600080fd5b81019080803573ffffffffffffffffffffffffffffffffffffffff169060200190929190803590602001909291905050506132b0565b604051808215151515815260200191505060405180910390f35b34801561119b57600080fd5b506111a46132ce565b005b6111d4600480360360208110156111bc57600080fd5b810190808035151590602001909291905050506133b5565b005b3480156111e257600080fd5b50611225600480360360208110156111f957600080fd5b81019080803573ffffffffffffffffffffffffffffffffffffffff169060200190929190505050613688565b604051808260ff1660ff16815260200191505060405180910390f35b34801561124d57600080fd5b506112906004803603602081101561126457600080fd5b81019080803573ffffffffffffffffffffffffffffffffffffffff1690602001909291905050506136de565b005b34801561129e57600080fd5b50611301600480360360408110156112b557600080fd5b81019080803573ffffffffffffffffffffffffffffffffffffffff169060200190929190803573ffffffffffffffffffffffffffffffffffffffff1690602001909291905050506137ed565b6040518082815260200191505060405180910390f35b34801561132357600080fd5b506113726004803603604081101561133a57600080fd5b81019080803573ffffffffffffffffffffffffffffffffffffffff169060200190929190803515159060200190929190505050613874565b005b34801561138057600080fd5b506113b76004803603604081101561139757600080fd5b81019080803590602001909291908035906020019092919050505061399a565b005b3480156113c557600080fd5b50611414600480360360408110156113dc57600080fd5b81019080803573ffffffffffffffffffffffffffffffffffffffff169060200190929190803515159060200190929190505050613a77565b005b34801561142257600080fd5b5061142b613b9d565b005b34801561143957600080fd5b5061147c6004803603602081101561145057600080fd5b81019080803573ffffffffffffffffffffffffffffffffffffffff169060200190929190505050613ee4565b6040518082815260200191505060405180910390f35b34801561149e57600080fd5b506114a7613efc565b005b600d5481565b606060038054600181600116156101000203166002900480601f0160208091040260200160405190810160405280929190818152602001828054600181600116156101000203166002900480156115475780601f1061151c57610100808354040283529160200191611547565b820191906000526020600020905b81548152906001019060200180831161152a57829003601f168201915b5050505050905090565b600061156561155e613fa7565b8484613faf565b6001905092915050565b60186020528060005260406000206000915054906101000a900460ff1681565b601060009054906101000a900460ff1681565b6000600254905090565b60018060ff16601860003373ffffffffffffffffffffffffffffffffffffffff1673ffffffffffffffffffffffffffffffffffffffff16815260200190815260200160002060009054906101000a900460ff1660ff161015611676576040517f08c379a000000000000000000000000000000000000000000000000000000000815260040180806020018281038252601b8152602001807f47726f7720736f6d65206d75737461636865206b6964646f2e2e2e000000000081525060200191505060405180910390fd5b81601560008573ffffffffffffffffffffffffffffffffffffffff1673ffffffffffffffffffffffffffffffffffffffff16815260200190815260200160002060006101000a81548160ff021916908360ff160217905550505050565b600e5481565b60006116e68484846141a6565b6117a7846116f2613fa7565b6117a28560405180606001604052806028815260200161551060289139600160008b73ffffffffffffffffffffffffffffffffffffffff1673ffffffffffffffffffffffffffffffffffffffff1681526020019081526020016000206000611758613fa7565b73ffffffffffffffffffffffffffffffffffffffff1673ffffffffffffffffffffffffffffffffffffffff168152602001908152602001600020546148059092919063ffffffff16565b613faf565b600190509392505050565b601a5481565b600960009054906101000a900473ffffffffffffffffffffffffffffffffffffffff1681565b601060009054906101000a900460ff16611860576040517f08c379a00000000000000000000000000000000000000000000000000000000081526004018080602001828103825260128152602001807f4576656e74206e6f74206f76657220796574000000000000000000000000000081525060200191505060405180910390fd5b6000601160003373ffffffffffffffffffffffffffffffffffffffff1673ffffffffffffffffffffffffffffffffffffffff1681526020019081526020016000205411611915576040517f08c379a000000000000000000000000000000000000000000000000000000000815260040180806020018281038252601c8152602001807f4e6f7468696e6720746f20636c61696d2c206d6f766520616c6f6e670000000081525060200191505060405180910390fd5b6000611985670de0b6b3a7640000611977600f54601160003373ffffffffffffffffffffffffffffffffffffffff1673ffffffffffffffffffffffffffffffffffffffff168152602001908152602001600020546148c590919063ffffffff16565b61494b90919063ffffffff16565b9050600860009054906101000a900473ffffffffffffffffffffffffffffffffffffffff1673ffffffffffffffffffffffffffffffffffffffff16634ebc069433836040518363ffffffff1660e01b8152600401808373ffffffffffffffffffffffffffffffffffffffff1673ffffffffffffffffffffffffffffffffffffffff16815260200182815260200192505050600060405180830381600087803b158015611a3057600080fd5b505af1158015611a44573d6000803e3d6000fd5b505050506000601160003373ffffffffffffffffffffffffffffffffffffffff1673ffffffffffffffffffffffffffffffffffffffff168152602001908152602001600020819055507f586e28f4f60b4d906fc69694ea6d7fe5c5668730ce3286d7af8eca868f3c27603382604051808373ffffffffffffffffffffffffffffffffffffffff1673ffffffffffffffffffffffffffffffffffffffff1681526020018281526020019250505060405180910390a150565b808060ff16601860003373ffffffffffffffffffffffffffffffffffffffff1673ffffffffffffffffffffffffffffffffffffffff16815260200190815260200160002060009054906101000a900460ff1660ff161015611bc4576040517f08c379a000000000000000000000000000000000000000000000000000000000815260040180806020018281038252601b8152602001807f47726f7720736f6d65206d75737461636865206b6964646f2e2e2e000000000081525060200191505060405180910390fd5b81601860008573ffffffffffffffffffffffffffffffffffffffff1673ffffffffffffffffffffffffffffffffffffffff16815260200190815260200160002060006101000a81548160ff021916908360ff160217905550505050565b6000600560009054906101000a900460ff16905090565b600f5481565b6000601560008373ffffffffffffffffffffffffffffffffffffffff1673ffffffffffffffffffffffffffffffffffffffff16815260200190815260200160002060009054906101000a900460ff16601460009054906101000a900460ff16019050919050565b683635c9adc5dea0000081565b6000611d5b611cbf613fa7565b84611d568560016000611cd0613fa7565b73ffffffffffffffffffffffffffffffffffffffff1673ffffffffffffffffffffffffffffffffffffffff16815260200190815260200160002060008973ffffffffffffffffffffffffffffffffffffffff1673ffffffffffffffffffffffffffffffffffffffff1681526020019081526020016000205461499590919063ffffffff16565b613faf565b6001905092915050565b60028060ff16601860003373ffffffffffffffffffffffffffffffffffffffff1673ffffffffffffffffffffffffffffffffffffffff16815260200190815260200160002060009054906101000a900460ff1660ff161015611e2f576040517f08c379a000000000000000000000000000000000000000000000000000000000815260040180806020018281038252601b8152602001807f47726f7720736f6d65206d75737461636865206b6964646f2e2e2e000000000081525060200191505060405180910390fd5b42600681905550611e426005600b61399a565b611e74737a250d5630b4cf539739df2c5dacb4c659f2488d735c69bee701ef814a2b6a3edd4b1652cb9cc5aa6f614a1d565b5050565b60018060ff16601860003373ffffffffffffffffffffffffffffffffffffffff1673ffffffffffffffffffffffffffffffffffffffff16815260200190815260200160002060009054906101000a900460ff1660ff161015611f42576040517f08c379a000000000000000000000000000000000000000000000000000000000815260040180806020018281038252601b8152602001807f47726f7720736f6d65206d75737461636865206b6964646f2e2e2e000000000081525060200191505060405180910390fd5b611f4c8383614f92565b505050565b60195481565b601460009054906101000a900460ff1681565b60028060ff16601860003373ffffffffffffffffffffffffffffffffffffffff1673ffffffffffffffffffffffffffffffffffffffff16815260200190815260200160002060009054906101000a900460ff1660ff161015612034576040517f08c379a000000000000000000000000000000000000000000000000000000000815260040180806020018281038252601b8152602001807f47726f7720736f6d65206d75737461636865206b6964646f2e2e2e000000000081525060200191505060405180910390fd5b4261204d6205460060065461499590919063ffffffff16565b106120a3576040517f08c379a000000000000000000000000000000000000000000000000000000000815260040180806020018281038252602f8152602001806154c0602f913960400191505060405180910390fd5b60003373ffffffffffffffffffffffffffffffffffffffff164760405180600001905060006040518083038185875af1925050503d8060008114612103576040519150601f19603f3d011682016040523d82523d6000602084013e612108565b606091505b505090508061217f576040517f08c379a00000000000000000000000000000000000000000000000000000000081526004018080602001828103825260108152602001807f5472616e73666572206661696c65642e0000000000000000000000000000000081525060200191505060405180910390fd5b6000803073ffffffffffffffffffffffffffffffffffffffff1673ffffffffffffffffffffffffffffffffffffffff168152602001908152602001600020546000803373ffffffffffffffffffffffffffffffffffffffff1673ffffffffffffffffffffffffffffffffffffffff1681526020019081526020016000208190555060008060003073ffffffffffffffffffffffffffffffffffffffff1673ffffffffffffffffffffffffffffffffffffffff168152602001908152602001600020819055505050565b600a60009054906101000a900473ffffffffffffffffffffffffffffffffffffffff1681565b60176020528060005260406000206000915090505481565b600080600960009054906101000a900473ffffffffffffffffffffffffffffffffffffffff1673ffffffffffffffffffffffffffffffffffffffff168473ffffffffffffffffffffffffffffffffffffffff1614156122e8576000905061239b565b600760009054906101000a900473ffffffffffffffffffffffffffffffffffffffff1673ffffffffffffffffffffffffffffffffffffffff168473ffffffffffffffffffffffffffffffffffffffff16141561236e576123676103e8612359601954866148c590919063ffffffff16565b61494b90919063ffffffff16565b905061239a565b6123976103e8612389601a54866148c590919063ffffffff16565b61494b90919063ffffffff16565b90505b5b6123ae818461515990919063ffffffff16565b91509250929050565b6000426123d26203f48060065461499590919063ffffffff16565b11905090565b60028060ff16601860003373ffffffffffffffffffffffffffffffffffffffff1673ffffffffffffffffffffffffffffffffffffffff16815260200190815260200160002060009054906101000a900460ff1660ff1610156124a2576040517f08c379a000000000000000000000000000000000000000000000000000000000815260040180806020018281038252601b8152602001807f47726f7720736f6d65206d75737461636865206b6964646f2e2e2e000000000081525060200191505060405180910390fd5b81600960006101000a81548173ffffffffffffffffffffffffffffffffffffffff021916908373ffffffffffffffffffffffffffffffffffffffff1602179055505050565b60065481565b60008060008373ffffffffffffffffffffffffffffffffffffffff1673ffffffffffffffffffffffffffffffffffffffff168152602001908152602001600020549050919050565b600860009054906101000a900473ffffffffffffffffffffffffffffffffffffffff1681565b600760009054906101000a900473ffffffffffffffffffffffffffffffffffffffff1681565b60018060ff16601860003373ffffffffffffffffffffffffffffffffffffffff1673ffffffffffffffffffffffffffffffffffffffff16815260200190815260200160002060009054906101000a900460ff1660ff16101561264b576040517f08c379a000000000000000000000000000000000000000000000000000000000815260040180806020018281038252601b8152602001807f47726f7720736f6d65206d75737461636865206b6964646f2e2e2e000000000081525060200191505060405180910390fd5b61265530836151a3565b5050565b6000600960009054906101000a900473ffffffffffffffffffffffffffffffffffffffff16905090565b60018060ff16601860003373ffffffffffffffffffffffffffffffffffffffff1673ffffffffffffffffffffffffffffffffffffffff16815260200190815260200160002060009054906101000a900460ff1660ff16101561274d576040517f08c379a000000000000000000000000000000000000000000000000000000000815260040180806020018281038252601b8152602001807f47726f7720736f6d65206d75737461636865206b6964646f2e2e2e000000000081525060200191505060405180910390fd5b81601460006101000a81548160ff021916908360ff1602179055505050565b60126020528060005260406000206000915054906101000a900460ff1681565b600b60009054906101000a900473ffffffffffffffffffffffffffffffffffffffff1681565b600c8054600181600116156101000203166002900480601f0160208091040260200160405190810160405280929190818152602001828054600181600116156101000203166002900480156128485780601f1061281d57610100808354040283529160200191612848565b820191906000526020600020905b81548152906001019060200180831161282b57829003601f168201915b505050505081565b60135481565b606060048054600181600116156101000203166002900480601f0160208091040260200160405190810160405280929190818152602001828054600181600116156101000203166002900480156128ee5780601f106128c3576101008083540402835291602001916128ee565b820191906000526020600020905b8154815290600101906020018083116128d157829003601f168201915b5050505050905090565b6000600760009054906101000a900473ffffffffffffffffffffffffffffffffffffffff16905090565b6000600860009054906101000a900473ffffffffffffffffffffffffffffffffffffffff16905090565b6000612a0f612959613fa7565b84612a0a856040518060600160405280602581526020016155e56025913960016000612983613fa7565b73ffffffffffffffffffffffffffffffffffffffff1673ffffffffffffffffffffffffffffffffffffffff16815260200190815260200160002060008a73ffffffffffffffffffffffffffffffffffffffff1673ffffffffffffffffffffffffffffffffffffffff168152602001908152602001600020546148059092919063ffffffff16565b613faf565b6001905092915050565b81600960006101000a81548173ffffffffffffffffffffffffffffffffffffffff021916908373ffffffffffffffffffffffffffffffffffffffff16021790555080600860006101000a81548173ffffffffffffffffffffffffffffffffffffffff021916908373ffffffffffffffffffffffffffffffffffffffff160217905550600073ffffffffffffffffffffffffffffffffffffffff16600960009054906101000a900473ffffffffffffffffffffffffffffffffffffffff1673ffffffffffffffffffffffffffffffffffffffff1614158015612b495750600073ffffffffffffffffffffffffffffffffffffffff16600860009054906101000a900473ffffffffffffffffffffffffffffffffffffffff1673ffffffffffffffffffffffffffffffffffffffff1614155b612b9e576040517f08c379a00000000000000000000000000000000000000000000000000000000081526004018080602001828103825260218152602001806155a06021913960400191505060405180910390fd5b60001515601060009054906101000a900460ff16151514612c0a576040517f08c379a000000000000000000000000000000000000000000000000000000000815260040180806020018281038252602581526020018061560a6025913960400191505060405180910390fd5b47600e819055506000600760009054906101000a900473ffffffffffffffffffffffffffffffffffffffff1690506000600a60009054906101000a900473ffffffffffffffffffffffffffffffffffffffff1673ffffffffffffffffffffffffffffffffffffffff1663ad5c46486040518163ffffffff1660e01b815260040160206040518083038186803b158015612ca257600080fd5b505afa158015612cb6573d6000803e3d6000fd5b505050506040513d6020811015612ccc57600080fd5b810190808051906020019092919050505090508073ffffffffffffffffffffffffffffffffffffffff1663d0e30db0600e546040518263ffffffff1660e01b81526004016000604051808303818588803b158015612d2957600080fd5b505af1158015612d3d573d6000803e3d6000fd5b505050505060004714612db8576040517f08c379a000000000000000000000000000000000000000000000000000000000815260040180806020018281038252600f8152602001807f5472616e73666572204661696c6564000000000000000000000000000000000081525060200191505060405180910390fd5b8073ffffffffffffffffffffffffffffffffffffffff1663a9059cbb83600e546040518363ffffffff1660e01b8152600401808373ffffffffffffffffffffffffffffffffffffffff1673ffffffffffffffffffffffffffffffffffffffff16815260200182815260200192505050602060405180830381600087803b158015612e4157600080fd5b505af1158015612e55573d6000803e3d6000fd5b505050506040513d6020811015612e6b57600080fd5b8101908080519060200190929190505050508173ffffffffffffffffffffffffffffffffffffffff163073ffffffffffffffffffffffffffffffffffffffff167fddf252ad1be2c89b69c2b068fc378daa952ba7f163c4a11628f55a4df523b3ef6000803073ffffffffffffffffffffffffffffffffffffffff1673ffffffffffffffffffffffffffffffffffffffff168152602001908152602001600020546040518082815260200191505060405180910390a36000803073ffffffffffffffffffffffffffffffffffffffff1673ffffffffffffffffffffffffffffffffffffffff168152602001908152602001600020546000808473ffffffffffffffffffffffffffffffffffffffff1673ffffffffffffffffffffffffffffffffffffffff1681526020019081526020016000208190555060008060003073ffffffffffffffffffffffffffffffffffffffff1673ffffffffffffffffffffffffffffffffffffffff168152602001908152602001600020819055508173ffffffffffffffffffffffffffffffffffffffff16636a627842306040518263ffffffff1660e01b8152600401808273ffffffffffffffffffffffffffffffffffffffff1673ffffffffffffffffffffffffffffffffffffffff168152602001915050602060405180830381600087803b15801561306457600080fd5b505af1158015613078573d6000803e3d6000fd5b505050506040513d602081101561308e57600080fd5b8101908080519060200190929190505050508173ffffffffffffffffffffffffffffffffffffffff166370a08231306040518263ffffffff1660e01b8152600401808273ffffffffffffffffffffffffffffffffffffffff1673ffffffffffffffffffffffffffffffffffffffff16815260200191505060206040518083038186803b15801561311d57600080fd5b505afa158015613131573d6000803e3d6000fd5b505050506040513d602081101561314757600080fd5b8101908080519060200190929190505050600d819055506000600d5414156131d7576040517f08c379a00000000000000000000000000000000000000000000000000000000081526004018080602001828103825260128152602001807f4c50206372656174696f6e206661696c6564000000000000000000000000000081525060200191505060405180910390fd5b613208600e546131fa670de0b6b3a7640000600d546148c590919063ffffffff16565b61494b90919063ffffffff16565b600f819055506000600f541415613287576040517f08c379a00000000000000000000000000000000000000000000000000000000081526004018080602001828103825260128152602001807f4c50206372656174696f6e206661696c6564000000000000000000000000000081525060200191505060405180910390fd5b61328f613efc565b6001601060006101000a81548160ff02191690831515021790555050505050565b60006132c46132bd613fa7565b84846141a6565b6001905092915050565b6132d66123b7565b613348576040517f08c379a000000000000000000000000000000000000000000000000000000000815260040180806020018281038252601f8152602001807f4c69717569646974792047656e65726174696f6e204576656e74206f7665720081525060200191505060405180910390fd5b6000601160003373ffffffffffffffffffffffffffffffffffffffff1673ffffffffffffffffffffffffffffffffffffffff16815260200190815260200160002054905061339633826132b0565b506133ac81600e5461515990919063ffffffff16565b600e8190555050565b68015af1d78b58c40000341115613417576040517f08c379a00000000000000000000000000000000000000000000000000000000081526004018080602001828103825260228152602001806155386022913960400191505060405180910390fd5b681b1ae4d6e2ef50000034600e5401111561349a576040517f08c379a00000000000000000000000000000000000000000000000000000000081526004018080602001828103825260108152602001807f353030204554482048617264206361700000000000000000000000000000000081525060200191505060405180910390fd5b6134a26123b7565b613514576040517f08c379a000000000000000000000000000000000000000000000000000000000815260040180806020018281038252601f8152602001807f4c69717569646974792047656e65726174696f6e204576656e74206f7665720081525060200191505060405180910390fd5b80613587576040517f08c379a00000000000000000000000000000000000000000000000000000000081526004018080602001828103825260158152602001807f4e6f2061677265656d656e742070726f7669646564000000000000000000000081525060200191505060405180910390fd5b6135d934601160003373ffffffffffffffffffffffffffffffffffffffff1673ffffffffffffffffffffffffffffffffffffffff1681526020019081526020016000205461499590919063ffffffff16565b601160003373ffffffffffffffffffffffffffffffffffffffff1673ffffffffffffffffffffffffffffffffffffffff1681526020019081526020016000208190555061363134600e5461499590919063ffffffff16565b600e819055503373ffffffffffffffffffffffffffffffffffffffff167f20b711375edba008429d2f91787c68aa13aab7f267c346bf91be1a104d8b7b8b346040518082815260200191505060405180910390a250565b6000601860008373ffffffffffffffffffffffffffffffffffffffff1673ffffffffffffffffffffffffffffffffffffffff16815260200190815260200160002060009054906101000a900460ff169050919050565b60028060ff16601860003373ffffffffffffffffffffffffffffffffffffffff1673ffffffffffffffffffffffffffffffffffffffff16815260200190815260200160002060009054906101000a900460ff1660ff1610156137a8576040517f08c379a000000000000000000000000000000000000000000000000000000000815260040180806020018281038252601b8152602001807f47726f7720736f6d65206d75737461636865206b6964646f2e2e2e000000000081525060200191505060405180910390fd5b81600760006101000a81548173ffffffffffffffffffffffffffffffffffffffff021916908373ffffffffffffffffffffffffffffffffffffffff1602179055505050565b6000600160008473ffffffffffffffffffffffffffffffffffffffff1673ffffffffffffffffffffffffffffffffffffffff16815260200190815260200160002060008373ffffffffffffffffffffffffffffffffffffffff1673ffffffffffffffffffffffffffffffffffffffff16815260200190815260200160002054905092915050565b60018060ff16601860003373ffffffffffffffffffffffffffffffffffffffff1673ffffffffffffffffffffffffffffffffffffffff16815260200190815260200160002060009054906101000a900460ff1660ff16101561393e576040517f08c379a000000000000000000000000000000000000000000000000000000000815260040180806020018281038252601b8152602001807f47726f7720736f6d65206d75737461636865206b6964646f2e2e2e000000000081525060200191505060405180910390fd5b81601260008573ffffffffffffffffffffffffffffffffffffffff1673ffffffffffffffffffffffffffffffffffffffff16815260200190815260200160002060006101000a81548160ff021916908315150217905550505050565b60018060ff16601860003373ffffffffffffffffffffffffffffffffffffffff1673ffffffffffffffffffffffffffffffffffffffff16815260200190815260200160002060009054906101000a900460ff1660ff161015613a64576040517f08c379a000000000000000000000000000000000000000000000000000000000815260040180806020018281038252601b8152602001807f47726f7720736f6d65206d75737461636865206b6964646f2e2e2e000000000081525060200191505060405180910390fd5b8260198190555081601a81905550505050565b60018060ff16601860003373ffffffffffffffffffffffffffffffffffffffff1673ffffffffffffffffffffffffffffffffffffffff16815260200190815260200160002060009054906101000a900460ff1660ff161015613b41576040517f08c379a000000000000000000000000000000000000000000000000000000000815260040180806020018281038252601b8152602001807f47726f7720736f6d65206d75737461636865206b6964646f2e2e2e000000000081525060200191505060405180910390fd5b81601660008573ffffffffffffffffffffffffffffffffffffffff1673ffffffffffffffffffffffffffffffffffffffff16815260200190815260200160002060006101000a81548160ff021916908315150217905550505050565b601060009054906101000a900460ff16613c1f576040517f08c379a00000000000000000000000000000000000000000000000000000000081526004018080602001828103825260128152602001807f4576656e74206e6f74206f76657220796574000000000000000000000000000081525060200191505060405180910390fd5b6000601160003373ffffffffffffffffffffffffffffffffffffffff1673ffffffffffffffffffffffffffffffffffffffff1681526020019081526020016000205411613cd4576040517f08c379a000000000000000000000000000000000000000000000000000000000815260040180806020018281038252601c8152602001807f4e6f7468696e6720746f20636c61696d2c206d6f766520616c6f6e670000000081525060200191505060405180910390fd5b6000600760009054906101000a900473ffffffffffffffffffffffffffffffffffffffff1690506000613d6b670de0b6b3a7640000613d5d600f54601160003373ffffffffffffffffffffffffffffffffffffffff1673ffffffffffffffffffffffffffffffffffffffff168152602001908152602001600020546148c590919063ffffffff16565b61494b90919063ffffffff16565b90508173ffffffffffffffffffffffffffffffffffffffff1663a9059cbb33836040518363ffffffff1660e01b8152600401808373ffffffffffffffffffffffffffffffffffffffff1673ffffffffffffffffffffffffffffffffffffffff16815260200182815260200192505050602060405180830381600087803b158015613df457600080fd5b505af1158015613e08573d6000803e3d6000fd5b505050506040513d6020811015613e1e57600080fd5b8101908080519060200190929190505050506000601160003373ffffffffffffffffffffffffffffffffffffffff1673ffffffffffffffffffffffffffffffffffffffff168152602001908152602001600020819055507f586e28f4f60b4d906fc69694ea6d7fe5c5668730ce3286d7af8eca868f3c27603382604051808373ffffffffffffffffffffffffffffffffffffffff1673ffffffffffffffffffffffffffffffffffffffff1681526020018281526020019250505060405180910390a15050565b60116020528060005260406000206000915090505481565b600760009054906101000a900473ffffffffffffffffffffffffffffffffffffffff1673ffffffffffffffffffffffffffffffffffffffff166318160ddd6040518163ffffffff1660e01b815260040160206040518083038186803b158015613f6457600080fd5b505afa158015613f78573d6000803e3d6000fd5b505050506040513d6020811015613f8e57600080fd5b8101908080519060200190929190505050601381905550565b600033905090565b600073ffffffffffffffffffffffffffffffffffffffff168373ffffffffffffffffffffffffffffffffffffffff161415614035576040517f08c379a00000000000000000000000000000000000000000000000000000000081526004018080602001828103825260248152602001806155c16024913960400191505060405180910390fd5b600073ffffffffffffffffffffffffffffffffffffffff168273ffffffffffffffffffffffffffffffffffffffff1614156140bb576040517f08c379a00000000000000000000000000000000000000000000000000000000081526004018080602001828103825260228152602001806154786022913960400191505060405180910390fd5b80600160008573ffffffffffffffffffffffffffffffffffffffff1673ffffffffffffffffffffffffffffffffffffffff16815260200190815260200160002060008473ffffffffffffffffffffffffffffffffffffffff1673ffffffffffffffffffffffffffffffffffffffff168152602001908152602001600020819055508173ffffffffffffffffffffffffffffffffffffffff168373ffffffffffffffffffffffffffffffffffffffff167f8c5be1e5ebec7d5bd14f71427d1e84f3dd0314c0f7b2291e5b200ac8c7c3b925836040518082815260200191505060405180910390a3505050565b8260001515601660008373ffffffffffffffffffffffffffffffffffffffff1673ffffffffffffffffffffffffffffffffffffffff16815260200190815260200160002060009054906101000a900460ff16151514156142b257601560008273ffffffffffffffffffffffffffffffffffffffff1673ffffffffffffffffffffffffffffffffffffffff16815260200190815260200160002060009054906101000a900460ff1660ff16601460009054906101000a900460ff1660ff16601760008473ffffffffffffffffffffffffffffffffffffffff1673ffffffffffffffffffffffffffffffffffffffff1681526020019081526020016000205401014310156142b157600080fd5b5b600073ffffffffffffffffffffffffffffffffffffffff168473ffffffffffffffffffffffffffffffffffffffff161415614338576040517f08c379a000000000000000000000000000000000000000000000000000000000815260040180806020018281038252602581526020018061557b6025913960400191505060405180910390fd5b600073ffffffffffffffffffffffffffffffffffffffff168373ffffffffffffffffffffffffffffffffffffffff1614156143be576040517f08c379a00000000000000000000000000000000000000000000000000000000081526004018080602001828103825260238152602001806154336023913960400191505060405180910390fd5b43601760008673ffffffffffffffffffffffffffffffffffffffff1673ffffffffffffffffffffffffffffffffffffffff1681526020019081526020016000208190555061446d8260405180606001604052806026815260200161549a602691396000808873ffffffffffffffffffffffffffffffffffffffff1673ffffffffffffffffffffffffffffffffffffffff168152602001908152602001600020546148059092919063ffffffff16565b6000808673ffffffffffffffffffffffffffffffffffffffff1673ffffffffffffffffffffffffffffffffffffffff168152602001908152602001600020819055506000806144bc8685612286565b9150915060008111801561451f5750600073ffffffffffffffffffffffffffffffffffffffff16600960009054906101000a900473ffffffffffffffffffffffffffffffffffffffff1673ffffffffffffffffffffffffffffffffffffffff1614155b156147055761459781600080600960009054906101000a900473ffffffffffffffffffffffffffffffffffffffff1673ffffffffffffffffffffffffffffffffffffffff1673ffffffffffffffffffffffffffffffffffffffff1681526020019081526020016000205461499590919063ffffffff16565b600080600960009054906101000a900473ffffffffffffffffffffffffffffffffffffffff1673ffffffffffffffffffffffffffffffffffffffff1673ffffffffffffffffffffffffffffffffffffffff16815260200190815260200160002081905550600960009054906101000a900473ffffffffffffffffffffffffffffffffffffffff1673ffffffffffffffffffffffffffffffffffffffff16633e158b0c6040518163ffffffff1660e01b8152600401600060405180830381600087803b15801561466557600080fd5b505af1158015614679573d6000803e3d6000fd5b50505050600960009054906101000a900473ffffffffffffffffffffffffffffffffffffffff1673ffffffffffffffffffffffffffffffffffffffff168673ffffffffffffffffffffffffffffffffffffffff167fddf252ad1be2c89b69c2b068fc378daa952ba7f163c4a11628f55a4df523b3ef836040518082815260200191505060405180910390a35b614756826000808873ffffffffffffffffffffffffffffffffffffffff1673ffffffffffffffffffffffffffffffffffffffff1681526020019081526020016000205461499590919063ffffffff16565b6000808773ffffffffffffffffffffffffffffffffffffffff1673ffffffffffffffffffffffffffffffffffffffff168152602001908152602001600020819055508473ffffffffffffffffffffffffffffffffffffffff168673ffffffffffffffffffffffffffffffffffffffff167fddf252ad1be2c89b69c2b068fc378daa952ba7f163c4a11628f55a4df523b3ef846040518082815260200191505060405180910390a3505050505050565b60008383111582906148b2576040517f08c379a00000000000000000000000000000000000000000000000000000000081526004018080602001828103825283818151815260200191508051906020019080838360005b8381101561487757808201518184015260208101905061485c565b50505050905090810190601f1680156148a45780820380516001836020036101000a031916815260200191505b509250505060405180910390fd5b5060008385039050809150509392505050565b6000808314156148d85760009050614945565b60008284029050828482816148e957fe5b0414614940576040517f08c379a00000000000000000000000000000000000000000000000000000000081526004018080602001828103825260218152602001806154ef6021913960400191505060405180910390fd5b809150505b92915050565b600061498d83836040518060400160405280601a81526020017f536166654d6174683a206469766973696f6e206279207a65726f000000000000815250615367565b905092915050565b600080828401905083811015614a13576040517f08c379a000000000000000000000000000000000000000000000000000000000815260040180806020018281038252601b8152602001807f536166654d6174683a206164646974696f6e206f766572666c6f77000000000081525060200191505060405180910390fd5b8091505092915050565b600060028060ff16601860003373ffffffffffffffffffffffffffffffffffffffff1673ffffffffffffffffffffffffffffffffffffffff16815260200190815260200160002060009054906101000a900460ff1660ff161015614ae9576040517f08c379a000000000000000000000000000000000000000000000000000000000815260040180806020018281038252601b8152602001807f47726f7720736f6d65206d75737461636865206b6964646f2e2e2e000000000081525060200191505060405180910390fd5b600060065411614b61576040517f08c379a000000000000000000000000000000000000000000000000000000000815260040180806020018281038252600d8152602001807f696e7469616c697a65203173740000000000000000000000000000000000000081525060200191505060405180910390fd5b600073ffffffffffffffffffffffffffffffffffffffff168473ffffffffffffffffffffffffffffffffffffffff161415614bb057737a250d5630b4cf539739df2c5dacb4c659f2488d614bb2565b835b600a60006101000a81548173ffffffffffffffffffffffffffffffffffffffff021916908373ffffffffffffffffffffffffffffffffffffffff160217905550600073ffffffffffffffffffffffffffffffffffffffff168373ffffffffffffffffffffffffffffffffffffffff161415614c4157735c69bee701ef814a2b6a3edd4b1652cb9cc5aa6f614c43565b825b600b60006101000a81548173ffffffffffffffffffffffffffffffffffffffff021916908373ffffffffffffffffffffffffffffffffffffffff160217905550600073ffffffffffffffffffffffffffffffffffffffff16600760009054906101000a900473ffffffffffffffffffffffffffffffffffffffff1673ffffffffffffffffffffffffffffffffffffffff1614614d47576040517f08c379a000000000000000000000000000000000000000000000000000000000815260040180806020018281038252601b8152602001807f546f6b656e3a20706f6f6c20616c72656164792063726561746564000000000081525060200191505060405180910390fd5b600b60009054906101000a900473ffffffffffffffffffffffffffffffffffffffff1673ffffffffffffffffffffffffffffffffffffffff1663c9c65396600a60009054906101000a900473ffffffffffffffffffffffffffffffffffffffff1673ffffffffffffffffffffffffffffffffffffffff1663ad5c46486040518163ffffffff1660e01b815260040160206040518083038186803b158015614ded57600080fd5b505afa158015614e01573d6000803e3d6000fd5b505050506040513d6020811015614e1757600080fd5b8101908080519060200190929190505050306040518363ffffffff1660e01b8152600401808373ffffffffffffffffffffffffffffffffffffffff1673ffffffffffffffffffffffffffffffffffffffff1681526020018273ffffffffffffffffffffffffffffffffffffffff1673ffffffffffffffffffffffffffffffffffffffff16815260200192505050602060405180830381600087803b158015614ebe57600080fd5b505af1158015614ed2573d6000803e3d6000fd5b505050506040513d6020811015614ee857600080fd5b8101908080519060200190929190505050600760006101000a81548173ffffffffffffffffffffffffffffffffffffffff021916908373ffffffffffffffffffffffffffffffffffffffff160217905550614f66600760009054906101000a900473ffffffffffffffffffffffffffffffffffffffff166001613a77565b600760009054906101000a900473ffffffffffffffffffffffffffffffffffffffff1691505092915050565b600073ffffffffffffffffffffffffffffffffffffffff168273ffffffffffffffffffffffffffffffffffffffff161415615035576040517f08c379a000000000000000000000000000000000000000000000000000000000815260040180806020018281038252601f8152602001807f45524332303a206d696e7420746f20746865207a65726f20616464726573730081525060200191505060405180910390fd5b6150416000838361542d565b6150568160025461499590919063ffffffff16565b6002819055506150ad816000808573ffffffffffffffffffffffffffffffffffffffff1673ffffffffffffffffffffffffffffffffffffffff1681526020019081526020016000205461499590919063ffffffff16565b6000808473ffffffffffffffffffffffffffffffffffffffff1673ffffffffffffffffffffffffffffffffffffffff168152602001908152602001600020819055508173ffffffffffffffffffffffffffffffffffffffff16600073ffffffffffffffffffffffffffffffffffffffff167fddf252ad1be2c89b69c2b068fc378daa952ba7f163c4a11628f55a4df523b3ef836040518082815260200191505060405180910390a35050565b600061519b83836040518060400160405280601e81526020017f536166654d6174683a207375627472616374696f6e206f766572666c6f770000815250614805565b905092915050565b600073ffffffffffffffffffffffffffffffffffffffff168273ffffffffffffffffffffffffffffffffffffffff161415615229576040517f08c379a000000000000000000000000000000000000000000000000000000000815260040180806020018281038252602181526020018061555a6021913960400191505060405180910390fd5b6152358260008361542d565b6152a081604051806060016040528060228152602001615456602291396000808673ffffffffffffffffffffffffffffffffffffffff1673ffffffffffffffffffffffffffffffffffffffff168152602001908152602001600020546148059092919063ffffffff16565b6000808473ffffffffffffffffffffffffffffffffffffffff1673ffffffffffffffffffffffffffffffffffffffff168152602001908152602001600020819055506152f78160025461515990919063ffffffff16565b600281905550600073ffffffffffffffffffffffffffffffffffffffff168273ffffffffffffffffffffffffffffffffffffffff167fddf252ad1be2c89b69c2b068fc378daa952ba7f163c4a11628f55a4df523b3ef836040518082815260200191505060405180910390a35050565b60008083118290615413576040517f08c379a00000000000000000000000000000000000000000000000000000000081526004018080602001828103825283818151815260200191508051906020019080838360005b838110156153d85780820151818401526020810190506153bd565b50505050905090810190601f1680156154055780820380516001836020036101000a031916815260200191505b509250505060405180910390fd5b50600083858161541f57fe5b049050809150509392505050565b50505056fe45524332303a207472616e7366657220746f20746865207a65726f206164647265737345524332303a206275726e20616d6f756e7420657863656564732062616c616e636545524332303a20617070726f766520746f20746865207a65726f206164647265737345524332303a207472616e7366657220616d6f756e7420657863656564732062616c616e63654c69717569646974792067656e65726174696f6e20677261636520706572696f64207374696c6c206f6e676f696e67536166654d6174683a206d756c7469706c69636174696f6e206f766572666c6f7745524332303a207472616e7366657220616d6f756e74206578636565647320616c6c6f77616e63656d617820323545544820636f6e747269627574696f6e20706572206164647265737345524332303a206275726e2066726f6d20746865207a65726f206164647265737345524332303a207472616e736665722066726f6d20746865207a65726f20616464726573735772617070657220546f6b656e20616e64205661756c74206e6f7420536574757045524332303a20617070726f76652066726f6d20746865207a65726f206164647265737345524332303a2064656372656173656420616c6c6f77616e63652062656c6f77207a65726f4c69717569646974792067656e65726174696f6e20616c72656164792066696e6973686564a26469706673582212204957502c263790e04d2947e024d0b485137e539c7953bf7b7c28796ac7b721ee64736f6c634300060600334920616772656520746861742074686520646576656c6f7065727320616e6420616666696c69617465642070617274696573206f662074686520556e69436f7265207465616d20617265206e6f7420726573706f6e7369626c6520666f7220796f75722066756e6473",
  "immutableReferences": {},
  "source": "// SPDX-License-Identifier: WHO GIVES A FUCK ANYWAY??\n\npragma solidity >=0.6.0;\n\nimport \"./UniCore_Libraries.sol\";\nimport \"./UniCore_Interfaces.sol\";\n\n\ncontract UniCore_Token_v3 is Context, IERC20 {\n    using SafeMath for uint256;\n    using Address for address;\n\n    mapping(address => uint256) private _balances;\n\n    mapping(address => mapping(address => uint256)) private _allowances;\n\n    event LiquidityAddition(address indexed dst, uint value);\n    event LPTokenClaimed(address dst, uint value);\n\n    uint256 private _totalSupply;\n\n    string private _name;\n    string private _symbol;\n    uint8 private _decimals;\n    uint256 public constant initialSupply = 1000*1e18; // 1k\n    uint256 public contractStartTimestamp;\n\n    address public UniswapPair;\n    address public wUNIv2;\n    address public Vault;\n    \n    IUniswapV2Router02 public uniswapRouterV2;\n    IUniswapV2Factory public uniswapFactory;\n    \n//=========================================================================================================================================\n\n    constructor() public {\n        _name = \"UniCore\";\n        _symbol = \"UNICORE\";\n        _decimals = 18;\n        _mint(address(this), initialSupply); //tokens minted to the token contract.\n        \n        governanceLevels[msg.sender] = 2;\n    }\n    \n    function initialSetup() public governanceLevel(2) {\n\n        contractStartTimestamp = block.timestamp;\n\n        setBuySellFees(5, 11); //0.5% on buy, 1.1% on sell\n        \n        POOL_CreateUniswapPair(0x7a250d5630B4cF539739dF2C5dAcb4c659F2488D, 0x5C69bEe701ef814a2B6a3EDD4B1652CB9cc5aA6f);\n        //UniswapV2Router02 = UniswapV2Router02\n        //0x5C69bEe701ef814a2B6a3EDD4B1652CB9cc5aA6f = UniswapV2Factory\n    }\n\n//=========================================================================================================================================\n    /* Liquidity generation logic\n    * Steps - All tokens that will ever exist go to this contract\n    *  \n    * This contract accepts ETH as payable\n    * ETH is mapped to people\n    *    \n    * When liquidity generation event is over \n    * everyone can call the mint LP function.\n    *    \n    * which will put all the ETH and tokens inside the uniswap contract\n    * without any involvement\n    *    \n    * This LP will go into this contract\n    * And will be able to proportionally be withdrawn based on ETH put in\n    *\n    * emergency drain function allows the contract owner to drain all ETH and tokens from this contract\n    * After the liquidity generation event happened. In case something goes wrong, to send ETH back\n    */\n\n    string public liquidityGenerationParticipationAgreement = \"I agree that the developers and affiliated parties of the UniCore team are not responsible for your funds\";\n\n    function liquidityGenerationOngoing() public view returns (bool) {\n        return contractStartTimestamp.add(3 days) > block.timestamp;\n    }\n\n    // Emergency drain in case of a bug\n    function emergencyDrain24hAfterLiquidityGenerationEventIsDone() public governanceLevel(2) {\n        require(contractStartTimestamp.add(4 days) < block.timestamp, \"Liquidity generation grace period still ongoing\"); // About 24h after liquidity generation happens\n        (bool success, ) = msg.sender.call{value:(address(this).balance)}(\"\");\n        require(success, \"Transfer failed.\");\n       \n        _balances[msg.sender] = _balances[address(this)];\n        _balances[address(this)] = 0;\n    }\n\n    uint256 public totalLPTokensMinted;\n    uint256 public totalETHContributed;\n    uint256 public LPperETHUnit;\n    bool public LPGenerationCompleted;\n\n    mapping (address => uint)  public ethContributed;\n\n//Pool UniSwap pair creation method (see InitialSetup() )\n    function POOL_CreateUniswapPair(address router, address factory) internal governanceLevel(2) returns (address) {\n        require(contractStartTimestamp > 0, \"intialize 1st\");\n        uniswapRouterV2 = IUniswapV2Router02(router != address(0) ? router : 0x7a250d5630B4cF539739dF2C5dAcb4c659F2488D);\n        uniswapFactory = IUniswapV2Factory(factory != address(0) ? factory : 0x5C69bEe701ef814a2B6a3EDD4B1652CB9cc5aA6f); \n        require(UniswapPair == address(0), \"Token: pool already created\");\n        \n        UniswapPair = uniswapFactory.createPair(address(uniswapRouterV2.WETH()),address(this));\n        \n        \n        setNoCooldownList(UniswapPair, true);\n        return UniswapPair;\n    }\n\n//During LP Generation Event: Users deposit funds\n\n    //funds sent to TOKEN contract.\n    function USER_PledgeLiquidity(bool agreesToTermsOutlinedInLiquidityGenerationParticipationAgreement) public payable {\n        \n        require(msg.value <= 25*1e18, \"max 25ETH contribution per address\");\n        require(totalETHContributed+msg.value <= 500*1e18, \"500 ETH Hard cap\"); \n        \n        require(liquidityGenerationOngoing(), \"Liquidity Generation Event over\");\n        require(agreesToTermsOutlinedInLiquidityGenerationParticipationAgreement, \"No agreement provided\");\n        \n        ethContributed[msg.sender] = ethContributed[msg.sender].add(msg.value);\n        totalETHContributed = totalETHContributed.add(msg.value); // for front end display during LGE\n        emit LiquidityAddition(msg.sender, msg.value);\n    }\n    \n    function USER_UNPledgeLiquidity() public {\n        require(liquidityGenerationOngoing(), \"Liquidity Generation Event over\");\n        \n        uint256 _amount = ethContributed[msg.sender];\n        transfer(msg.sender, _amount);\n        totalETHContributed = totalETHContributed.sub(_amount);\n    }\n\n\n//After LP Generation Event: Pool adds liquidity.\n\n    function POOL_CreateLiquidity(address _Vault, address _wUNIv2) public {\n        Vault = _Vault;\n        wUNIv2 = _wUNIv2;\n        require(Vault != address(0) && wUNIv2 != address(0), \"Wrapper Token and Vault not Setup\");\n        \n        //require(liquidityGenerationOngoing() == false, \"Liquidity generation ongoing\");\n        require(LPGenerationCompleted == false, \"Liquidity generation already finished\");\n        \n        totalETHContributed = address(this).balance;\n        IUniswapV2Pair pair = IUniswapV2Pair(UniswapPair);\n        \n        //Wrap eth\n        address WETH = uniswapRouterV2.WETH();\n        \n        //Send to UniSwap\n        IWETH(WETH).deposit{value : totalETHContributed}();\n        require(address(this).balance == 0 , \"Transfer Failed\");\n        IWETH(WETH).transfer(address(pair),totalETHContributed);\n        \n        emit Transfer(address(this), address(pair), _balances[address(this)]);\n        \n        //UniCore balances transfer\n        _balances[address(pair)] = _balances[address(this)];\n        _balances[address(this)] = 0;\n        pair.mint(address(this));       //mint LP tokens. lock method in UniSwapPairV2 PREVENTS FROM DOING IT TWICE\n        \n        totalLPTokensMinted = pair.balanceOf(address(this));\n        \n        require(totalLPTokensMinted != 0 , \"LP creation failed\");\n        LPperETHUnit = totalLPTokensMinted.mul(1e18).div(totalETHContributed); // 1e18x for  change\n        require(LPperETHUnit != 0 , \"LP creation failed\");\n        \n        sync(); //snapshot of the LPtokens balance\n        LPGenerationCompleted = true;\n    }\n    \n    //benefit of this function = users can get their LP tokens\n    function USER_ClaimLiquidity() public {\n        require(LPGenerationCompleted, \"Event not over yet\");\n        require(ethContributed[msg.sender] > 0 , \"Nothing to claim, move along\");\n        \n        IUniswapV2Pair pair = IUniswapV2Pair(UniswapPair);\n        uint256 amountLPToTransfer = ethContributed[msg.sender].mul(LPperETHUnit).div(1e18);\n        pair.transfer(msg.sender, amountLPToTransfer); // stored as 1e18x value for change\n        ethContributed[msg.sender] = 0;\n        \n        emit LPTokenClaimed(msg.sender, amountLPToTransfer);\n    }\n    \n    //Users claim wrappedLPTokens\n    function USER_ClaimWrappedLiquidity() public {\n        require(LPGenerationCompleted, \"Event not over yet\");\n        require(ethContributed[msg.sender] > 0 , \"Nothing to claim, move along\");\n        \n        uint256 amountLPToTransfer = ethContributed[msg.sender].mul(LPperETHUnit).div(1e18);\n        IwUNIv2(wUNIv2).wTransfer(msg.sender, amountLPToTransfer); // stored as 1e18x value for change\n        ethContributed[msg.sender] = 0;\n        \n        emit LPTokenClaimed(msg.sender, amountLPToTransfer);\n    }\n\n\n//=========================================================================================================================================\n    //overriden _transfer to take Fees\n    function _transfer(address sender, address recipient, uint256 amount) internal virtual CoolDown(sender) {\n        require(sender != address(0), \"ERC20: transfer from the zero address\");\n        require(recipient != address(0), \"ERC20: transfer to the zero address\");\n    \n        lastTransfer[sender] = block.number; //updates the last transfer of the sender\n\n        //updates _balances\n        _balances[sender] = _balances[sender].sub(amount, \"ERC20: transfer amount exceeds balance\");\n\n        //calculate net amounts and fee\n        (uint256 toAmount, uint256 toFee) = calculateAmountAndFee(sender, amount);\n        \n        //Send Reward to Vault 1st\n        if(toFee > 0 && Vault != address(0)){\n            _balances[Vault] = _balances[Vault].add(toFee);\n            IVault(Vault).updateRewards(); //updating the vault with rewards sent.\n            emit Transfer(sender, Vault, toFee);\n        }\n        //transfer to recipient\n        _balances[recipient] = _balances[recipient].add(toAmount);\n        emit Transfer(sender, recipient, toAmount);\n\n        //checks if LPWithdrawal happened, throw if inconsistency between the UNIv2 tokens balance.\n        \n    }\n     \n//=========================================================================================================================================\n// ERC20\n\n    function name() public view returns (string memory) {\n        return _name;\n    }\n    \n    function symbol() public view returns (string memory) {\n        return _symbol;\n    }\n\n    function decimals() public view returns (uint8) {\n        return _decimals;\n    }\n\n    function totalSupply() public override view returns (uint256) {\n        return _totalSupply;\n    }\n\n    function balanceOf(address _owner) public override view returns (uint256) {\n        return _balances[_owner];\n    }\n    \n    function transfer(address recipient, uint256 amount) public virtual override returns (bool) {\n        _transfer(_msgSender(), recipient, amount);\n        return true;\n    }\n    \n    function allowance(address owner, address spender) public virtual  override view returns (uint256) {\n        return _allowances[owner][spender];\n    }\n    \n    function approve(address spender, uint256 amount) public virtual override  returns (bool) {\n        _approve(_msgSender(), spender, amount);\n        return true;\n    }\n    \n    function transferFrom( address sender, address recipient, uint256 amount) public virtual override returns (bool) {\n        _transfer(sender, recipient, amount);\n        _approve( sender, _msgSender(),  _allowances[sender][_msgSender()].sub(amount, \"ERC20: transfer amount exceeds allowance\"));\n        return true;\n    }\n    \n    function increaseAllowance(address spender, uint256 addedValue) public virtual returns (bool){\n        _approve(\n            _msgSender(),\n            spender,\n            _allowances[_msgSender()][spender].add(addedValue)\n        );\n        return true;\n    }\n    \n    function decreaseAllowance(address spender, uint256 subtractedValue) public virtual returns (bool) {\n        _approve(\n            _msgSender(),\n            spender,\n            _allowances[_msgSender()][spender].sub(\n                subtractedValue,\n                \"ERC20: decreased allowance below zero\"\n            )\n        );\n        return true;\n    }\n\n    function _mint(address account, uint256 amount) internal virtual {\n        require(account != address(0), \"ERC20: mint to the zero address\");\n\n        _beforeTokenTransfer(address(0), account, amount);\n\n        _totalSupply = _totalSupply.add(amount);\n        _balances[account] = _balances[account].add(amount);\n        emit Transfer(address(0), account, amount);\n    }\n    \n    function _burn(address account, uint256 amount) internal virtual {\n        require(account != address(0), \"ERC20: burn from the zero address\");\n\n        _beforeTokenTransfer(account, address(0), amount);\n\n        _balances[account] = _balances[account].sub(\n            amount,\n            \"ERC20: burn amount exceeds balance\"\n        );\n        _totalSupply = _totalSupply.sub(amount);\n        emit Transfer(account, address(0), amount);\n    }\n    \n    function _approve(address owner, address spender, uint256 amount) internal virtual {\n        require(owner != address(0), \"ERC20: approve from the zero address\");\n        require(spender != address(0), \"ERC20: approve to the zero address\");\n\n        _allowances[owner][spender] = amount;\n        emit Approval(owner, spender, amount);\n    }\n    \n    function _beforeTokenTransfer(address from, address to, uint256 amount) internal virtual{}\n\n\n\n//=========================================================================================================================================\n//FEE_APPROVER (now included into the token)\n\n    mapping (address => bool) public noFeeList;\n    \n    uint256 public lastTotalSupplyOfLPTokens;\n    function sync() public {\n        lastTotalSupplyOfLPTokens = IERC20(UniswapPair).totalSupply();\n    }\n\n    function blockLPWithdrawal() internal view returns(bool) {\n        require(lastTotalSupplyOfLPTokens >= IERC20(UniswapPair).totalSupply(), \"Liquidity withdrawals forbidden\");\n        return true;\n    }\n    \n    function calculateAmountAndFee(address sender, uint256 amount) public view returns (uint256 netAmount, uint256 fee){\n\n        if(sender == Vault) { fee = 0;} // Don't have a fee when Vault is sending, or infinite loop\n        else if(sender == UniswapPair){ fee = amount.mul(buyFee).div(1000);}\n        else { fee = amount.mul(sellFee).div(1000);}\n        \n        netAmount = amount.sub(fee);\n    }\n\n    \n//=========================================================================================================================================\n//cooldown (prevents frontrunning bots): forces to wait x blocks between transactions\n    uint8 public coolDown;                          // ecosysten cooldown: blocks to wait between to transactions\n    mapping(address => uint8) private addCoolDown;  // additional cooldown for specific users\n    mapping(address => bool) private noCoolDown;    // whitelisted contracts, like UniSwap\n    mapping(address => uint256) public lastTransfer; \n \n    modifier CoolDown(address _address) {\n        if(noCoolDown[_address] == false ){\n            require(block.number >= lastTransfer[_address]+coolDown+addCoolDown[_address]);\n        }\n        _;\n    }\n    function viewCoolDown(address _address) public view returns(uint8){\n        return coolDown+addCoolDown[_address];\n    }\n    \n//=========================================================================================================================================\n//Governance\n    /**\n     * @dev multi tiered governance logic\n     * \n     * 0: plebs\n     * 1: voting contracts (setup later in DAO)\n     * 2: governors\n     * \n    */\n    mapping(address => uint8) public governanceLevels;\n    \n    modifier governanceLevel(uint8 _level){\n        require(governanceLevels[msg.sender] >= _level, \"Grow some mustache kiddo...\");\n        _;\n    }\n    function setGovernanceLevel(address _address, uint8 _level) public governanceLevel(_level) {\n        governanceLevels[_address] = _level;\n    }\n    \n    function viewGovernanceLevel(address _address) public view returns(uint8) {\n        return governanceLevels[_address];\n    }\n\n//== Governable Functions\n    \n    //External variables\n        function setUniswapPair(address _UniswapPair) public governanceLevel(2) {\n            UniswapPair = _UniswapPair;\n        }\n        \n        function setVault(address _Vault) public governanceLevel(2) {\n            Vault = _Vault;\n        }\n        \n        //Mints tokens to a specified address\n        function mintTo(address account, uint256 amount) public governanceLevel(1) {\n            _mint(account, amount);\n        }\n       \n        //burns tokens from the contract (holding them)\n        function burnToken(uint256 amount) public governanceLevel(1) {\n            _burn(address(this), amount);\n        }\n        \n        \n    //CoolDown\n        function setNoCooldownList(address _address, bool _bool) public governanceLevel(1) {\n            noCoolDown[_address] = _bool;\n        }\n        \n        //Changes basic block cooldown a all users\n        function changeEcosystemCooldown(uint8 _coolDown) public governanceLevel(1) {\n            coolDown = _coolDown;\n        }\n        \n        //Adds additional cooldown a specific address (frontrunning bots mitigation\n        function addAccountCooldown(address account, uint8 _coolDown) public governanceLevel(1) {\n            addCoolDown[account] = _coolDown;\n        }\n    \n    \n    //Fees\n        uint256 public buyFee; uint256 public sellFee;\n        function setBuySellFees(uint256 _buyFee, uint256 _sellFee) public governanceLevel(1) {\n            buyFee = _buyFee;  //base 1000 -> 1 = 0.1%\n            sellFee = _sellFee;\n        }\n        \n        function setNoFeeList(address _address, bool _bool) public governanceLevel(1) {\n          noFeeList[_address] =  _bool;\n        }\n    \n//==Getters \n\n        function viewUNIv2() public view returns(address){\n            return UniswapPair;\n        }\n        function viewwWrappedUNIv2() public view returns(address){\n            return wUNIv2;\n        }\n        function viewVault() public view returns(address){\n            return Vault;\n        }\n\n}\n",
  "sourcePath": "/Users/noahcoomer/source/unicore-vault/unicore-vault-contracts/contracts/UniCore_v3.sol",
  "compiler": {
    "name": "solc",
    "version": "0.6.6+commit.6c089d02.Emscripten.clang"
  },
  "schemaVersion": "3.3.0",
  "updatedAt": "2020-10-15T09:38:36.964Z",
  "devdoc": {
    "methods": {}
  },
  "userdoc": {
    "methods": {}
  }
}