{
  "contractName": "UniCore_Vault",
  "abi": [
    {
      "inputs": [
        {
          "internalType": "address",
          "name": "_UniCore",
          "type": "address"
        }
      ],
      "stateMutability": "nonpayable",
      "type": "constructor"
    },
    {
      "anonymous": false,
      "inputs": [
        {
          "indexed": true,
          "internalType": "address",
          "name": "owner",
          "type": "address"
        },
        {
          "indexed": true,
          "internalType": "address",
          "name": "spender",
          "type": "address"
        },
        {
          "indexed": false,
          "internalType": "uint256",
          "name": "_pid",
          "type": "uint256"
        },
        {
          "indexed": false,
          "internalType": "uint256",
          "name": "value",
          "type": "uint256"
        }
      ],
      "name": "Approval",
      "type": "event"
    },
    {
      "anonymous": false,
      "inputs": [
        {
          "indexed": true,
          "internalType": "address",
          "name": "user",
          "type": "address"
        },
        {
          "indexed": true,
          "internalType": "uint256",
          "name": "pid",
          "type": "uint256"
        },
        {
          "indexed": false,
          "internalType": "uint256",
          "name": "amount",
          "type": "uint256"
        }
      ],
      "name": "Deposit",
      "type": "event"
    },
    {
      "anonymous": false,
      "inputs": [
        {
          "indexed": true,
          "internalType": "address",
          "name": "user",
          "type": "address"
        },
        {
          "indexed": true,
          "internalType": "uint256",
          "name": "pid",
          "type": "uint256"
        },
        {
          "indexed": false,
          "internalType": "uint256",
          "name": "amount",
          "type": "uint256"
        }
      ],
      "name": "EmergencyWithdraw",
      "type": "event"
    },
    {
      "anonymous": false,
      "inputs": [
        {
          "indexed": true,
          "internalType": "address",
          "name": "user",
          "type": "address"
        },
        {
          "indexed": true,
          "internalType": "uint256",
          "name": "pid",
          "type": "uint256"
        },
        {
          "indexed": false,
          "internalType": "uint256",
          "name": "amount",
          "type": "uint256"
        }
      ],
      "name": "Withdraw",
      "type": "event"
    },
    {
      "inputs": [],
      "name": "Treasury1",
      "outputs": [
        {
          "internalType": "address",
          "name": "",
          "type": "address"
        }
      ],
      "stateMutability": "view",
      "type": "function"
    },
    {
      "inputs": [],
      "name": "Treasury2",
      "outputs": [
        {
          "internalType": "address",
          "name": "",
          "type": "address"
        }
      ],
      "stateMutability": "view",
      "type": "function"
    },
    {
      "inputs": [],
      "name": "Treasury3",
      "outputs": [
        {
          "internalType": "address",
          "name": "",
          "type": "address"
        }
      ],
      "stateMutability": "view",
      "type": "function"
    },
    {
      "inputs": [],
      "name": "UniCore",
      "outputs": [
        {
          "internalType": "address",
          "name": "",
          "type": "address"
        }
      ],
      "stateMutability": "view",
      "type": "function"
    },
    {
      "inputs": [],
      "name": "contractStartBlock",
      "outputs": [
        {
          "internalType": "uint256",
          "name": "",
          "type": "uint256"
        }
      ],
      "stateMutability": "view",
      "type": "function"
    },
    {
      "inputs": [],
      "name": "cumulativeRewardsSinceStart",
      "outputs": [
        {
          "internalType": "uint256",
          "name": "",
          "type": "uint256"
        }
      ],
      "stateMutability": "view",
      "type": "function"
    },
    {
      "inputs": [],
      "name": "epoch",
      "outputs": [
        {
          "internalType": "uint256",
          "name": "",
          "type": "uint256"
        }
      ],
      "stateMutability": "view",
      "type": "function"
    },
    {
      "inputs": [],
      "name": "epochCalculationStartBlock",
      "outputs": [
        {
          "internalType": "uint256",
          "name": "",
          "type": "uint256"
        }
      ],
      "stateMutability": "view",
      "type": "function"
    },
    {
      "inputs": [
        {
          "internalType": "uint256",
          "name": "",
          "type": "uint256"
        }
      ],
      "name": "epochRewards",
      "outputs": [
        {
          "internalType": "uint256",
          "name": "",
          "type": "uint256"
        }
      ],
      "stateMutability": "view",
      "type": "function"
    },
    {
      "inputs": [],
      "name": "pendingRewards",
      "outputs": [
        {
          "internalType": "uint256",
          "name": "",
          "type": "uint256"
        }
      ],
      "stateMutability": "view",
      "type": "function"
    },
    {
      "inputs": [],
      "name": "pendingTreasuryRewards",
      "outputs": [
        {
          "internalType": "uint256",
          "name": "",
          "type": "uint256"
        }
      ],
      "stateMutability": "view",
      "type": "function"
    },
    {
      "inputs": [
        {
          "internalType": "uint256",
          "name": "",
          "type": "uint256"
        }
      ],
      "name": "poolInfo",
      "outputs": [
        {
          "internalType": "address",
          "name": "stakedToken",
          "type": "address"
        },
        {
          "internalType": "uint256",
          "name": "allocPoint",
          "type": "uint256"
        },
        {
          "internalType": "uint256",
          "name": "accUniCorePerShare",
          "type": "uint256"
        },
        {
          "internalType": "bool",
          "name": "withdrawable",
          "type": "bool"
        }
      ],
      "stateMutability": "view",
      "type": "function"
    },
    {
      "inputs": [],
      "name": "rewardsInThisEpoch",
      "outputs": [
        {
          "internalType": "uint256",
          "name": "",
          "type": "uint256"
        }
      ],
      "stateMutability": "view",
      "type": "function"
    },
    {
      "inputs": [],
      "name": "totalAllocPoint",
      "outputs": [
        {
          "internalType": "uint256",
          "name": "",
          "type": "uint256"
        }
      ],
      "stateMutability": "view",
      "type": "function"
    },
    {
      "inputs": [],
      "name": "treasuryFee",
      "outputs": [
        {
          "internalType": "uint256",
          "name": "",
          "type": "uint256"
        }
      ],
      "stateMutability": "view",
      "type": "function"
    },
    {
      "inputs": [
        {
          "internalType": "uint256",
          "name": "",
          "type": "uint256"
        },
        {
          "internalType": "address",
          "name": "",
          "type": "address"
        }
      ],
      "name": "userInfo",
      "outputs": [
        {
          "internalType": "uint256",
          "name": "amount",
          "type": "uint256"
        },
        {
          "internalType": "uint256",
          "name": "rewardPaid",
          "type": "uint256"
        }
      ],
      "stateMutability": "view",
      "type": "function"
    },
    {
      "inputs": [],
      "name": "poolLength",
      "outputs": [
        {
          "internalType": "uint256",
          "name": "",
          "type": "uint256"
        }
      ],
      "stateMutability": "view",
      "type": "function"
    },
    {
      "inputs": [],
      "name": "averageFeesPerBlockSinceStart",
      "outputs": [
        {
          "internalType": "uint256",
          "name": "averagePerBlock",
          "type": "uint256"
        }
      ],
      "stateMutability": "view",
      "type": "function"
    },
    {
      "inputs": [],
      "name": "averageFeesPerBlockEpoch",
      "outputs": [
        {
          "internalType": "uint256",
          "name": "averagePerBlock",
          "type": "uint256"
        }
      ],
      "stateMutability": "view",
      "type": "function"
    },
    {
      "inputs": [
        {
          "internalType": "uint256",
          "name": "_allocPoint",
          "type": "uint256"
        },
        {
          "internalType": "address",
          "name": "_stakedToken",
          "type": "address"
        },
        {
          "internalType": "bool",
          "name": "_withdrawable",
          "type": "bool"
        }
      ],
      "name": "addPool",
      "outputs": [],
      "stateMutability": "nonpayable",
      "type": "function"
    },
    {
      "inputs": [
        {
          "internalType": "uint256",
          "name": "_pid",
          "type": "uint256"
        },
        {
          "internalType": "uint256",
          "name": "_allocPoint",
          "type": "uint256"
        },
        {
          "internalType": "bool",
          "name": "_withUpdate",
          "type": "bool"
        }
      ],
      "name": "setPool",
      "outputs": [],
      "stateMutability": "nonpayable",
      "type": "function"
    },
    {
      "inputs": [
        {
          "internalType": "uint256",
          "name": "_pid",
          "type": "uint256"
        },
        {
          "internalType": "bool",
          "name": "_withdrawable",
          "type": "bool"
        }
      ],
      "name": "setPoolWithdrawable",
      "outputs": [],
      "stateMutability": "nonpayable",
      "type": "function"
    },
    {
      "inputs": [],
      "name": "startNewEpoch",
      "outputs": [],
      "stateMutability": "nonpayable",
      "type": "function"
    },
    {
      "inputs": [],
      "name": "massUpdatePools",
      "outputs": [],
      "stateMutability": "nonpayable",
      "type": "function"
    },
    {
      "inputs": [],
      "name": "updateRewards",
      "outputs": [],
      "stateMutability": "nonpayable",
      "type": "function"
    },
    {
      "inputs": [
        {
          "internalType": "uint256",
          "name": "_pid",
          "type": "uint256"
        },
        {
          "internalType": "uint256",
          "name": "_amount",
          "type": "uint256"
        }
      ],
      "name": "deposit",
      "outputs": [],
      "stateMutability": "nonpayable",
      "type": "function"
    },
    {
      "inputs": [
        {
          "internalType": "uint256",
          "name": "_pid",
          "type": "uint256"
        },
        {
          "internalType": "uint256",
          "name": "_amount",
          "type": "uint256"
        }
      ],
      "name": "withdraw",
      "outputs": [],
      "stateMutability": "nonpayable",
      "type": "function"
    },
    {
      "inputs": [
        {
          "internalType": "uint256",
          "name": "_pid",
          "type": "uint256"
        },
        {
          "internalType": "address",
          "name": "_user",
          "type": "address"
        }
      ],
      "name": "pendingUniCore",
      "outputs": [
        {
          "internalType": "uint256",
          "name": "",
          "type": "uint256"
        }
      ],
      "stateMutability": "view",
      "type": "function"
    },
    {
      "inputs": [],
      "name": "transferTreasuryFees",
      "outputs": [],
      "stateMutability": "nonpayable",
      "type": "function"
    },
    {
      "inputs": [
        {
          "internalType": "address",
          "name": "_address",
          "type": "address"
        }
      ],
      "name": "viewGovernanceLevel",
      "outputs": [
        {
          "internalType": "uint8",
          "name": "",
          "type": "uint8"
        }
      ],
      "stateMutability": "view",
      "type": "function"
    },
    {
      "inputs": [
        {
          "internalType": "uint256",
          "name": "_newFee",
          "type": "uint256"
        }
      ],
      "name": "setTreasuryFee",
      "outputs": [],
      "stateMutability": "nonpayable",
      "type": "function"
    },
    {
      "inputs": [
        {
          "internalType": "address",
          "name": "_token",
          "type": "address"
        }
      ],
      "name": "isNonWithdrawbleByAdmins",
      "outputs": [
        {
          "internalType": "bool",
          "name": "",
          "type": "bool"
        }
      ],
      "stateMutability": "view",
      "type": "function"
    }
  ],
  "bytecode": "0x608060405234801561001057600080fd5b50604051612d67380380612d678339818101604052602081101561003357600080fd5b8101908080519060200190929190505050806000806101000a81548173ffffffffffffffffffffffffffffffffffffffff021916908373ffffffffffffffffffffffffffffffffffffffff16021790555073f4d7a0e8a68345442172f45cabd272c25320aa96600160006101000a81548173ffffffffffffffffffffffffffffffffffffffff021916908373ffffffffffffffffffffffffffffffffffffffff16021790555073397f9694ca604c2bbdfb5c86227a64853940fb49600260006101000a81548173ffffffffffffffffffffffffffffffffffffffff021916908373ffffffffffffffffffffffffffffffffffffffff16021790555073397f9694ca604c2bbdfb5c86227a64853940fb49600360006101000a81548173ffffffffffffffffffffffffffffffffffffffff021916908373ffffffffffffffffffffffffffffffffffffffff1602179055506102bc60048190555043600a8190555050612bc4806101a36000396000f3fe608060405234801561001057600080fd5b50600436106101f05760003560e01c8063608c8d3a1161010f578063b5760d27116100a2578063de2ccedf11610071578063de2ccedf146107b3578063e0447f78146107d1578063e2bbb1581461081b578063eded3fda14610853576101f0565b8063b5760d27146106bd578063c25cc8af14610719578063c8ffb87314610777578063cc32d17614610795576101f0565b80637abceffd116100de5780637abceffd146105be578063900cf0cf1461061857806393f1a40b146106365780639dbc2d901461069f576101f0565b8063608c8d3a1461055e578063630b5ba11461057c57806368f7471e1461058657806377e741c714610590576101f0565b80633aab0a621161018757806349c5468d1161015657806349c5468d146104a65780634dc47d34146104c45780635207cc0d146105065780635d577c1814610540576101f0565b80633aab0a62146104165780633e158b0c14610420578063441a3e701461042a57806346ca6bea14610462576101f0565b806317caf6f1116101c357806317caf6f11461030257806319076e20146103205780631a6af7af146103825780633081d258146103cc576101f0565b806303dec009146101f5578063081e3eda146102135780630d3e805a146102315780631526fe271461027b575b600080fd5b6101fd610871565b6040518082815260200191505060405180910390f35b61021b6108a1565b6040518082815260200191505060405180910390f35b6102396108ae565b604051808273ffffffffffffffffffffffffffffffffffffffff1673ffffffffffffffffffffffffffffffffffffffff16815260200191505060405180910390f35b6102a76004803603602081101561029157600080fd5b81019080803590602001909291905050506108d4565b604051808573ffffffffffffffffffffffffffffffffffffffff1673ffffffffffffffffffffffffffffffffffffffff1681526020018481526020018381526020018215151515815260200194505050505060405180910390f35b61030a61093e565b6040518082815260200191505060405180910390f35b61036c6004803603604081101561033657600080fd5b8101908080359060200190929190803573ffffffffffffffffffffffffffffffffffffffff169060200190929190505050610944565b6040518082815260200191505060405180910390f35b61038a610a13565b604051808273ffffffffffffffffffffffffffffffffffffffff1673ffffffffffffffffffffffffffffffffffffffff16815260200191505060405180910390f35b6103d4610a38565b604051808273ffffffffffffffffffffffffffffffffffffffff1673ffffffffffffffffffffffffffffffffffffffff16815260200191505060405180910390f35b61041e610a5e565b005b610428610b33565b005b6104606004803603604081101561044057600080fd5b810190808035906020019092919080359060200190929190505050610d9f565b005b6104a46004803603606081101561047857600080fd5b810190808035906020019092919080359060200190929190803515159060200190929190505050610e43565b005b6104ae610f59565b6040518082815260200191505060405180910390f35b6104f0600480360360208110156104da57600080fd5b8101908080359060200190929190505050610f5f565b6040518082815260200191505060405180910390f35b61053e6004803603604081101561051c57600080fd5b8101908080359060200190929190803515159060200190929190505050610f77565b005b610548611038565b6040518082815260200191505060405180910390f35b61056661103e565b6040518082815260200191505060405180910390f35b610584611044565b005b61058e6110a6565b005b6105bc600480360360208110156105a657600080fd5b810190808035906020019092919050505061169c565b005b610616600480360360608110156105d457600080fd5b8101908080359060200190929190803573ffffffffffffffffffffffffffffffffffffffff1690602001909291908035151590602001909291905050506117a4565b005b610620611a9f565b6040518082815260200191505060405180910390f35b6106826004803603604081101561064c57600080fd5b8101908080359060200190929190803573ffffffffffffffffffffffffffffffffffffffff169060200190929190505050611aa5565b604051808381526020018281526020019250505060405180910390f35b6106a7611ad6565b6040518082815260200191505060405180910390f35b6106ff600480360360208110156106d357600080fd5b81019080803573ffffffffffffffffffffffffffffffffffffffff169060200190929190505050611b1a565b604051808215151515815260200191505060405180910390f35b61075b6004803603602081101561072f57600080fd5b81019080803573ffffffffffffffffffffffffffffffffffffffff169060200190929190505050611b70565b604051808260ff1660ff16815260200191505060405180910390f35b61077f611c52565b6040518082815260200191505060405180910390f35b61079d611c58565b6040518082815260200191505060405180910390f35b6107bb611c5e565b6040518082815260200191505060405180910390f35b6107d9611c64565b604051808273ffffffffffffffffffffffffffffffffffffffff1673ffffffffffffffffffffffffffffffffffffffff16815260200191505060405180910390f35b6108516004803603604081101561083157600080fd5b810190808035906020019092919080359060200190929190505050611c8a565b005b61085b611f49565b6040518082815260200191505060405180910390f35b600061089c61088b600b5443611f4f90919063ffffffff16565b600d54611f9990919063ffffffff16565b905090565b6000600780549050905090565b600360009054906101000a900473ffffffffffffffffffffffffffffffffffffffff1681565b600781815481106108e157fe5b90600052602060002090600502016000915090508060000160009054906101000a900473ffffffffffffffffffffffffffffffffffffffff16908060010154908060020154908060030160009054906101000a900460ff16905084565b60085481565b6000806007848154811061095457fe5b9060005260206000209060050201905060006006600086815260200190815260200160002060008573ffffffffffffffffffffffffffffffffffffffff1673ffffffffffffffffffffffffffffffffffffffff1681526020019081526020016000209050600082600201549050610a0882600101546109fa670de0b6b3a76400006109ec858760000154611fe390919063ffffffff16565b611f9990919063ffffffff16565b611f4f90919063ffffffff16565b935050505092915050565b6000809054906101000a900473ffffffffffffffffffffffffffffffffffffffff1681565b600260009054906101000a900473ffffffffffffffffffffffffffffffffffffffff1681565b4361c350600b540110610ad9576040517f08c379a00000000000000000000000000000000000000000000000000000000081526004018080602001828103825260178152602001807f4e65772065706f6368206e6f742072656164792079657400000000000000000081525060200191505060405180910390fd5b600d54600f6000600e54815260200190815260200160002081905550610b0c600d54600c5461206990919063ffffffff16565b600c819055506000600d8190555043600b81905550600e6000815460010191905081905550565b6000809054906101000a900473ffffffffffffffffffffffffffffffffffffffff1673ffffffffffffffffffffffffffffffffffffffff163373ffffffffffffffffffffffffffffffffffffffff1614610b8c57600080fd5b6000610c7b6010546000809054906101000a900473ffffffffffffffffffffffffffffffffffffffff1673ffffffffffffffffffffffffffffffffffffffff166370a08231306040518263ffffffff1660e01b8152600401808273ffffffffffffffffffffffffffffffffffffffff1673ffffffffffffffffffffffffffffffffffffffff16815260200191505060206040518083038186803b158015610c3257600080fd5b505afa158015610c46573d6000803e3d6000fd5b505050506040513d6020811015610c5c57600080fd5b8101908080519060200190929190505050611f4f90919063ffffffff16565b90506000811115610d9c576000809054906101000a900473ffffffffffffffffffffffffffffffffffffffff1673ffffffffffffffffffffffffffffffffffffffff166370a08231306040518263ffffffff1660e01b8152600401808273ffffffffffffffffffffffffffffffffffffffff1673ffffffffffffffffffffffffffffffffffffffff16815260200191505060206040518083038186803b158015610d2457600080fd5b505afa158015610d38573d6000803e3d6000fd5b505050506040513d6020811015610d4e57600080fd5b8101908080519060200190929190505050601081905550610d7a8160095461206990919063ffffffff16565b600981905550610d9581600d5461206990919063ffffffff16565b600d819055505b50565b610dab828233336120f1565b610db36110a6565b6000809054906101000a900473ffffffffffffffffffffffffffffffffffffffff1673ffffffffffffffffffffffffffffffffffffffff16631fca1d65826040518263ffffffff1660e01b815260040180828152602001915050600060405180830381600087803b158015610e2757600080fd5b505af1158015610e3b573d6000803e3d6000fd5b505050505050565b60028060ff16610e5233611b70565b60ff161015610ec9576040517f08c379a000000000000000000000000000000000000000000000000000000000815260040180806020018281038252601b8152602001807f47726f7720736f6d65206d75737461636865206b6964646f2e2e2e000000000081525060200191505060405180910390fd5b60008311610ed657600080fd5b8115610ee557610ee4611044565b5b610f2a83610f1c60078781548110610ef957fe5b906000526020600020906005020160010154600854611f4f90919063ffffffff16565b61206990919063ffffffff16565b6008819055508260078581548110610f3e57fe5b90600052602060002090600502016001018190555050505050565b600a5481565b600f6020528060005260406000206000915090505481565b60028060ff16610f8633611b70565b60ff161015610ffd576040517f08c379a000000000000000000000000000000000000000000000000000000000815260040180806020018281038252601b8152602001807f47726f7720736f6d65206d75737461636865206b6964646f2e2e2e000000000081525060200191505060405180910390fd5b816007848154811061100b57fe5b906000526020600020906005020160030160006101000a81548160ff021916908315150217905550505050565b600b5481565b600d5481565b60006007805490509050600080600090505b828110156110865761107961106a826123d6565b8361206990919063ffffffff16565b9150806001019050611056565b5061109c81600954611f4f90919063ffffffff16565b6009819055505050565b600060055414156110b65761169a565b60008060009054906101000a900473ffffffffffffffffffffffffffffffffffffffff1673ffffffffffffffffffffffffffffffffffffffff166370a08231306040518263ffffffff1660e01b8152600401808273ffffffffffffffffffffffffffffffffffffffff1673ffffffffffffffffffffffffffffffffffffffff16815260200191505060206040518083038186803b15801561115657600080fd5b505afa15801561116a573d6000803e3d6000fd5b505050506040513d602081101561118057600080fd5b8101908080519060200190929190505050905060006111be60646111b06013600554611fe390919063ffffffff16565b611f9990919063ffffffff16565b905060006111eb60646111dd6013600554611fe390919063ffffffff16565b611f9990919063ffffffff16565b905060006112168261120885600554611f4f90919063ffffffff16565b611f4f90919063ffffffff16565b905083600554111561129c57611249606461123b601387611fe390919063ffffffff16565b611f9990919063ffffffff16565b92506112726064611264601387611fe390919063ffffffff16565b611f9990919063ffffffff16565b91506112998261128b8587611f4f90919063ffffffff16565b611f4f90919063ffffffff16565b90505b6000809054906101000a900473ffffffffffffffffffffffffffffffffffffffff1673ffffffffffffffffffffffffffffffffffffffff1663a9059cbb600360009054906101000a900473ffffffffffffffffffffffffffffffffffffffff16856040518363ffffffff1660e01b8152600401808373ffffffffffffffffffffffffffffffffffffffff1673ffffffffffffffffffffffffffffffffffffffff16815260200182815260200192505050602060405180830381600087803b15801561136657600080fd5b505af115801561137a573d6000803e3d6000fd5b505050506040513d602081101561139057600080fd5b8101908080519060200190929190505050506000809054906101000a900473ffffffffffffffffffffffffffffffffffffffff1673ffffffffffffffffffffffffffffffffffffffff1663a9059cbb600260009054906101000a900473ffffffffffffffffffffffffffffffffffffffff16846040518363ffffffff1660e01b8152600401808373ffffffffffffffffffffffffffffffffffffffff1673ffffffffffffffffffffffffffffffffffffffff16815260200182815260200192505050602060405180830381600087803b15801561146c57600080fd5b505af1158015611480573d6000803e3d6000fd5b505050506040513d602081101561149657600080fd5b8101908080519060200190929190505050506000809054906101000a900473ffffffffffffffffffffffffffffffffffffffff1673ffffffffffffffffffffffffffffffffffffffff1663a9059cbb600160009054906101000a900473ffffffffffffffffffffffffffffffffffffffff16836040518363ffffffff1660e01b8152600401808373ffffffffffffffffffffffffffffffffffffffff1673ffffffffffffffffffffffffffffffffffffffff16815260200182815260200192505050602060405180830381600087803b15801561157257600080fd5b505af1158015611586573d6000803e3d6000fd5b505050506040513d602081101561159c57600080fd5b8101908080519060200190929190505050506000809054906101000a900473ffffffffffffffffffffffffffffffffffffffff1673ffffffffffffffffffffffffffffffffffffffff166370a08231306040518263ffffffff1660e01b8152600401808273ffffffffffffffffffffffffffffffffffffffff1673ffffffffffffffffffffffffffffffffffffffff16815260200191505060206040518083038186803b15801561164c57600080fd5b505afa158015611660573d6000803e3d6000fd5b505050506040513d602081101561167657600080fd5b81019080805190602001909291905050506010819055506000600581905550505050505b565b60028060ff166116ab33611b70565b60ff161015611722576040517f08c379a000000000000000000000000000000000000000000000000000000000815260040180806020018281038252601b8152602001807f47726f7720736f6d65206d75737461636865206b6964646f2e2e2e000000000081525060200191505060405180910390fd5b6096821115611799576040517f08c379a00000000000000000000000000000000000000000000000000000000081526004018080602001828103825260198152602001807f747265617375727946656520636170706564206174203135250000000000000081525060200191505060405180910390fd5b816004819055505050565b60028060ff166117b333611b70565b60ff16101561182a576040517f08c379a000000000000000000000000000000000000000000000000000000000815260040180806020018281038252601b8152602001807f47726f7720736f6d65206d75737461636865206b6964646f2e2e2e000000000081525060200191505060405180910390fd5b6000841161183757600080fd5b6001601160008573ffffffffffffffffffffffffffffffffffffffff1673ffffffffffffffffffffffffffffffffffffffff16815260200190815260200160002060006101000a81548160ff021916908315150217905550611897611044565b6000600780549050905060008090505b8181101561199a578473ffffffffffffffffffffffffffffffffffffffff16600782815481106118d357fe5b906000526020600020906005020160000160009054906101000a900473ffffffffffffffffffffffffffffffffffffffff1673ffffffffffffffffffffffffffffffffffffffff16141561198f576040517f08c379a00000000000000000000000000000000000000000000000000000000081526004018080602001828103825260188152602001807f4572726f7220706f6f6c20616c7265616479206164646564000000000000000081525060200191505060405180910390fd5b8060010190506118a7565b506119b08560085461206990919063ffffffff16565b600881905550600760405180608001604052808673ffffffffffffffffffffffffffffffffffffffff16815260200187815260200160008152602001851515815250908060018154018082558091505060019003906000526020600020906005020160009091909190915060008201518160000160006101000a81548173ffffffffffffffffffffffffffffffffffffffff021916908373ffffffffffffffffffffffffffffffffffffffff160217905550602082015181600101556040820151816002015560608201518160030160006101000a81548160ff02191690831515021790555050505050505050565b600e5481565b6006602052816000526040600020602052806000526040600020600091509150508060000154908060010154905082565b6000611b15611af0600a5443611f4f90919063ffffffff16565b611b07600d54600c5461206990919063ffffffff16565b611f9990919063ffffffff16565b905090565b6000601160008373ffffffffffffffffffffffffffffffffffffffff1673ffffffffffffffffffffffffffffffffffffffff16815260200190815260200160002060009054906101000a900460ff169050919050565b60008060009054906101000a900473ffffffffffffffffffffffffffffffffffffffff1673ffffffffffffffffffffffffffffffffffffffff1663c25cc8af836040518263ffffffff1660e01b8152600401808273ffffffffffffffffffffffffffffffffffffffff1673ffffffffffffffffffffffffffffffffffffffff16815260200191505060206040518083038186803b158015611c1057600080fd5b505afa158015611c24573d6000803e3d6000fd5b505050506040513d6020811015611c3a57600080fd5b81019080805190602001909291905050509050919050565b600c5481565b60045481565b60055481565b600160009054906101000a900473ffffffffffffffffffffffffffffffffffffffff1681565b60008111611d00576040517f08c379a000000000000000000000000000000000000000000000000000000000815260040180806020018281038252601a8152602001807f63616e6e6f74206465706f736974207a65726f20746f6b656e7300000000000081525060200191505060405180910390fd5b600060078381548110611d0f57fe5b9060005260206000209060050201905060006006600085815260200190815260200160002060003373ffffffffffffffffffffffffffffffffffffffff1673ffffffffffffffffffffffffffffffffffffffff1681526020019081526020016000209050611d7d84336125cd565b8160000160009054906101000a900473ffffffffffffffffffffffffffffffffffffffff1673ffffffffffffffffffffffffffffffffffffffff166323b872dd3330866040518463ffffffff1660e01b8152600401808473ffffffffffffffffffffffffffffffffffffffff1673ffffffffffffffffffffffffffffffffffffffff1681526020018373ffffffffffffffffffffffffffffffffffffffff1673ffffffffffffffffffffffffffffffffffffffff1681526020018281526020019350505050602060405180830381600087803b158015611e5c57600080fd5b505af1158015611e70573d6000803e3d6000fd5b505050506040513d6020811015611e8657600080fd5b810190808051906020019092919050505050611eaf83826000015461206990919063ffffffff16565b8160000181905550611eec670de0b6b3a7640000611ede84600201548460000154611fe390919063ffffffff16565b611f9990919063ffffffff16565b8160010181905550833373ffffffffffffffffffffffffffffffffffffffff167f90890809c654f11d6e72a28fa60149770a0d11ec6c92319d6ceb2bb0a4ea1a15856040518082815260200191505060405180910390a350505050565b60095481565b6000611f9183836040518060400160405280601e81526020017f536166654d6174683a207375627472616374696f6e206f766572666c6f7700008152506125f2565b905092915050565b6000611fdb83836040518060400160405280601a81526020017f536166654d6174683a206469766973696f6e206279207a65726f0000000000008152506126b2565b905092915050565b600080831415611ff65760009050612063565b600082840290508284828161200757fe5b041461205e576040517f08c379a0000000000000000000000000000000000000000000000000000000008152600401808060200182810382526021815260200180612b486021913960400191505060405180910390fd5b809150505b92915050565b6000808284019050838110156120e7576040517f08c379a000000000000000000000000000000000000000000000000000000000815260040180806020018281038252601b8152602001807f536166654d6174683a206164646974696f6e206f766572666c6f77000000000081525060200191505060405180910390fd5b8091505092915050565b60006007858154811061210057fe5b906000526020600020906005020190508060030160009054906101000a900460ff16612177576040517f08c379a0000000000000000000000000000000000000000000000000000000008152600401808060200182810382526026815260200180612b696026913960400191505060405180910390fd5b60006006600087815260200190815260200160002060008573ffffffffffffffffffffffffffffffffffffffff1673ffffffffffffffffffffffffffffffffffffffff16815260200190815260200160002090508481600001541015612228576040517f08c379a0000000000000000000000000000000000000000000000000000000008152600401808060200182810382526022815260200180612b266022913960400191505060405180910390fd5b61223286856125cd565b600085111561234257612252858260000154611f4f90919063ffffffff16565b81600001819055508160000160009054906101000a900473ffffffffffffffffffffffffffffffffffffffff1673ffffffffffffffffffffffffffffffffffffffff1663a9059cbb84876040518363ffffffff1660e01b8152600401808373ffffffffffffffffffffffffffffffffffffffff1673ffffffffffffffffffffffffffffffffffffffff16815260200182815260200192505050602060405180830381600087803b15801561230557600080fd5b505af1158015612319573d6000803e3d6000fd5b505050506040513d602081101561232f57600080fd5b8101908080519060200190929190505050505b612377670de0b6b3a764000061236984600201548460000154611fe390919063ffffffff16565b611f9990919063ffffffff16565b8160010181905550858373ffffffffffffffffffffffffffffffffffffffff167ff279e6a1f5e320cca91135676d9cb6e44ca8a08c0b88342bcdb1144f6511b568876040518082815260200191505060405180910390a3505050505050565b600080600783815481106123e657fe5b9060005260206000209060050201905060008160000160009054906101000a900473ffffffffffffffffffffffffffffffffffffffff1673ffffffffffffffffffffffffffffffffffffffff166370a08231306040518263ffffffff1660e01b8152600401808273ffffffffffffffffffffffffffffffffffffffff1673ffffffffffffffffffffffffffffffffffffffff16815260200191505060206040518083038186803b15801561249957600080fd5b505afa1580156124ad573d6000803e3d6000fd5b505050506040513d60208110156124c357600080fd5b8101908080519060200190929190505050905060008114156124ea576000925050506125c8565b6125176008546125098460010154600954611fe390919063ffffffff16565b611f9990919063ffffffff16565b9250600061254461271061253660045487611fe390919063ffffffff16565b611f9990919063ffffffff16565b9050600061255b8286611f4f90919063ffffffff16565b90506125728260055461206990919063ffffffff16565b6005819055506125bb6125a88461259a670de0b6b3a764000085611fe390919063ffffffff16565b611f9990919063ffffffff16565b856002015461206990919063ffffffff16565b8460020181905550505050505b919050565b6125d5611044565b60006125e18383610944565b90506125ed8282612778565b505050565b600083831115829061269f576040517f08c379a00000000000000000000000000000000000000000000000000000000081526004018080602001828103825283818151815260200191508051906020019080838360005b83811015612664578082015181840152602081019050612649565b50505050905090810190601f1680156126915780820380516001836020036101000a031916815260200191505b509250505060405180910390fd5b5060008385039050809150509392505050565b6000808311829061275e576040517f08c379a00000000000000000000000000000000000000000000000000000000081526004018080602001828103825283818151815260200191508051906020019080838360005b83811015612723578082015181840152602081019050612708565b50505050905090810190601f1680156127505780820380516001836020036101000a031916815260200191505b509250505060405180910390fd5b50600083858161276a57fe5b049050809150509392505050565b600081141561278657612b21565b60008060009054906101000a900473ffffffffffffffffffffffffffffffffffffffff1673ffffffffffffffffffffffffffffffffffffffff166370a08231306040518263ffffffff1660e01b8152600401808273ffffffffffffffffffffffffffffffffffffffff1673ffffffffffffffffffffffffffffffffffffffff16815260200191505060206040518083038186803b15801561282657600080fd5b505afa15801561283a573d6000803e3d6000fd5b505050506040513d602081101561285057600080fd5b81019080805190602001909291905050509050808210612953576000809054906101000a900473ffffffffffffffffffffffffffffffffffffffff1673ffffffffffffffffffffffffffffffffffffffff1663a9059cbb84836040518363ffffffff1660e01b8152600401808373ffffffffffffffffffffffffffffffffffffffff1673ffffffffffffffffffffffffffffffffffffffff16815260200182815260200192505050602060405180830381600087803b15801561291257600080fd5b505af1158015612926573d6000803e3d6000fd5b505050506040513d602081101561293c57600080fd5b810190808051906020019092919050505050612a38565b6000809054906101000a900473ffffffffffffffffffffffffffffffffffffffff1673ffffffffffffffffffffffffffffffffffffffff1663a9059cbb84846040518363ffffffff1660e01b8152600401808373ffffffffffffffffffffffffffffffffffffffff1673ffffffffffffffffffffffffffffffffffffffff16815260200182815260200192505050602060405180830381600087803b1580156129fb57600080fd5b505af1158015612a0f573d6000803e3d6000fd5b505050506040513d6020811015612a2557600080fd5b8101908080519060200190929190505050505b612a406110a6565b6000809054906101000a900473ffffffffffffffffffffffffffffffffffffffff1673ffffffffffffffffffffffffffffffffffffffff166370a08231306040518263ffffffff1660e01b8152600401808273ffffffffffffffffffffffffffffffffffffffff1673ffffffffffffffffffffffffffffffffffffffff16815260200191505060206040518083038186803b158015612ade57600080fd5b505afa158015612af2573d6000803e3d6000fd5b505050506040513d6020811015612b0857600080fd5b8101908080519060200190929190505050601081905550505b505056fe77697468647261773a207573657220616d6f756e7420696e73756666696369656e74536166654d6174683a206d756c7469706c69636174696f6e206f766572666c6f775769746864726177696e672066726f6d207468697320706f6f6c2069732064697361626c6564a2646970667358221220cd8d548d46a667fc74e9daa1abf73a34b2f7a61d4203efc630f7a5c3b45d6c0164736f6c63430006060033",
  "immutableReferences": {},
  "source": "// SPDX-License-Identifier: WHO GIVES A FUCK ANYWAY??\r\n\r\npragma solidity ^0.6.6;\r\n\r\nimport \"./UniCore_Libraries.sol\";\r\nimport \"./UniCore_Interfaces.sol\";\r\n\r\n\r\n// Vault distributes fees equally amongst staked pools\r\n\r\ncontract UniCore_Vault {\r\n    using SafeMath for uint256;\r\n\r\n\r\n    address public UniCore; //token address\r\n    \r\n    address public Treasury1;\r\n    address public Treasury2;\r\n    address public Treasury3;\r\n    uint256 public treasuryFee;\r\n    uint256 public pendingTreasuryRewards;\r\n    \r\n\r\n//USERS METRICS\r\n    struct UserInfo {\r\n        uint256 amount; // How many tokens the user has provided.\r\n        uint256 rewardPaid; // Already Paid. See explanation below.\r\n        //  pending reward = (user.amount * pool.UniCorePerShare) - user.rewardPaid\r\n    }\r\n    mapping(uint256 => mapping(address => UserInfo)) public userInfo;\r\n    \r\n//POOL METRICS\r\n    struct PoolInfo {\r\n        address stakedToken;                // Address of staked token contract.\r\n        uint256 allocPoint;           // How many allocation points assigned to this pool. UniCores to distribute per block. (ETH = 2.3M blocks per year)\r\n        uint256 accUniCorePerShare;   // Accumulated UniCores per share, times 1e18. See below.\r\n        bool withdrawable;            // Is this pool withdrawable or not\r\n        \r\n        mapping(address => mapping(address => uint256)) allowance;\r\n    }\r\n    PoolInfo[] public poolInfo;\r\n\r\n    uint256 public totalAllocPoint;     // Total allocation points. Must be the sum of all allocation points in all pools.\r\n    uint256 public pendingRewards;      // pending rewards awaiting anyone to massUpdate\r\n    uint256 public contractStartBlock;\r\n    uint256 public epochCalculationStartBlock;\r\n    uint256 public cumulativeRewardsSinceStart;\r\n    uint256 public rewardsInThisEpoch;\r\n    uint public epoch;\r\n\r\n//EVENTS\r\n    event Deposit(address indexed user, uint256 indexed pid, uint256 amount);\r\n    event Withdraw(address indexed user, uint256 indexed pid, uint256 amount);\r\n    event EmergencyWithdraw(address indexed user, uint256 indexed pid, uint256 amount);\r\n    event Approval(address indexed owner, address indexed spender, uint256 _pid, uint256 value);\r\n\r\n    \r\n//INITIALIZE \r\n    constructor(address _UniCore) public {\r\n\r\n        UniCore = _UniCore;\r\n        \r\n        Treasury1 = address(0xF4D7a0E8a68345442172F45cAbD272c25320AA96); //TESTNET\r\n        Treasury2 = address(0x397f9694Ca604c2bbdfB5c86227A64853940FB49); //stpd \r\n        Treasury3 = address(0x397f9694Ca604c2bbdfB5c86227A64853940FB49); //QS \r\n        \r\n        treasuryFee = 700; //7%\r\n        \r\n        contractStartBlock = block.number;\r\n    }\r\n    \r\n//==================================================================================================================================\r\n//POOL\r\n    \r\n //view stuff\r\n \r\n    function poolLength() external view returns (uint256) {\r\n        return poolInfo.length; //number of pools (per pid)\r\n    }\r\n    \r\n    // Returns fees generated since start of this contract\r\n    function averageFeesPerBlockSinceStart() external view returns (uint averagePerBlock) {\r\n        averagePerBlock = cumulativeRewardsSinceStart.add(rewardsInThisEpoch).div(block.number.sub(contractStartBlock));\r\n    }\r\n\r\n    // Returns averge fees in this epoch\r\n    function averageFeesPerBlockEpoch() external view returns (uint256 averagePerBlock) {\r\n        averagePerBlock = rewardsInThisEpoch.div(block.number.sub(epochCalculationStartBlock));\r\n    }\r\n\r\n    // For easy graphing historical epoch rewards\r\n    mapping(uint => uint256) public epochRewards;\r\n\r\n //set stuff (govenrors)\r\n\r\n    // Add a new token pool. Can only be called by governors.\r\n    function addPool( uint256 _allocPoint, address _stakedToken, bool _withdrawable) public governanceLevel(2) {\r\n        require(_allocPoint > 0);\r\n        nonWithdrawableByAdmin[_stakedToken] = true; // stakedToken is now non-widthrawable by the admins.\r\n        \r\n        /* @dev Addressing potential issues with zombie pools.\r\n        *  https://medium.com/@DraculaProtocol/sushiswap-smart-contract-bug-and-quality-of-audits-in-community-f50ee0545bc6\r\n        *  Thank you @DraculaProtocol for this interesting post.\r\n        */\r\n        massUpdatePools();\r\n\r\n        uint256 length = poolInfo.length;\r\n        for (uint256 pid = 0; pid < length; ++pid) {\r\n            require(poolInfo[pid].stakedToken != _stakedToken,\"Error pool already added\");\r\n        }\r\n\r\n        totalAllocPoint = totalAllocPoint.add(_allocPoint); //pre-allocation\r\n\r\n        poolInfo.push(\r\n            PoolInfo({\r\n                stakedToken: _stakedToken,\r\n                allocPoint: _allocPoint,\r\n                accUniCorePerShare: 0,\r\n                withdrawable : _withdrawable\r\n            })\r\n        );\r\n    }\r\n\r\n    // Updates the given pool's  allocation points. Can only be called with right governance levels.\r\n    function setPool(uint256 _pid, uint256 _allocPoint, bool _withUpdate) public governanceLevel(2) {\r\n        require(_allocPoint > 0);\r\n        if (_withUpdate) {massUpdatePools();}\r\n\r\n        totalAllocPoint = totalAllocPoint.sub(poolInfo[_pid].allocPoint).add(_allocPoint);\r\n        poolInfo[_pid].allocPoint = _allocPoint;\r\n    }\r\n\r\n    // Update the given pool's ability to withdraw tokens\r\n    function setPoolWithdrawable(uint256 _pid, bool _withdrawable) public governanceLevel(2) {\r\n        poolInfo[_pid].withdrawable = _withdrawable;\r\n    }\r\n    \r\n //set stuff (anybody)\r\n  \r\n    //Starts a new calculation epoch; Because average since start will not be accurate\r\n    function startNewEpoch() public {\r\n        require(epochCalculationStartBlock + 50000 < block.number, \"New epoch not ready yet\"); // 50k blocks = About a week\r\n        epochRewards[epoch] = rewardsInThisEpoch;\r\n        cumulativeRewardsSinceStart = cumulativeRewardsSinceStart.add(rewardsInThisEpoch);\r\n        rewardsInThisEpoch = 0;\r\n        epochCalculationStartBlock = block.number;\r\n        ++epoch;\r\n    }\r\n    \r\n    // Updates the reward variables of the given pool\r\n    function updatePool(uint256 _pid) internal returns (uint256 UniCoreRewardWhole) {\r\n        PoolInfo storage pool = poolInfo[_pid];\r\n\r\n        uint256 tokenSupply = IERC20(pool.stakedToken).balanceOf(address(this));\r\n        if (tokenSupply == 0) { // avoids division by 0 errors\r\n            return 0;\r\n        }\r\n        UniCoreRewardWhole = pendingRewards     // Multiplies pending rewards by allocation point of this pool and then total allocation\r\n            .mul(pool.allocPoint)               // getting the percent of total pending rewards this pool should get\r\n            .div(totalAllocPoint);              // we can do this because pools are only mass updated\r\n        \r\n        uint256 UniCoreRewardFee = UniCoreRewardWhole.mul(treasuryFee).div(10000);\r\n        uint256 UniCoreRewardToDistribute = UniCoreRewardWhole.sub(UniCoreRewardFee);\r\n\r\n        pendingTreasuryRewards = pendingTreasuryRewards.add(UniCoreRewardFee);\r\n\r\n        pool.accUniCorePerShare = pool.accUniCorePerShare.add(UniCoreRewardToDistribute.mul(1e18).div(tokenSupply));\r\n    }\r\n    function massUpdatePools() public {\r\n        uint256 length = poolInfo.length; \r\n        uint allRewards;\r\n        \r\n        for (uint256 pid = 0; pid < length; ++pid) {\r\n            allRewards = allRewards.add(updatePool(pid)); //calls updatePool(pid)\r\n        }\r\n        pendingRewards = pendingRewards.sub(allRewards);\r\n    }\r\n    \r\n    //payout of UniCore Rewards, uses SafeUnicoreTransfer\r\n    function updateAndPayOutPending(uint256 _pid, address user) internal {\r\n        \r\n        massUpdatePools();\r\n\r\n        uint256 pending = pendingUniCore(_pid, user);\r\n\r\n        safeUniCoreTransfer(user, pending);\r\n    }\r\n    \r\n    \r\n    // Safe UniCore transfer function, Manages rounding errors.\r\n    function safeUniCoreTransfer(address _to, uint256 _amount) internal {\r\n        if(_amount == 0) return;\r\n\r\n        uint256 UniCoreBal = IERC20(UniCore).balanceOf(address(this));\r\n        if (_amount >= UniCoreBal) { IERC20(UniCore).transfer(_to, UniCoreBal);} \r\n        else { IERC20(UniCore).transfer(_to, _amount);}\r\n\r\n        transferTreasuryFees(); //adds unecessary gas for users, team can trigger the function manually\r\n        UniCoreBalance = IERC20(UniCore).balanceOf(address(this));\r\n    }\r\n\r\n//external call from token when rewards are loaded\r\n\r\n    /* @dev called by the token after each fee transfer to the vault.\r\n    *       updates the pendingRewards and the rewardsInThisEpoch variables\r\n    */      \r\n    modifier onlyUniCore() {\r\n        require(msg.sender == UniCore);\r\n        _;\r\n    }\r\n    \r\n    uint256 private UniCoreBalance;\r\n    function updateRewards() external onlyUniCore {  //function addPendingRewards(uint256 _) for CORE\r\n        uint256 newRewards = IERC20(UniCore).balanceOf(address(this)).sub(UniCoreBalance); //delta vs previous balanceOf\r\n\r\n        if(newRewards > 0) {\r\n            UniCoreBalance =  IERC20(UniCore).balanceOf(address(this)); //balance snapshot\r\n            pendingRewards = pendingRewards.add(newRewards);\r\n            rewardsInThisEpoch = rewardsInThisEpoch.add(newRewards);\r\n        }\r\n    }\r\n\r\n//==================================================================================================================================\r\n//USERS\r\n\r\n    // Deposit tokens to Vault to get allocation rewards\r\n    function deposit(uint256 _pid, uint256 _amount) external {\r\n        require(_amount > 0, \"cannot deposit zero tokens\");\r\n        \r\n        PoolInfo storage pool = poolInfo[_pid];\r\n        UserInfo storage user = userInfo[_pid][msg.sender];\r\n\r\n        updateAndPayOutPending(_pid, msg.sender); //Transfer pending tokens, updates the pools \r\n\r\n        //Transfer the amounts from user\r\n        IERC20(pool.stakedToken).transferFrom(msg.sender, address(this), _amount);\r\n        user.amount = user.amount.add(_amount);\r\n\r\n        //Finalize\r\n        user.rewardPaid = user.amount.mul(pool.accUniCorePerShare).div(1e18);\r\n        \r\n        emit Deposit(msg.sender, _pid, _amount);\r\n    }\r\n\r\n    // Withdraw tokens from Vault.\r\n    function withdraw(uint256 _pid, uint256 _amount) external {\r\n        _withdraw(_pid, _amount, msg.sender, msg.sender);\r\n        transferTreasuryFees(); //incurs a gas penalty -> treasury fees transfer\r\n        IUniCore(UniCore).burnFromUni(_amount); //performs the burn on UniSwap pool\r\n    }\r\n    function _withdraw(uint256 _pid, uint256 _amount, address from, address to) internal {\r\n\r\n        PoolInfo storage pool = poolInfo[_pid];\r\n        require(pool.withdrawable, \"Withdrawing from this pool is disabled\");\r\n        \r\n        UserInfo storage user = userInfo[_pid][from];\r\n        require(user.amount >= _amount, \"withdraw: user amount insufficient\");\r\n\r\n        updateAndPayOutPending(_pid, from); // //Transfer pending tokens, massupdates the pools \r\n\r\n        if(_amount > 0) {\r\n            user.amount = user.amount.sub(_amount);\r\n            IERC20(pool.stakedToken).transfer(address(to), _amount);\r\n        }\r\n        user.rewardPaid = user.amount.mul(pool.accUniCorePerShare).div(1e18);\r\n\r\n        emit Withdraw(to, _pid, _amount);\r\n    }\r\n\r\n    // Getter function to see pending UniCore rewards per user.\r\n    function pendingUniCore(uint256 _pid, address _user) public view returns (uint256) {\r\n        PoolInfo storage pool = poolInfo[_pid];\r\n        UserInfo storage user = userInfo[_pid][_user];\r\n        uint256 accUniCorePerShare = pool.accUniCorePerShare;\r\n\r\n        return user.amount.mul(accUniCorePerShare).div(1e18).sub(user.rewardPaid);\r\n    }\r\n\r\n//==================================================================================================================================\r\n//TREASURY \r\n\r\n    function transferTreasuryFees() public {\r\n        if(pendingTreasuryRewards == 0) return;\r\n\r\n        uint256 UniCorebal = IERC20(UniCore).balanceOf(address(this));\r\n        \r\n        //splitRewards\r\n        uint256 rewards3 = pendingTreasuryRewards.mul(19).div(100); //stpd\r\n        uint256 rewards2 = pendingTreasuryRewards.mul(19).div(100); //qtsr\r\n        uint256 rewards1 = pendingTreasuryRewards.sub(rewards3).sub(rewards2); //team -> could\r\n        \r\n        \r\n        //manages overflows or bad math\r\n        if (pendingTreasuryRewards > UniCorebal) {\r\n            rewards3 = UniCorebal.mul(19).div(100); //stpd\r\n            rewards2 = UniCorebal.mul(19).div(100); //qtsr\r\n            rewards1 = UniCorebal.sub(rewards3).sub(rewards2); //team\r\n        } \r\n\r\n            IERC20(UniCore).transfer(Treasury3, rewards3);\r\n            IERC20(UniCore).transfer(Treasury2, rewards2);\r\n            IERC20(UniCore).transfer(Treasury1, rewards1);\r\n\r\n            UniCoreBalance = IERC20(UniCore).balanceOf(address(this));\r\n        \r\n            pendingTreasuryRewards = 0;\r\n    }\r\n\r\n\r\n//==================================================================================================================================\r\n//GOVERNANCE & UTILS\r\n\r\n//Governance inherited from governance levels of UniCoreVaultAddress\r\n    function viewGovernanceLevel(address _address) public view returns(uint8) {\r\n        return IUniCore(UniCore).viewGovernanceLevel(_address);\r\n    }\r\n    \r\n    modifier governanceLevel(uint8 _level){\r\n        require(viewGovernanceLevel(msg.sender) >= _level, \"Grow some mustache kiddo...\");\r\n        _;\r\n    }\r\n    \r\n    function setTreasuryFee(uint256 _newFee) public governanceLevel(2) {\r\n        require(_newFee <= 150, \"treasuryFee capped at 15%\");\r\n        treasuryFee = _newFee;\r\n    }\r\n\r\n// utils    \r\n    mapping(address => bool) nonWithdrawableByAdmin;\r\n    function isNonWithdrawbleByAdmins(address _token) public view returns(bool) {\r\n        return nonWithdrawableByAdmin[_token];\r\n    }\r\n    function _widthdrawAnyToken(address _recipient, address _ERC20address, uint256 _amount) internal returns (bool) {\r\n        require(_ERC20address != UniCore, \"Cannot withdraw Unicore from the pools\");\r\n        require(nonWithdrawableByAdmin[_ERC20address], \"this token is into a pool an cannot we withdrawn\");\r\n        IERC20(_ERC20address).transfer(_recipient, _amount); //use of the _ERC20 traditional transfer\r\n        return true;\r\n    } //get tokens sent by error, excelt UniCore and those used for Staking.\r\n    \r\n    \r\n}\r\n",
  "sourcePath": "/Users/noahcoomer/source/unicore-vault/unicore-vault-contracts/contracts/UniCore_Vault.sol",
  "compiler": {
    "name": "solc",
    "version": "0.6.6+commit.6c089d02.Emscripten.clang"
  },
  "schemaVersion": "3.3.0",
  "updatedAt": "2020-10-17T18:14:13.084Z",
  "devdoc": {
    "methods": {}
  },
  "userdoc": {
    "methods": {}
  }
}