{
  "contractName": "UniCore_Token_v5",
  "abi": [
    {
      "inputs": [],
      "stateMutability": "nonpayable",
      "type": "constructor"
    },
    {
      "anonymous": false,
      "inputs": [
        {
          "indexed": true,
          "internalType": "address",
          "name": "owner",
          "type": "address"
        },
        {
          "indexed": true,
          "internalType": "address",
          "name": "spender",
          "type": "address"
        },
        {
          "indexed": false,
          "internalType": "uint256",
          "name": "value",
          "type": "uint256"
        }
      ],
      "name": "Approval",
      "type": "event"
    },
    {
      "anonymous": false,
      "inputs": [
        {
          "indexed": false,
          "internalType": "address",
          "name": "dst",
          "type": "address"
        },
        {
          "indexed": false,
          "internalType": "uint256",
          "name": "value",
          "type": "uint256"
        }
      ],
      "name": "LPTokenClaimed",
      "type": "event"
    },
    {
      "anonymous": false,
      "inputs": [
        {
          "indexed": true,
          "internalType": "address",
          "name": "dst",
          "type": "address"
        },
        {
          "indexed": false,
          "internalType": "uint256",
          "name": "value",
          "type": "uint256"
        }
      ],
      "name": "LiquidityAddition",
      "type": "event"
    },
    {
      "anonymous": false,
      "inputs": [
        {
          "indexed": false,
          "internalType": "string",
          "name": "log",
          "type": "string"
        }
      ],
      "name": "Log",
      "type": "event"
    },
    {
      "anonymous": false,
      "inputs": [
        {
          "indexed": true,
          "internalType": "address",
          "name": "from",
          "type": "address"
        },
        {
          "indexed": true,
          "internalType": "address",
          "name": "to",
          "type": "address"
        },
        {
          "indexed": false,
          "internalType": "uint256",
          "name": "value",
          "type": "uint256"
        }
      ],
      "name": "Transfer",
      "type": "event"
    },
    {
      "inputs": [],
      "name": "LGECompleted_Timestamp",
      "outputs": [
        {
          "internalType": "uint256",
          "name": "",
          "type": "uint256"
        }
      ],
      "stateMutability": "view",
      "type": "function"
    },
    {
      "inputs": [],
      "name": "LPperETHUnit",
      "outputs": [
        {
          "internalType": "uint256",
          "name": "",
          "type": "uint256"
        }
      ],
      "stateMutability": "view",
      "type": "function"
    },
    {
      "inputs": [],
      "name": "UniswapPair",
      "outputs": [
        {
          "internalType": "address",
          "name": "",
          "type": "address"
        }
      ],
      "stateMutability": "view",
      "type": "function"
    },
    {
      "inputs": [],
      "name": "Vault",
      "outputs": [
        {
          "internalType": "address",
          "name": "",
          "type": "address"
        }
      ],
      "stateMutability": "view",
      "type": "function"
    },
    {
      "inputs": [],
      "name": "buyFee",
      "outputs": [
        {
          "internalType": "uint256",
          "name": "",
          "type": "uint256"
        }
      ],
      "stateMutability": "view",
      "type": "function"
    },
    {
      "inputs": [],
      "name": "contractInitialized",
      "outputs": [
        {
          "internalType": "uint256",
          "name": "",
          "type": "uint256"
        }
      ],
      "stateMutability": "view",
      "type": "function"
    },
    {
      "inputs": [],
      "name": "contractStart_Timestamp",
      "outputs": [
        {
          "internalType": "uint256",
          "name": "",
          "type": "uint256"
        }
      ],
      "stateMutability": "view",
      "type": "function"
    },
    {
      "inputs": [],
      "name": "contributionPhase",
      "outputs": [
        {
          "internalType": "uint256",
          "name": "",
          "type": "uint256"
        }
      ],
      "stateMutability": "view",
      "type": "function"
    },
    {
      "inputs": [],
      "name": "emergencyPeriod",
      "outputs": [
        {
          "internalType": "uint256",
          "name": "",
          "type": "uint256"
        }
      ],
      "stateMutability": "view",
      "type": "function"
    },
    {
      "inputs": [
        {
          "internalType": "address",
          "name": "",
          "type": "address"
        }
      ],
      "name": "ethContributed",
      "outputs": [
        {
          "internalType": "uint256",
          "name": "",
          "type": "uint256"
        }
      ],
      "stateMutability": "view",
      "type": "function"
    },
    {
      "inputs": [
        {
          "internalType": "address",
          "name": "",
          "type": "address"
        }
      ],
      "name": "governanceLevels",
      "outputs": [
        {
          "internalType": "uint8",
          "name": "",
          "type": "uint8"
        }
      ],
      "stateMutability": "view",
      "type": "function"
    },
    {
      "inputs": [],
      "name": "individualCap",
      "outputs": [
        {
          "internalType": "uint256",
          "name": "",
          "type": "uint256"
        }
      ],
      "stateMutability": "view",
      "type": "function"
    },
    {
      "inputs": [],
      "name": "initialSupply",
      "outputs": [
        {
          "internalType": "uint256",
          "name": "",
          "type": "uint256"
        }
      ],
      "stateMutability": "view",
      "type": "function"
    },
    {
      "inputs": [],
      "name": "liquidityGenerationParticipationAgreement",
      "outputs": [
        {
          "internalType": "string",
          "name": "",
          "type": "string"
        }
      ],
      "stateMutability": "view",
      "type": "function"
    },
    {
      "inputs": [
        {
          "internalType": "address",
          "name": "",
          "type": "address"
        }
      ],
      "name": "noFeeList",
      "outputs": [
        {
          "internalType": "bool",
          "name": "",
          "type": "bool"
        }
      ],
      "stateMutability": "view",
      "type": "function"
    },
    {
      "inputs": [],
      "name": "sellFee",
      "outputs": [
        {
          "internalType": "uint256",
          "name": "",
          "type": "uint256"
        }
      ],
      "stateMutability": "view",
      "type": "function"
    },
    {
      "inputs": [],
      "name": "stackingPhase",
      "outputs": [
        {
          "internalType": "uint256",
          "name": "",
          "type": "uint256"
        }
      ],
      "stateMutability": "view",
      "type": "function"
    },
    {
      "inputs": [],
      "name": "totalCap",
      "outputs": [
        {
          "internalType": "uint256",
          "name": "",
          "type": "uint256"
        }
      ],
      "stateMutability": "view",
      "type": "function"
    },
    {
      "inputs": [],
      "name": "totalETHContributed",
      "outputs": [
        {
          "internalType": "uint256",
          "name": "",
          "type": "uint256"
        }
      ],
      "stateMutability": "view",
      "type": "function"
    },
    {
      "inputs": [],
      "name": "totalLPTokensMinted",
      "outputs": [
        {
          "internalType": "uint256",
          "name": "",
          "type": "uint256"
        }
      ],
      "stateMutability": "view",
      "type": "function"
    },
    {
      "inputs": [],
      "name": "uniswapFactory",
      "outputs": [
        {
          "internalType": "contract IUniswapV2Factory",
          "name": "",
          "type": "address"
        }
      ],
      "stateMutability": "view",
      "type": "function"
    },
    {
      "inputs": [],
      "name": "uniswapRouterV2",
      "outputs": [
        {
          "internalType": "contract IUniswapV2Router02",
          "name": "",
          "type": "address"
        }
      ],
      "stateMutability": "view",
      "type": "function"
    },
    {
      "inputs": [],
      "name": "wUNIv2",
      "outputs": [
        {
          "internalType": "address",
          "name": "",
          "type": "address"
        }
      ],
      "stateMutability": "view",
      "type": "function"
    },
    {
      "inputs": [],
      "name": "initialSetup",
      "outputs": [],
      "stateMutability": "nonpayable",
      "type": "function"
    },
    {
      "inputs": [
        {
          "internalType": "address",
          "name": "_Vault",
          "type": "address"
        },
        {
          "internalType": "address",
          "name": "_wUNIv2",
          "type": "address"
        }
      ],
      "name": "secondarySetup",
      "outputs": [],
      "stateMutability": "nonpayable",
      "type": "function"
    },
    {
      "inputs": [],
      "name": "emergencyDrain24hAfterLiquidityGenerationEventIsDone",
      "outputs": [],
      "stateMutability": "nonpayable",
      "type": "function"
    },
    {
      "inputs": [
        {
          "internalType": "bool",
          "name": "agreesToTermsOutlinedInLiquidityGenerationParticipationAgreement",
          "type": "bool"
        }
      ],
      "name": "USER_PledgeLiquidity",
      "outputs": [],
      "stateMutability": "payable",
      "type": "function"
    },
    {
      "inputs": [],
      "name": "USER_UNPledgeLiquidity",
      "outputs": [],
      "stateMutability": "nonpayable",
      "type": "function"
    },
    {
      "inputs": [],
      "name": "POOL_CreateLiquidity",
      "outputs": [],
      "stateMutability": "nonpayable",
      "type": "function"
    },
    {
      "inputs": [],
      "name": "USER_ClaimWrappedLiquidity",
      "outputs": [],
      "stateMutability": "nonpayable",
      "type": "function"
    },
    {
      "inputs": [],
      "name": "name",
      "outputs": [
        {
          "internalType": "string",
          "name": "",
          "type": "string"
        }
      ],
      "stateMutability": "view",
      "type": "function"
    },
    {
      "inputs": [],
      "name": "symbol",
      "outputs": [
        {
          "internalType": "string",
          "name": "",
          "type": "string"
        }
      ],
      "stateMutability": "view",
      "type": "function"
    },
    {
      "inputs": [],
      "name": "decimals",
      "outputs": [
        {
          "internalType": "uint8",
          "name": "",
          "type": "uint8"
        }
      ],
      "stateMutability": "view",
      "type": "function"
    },
    {
      "inputs": [],
      "name": "totalSupply",
      "outputs": [
        {
          "internalType": "uint256",
          "name": "",
          "type": "uint256"
        }
      ],
      "stateMutability": "view",
      "type": "function"
    },
    {
      "inputs": [
        {
          "internalType": "address",
          "name": "_owner",
          "type": "address"
        }
      ],
      "name": "balanceOf",
      "outputs": [
        {
          "internalType": "uint256",
          "name": "",
          "type": "uint256"
        }
      ],
      "stateMutability": "view",
      "type": "function"
    },
    {
      "inputs": [
        {
          "internalType": "address",
          "name": "recipient",
          "type": "address"
        },
        {
          "internalType": "uint256",
          "name": "amount",
          "type": "uint256"
        }
      ],
      "name": "transfer",
      "outputs": [
        {
          "internalType": "bool",
          "name": "",
          "type": "bool"
        }
      ],
      "stateMutability": "nonpayable",
      "type": "function"
    },
    {
      "inputs": [
        {
          "internalType": "address",
          "name": "owner",
          "type": "address"
        },
        {
          "internalType": "address",
          "name": "spender",
          "type": "address"
        }
      ],
      "name": "allowance",
      "outputs": [
        {
          "internalType": "uint256",
          "name": "",
          "type": "uint256"
        }
      ],
      "stateMutability": "view",
      "type": "function"
    },
    {
      "inputs": [
        {
          "internalType": "address",
          "name": "spender",
          "type": "address"
        },
        {
          "internalType": "uint256",
          "name": "amount",
          "type": "uint256"
        }
      ],
      "name": "approve",
      "outputs": [
        {
          "internalType": "bool",
          "name": "",
          "type": "bool"
        }
      ],
      "stateMutability": "nonpayable",
      "type": "function"
    },
    {
      "inputs": [
        {
          "internalType": "address",
          "name": "sender",
          "type": "address"
        },
        {
          "internalType": "address",
          "name": "recipient",
          "type": "address"
        },
        {
          "internalType": "uint256",
          "name": "amount",
          "type": "uint256"
        }
      ],
      "name": "transferFrom",
      "outputs": [
        {
          "internalType": "bool",
          "name": "",
          "type": "bool"
        }
      ],
      "stateMutability": "nonpayable",
      "type": "function"
    },
    {
      "inputs": [
        {
          "internalType": "address",
          "name": "spender",
          "type": "address"
        },
        {
          "internalType": "uint256",
          "name": "addedValue",
          "type": "uint256"
        }
      ],
      "name": "increaseAllowance",
      "outputs": [
        {
          "internalType": "bool",
          "name": "",
          "type": "bool"
        }
      ],
      "stateMutability": "nonpayable",
      "type": "function"
    },
    {
      "inputs": [
        {
          "internalType": "address",
          "name": "spender",
          "type": "address"
        },
        {
          "internalType": "uint256",
          "name": "subtractedValue",
          "type": "uint256"
        }
      ],
      "name": "decreaseAllowance",
      "outputs": [
        {
          "internalType": "bool",
          "name": "",
          "type": "bool"
        }
      ],
      "stateMutability": "nonpayable",
      "type": "function"
    },
    {
      "inputs": [
        {
          "internalType": "address",
          "name": "sender",
          "type": "address"
        },
        {
          "internalType": "uint256",
          "name": "amount",
          "type": "uint256"
        }
      ],
      "name": "calculateAmountAndFee",
      "outputs": [
        {
          "internalType": "uint256",
          "name": "netAmount",
          "type": "uint256"
        },
        {
          "internalType": "uint256",
          "name": "fee",
          "type": "uint256"
        }
      ],
      "stateMutability": "view",
      "type": "function"
    },
    {
      "inputs": [
        {
          "internalType": "address",
          "name": "_address",
          "type": "address"
        },
        {
          "internalType": "uint8",
          "name": "_level",
          "type": "uint8"
        }
      ],
      "name": "setGovernanceLevel",
      "outputs": [],
      "stateMutability": "nonpayable",
      "type": "function"
    },
    {
      "inputs": [
        {
          "internalType": "address",
          "name": "_address",
          "type": "address"
        }
      ],
      "name": "viewGovernanceLevel",
      "outputs": [
        {
          "internalType": "uint8",
          "name": "",
          "type": "uint8"
        }
      ],
      "stateMutability": "view",
      "type": "function"
    },
    {
      "inputs": [
        {
          "internalType": "address",
          "name": "_UniswapPair",
          "type": "address"
        }
      ],
      "name": "setUniswapPair",
      "outputs": [],
      "stateMutability": "nonpayable",
      "type": "function"
    },
    {
      "inputs": [
        {
          "internalType": "address",
          "name": "_Vault",
          "type": "address"
        }
      ],
      "name": "setVault",
      "outputs": [],
      "stateMutability": "nonpayable",
      "type": "function"
    },
    {
      "inputs": [
        {
          "internalType": "uint256",
          "name": "amount",
          "type": "uint256"
        }
      ],
      "name": "burnToken",
      "outputs": [],
      "stateMutability": "nonpayable",
      "type": "function"
    },
    {
      "inputs": [
        {
          "internalType": "uint256",
          "name": "_buyFee",
          "type": "uint256"
        },
        {
          "internalType": "uint256",
          "name": "_sellFee",
          "type": "uint256"
        }
      ],
      "name": "setBuySellFees",
      "outputs": [],
      "stateMutability": "nonpayable",
      "type": "function"
    },
    {
      "inputs": [
        {
          "internalType": "address",
          "name": "_address",
          "type": "address"
        },
        {
          "internalType": "bool",
          "name": "_bool",
          "type": "bool"
        }
      ],
      "name": "setNoFeeList",
      "outputs": [],
      "stateMutability": "nonpayable",
      "type": "function"
    },
    {
      "inputs": [],
      "name": "viewUNIv2",
      "outputs": [
        {
          "internalType": "address",
          "name": "",
          "type": "address"
        }
      ],
      "stateMutability": "view",
      "type": "function"
    },
    {
      "inputs": [],
      "name": "viewwWrappedUNIv2",
      "outputs": [
        {
          "internalType": "address",
          "name": "",
          "type": "address"
        }
      ],
      "stateMutability": "view",
      "type": "function"
    },
    {
      "inputs": [],
      "name": "viewVault",
      "outputs": [
        {
          "internalType": "address",
          "name": "",
          "type": "address"
        }
      ],
      "stateMutability": "view",
      "type": "function"
    }
  ],
  "bytecode": "0x60806040526040518060a001604052806067815260200162004c8a606791396012908051906020019062000035929190620003e4565b503480156200004357600080fd5b506040518060400160405280600781526020017f556e69436f7265000000000000000000000000000000000000000000000000008152506001908051906020019062000091929190620003e4565b506040518060400160405280600781526020017f554e49434f52450000000000000000000000000000000000000000000000000081525060029080519060200190620000df929190620003e4565b506012600360006101000a81548160ff021916908360ff1602179055506200011730683635c9adc5dea000006200017660201b60201c565b6002601460003373ffffffffffffffffffffffffffffffffffffffff1673ffffffffffffffffffffffffffffffffffffffff16815260200190815260200160002060006101000a81548160ff021916908360ff16021790555062000493565b600073ffffffffffffffffffffffffffffffffffffffff168273ffffffffffffffffffffffffffffffffffffffff1614156200021a576040517f08c379a000000000000000000000000000000000000000000000000000000000815260040180806020018281038252601f8152602001807f45524332303a206d696e7420746f20746865207a65726f20616464726573730081525060200191505060405180910390fd5b6200022e600083836200035660201b60201c565b6200024a816000546200035b60201b62003dfb1790919060201c565b600081905550620002a981600460008573ffffffffffffffffffffffffffffffffffffffff1673ffffffffffffffffffffffffffffffffffffffff168152602001908152602001600020546200035b60201b62003dfb1790919060201c565b600460008473ffffffffffffffffffffffffffffffffffffffff1673ffffffffffffffffffffffffffffffffffffffff168152602001908152602001600020819055508173ffffffffffffffffffffffffffffffffffffffff16600073ffffffffffffffffffffffffffffffffffffffff167fddf252ad1be2c89b69c2b068fc378daa952ba7f163c4a11628f55a4df523b3ef836040518082815260200191505060405180910390a35050565b505050565b600080828401905083811015620003da576040517f08c379a000000000000000000000000000000000000000000000000000000000815260040180806020018281038252601b8152602001807f536166654d6174683a206164646974696f6e206f766572666c6f77000000000081525060200191505060405180910390fd5b8091505092915050565b828054600181600116156101000203166002900490600052602060002090601f016020900481019282601f106200042757805160ff191683800117855562000458565b8280016001018555821562000458579182015b82811115620004575782518255916020019190600101906200043a565b5b5090506200046791906200046b565b5090565b6200049091905b808211156200048c57600081600090555060010162000472565b5090565b90565b6147e780620004a36000396000f3fe6080604052600436106102fd5760003560e01c80635ef1701211610190578063a2b0a66e116100dc578063c25cc8af11610095578063dd62ed3e1161006f578063dd62ed3e146110e8578063dd912c411461116d578063de5099cc146111ca578063f96f5b351461120f576102fd565b8063c25cc8af14611001578063d5aed6bf1461106c578063db1a1903146110bd576102fd565b8063a2b0a66e14610e66578063a457c2d714610ebd578063a9059cbb14610f30578063b712286814610fa3578063b8752e7014610fba578063b88c712e14610fd1576102fd565b80637b47ec1a116101495780638bdb2afa116101235780638bdb2afa14610c985780638e8e292514610cef57806395d89b4114610d7f578063a19b083714610e0f576102fd565b80637b47ec1a14610b9d578063803486e714610bd85780638aa1ff7014610c2f576102fd565b80635ef1701214610998578063639d7e8614610a0e5780636817031b14610a3957806370a0823114610a8a578063713a83e514610aef57806378a63f3414610b46576102fd565b80632e7fae311161024f578063378dc3dc11610208578063418c3f7a116101e2578063418c3f7a146108d457806347062402146108ff5780634f1a0f7d1461092a578063596fa9e314610941576102fd565b8063378dc3dc1461081f578063395093511461084a5780634051b384146108bd576102fd565b80632e7fae311461069e578063313ce567146106fc57806331a22a201461072d578063337a87c614610758578063343a6ea5146107c95780633528f4d7146107f4576102fd565b806316450092116102bc57806323b872dd1161029657806323b872dd146105725780632b14ca56146106055780632d2c44f2146106305780632da9181c14610687576102fd565b806316450092146104f157806318160ddd1461051c5780632339943414610547576102fd565b80622b132914610302578062b347471461032d5780630276650b1461035857806306fdde0314610383578063095ea7b3146104135780631291459514610486575b600080fd5b34801561030e57600080fd5b50610317611274565b6040518082815260200191505060405180910390f35b34801561033957600080fd5b5061034261127a565b6040518082815260200191505060405180910390f35b34801561036457600080fd5b5061036d611280565b6040518082815260200191505060405180910390f35b34801561038f57600080fd5b5061039861128c565b6040518080602001828103825283818151815260200191508051906020019080838360005b838110156103d85780820151818401526020810190506103bd565b50505050905090810190601f1680156104055780820380516001836020036101000a031916815260200191505b509250505060405180910390f35b34801561041f57600080fd5b5061046c6004803603604081101561043657600080fd5b81019080803573ffffffffffffffffffffffffffffffffffffffff1690602001909291908035906020019092919050505061132e565b604051808215151515815260200191505060405180910390f35b34801561049257600080fd5b506104d5600480360360208110156104a957600080fd5b81019080803573ffffffffffffffffffffffffffffffffffffffff16906020019092919050505061134c565b604051808260ff1660ff16815260200191505060405180910390f35b3480156104fd57600080fd5b5061050661136c565b6040518082815260200191505060405180910390f35b34801561052857600080fd5b50610531611378565b6040518082815260200191505060405180910390f35b34801561055357600080fd5b5061055c611381565b6040518082815260200191505060405180910390f35b34801561057e57600080fd5b506105eb6004803603606081101561059557600080fd5b81019080803573ffffffffffffffffffffffffffffffffffffffff169060200190929190803573ffffffffffffffffffffffffffffffffffffffff16906020019092919080359060200190929190505050611387565b604051808215151515815260200191505060405180910390f35b34801561061157600080fd5b5061061a611460565b6040518082815260200191505060405180910390f35b34801561063c57600080fd5b50610645611466565b604051808273ffffffffffffffffffffffffffffffffffffffff1673ffffffffffffffffffffffffffffffffffffffff16815260200191505060405180910390f35b34801561069357600080fd5b5061069c61148c565b005b3480156106aa57600080fd5b506106fa600480360360408110156106c157600080fd5b81019080803573ffffffffffffffffffffffffffffffffffffffff169060200190929190803560ff169060200190929190505050611744565b005b34801561070857600080fd5b5061071161186a565b604051808260ff1660ff16815260200191505060405180910390f35b34801561073957600080fd5b50610742611881565b6040518082815260200191505060405180910390f35b34801561076457600080fd5b506107c76004803603604081101561077b57600080fd5b81019080803573ffffffffffffffffffffffffffffffffffffffff169060200190929190803573ffffffffffffffffffffffffffffffffffffffff169060200190929190505050611887565b005b3480156107d557600080fd5b506107de611af1565b6040518082815260200191505060405180910390f35b34801561080057600080fd5b50610809611af7565b6040518082815260200191505060405180910390f35b34801561082b57600080fd5b50610834611afd565b6040518082815260200191505060405180910390f35b34801561085657600080fd5b506108a36004803603604081101561086d57600080fd5b81019080803573ffffffffffffffffffffffffffffffffffffffff16906020019092919080359060200190929190505050611b0a565b604051808215151515815260200191505060405180910390f35b3480156108c957600080fd5b506108d2611bbd565b005b3480156108e057600080fd5b506108e9611cd0565b6040518082815260200191505060405180910390f35b34801561090b57600080fd5b50610914611cd6565b6040518082815260200191505060405180910390f35b34801561093657600080fd5b5061093f611cdc565b005b34801561094d57600080fd5b50610956611fcb565b604051808273ffffffffffffffffffffffffffffffffffffffff1673ffffffffffffffffffffffffffffffffffffffff16815260200191505060405180910390f35b3480156109a457600080fd5b506109f1600480360360408110156109bb57600080fd5b81019080803573ffffffffffffffffffffffffffffffffffffffff16906020019092919080359060200190929190505050611ff1565b604051808381526020018281526020019250505060405180910390f35b348015610a1a57600080fd5b50610a2361211e565b6040518082815260200191505060405180910390f35b348015610a4557600080fd5b50610a8860048036036020811015610a5c57600080fd5b81019080803573ffffffffffffffffffffffffffffffffffffffff169060200190929190505050612124565b005b348015610a9657600080fd5b50610ad960048036036020811015610aad57600080fd5b81019080803573ffffffffffffffffffffffffffffffffffffffff169060200190929190505050612233565b6040518082815260200191505060405180910390f35b348015610afb57600080fd5b50610b0461227c565b604051808273ffffffffffffffffffffffffffffffffffffffff1673ffffffffffffffffffffffffffffffffffffffff16815260200191505060405180910390f35b348015610b5257600080fd5b50610b5b6122a2565b604051808273ffffffffffffffffffffffffffffffffffffffff1673ffffffffffffffffffffffffffffffffffffffff16815260200191505060405180910390f35b348015610ba957600080fd5b50610bd660048036036020811015610bc057600080fd5b81019080803590602001909291905050506122c8565b005b348015610be457600080fd5b50610bed6123a0565b604051808273ffffffffffffffffffffffffffffffffffffffff1673ffffffffffffffffffffffffffffffffffffffff16815260200191505060405180910390f35b348015610c3b57600080fd5b50610c7e60048036036020811015610c5257600080fd5b81019080803573ffffffffffffffffffffffffffffffffffffffff1690602001909291905050506123ca565b604051808215151515815260200191505060405180910390f35b348015610ca457600080fd5b50610cad6123ea565b604051808273ffffffffffffffffffffffffffffffffffffffff1673ffffffffffffffffffffffffffffffffffffffff16815260200191505060405180910390f35b348015610cfb57600080fd5b50610d04612410565b6040518080602001828103825283818151815260200191508051906020019080838360005b83811015610d44578082015181840152602081019050610d29565b50505050905090810190601f168015610d715780820380516001836020036101000a031916815260200191505b509250505060405180910390f35b348015610d8b57600080fd5b50610d946124ae565b6040518080602001828103825283818151815260200191508051906020019080838360005b83811015610dd4578082015181840152602081019050610db9565b50505050905090810190601f168015610e015780820380516001836020036101000a031916815260200191505b509250505060405180910390f35b348015610e1b57600080fd5b50610e24612550565b604051808273ffffffffffffffffffffffffffffffffffffffff1673ffffffffffffffffffffffffffffffffffffffff16815260200191505060405180910390f35b348015610e7257600080fd5b50610e7b61257a565b604051808273ffffffffffffffffffffffffffffffffffffffff1673ffffffffffffffffffffffffffffffffffffffff16815260200191505060405180910390f35b348015610ec957600080fd5b50610f1660048036036040811015610ee057600080fd5b81019080803573ffffffffffffffffffffffffffffffffffffffff169060200190929190803590602001909291905050506125a4565b604051808215151515815260200191505060405180910390f35b348015610f3c57600080fd5b50610f8960048036036040811015610f5357600080fd5b81019080803573ffffffffffffffffffffffffffffffffffffffff16906020019092919080359060200190929190505050612671565b604051808215151515815260200191505060405180910390f35b348015610faf57600080fd5b50610fb861268f565b005b348015610fc657600080fd5b50610fcf612d4c565b005b610fff60048036036020811015610fe757600080fd5b81019080803515159060200190929190505050612e30565b005b34801561100d57600080fd5b506110506004803603602081101561102457600080fd5b81019080803573ffffffffffffffffffffffffffffffffffffffff16906020019092919050505061311a565b604051808260ff1660ff16815260200191505060405180910390f35b34801561107857600080fd5b506110bb6004803603602081101561108f57600080fd5b81019080803573ffffffffffffffffffffffffffffffffffffffff169060200190929190505050613170565b005b3480156110c957600080fd5b506110d261327f565b6040518082815260200191505060405180910390f35b3480156110f457600080fd5b506111576004803603604081101561110b57600080fd5b81019080803573ffffffffffffffffffffffffffffffffffffffff169060200190929190803573ffffffffffffffffffffffffffffffffffffffff169060200190929190505050613285565b6040518082815260200191505060405180910390f35b34801561117957600080fd5b506111c86004803603604081101561119057600080fd5b81019080803573ffffffffffffffffffffffffffffffffffffffff16906020019092919080351515906020019092919050505061330c565b005b3480156111d657600080fd5b5061120d600480360360408110156111ed57600080fd5b810190808035906020019092919080359060200190929190505050613432565b005b34801561121b57600080fd5b5061125e6004803603602081101561123257600080fd5b81019080803573ffffffffffffffffffffffffffffffffffffffff16906020019092919050505061350f565b6040518082815260200191505060405180910390f35b60095481565b60065481565b67016345785d8a000081565b606060018054600181600116156101000203166002900480601f0160208091040260200160405190810160405280929190818152602001828054600181600116156101000203166002900480156113245780601f106112f957610100808354040283529160200191611324565b820191906000526020600020905b81548152906001019060200180831161130757829003601f168201915b5050505050905090565b600061134261133b613527565b848461352f565b6001905092915050565b60146020528060005260406000206000915054906101000a900460ff1681565b670429d069189e000081565b60008054905090565b600a5481565b6000611394848484613726565b611455846113a0613527565b611450856040518060600160405280602881526020016146b860289139600560008b73ffffffffffffffffffffffffffffffffffffffff1673ffffffffffffffffffffffffffffffffffffffff1681526020019081526020016000206000611406613527565b73ffffffffffffffffffffffffffffffffffffffff1673ffffffffffffffffffffffffffffffffffffffff16815260200190815260200160002054613c6b9092919063ffffffff16565b61352f565b600190509392505050565b60165481565b600f60009054906101000a900473ffffffffffffffffffffffffffffffffffffffff1681565b60006008541161149b57600080fd5b60085442116114a957600080fd5b6000600c60003373ffffffffffffffffffffffffffffffffffffffff1673ffffffffffffffffffffffffffffffffffffffff168152602001908152602001600020541161155e576040517f08c379a000000000000000000000000000000000000000000000000000000000815260040180806020018281038252601c8152602001807f4e6f7468696e6720746f20636c61696d2c206d6f766520616c6f6e670000000081525060200191505060405180910390fd5b60006115ce670de0b6b3a76400006115c0600b54600c60003373ffffffffffffffffffffffffffffffffffffffff1673ffffffffffffffffffffffffffffffffffffffff16815260200190815260200160002054613d2b90919063ffffffff16565b613db190919063ffffffff16565b9050600e60009054906101000a900473ffffffffffffffffffffffffffffffffffffffff1673ffffffffffffffffffffffffffffffffffffffff16634ebc069433836040518363ffffffff1660e01b8152600401808373ffffffffffffffffffffffffffffffffffffffff1673ffffffffffffffffffffffffffffffffffffffff16815260200182815260200192505050600060405180830381600087803b15801561167957600080fd5b505af115801561168d573d6000803e3d6000fd5b505050506000600c60003373ffffffffffffffffffffffffffffffffffffffff1673ffffffffffffffffffffffffffffffffffffffff168152602001908152602001600020819055507f586e28f4f60b4d906fc69694ea6d7fe5c5668730ce3286d7af8eca868f3c27603382604051808373ffffffffffffffffffffffffffffffffffffffff1673ffffffffffffffffffffffffffffffffffffffff1681526020018281526020019250505060405180910390a150565b808060ff16601460003373ffffffffffffffffffffffffffffffffffffffff1673ffffffffffffffffffffffffffffffffffffffff16815260200190815260200160002060009054906101000a900460ff1660ff16101561180d576040517f08c379a000000000000000000000000000000000000000000000000000000000815260040180806020018281038252601b8152602001807f47726f7720736f6d65206d75737461636865206b6964646f2e2e2e000000000081525060200191505060405180910390fd5b81601460008573ffffffffffffffffffffffffffffffffffffffff1673ffffffffffffffffffffffffffffffffffffffff16815260200190815260200160002060006101000a81548160ff021916908360ff160217905550505050565b6000600360009054906101000a900460ff16905090565b600b5481565b60028060ff16601460003373ffffffffffffffffffffffffffffffffffffffff1673ffffffffffffffffffffffffffffffffffffffff16815260200190815260200160002060009054906101000a900460ff1660ff161015611951576040517f08c379a000000000000000000000000000000000000000000000000000000000815260040180806020018281038252601b8152602001807f47726f7720736f6d65206d75737461636865206b6964646f2e2e2e000000000081525060200191505060405180910390fd5b60006006541161196057600080fd5b82600f60006101000a81548173ffffffffffffffffffffffffffffffffffffffff021916908373ffffffffffffffffffffffffffffffffffffffff16021790555081600e60006101000a81548173ffffffffffffffffffffffffffffffffffffffff021916908373ffffffffffffffffffffffffffffffffffffffff160217905550600073ffffffffffffffffffffffffffffffffffffffff16600f60009054906101000a900473ffffffffffffffffffffffffffffffffffffffff1673ffffffffffffffffffffffffffffffffffffffff1614158015611a905750600073ffffffffffffffffffffffffffffffffffffffff16600e60009054906101000a900473ffffffffffffffffffffffffffffffffffffffff1673ffffffffffffffffffffffffffffffffffffffff1614155b611ae5576040517f08c379a00000000000000000000000000000000000000000000000000000000081526004018080602001828103825260218152602001806147486021913960400191505060405180910390fd5b42600781905550505050565b60085481565b610e1081565b683635c9adc5dea0000081565b6000611bb3611b17613527565b84611bae8560056000611b28613527565b73ffffffffffffffffffffffffffffffffffffffff1673ffffffffffffffffffffffffffffffffffffffff16815260200190815260200160002060008973ffffffffffffffffffffffffffffffffffffffff1673ffffffffffffffffffffffffffffffffffffffff16815260200190815260200160002054613dfb90919063ffffffff16565b61352f565b6001905092915050565b60028060ff16601460003373ffffffffffffffffffffffffffffffffffffffff1673ffffffffffffffffffffffffffffffffffffffff16815260200190815260200160002060009054906101000a900460ff1660ff161015611c87576040517f08c379a000000000000000000000000000000000000000000000000000000000815260040180806020018281038252601b8152602001807f47726f7720736f6d65206d75737461636865206b6964646f2e2e2e000000000081525060200191505060405180910390fd5b42600681905550611c9a6005600b613432565b611ccc737a250d5630b4cf539739df2c5dacb4c659f2488d735c69bee701ef814a2b6a3edd4b1652cb9cc5aa6f613e83565b5050565b60075481565b60155481565b60028060ff16601460003373ffffffffffffffffffffffffffffffffffffffff1673ffffffffffffffffffffffffffffffffffffffff16815260200190815260200160002060009054906101000a900460ff1660ff161015611da6576040517f08c379a000000000000000000000000000000000000000000000000000000000815260040180806020018281038252601b8152602001807f47726f7720736f6d65206d75737461636865206b6964646f2e2e2e000000000081525060200191505060405180910390fd5b600060075411611db557600080fd5b42611dcd610e10600754613dfb90919063ffffffff16565b10611e23576040517f08c379a000000000000000000000000000000000000000000000000000000000815260040180806020018281038252602f815260200180614668602f913960400191505060405180910390fd5b60003373ffffffffffffffffffffffffffffffffffffffff164760405180600001905060006040518083038185875af1925050503d8060008114611e83576040519150601f19603f3d011682016040523d82523d6000602084013e611e88565b606091505b5050905080611eff576040517f08c379a00000000000000000000000000000000000000000000000000000000081526004018080602001828103825260108152602001807f5472616e73666572206661696c65642e0000000000000000000000000000000081525060200191505060405180910390fd5b600460003073ffffffffffffffffffffffffffffffffffffffff1673ffffffffffffffffffffffffffffffffffffffff16815260200190815260200160002054600460003373ffffffffffffffffffffffffffffffffffffffff1673ffffffffffffffffffffffffffffffffffffffff168152602001908152602001600020819055506000600460003073ffffffffffffffffffffffffffffffffffffffff1673ffffffffffffffffffffffffffffffffffffffff168152602001908152602001600020819055505050565b601060009054906101000a900473ffffffffffffffffffffffffffffffffffffffff1681565b600080601360008573ffffffffffffffffffffffffffffffffffffffff1673ffffffffffffffffffffffffffffffffffffffff16815260200190815260200160002060009054906101000a900460ff161561204f5760009050612102565b600d60009054906101000a900473ffffffffffffffffffffffffffffffffffffffff1673ffffffffffffffffffffffffffffffffffffffff168473ffffffffffffffffffffffffffffffffffffffff1614156120d5576120ce6103e86120c060155486613d2b90919063ffffffff16565b613db190919063ffffffff16565b9050612101565b6120fe6103e86120f060165486613d2b90919063ffffffff16565b613db190919063ffffffff16565b90505b5b61211581846142ff90919063ffffffff16565b91509250929050565b610e1081565b60028060ff16601460003373ffffffffffffffffffffffffffffffffffffffff1673ffffffffffffffffffffffffffffffffffffffff16815260200190815260200160002060009054906101000a900460ff1660ff1610156121ee576040517f08c379a000000000000000000000000000000000000000000000000000000000815260040180806020018281038252601b8152602001807f47726f7720736f6d65206d75737461636865206b6964646f2e2e2e000000000081525060200191505060405180910390fd5b81600f60006101000a81548173ffffffffffffffffffffffffffffffffffffffff021916908373ffffffffffffffffffffffffffffffffffffffff1602179055505050565b6000600460008373ffffffffffffffffffffffffffffffffffffffff1673ffffffffffffffffffffffffffffffffffffffff168152602001908152602001600020549050919050565b600e60009054906101000a900473ffffffffffffffffffffffffffffffffffffffff1681565b600d60009054906101000a900473ffffffffffffffffffffffffffffffffffffffff1681565b60018060ff16601460003373ffffffffffffffffffffffffffffffffffffffff1673ffffffffffffffffffffffffffffffffffffffff16815260200190815260200160002060009054906101000a900460ff1660ff161015612392576040517f08c379a000000000000000000000000000000000000000000000000000000000815260040180806020018281038252601b8152602001807f47726f7720736f6d65206d75737461636865206b6964646f2e2e2e000000000081525060200191505060405180910390fd5b61239c3083614349565b5050565b6000600f60009054906101000a900473ffffffffffffffffffffffffffffffffffffffff16905090565b60136020528060005260406000206000915054906101000a900460ff1681565b601160009054906101000a900473ffffffffffffffffffffffffffffffffffffffff1681565b60128054600181600116156101000203166002900480601f0160208091040260200160405190810160405280929190818152602001828054600181600116156101000203166002900480156124a65780601f1061247b576101008083540402835291602001916124a6565b820191906000526020600020905b81548152906001019060200180831161248957829003601f168201915b505050505081565b606060028054600181600116156101000203166002900480601f0160208091040260200160405190810160405280929190818152602001828054600181600116156101000203166002900480156125465780601f1061251b57610100808354040283529160200191612546565b820191906000526020600020905b81548152906001019060200180831161252957829003601f168201915b5050505050905090565b6000600d60009054906101000a900473ffffffffffffffffffffffffffffffffffffffff16905090565b6000600e60009054906101000a900473ffffffffffffffffffffffffffffffffffffffff16905090565b60006126676125b1613527565b846126628560405180606001604052806025815260200161478d60259139600560006125db613527565b73ffffffffffffffffffffffffffffffffffffffff1673ffffffffffffffffffffffffffffffffffffffff16815260200190815260200160002060008a73ffffffffffffffffffffffffffffffffffffffff1673ffffffffffffffffffffffffffffffffffffffff16815260200190815260200160002054613c6b9092919063ffffffff16565b61352f565b6001905092915050565b600061268561267e613527565b8484613726565b6001905092915050565b60006007541161269e57600080fd5b6126b5610e10600754613dfb90919063ffffffff16565b42116126c057600080fd5b47600a819055506000600d60009054906101000a900473ffffffffffffffffffffffffffffffffffffffff1690506000601060009054906101000a900473ffffffffffffffffffffffffffffffffffffffff1673ffffffffffffffffffffffffffffffffffffffff1663ad5c46486040518163ffffffff1660e01b815260040160206040518083038186803b15801561275857600080fd5b505afa15801561276c573d6000803e3d6000fd5b505050506040513d602081101561278257600080fd5b810190808051906020019092919050505090508073ffffffffffffffffffffffffffffffffffffffff1663d0e30db0600a546040518263ffffffff1660e01b81526004016000604051808303818588803b1580156127df57600080fd5b505af11580156127f3573d6000803e3d6000fd5b50505050506000471461286e576040517f08c379a000000000000000000000000000000000000000000000000000000000815260040180806020018281038252600f8152602001807f5472616e73666572204661696c6564000000000000000000000000000000000081525060200191505060405180910390fd5b8073ffffffffffffffffffffffffffffffffffffffff1663a9059cbb83600a546040518363ffffffff1660e01b8152600401808373ffffffffffffffffffffffffffffffffffffffff1673ffffffffffffffffffffffffffffffffffffffff16815260200182815260200192505050602060405180830381600087803b1580156128f757600080fd5b505af115801561290b573d6000803e3d6000fd5b505050506040513d602081101561292157600080fd5b8101908080519060200190929190505050508173ffffffffffffffffffffffffffffffffffffffff163073ffffffffffffffffffffffffffffffffffffffff167fddf252ad1be2c89b69c2b068fc378daa952ba7f163c4a11628f55a4df523b3ef600460003073ffffffffffffffffffffffffffffffffffffffff1673ffffffffffffffffffffffffffffffffffffffff168152602001908152602001600020546040518082815260200191505060405180910390a3600460003073ffffffffffffffffffffffffffffffffffffffff1673ffffffffffffffffffffffffffffffffffffffff16815260200190815260200160002054600460008473ffffffffffffffffffffffffffffffffffffffff1673ffffffffffffffffffffffffffffffffffffffff168152602001908152602001600020819055506000600460003073ffffffffffffffffffffffffffffffffffffffff1673ffffffffffffffffffffffffffffffffffffffff168152602001908152602001600020819055508173ffffffffffffffffffffffffffffffffffffffff16636a627842306040518263ffffffff1660e01b8152600401808273ffffffffffffffffffffffffffffffffffffffff1673ffffffffffffffffffffffffffffffffffffffff168152602001915050602060405180830381600087803b158015612b1e57600080fd5b505af1158015612b32573d6000803e3d6000fd5b505050506040513d6020811015612b4857600080fd5b8101908080519060200190929190505050508173ffffffffffffffffffffffffffffffffffffffff166370a08231306040518263ffffffff1660e01b8152600401808273ffffffffffffffffffffffffffffffffffffffff1673ffffffffffffffffffffffffffffffffffffffff16815260200191505060206040518083038186803b158015612bd757600080fd5b505afa158015612beb573d6000803e3d6000fd5b505050506040513d6020811015612c0157600080fd5b810190808051906020019092919050505060098190555060006009541415612c91576040517f08c379a00000000000000000000000000000000000000000000000000000000081526004018080602001828103825260128152602001807f4c50206372656174696f6e206661696c6564000000000000000000000000000081525060200191505060405180910390fd5b612cc2600a54612cb4670de0b6b3a7640000600954613d2b90919063ffffffff16565b613db190919063ffffffff16565b600b819055506000600b541415612d41576040517f08c379a00000000000000000000000000000000000000000000000000000000081526004018080602001828103825260128152602001807f4c50206372656174696f6e206661696c6564000000000000000000000000000081525060200191505060405180910390fd5b426008819055505050565b600060075411612d5b57600080fd5b612d72610e10600754613dfb90919063ffffffff16565b421115612d7e57600080fd5b6000600c60003373ffffffffffffffffffffffffffffffffffffffff1673ffffffffffffffffffffffffffffffffffffffff1681526020019081526020016000205490506000600c60003373ffffffffffffffffffffffffffffffffffffffff1673ffffffffffffffffffffffffffffffffffffffff16815260200190815260200160002081905550612e113382612671565b50612e2781600a546142ff90919063ffffffff16565b600a8190555050565b600060075411612e3f57600080fd5b612e56610e10600754613dfb90919063ffffffff16565b421115612e6257600080fd5b67016345785d8a0000612ebd34600c60003373ffffffffffffffffffffffffffffffffffffffff1673ffffffffffffffffffffffffffffffffffffffff16815260200190815260200160002054613dfb90919063ffffffff16565b1115612f14576040517f08c379a00000000000000000000000000000000000000000000000000000000081526004018080602001828103825260228152602001806146e06022913960400191505060405180910390fd5b670429d069189e0000612f3234600a54613dfb90919063ffffffff16565b1115612fa6576040517f08c379a00000000000000000000000000000000000000000000000000000000081526004018080602001828103825260108152602001807f353030204554482048617264206361700000000000000000000000000000000081525060200191505060405180910390fd5b80613019576040517f08c379a00000000000000000000000000000000000000000000000000000000081526004018080602001828103825260158152602001807f4e6f2061677265656d656e742070726f7669646564000000000000000000000081525060200191505060405180910390fd5b61306b34600c60003373ffffffffffffffffffffffffffffffffffffffff1673ffffffffffffffffffffffffffffffffffffffff16815260200190815260200160002054613dfb90919063ffffffff16565b600c60003373ffffffffffffffffffffffffffffffffffffffff1673ffffffffffffffffffffffffffffffffffffffff168152602001908152602001600020819055506130c334600a54613dfb90919063ffffffff16565b600a819055503373ffffffffffffffffffffffffffffffffffffffff167f20b711375edba008429d2f91787c68aa13aab7f267c346bf91be1a104d8b7b8b346040518082815260200191505060405180910390a250565b6000601460008373ffffffffffffffffffffffffffffffffffffffff1673ffffffffffffffffffffffffffffffffffffffff16815260200190815260200160002060009054906101000a900460ff169050919050565b60028060ff16601460003373ffffffffffffffffffffffffffffffffffffffff1673ffffffffffffffffffffffffffffffffffffffff16815260200190815260200160002060009054906101000a900460ff1660ff16101561323a576040517f08c379a000000000000000000000000000000000000000000000000000000000815260040180806020018281038252601b8152602001807f47726f7720736f6d65206d75737461636865206b6964646f2e2e2e000000000081525060200191505060405180910390fd5b81600d60006101000a81548173ffffffffffffffffffffffffffffffffffffffff021916908373ffffffffffffffffffffffffffffffffffffffff1602179055505050565b610e1081565b6000600560008473ffffffffffffffffffffffffffffffffffffffff1673ffffffffffffffffffffffffffffffffffffffff16815260200190815260200160002060008373ffffffffffffffffffffffffffffffffffffffff1673ffffffffffffffffffffffffffffffffffffffff16815260200190815260200160002054905092915050565b60018060ff16601460003373ffffffffffffffffffffffffffffffffffffffff1673ffffffffffffffffffffffffffffffffffffffff16815260200190815260200160002060009054906101000a900460ff1660ff1610156133d6576040517f08c379a000000000000000000000000000000000000000000000000000000000815260040180806020018281038252601b8152602001807f47726f7720736f6d65206d75737461636865206b6964646f2e2e2e000000000081525060200191505060405180910390fd5b81601360008573ffffffffffffffffffffffffffffffffffffffff1673ffffffffffffffffffffffffffffffffffffffff16815260200190815260200160002060006101000a81548160ff021916908315150217905550505050565b60018060ff16601460003373ffffffffffffffffffffffffffffffffffffffff1673ffffffffffffffffffffffffffffffffffffffff16815260200190815260200160002060009054906101000a900460ff1660ff1610156134fc576040517f08c379a000000000000000000000000000000000000000000000000000000000815260040180806020018281038252601b8152602001807f47726f7720736f6d65206d75737461636865206b6964646f2e2e2e000000000081525060200191505060405180910390fd5b8260158190555081601681905550505050565b600c6020528060005260406000206000915090505481565b600033905090565b600073ffffffffffffffffffffffffffffffffffffffff168373ffffffffffffffffffffffffffffffffffffffff1614156135b5576040517f08c379a00000000000000000000000000000000000000000000000000000000081526004018080602001828103825260248152602001806147696024913960400191505060405180910390fd5b600073ffffffffffffffffffffffffffffffffffffffff168273ffffffffffffffffffffffffffffffffffffffff16141561363b576040517f08c379a00000000000000000000000000000000000000000000000000000000081526004018080602001828103825260228152602001806146206022913960400191505060405180910390fd5b80600560008573ffffffffffffffffffffffffffffffffffffffff1673ffffffffffffffffffffffffffffffffffffffff16815260200190815260200160002060008473ffffffffffffffffffffffffffffffffffffffff1673ffffffffffffffffffffffffffffffffffffffff168152602001908152602001600020819055508173ffffffffffffffffffffffffffffffffffffffff168373ffffffffffffffffffffffffffffffffffffffff167f8c5be1e5ebec7d5bd14f71427d1e84f3dd0314c0f7b2291e5b200ac8c7c3b925836040518082815260200191505060405180910390a3505050565b60006008541161373557600080fd5b61374c610e10600854613dfb90919063ffffffff16565b421161375757600080fd5b600073ffffffffffffffffffffffffffffffffffffffff168373ffffffffffffffffffffffffffffffffffffffff1614156137dd576040517f08c379a00000000000000000000000000000000000000000000000000000000081526004018080602001828103825260258152602001806147236025913960400191505060405180910390fd5b600073ffffffffffffffffffffffffffffffffffffffff168273ffffffffffffffffffffffffffffffffffffffff161415613863576040517f08c379a00000000000000000000000000000000000000000000000000000000081526004018080602001828103825260238152602001806145db6023913960400191505060405180910390fd5b6138cf8160405180606001604052806026815260200161464260269139600460008773ffffffffffffffffffffffffffffffffffffffff1673ffffffffffffffffffffffffffffffffffffffff16815260200190815260200160002054613c6b9092919063ffffffff16565b600460008573ffffffffffffffffffffffffffffffffffffffff1673ffffffffffffffffffffffffffffffffffffffff1681526020019081526020016000208190555060008061391f8584611ff1565b915091506000811180156139825750600073ffffffffffffffffffffffffffffffffffffffff16600f60009054906101000a900473ffffffffffffffffffffffffffffffffffffffff1673ffffffffffffffffffffffffffffffffffffffff1614155b15613b6a576139fb8160046000600f60009054906101000a900473ffffffffffffffffffffffffffffffffffffffff1673ffffffffffffffffffffffffffffffffffffffff1673ffffffffffffffffffffffffffffffffffffffff16815260200190815260200160002054613dfb90919063ffffffff16565b60046000600f60009054906101000a900473ffffffffffffffffffffffffffffffffffffffff1673ffffffffffffffffffffffffffffffffffffffff1673ffffffffffffffffffffffffffffffffffffffff16815260200190815260200160002081905550600f60009054906101000a900473ffffffffffffffffffffffffffffffffffffffff1673ffffffffffffffffffffffffffffffffffffffff16633e158b0c6040518163ffffffff1660e01b8152600401600060405180830381600087803b158015613aca57600080fd5b505af1158015613ade573d6000803e3d6000fd5b50505050600f60009054906101000a900473ffffffffffffffffffffffffffffffffffffffff1673ffffffffffffffffffffffffffffffffffffffff168573ffffffffffffffffffffffffffffffffffffffff167fddf252ad1be2c89b69c2b068fc378daa952ba7f163c4a11628f55a4df523b3ef836040518082815260200191505060405180910390a35b613bbc82600460008773ffffffffffffffffffffffffffffffffffffffff1673ffffffffffffffffffffffffffffffffffffffff16815260200190815260200160002054613dfb90919063ffffffff16565b600460008673ffffffffffffffffffffffffffffffffffffffff1673ffffffffffffffffffffffffffffffffffffffff168152602001908152602001600020819055508373ffffffffffffffffffffffffffffffffffffffff168573ffffffffffffffffffffffffffffffffffffffff167fddf252ad1be2c89b69c2b068fc378daa952ba7f163c4a11628f55a4df523b3ef846040518082815260200191505060405180910390a35050505050565b6000838311158290613d18576040517f08c379a00000000000000000000000000000000000000000000000000000000081526004018080602001828103825283818151815260200191508051906020019080838360005b83811015613cdd578082015181840152602081019050613cc2565b50505050905090810190601f168015613d0a5780820380516001836020036101000a031916815260200191505b509250505060405180910390fd5b5060008385039050809150509392505050565b600080831415613d3e5760009050613dab565b6000828402905082848281613d4f57fe5b0414613da6576040517f08c379a00000000000000000000000000000000000000000000000000000000081526004018080602001828103825260218152602001806146976021913960400191505060405180910390fd5b809150505b92915050565b6000613df383836040518060400160405280601a81526020017f536166654d6174683a206469766973696f6e206279207a65726f00000000000081525061450f565b905092915050565b600080828401905083811015613e79576040517f08c379a000000000000000000000000000000000000000000000000000000000815260040180806020018281038252601b8152602001807f536166654d6174683a206164646974696f6e206f766572666c6f77000000000081525060200191505060405180910390fd5b8091505092915050565b60008060065411613efc576040517f08c379a000000000000000000000000000000000000000000000000000000000815260040180806020018281038252600d8152602001807f696e7469616c697a65203173740000000000000000000000000000000000000081525060200191505060405180910390fd5b600073ffffffffffffffffffffffffffffffffffffffff168373ffffffffffffffffffffffffffffffffffffffff161415613f4b57737a250d5630b4cf539739df2c5dacb4c659f2488d613f4d565b825b601060006101000a81548173ffffffffffffffffffffffffffffffffffffffff021916908373ffffffffffffffffffffffffffffffffffffffff160217905550600073ffffffffffffffffffffffffffffffffffffffff168273ffffffffffffffffffffffffffffffffffffffff161415613fdc57735c69bee701ef814a2b6a3edd4b1652cb9cc5aa6f613fde565b815b601160006101000a81548173ffffffffffffffffffffffffffffffffffffffff021916908373ffffffffffffffffffffffffffffffffffffffff160217905550600073ffffffffffffffffffffffffffffffffffffffff16600d60009054906101000a900473ffffffffffffffffffffffffffffffffffffffff1673ffffffffffffffffffffffffffffffffffffffff16146140e2576040517f08c379a000000000000000000000000000000000000000000000000000000000815260040180806020018281038252601b8152602001807f546f6b656e3a20706f6f6c20616c72656164792063726561746564000000000081525060200191505060405180910390fd5b601160009054906101000a900473ffffffffffffffffffffffffffffffffffffffff1673ffffffffffffffffffffffffffffffffffffffff1663c9c65396601060009054906101000a900473ffffffffffffffffffffffffffffffffffffffff1673ffffffffffffffffffffffffffffffffffffffff1663ad5c46486040518163ffffffff1660e01b815260040160206040518083038186803b15801561418857600080fd5b505afa15801561419c573d6000803e3d6000fd5b505050506040513d60208110156141b257600080fd5b8101908080519060200190929190505050306040518363ffffffff1660e01b8152600401808373ffffffffffffffffffffffffffffffffffffffff1673ffffffffffffffffffffffffffffffffffffffff1681526020018273ffffffffffffffffffffffffffffffffffffffff1673ffffffffffffffffffffffffffffffffffffffff16815260200192505050602060405180830381600087803b15801561425957600080fd5b505af115801561426d573d6000803e3d6000fd5b505050506040513d602081101561428357600080fd5b8101908080519060200190929190505050600d60006101000a81548173ffffffffffffffffffffffffffffffffffffffff021916908373ffffffffffffffffffffffffffffffffffffffff160217905550600d60009054906101000a900473ffffffffffffffffffffffffffffffffffffffff16905092915050565b600061434183836040518060400160405280601e81526020017f536166654d6174683a207375627472616374696f6e206f766572666c6f770000815250613c6b565b905092915050565b600073ffffffffffffffffffffffffffffffffffffffff168273ffffffffffffffffffffffffffffffffffffffff1614156143cf576040517f08c379a00000000000000000000000000000000000000000000000000000000081526004018080602001828103825260218152602001806147026021913960400191505060405180910390fd5b6143db826000836145d5565b614447816040518060600160405280602281526020016145fe60229139600460008673ffffffffffffffffffffffffffffffffffffffff1673ffffffffffffffffffffffffffffffffffffffff16815260200190815260200160002054613c6b9092919063ffffffff16565b600460008473ffffffffffffffffffffffffffffffffffffffff1673ffffffffffffffffffffffffffffffffffffffff1681526020019081526020016000208190555061449f816000546142ff90919063ffffffff16565b600081905550600073ffffffffffffffffffffffffffffffffffffffff168273ffffffffffffffffffffffffffffffffffffffff167fddf252ad1be2c89b69c2b068fc378daa952ba7f163c4a11628f55a4df523b3ef836040518082815260200191505060405180910390a35050565b600080831182906145bb576040517f08c379a00000000000000000000000000000000000000000000000000000000081526004018080602001828103825283818151815260200191508051906020019080838360005b83811015614580578082015181840152602081019050614565565b50505050905090810190601f1680156145ad5780820380516001836020036101000a031916815260200191505b509250505060405180910390fd5b5060008385816145c757fe5b049050809150509392505050565b50505056fe45524332303a207472616e7366657220746f20746865207a65726f206164647265737345524332303a206275726e20616d6f756e7420657863656564732062616c616e636545524332303a20617070726f766520746f20746865207a65726f206164647265737345524332303a207472616e7366657220616d6f756e7420657863656564732062616c616e63654c69717569646974792067656e65726174696f6e20677261636520706572696f64207374696c6c206f6e676f696e67536166654d6174683a206d756c7469706c69636174696f6e206f766572666c6f7745524332303a207472616e7366657220616d6f756e74206578636565647320616c6c6f77616e63656d617820323545544820636f6e747269627574696f6e20706572206164647265737345524332303a206275726e2066726f6d20746865207a65726f206164647265737345524332303a207472616e736665722066726f6d20746865207a65726f20616464726573735772617070657220546f6b656e20616e64205661756c74206e6f7420536574757045524332303a20617070726f76652066726f6d20746865207a65726f206164647265737345524332303a2064656372656173656420616c6c6f77616e63652062656c6f77207a65726fa264697066735822122091af575dc76c720f8f1397887de090e858cbc6338d1dac41dda3422e8df2ec5064736f6c634300060600334920616772656520746861742074686520646576656c6f7065727320616e6420616666696c69617465642070617274696573206f662074686520556e69436f7265207465616d20617265206e6f7420726573706f6e7369626c6520666f72206d792066756e6473",
  "immutableReferences": {},
  "source": "// SPDX-License-Identifier: WHO GIVES A FUCK ANYWAY??\n\npragma solidity >=0.6.0;\n\nimport \"./UniCore_Libraries.sol\";\nimport \"./UniCore_Interfaces.sol\";\n\ncontract UniCore_Token_v5 is Context, IERC20 {\n    using SafeMath for uint256;\n    using Address for address;\n\n    event LiquidityAddition(address indexed dst, uint value);\n    event LPTokenClaimed(address dst, uint value);\n\n    //ERC20\n    uint256 private _totalSupply;\n    string private _name;\n    string private _symbol;\n    uint8 private _decimals;\n    uint256 public constant initialSupply = 1000*1e18; // 1k\n    \n    mapping(address => uint256) private _balances;\n    mapping(address => mapping(address => uint256)) private _allowances;\n    \n    //timeStamps\n    uint256 public contractInitialized;\n    uint256 public contractStart_Timestamp;\n    uint256 public LGECompleted_Timestamp;\n    uint256 public constant contributionPhase = 3600; //3 days;\n    uint256 public constant stackingPhase = 3600;//2 hours;\n    uint256 public constant emergencyPeriod = 3600;//4 days;\n    \n    //Tokenomics\n    uint256 public totalLPTokensMinted;\n    uint256 public totalETHContributed;\n    uint256 public LPperETHUnit;\n    mapping (address => uint)  public ethContributed;\n    uint256 public constant individualCap = 1e17; //25*1e18;\n    uint256 public constant totalCap = 3*1e17; //500*1e18;\n    \n    \n    //Ecosystem\n    address public UniswapPair;\n    address public wUNIv2;\n    address public Vault;\n    IUniswapV2Router02 public uniswapRouterV2;\n    IUniswapV2Factory public uniswapFactory;\n    \n//=========================================================================================================================================\n\n   constructor() public {\n        _name = \"UniCore\";\n        _symbol = \"UNICORE\";\n        _decimals = 18;\n        _mint(address(this), initialSupply); //tokens minted to the token contract.\n        \n        governanceLevels[msg.sender] = 2;\n    }\n    \n    function initialSetup() public governanceLevel(2) {\n        contractInitialized = block.timestamp;\n        setBuySellFees(5, 11); //0.5% on buy, 1.1% on sell\n        \n        POOL_CreateUniswapPair(0x7a250d5630B4cF539739dF2C5dAcb4c659F2488D, 0x5C69bEe701ef814a2B6a3EDD4B1652CB9cc5aA6f);\n        //0x7a250d5630B4cF539739dF2C5dAcb4c659F2488D = UniswapV2Router02\n        //0x5C69bEe701ef814a2B6a3EDD4B1652CB9cc5aA6f = UniswapV2Factory\n    }\n    \n    //Pool UniSwap pair creation method (called by  initialSetup() )\n    function POOL_CreateUniswapPair(address router, address factory) internal returns (address) {\n        require(contractInitialized > 0, \"intialize 1st\");\n        \n        uniswapRouterV2 = IUniswapV2Router02(router != address(0) ? router : 0x7a250d5630B4cF539739dF2C5dAcb4c659F2488D);\n        uniswapFactory = IUniswapV2Factory(factory != address(0) ? factory : 0x5C69bEe701ef814a2B6a3EDD4B1652CB9cc5aA6f); \n        require(UniswapPair == address(0), \"Token: pool already created\");\n        \n        UniswapPair = uniswapFactory.createPair(address(uniswapRouterV2.WETH()),address(this));\n        \n        return UniswapPair;\n    }\n    \n    /* Once initialSetup has been invoked\n    * Team will create the Vault and the LP wrapper token\n    *  \n    * Only AFTER these 2 addresses have been created the users\n    * can start contributing in ETH\n    */\n    function secondarySetup(address _Vault, address _wUNIv2) public governanceLevel(2) {\n        require(contractInitialized > 0);\n        Vault = _Vault;\n        wUNIv2 = _wUNIv2;\n        \n        require(Vault != address(0) && wUNIv2 != address(0), \"Wrapper Token and Vault not Setup\");\n        contractStart_Timestamp = block.timestamp;\n    }\n    \n\n//=========================================================================================================================================\n    /* Liquidity generation logic\n    * Steps - All tokens that will ever exist go to this contract\n    *  \n    * This contract accepts ETH as payable\n    * ETH is mapped to people\n    *    \n    * When liquidity generation event is over \n    * everyone can call the mint LP function.\n    *    \n    * which will put all the ETH and tokens inside the uniswap contract\n    * without any involvement\n    *    \n    * This LP will go into this contract\n    * And will be able to proportionally be withdrawn based on ETH put in\n    *\n    * emergency drain function allows the contract owner to drain all ETH and tokens from this contract\n    * After the liquidity generation event happened. In case something goes wrong, to send ETH back\n    */\n\n    string public liquidityGenerationParticipationAgreement = \"I agree that the developers and affiliated parties of the UniCore team are not responsible for my funds\";\n\n    \n    /* @dev List of modifiers used to differentiate the project phases\n     *      ETH_ContributionPhase lets users send ETH to the token contract\n     *      LGP_possible triggers after the contributionPhase duration\n     *      Trading_Possible: this modifiers prevent Unicore _transfer right\n     *      after the LGE. It gives time for contributors to stake their \n     *      tokens before fees are generated.\n     */\n    \n    modifier ETH_ContributionPhase() {\n        require(contractStart_Timestamp > 0);\n        require(block.timestamp <= contractStart_Timestamp.add(contributionPhase));\n        _;\n    }\n    \n    modifier LGE_Possible() {\n        require(contractStart_Timestamp > 0);\n        require(block.timestamp > contractStart_Timestamp.add(contributionPhase));\n       _; \n    }\n    \n    modifier LGE_happened() {\n        require(LGECompleted_Timestamp > 0);\n        require(block.timestamp > LGECompleted_Timestamp);\n        _;\n    }\n    modifier Trading_Possible() {\n         require(LGECompleted_Timestamp > 0);\n         require(block.timestamp > LGECompleted_Timestamp.add(stackingPhase));\n        _;\n    }\n    \n\n//=========================================================================================================================================\n  \n    // Emergency drain in case of a bug\n    function emergencyDrain24hAfterLiquidityGenerationEventIsDone() public governanceLevel(2) {\n        require(contractStart_Timestamp > 0);\n        require(contractStart_Timestamp.add(emergencyPeriod) < block.timestamp, \"Liquidity generation grace period still ongoing\"); // About 24h after liquidity generation happens\n        \n        (bool success, ) = msg.sender.call{value:(address(this).balance)}(\"\");\n        require(success, \"Transfer failed.\");\n       \n        _balances[msg.sender] = _balances[address(this)];\n        _balances[address(this)] = 0;\n    }\n\n//During ETH_ContributionPhase: Users deposit funds\n\n    //funds sent to TOKEN contract.\n    function USER_PledgeLiquidity(bool agreesToTermsOutlinedInLiquidityGenerationParticipationAgreement) public payable ETH_ContributionPhase {\n        require(ethContributed[msg.sender].add(msg.value) <= individualCap, \"max 25ETH contribution per address\");\n        require(totalETHContributed.add(msg.value) <= totalCap, \"500 ETH Hard cap\"); \n        \n        require(agreesToTermsOutlinedInLiquidityGenerationParticipationAgreement, \"No agreement provided\");\n        \n        ethContributed[msg.sender] = ethContributed[msg.sender].add(msg.value);\n        totalETHContributed = totalETHContributed.add(msg.value); // for front end display during LGE\n        emit LiquidityAddition(msg.sender, msg.value);\n    }\n    \n    function USER_UNPledgeLiquidity() public ETH_ContributionPhase {\n        uint256 _amount = ethContributed[msg.sender];\n        ethContributed[msg.sender] = 0;\n        transfer(msg.sender, _amount);\n        totalETHContributed = totalETHContributed.sub(_amount);\n    }\n\n\n// After ETH_ContributionPhase: Pool can create liquidity.\n// Vault and wrapped UNIv2 contracts need to be setup in advance.\n\n    function POOL_CreateLiquidity() public LGE_Possible {\n\n        totalETHContributed = address(this).balance;\n        IUniswapV2Pair pair = IUniswapV2Pair(UniswapPair);\n        \n        //Wrap eth\n        address WETH = uniswapRouterV2.WETH();\n        \n        //Send to UniSwap\n        IWETH(WETH).deposit{value : totalETHContributed}();\n        require(address(this).balance == 0 , \"Transfer Failed\");\n        IWETH(WETH).transfer(address(pair),totalETHContributed);\n        \n        emit Transfer(address(this), address(pair), _balances[address(this)]);\n        \n        //UniCore balances transfer\n        _balances[address(pair)] = _balances[address(this)];\n        _balances[address(this)] = 0;\n        pair.mint(address(this));       //mint LP tokens. lock method in UniSwapPairV2 PREVENTS FROM DOING IT TWICE\n        \n        totalLPTokensMinted = pair.balanceOf(address(this));\n        \n        require(totalLPTokensMinted != 0 , \"LP creation failed\");\n        LPperETHUnit = totalLPTokensMinted.mul(1e18).div(totalETHContributed); // 1e18x for  change\n        require(LPperETHUnit != 0 , \"LP creation failed\");\n        \n        LGECompleted_Timestamp = block.timestamp;\n    }\n    \n \n//After ETH_ContributionPhase: Pool can create liquidity.\n    function USER_ClaimWrappedLiquidity() public LGE_happened {\n        require(ethContributed[msg.sender] > 0 , \"Nothing to claim, move along\");\n        \n        uint256 amountLPToTransfer = ethContributed[msg.sender].mul(LPperETHUnit).div(1e18);\n        IwUNIv2(wUNIv2).wTransfer(msg.sender, amountLPToTransfer); // stored as 1e18x value for change\n        ethContributed[msg.sender] = 0;\n        \n        emit LPTokenClaimed(msg.sender, amountLPToTransfer);\n    }\n\n\n//=========================================================================================================================================\n    //overriden _transfer to take Fees\n    function _transfer(address sender, address recipient, uint256 amount) internal virtual Trading_Possible {\n        \n        require(sender != address(0), \"ERC20: transfer from the zero address\");\n        require(recipient != address(0), \"ERC20: transfer to the zero address\");\n    \n        //updates _balances\n        _balances[sender] = _balances[sender].sub(amount, \"ERC20: transfer amount exceeds balance\");\n\n        //calculate net amounts and fee\n        (uint256 toAmount, uint256 toFee) = calculateAmountAndFee(sender, amount);\n        \n        //Send Reward to Vault 1st\n        if(toFee > 0 && Vault != address(0)){\n            _balances[Vault] = _balances[Vault].add(toFee);\n            IVault(Vault).updateRewards(); //updating the vault with rewards sent.\n            emit Transfer(sender, Vault, toFee);\n        }\n        //transfer to recipient\n        _balances[recipient] = _balances[recipient].add(toAmount);\n        emit Transfer(sender, recipient, toAmount);\n\n        //checks if LPWithdrawal happened, throw if inconsistency between the UNIv2 tokens balance.\n        \n    }\n    \n    \n//=========================================================================================================================================\n// ERC20\n\n    function name() public view returns (string memory) {\n        return _name;\n    }\n    \n    function symbol() public view returns (string memory) {\n        return _symbol;\n    }\n\n    function decimals() public view returns (uint8) {\n        return _decimals;\n    }\n\n    function totalSupply() public override view returns (uint256) {\n        return _totalSupply;\n    }\n\n    function balanceOf(address _owner) public override view returns (uint256) {\n        return _balances[_owner];\n    }\n    \n    function transfer(address recipient, uint256 amount) public virtual override returns (bool) {\n        _transfer(_msgSender(), recipient, amount);\n        return true;\n    }\n    \n    function allowance(address owner, address spender) public virtual  override view returns (uint256) {\n        return _allowances[owner][spender];\n    }\n    \n    function approve(address spender, uint256 amount) public virtual override  returns (bool) {\n        _approve(_msgSender(), spender, amount);\n        return true;\n    }\n    \n    function transferFrom( address sender, address recipient, uint256 amount) public virtual override returns (bool) {\n        _transfer(sender, recipient, amount);\n        _approve( sender, _msgSender(),  _allowances[sender][_msgSender()].sub(amount, \"ERC20: transfer amount exceeds allowance\"));\n        return true;\n    }\n    \n    function increaseAllowance(address spender, uint256 addedValue) public virtual returns (bool){\n        _approve(\n            _msgSender(),\n            spender,\n            _allowances[_msgSender()][spender].add(addedValue)\n        );\n        return true;\n    }\n    \n    function decreaseAllowance(address spender, uint256 subtractedValue) public virtual returns (bool) {\n        _approve(\n            _msgSender(),\n            spender,\n            _allowances[_msgSender()][spender].sub(\n                subtractedValue,\n                \"ERC20: decreased allowance below zero\"\n            )\n        );\n        return true;\n    }\n\n    function _mint(address account, uint256 amount) internal virtual {\n        require(account != address(0), \"ERC20: mint to the zero address\");\n\n        _beforeTokenTransfer(address(0), account, amount);\n\n        _totalSupply = _totalSupply.add(amount);\n        _balances[account] = _balances[account].add(amount);\n        emit Transfer(address(0), account, amount);\n    }\n    \n    function _burn(address account, uint256 amount) internal virtual {\n        require(account != address(0), \"ERC20: burn from the zero address\");\n\n        _beforeTokenTransfer(account, address(0), amount);\n\n        _balances[account] = _balances[account].sub(\n            amount,\n            \"ERC20: burn amount exceeds balance\"\n        );\n        _totalSupply = _totalSupply.sub(amount);\n        emit Transfer(account, address(0), amount);\n    }\n    \n    function _approve(address owner, address spender, uint256 amount) internal virtual {\n        require(owner != address(0), \"ERC20: approve from the zero address\");\n        require(spender != address(0), \"ERC20: approve to the zero address\");\n\n        _allowances[owner][spender] = amount;\n        emit Approval(owner, spender, amount);\n    }\n    \n    function _beforeTokenTransfer(address from, address to, uint256 amount) internal virtual{}\n\n\n//=========================================================================================================================================\n//FEE_APPROVER (now included into the token)\n\n    mapping (address => bool) public noFeeList;\n    \n    function calculateAmountAndFee(address sender, uint256 amount) public view returns (uint256 netAmount, uint256 fee){\n\n        if(noFeeList[sender]) { fee = 0;} // Don't have a fee when Vault is sending, or infinite loop\n        else if(sender == UniswapPair){ fee = amount.mul(buyFee).div(1000);}\n        else { fee = amount.mul(sellFee).div(1000);}\n        \n        netAmount = amount.sub(fee);\n    }\n    \n//=========================================================================================================================================\n//Governance\n    /**\n     * @dev multi tiered governance logic\n     * \n     * 0: plebs\n     * 1: voting contracts (setup later in DAO)\n     * 2: governors\n     * \n    */\n    mapping(address => uint8) public governanceLevels;\n    \n    modifier governanceLevel(uint8 _level){\n        require(governanceLevels[msg.sender] >= _level, \"Grow some mustache kiddo...\");\n        _;\n    }\n    function setGovernanceLevel(address _address, uint8 _level) public governanceLevel(_level) {\n        governanceLevels[_address] = _level;\n    }\n    \n    function viewGovernanceLevel(address _address) public view returns(uint8) {\n        return governanceLevels[_address];\n    }\n\n//== Governable Functions\n    \n    //External variables\n        function setUniswapPair(address _UniswapPair) public governanceLevel(2) {\n            UniswapPair = _UniswapPair;\n        }\n        \n        function setVault(address _Vault) public governanceLevel(2) {\n            Vault = _Vault;\n        }\n       \n        //burns tokens from the contract (holding them)\n        function burnToken(uint256 amount) public governanceLevel(1) {\n            _burn(address(this), amount);\n        }\n    \n    //Fees\n        uint256 public buyFee; uint256 public sellFee;\n        function setBuySellFees(uint256 _buyFee, uint256 _sellFee) public governanceLevel(1) {\n            buyFee = _buyFee;  //base 1000 -> 1 = 0.1%\n            sellFee = _sellFee;\n        }\n        \n        function setNoFeeList(address _address, bool _bool) public governanceLevel(1) {\n          noFeeList[_address] =  _bool;\n        }\n    \n//==Getters \n\n        function viewUNIv2() public view returns(address){\n            return UniswapPair;\n        }\n        function viewwWrappedUNIv2() public view returns(address){\n            return wUNIv2;\n        }\n        function viewVault() public view returns(address){\n            return Vault;\n        }\n\n}\n\n",
  "sourcePath": "/Users/noahcoomer/source/unicore-vault/unicore-vault-contracts/contracts/UniCore_v5.sol",
  "compiler": {
    "name": "solc",
    "version": "0.6.6+commit.6c089d02.Emscripten.clang"
  },
  "schemaVersion": "3.3.0",
  "updatedAt": "2020-10-15T09:38:36.985Z",
  "devdoc": {
    "methods": {}
  },
  "userdoc": {
    "methods": {}
  }
}