{
  "contractName": "UniCore_Token",
  "abi": [
    {
      "inputs": [],
      "stateMutability": "nonpayable",
      "type": "constructor"
    },
    {
      "anonymous": false,
      "inputs": [
        {
          "indexed": true,
          "internalType": "address",
          "name": "owner",
          "type": "address"
        },
        {
          "indexed": true,
          "internalType": "address",
          "name": "spender",
          "type": "address"
        },
        {
          "indexed": false,
          "internalType": "uint256",
          "name": "value",
          "type": "uint256"
        }
      ],
      "name": "Approval",
      "type": "event"
    },
    {
      "anonymous": false,
      "inputs": [
        {
          "indexed": false,
          "internalType": "address",
          "name": "dst",
          "type": "address"
        },
        {
          "indexed": false,
          "internalType": "uint256",
          "name": "value",
          "type": "uint256"
        }
      ],
      "name": "LPTokenClaimed",
      "type": "event"
    },
    {
      "anonymous": false,
      "inputs": [
        {
          "indexed": true,
          "internalType": "address",
          "name": "dst",
          "type": "address"
        },
        {
          "indexed": false,
          "internalType": "uint256",
          "name": "value",
          "type": "uint256"
        }
      ],
      "name": "LiquidityAddition",
      "type": "event"
    },
    {
      "anonymous": false,
      "inputs": [
        {
          "indexed": false,
          "internalType": "string",
          "name": "log",
          "type": "string"
        }
      ],
      "name": "Log",
      "type": "event"
    },
    {
      "anonymous": false,
      "inputs": [
        {
          "indexed": true,
          "internalType": "address",
          "name": "from",
          "type": "address"
        },
        {
          "indexed": true,
          "internalType": "address",
          "name": "to",
          "type": "address"
        },
        {
          "indexed": false,
          "internalType": "uint256",
          "name": "value",
          "type": "uint256"
        }
      ],
      "name": "Transfer",
      "type": "event"
    },
    {
      "inputs": [],
      "name": "LGECompleted_Timestamp",
      "outputs": [
        {
          "internalType": "uint256",
          "name": "",
          "type": "uint256"
        }
      ],
      "stateMutability": "view",
      "type": "function"
    },
    {
      "inputs": [],
      "name": "LPperETHUnit",
      "outputs": [
        {
          "internalType": "uint256",
          "name": "",
          "type": "uint256"
        }
      ],
      "stateMutability": "view",
      "type": "function"
    },
    {
      "inputs": [],
      "name": "UniswapPair",
      "outputs": [
        {
          "internalType": "address",
          "name": "",
          "type": "address"
        }
      ],
      "stateMutability": "view",
      "type": "function"
    },
    {
      "inputs": [],
      "name": "Vault",
      "outputs": [
        {
          "internalType": "address",
          "name": "",
          "type": "address"
        }
      ],
      "stateMutability": "view",
      "type": "function"
    },
    {
      "inputs": [
        {
          "internalType": "address",
          "name": "owner",
          "type": "address"
        },
        {
          "internalType": "address",
          "name": "spender",
          "type": "address"
        }
      ],
      "name": "allowance",
      "outputs": [
        {
          "internalType": "uint256",
          "name": "",
          "type": "uint256"
        }
      ],
      "stateMutability": "view",
      "type": "function"
    },
    {
      "inputs": [
        {
          "internalType": "address",
          "name": "spender",
          "type": "address"
        },
        {
          "internalType": "uint256",
          "name": "amount",
          "type": "uint256"
        }
      ],
      "name": "approve",
      "outputs": [
        {
          "internalType": "bool",
          "name": "",
          "type": "bool"
        }
      ],
      "stateMutability": "nonpayable",
      "type": "function"
    },
    {
      "inputs": [
        {
          "internalType": "address",
          "name": "account",
          "type": "address"
        }
      ],
      "name": "balanceOf",
      "outputs": [
        {
          "internalType": "uint256",
          "name": "",
          "type": "uint256"
        }
      ],
      "stateMutability": "view",
      "type": "function"
    },
    {
      "inputs": [],
      "name": "buyFee",
      "outputs": [
        {
          "internalType": "uint256",
          "name": "",
          "type": "uint256"
        }
      ],
      "stateMutability": "view",
      "type": "function"
    },
    {
      "inputs": [],
      "name": "contractInitialized",
      "outputs": [
        {
          "internalType": "uint256",
          "name": "",
          "type": "uint256"
        }
      ],
      "stateMutability": "view",
      "type": "function"
    },
    {
      "inputs": [],
      "name": "contractStart_Timestamp",
      "outputs": [
        {
          "internalType": "uint256",
          "name": "",
          "type": "uint256"
        }
      ],
      "stateMutability": "view",
      "type": "function"
    },
    {
      "inputs": [],
      "name": "contributionPhase",
      "outputs": [
        {
          "internalType": "uint256",
          "name": "",
          "type": "uint256"
        }
      ],
      "stateMutability": "view",
      "type": "function"
    },
    {
      "inputs": [],
      "name": "decimals",
      "outputs": [
        {
          "internalType": "uint8",
          "name": "",
          "type": "uint8"
        }
      ],
      "stateMutability": "view",
      "type": "function"
    },
    {
      "inputs": [
        {
          "internalType": "address",
          "name": "spender",
          "type": "address"
        },
        {
          "internalType": "uint256",
          "name": "subtractedValue",
          "type": "uint256"
        }
      ],
      "name": "decreaseAllowance",
      "outputs": [
        {
          "internalType": "bool",
          "name": "",
          "type": "bool"
        }
      ],
      "stateMutability": "nonpayable",
      "type": "function"
    },
    {
      "inputs": [],
      "name": "emergencyPeriod",
      "outputs": [
        {
          "internalType": "uint256",
          "name": "",
          "type": "uint256"
        }
      ],
      "stateMutability": "view",
      "type": "function"
    },
    {
      "inputs": [
        {
          "internalType": "address",
          "name": "",
          "type": "address"
        }
      ],
      "name": "ethContributed",
      "outputs": [
        {
          "internalType": "uint256",
          "name": "",
          "type": "uint256"
        }
      ],
      "stateMutability": "view",
      "type": "function"
    },
    {
      "inputs": [
        {
          "internalType": "address",
          "name": "",
          "type": "address"
        }
      ],
      "name": "governanceLevels",
      "outputs": [
        {
          "internalType": "uint8",
          "name": "",
          "type": "uint8"
        }
      ],
      "stateMutability": "view",
      "type": "function"
    },
    {
      "inputs": [
        {
          "internalType": "address",
          "name": "spender",
          "type": "address"
        },
        {
          "internalType": "uint256",
          "name": "addedValue",
          "type": "uint256"
        }
      ],
      "name": "increaseAllowance",
      "outputs": [
        {
          "internalType": "bool",
          "name": "",
          "type": "bool"
        }
      ],
      "stateMutability": "nonpayable",
      "type": "function"
    },
    {
      "inputs": [],
      "name": "individualCap",
      "outputs": [
        {
          "internalType": "uint256",
          "name": "",
          "type": "uint256"
        }
      ],
      "stateMutability": "view",
      "type": "function"
    },
    {
      "inputs": [],
      "name": "initialSupply",
      "outputs": [
        {
          "internalType": "uint256",
          "name": "",
          "type": "uint256"
        }
      ],
      "stateMutability": "view",
      "type": "function"
    },
    {
      "inputs": [],
      "name": "liquidityGenerationParticipationAgreement",
      "outputs": [
        {
          "internalType": "string",
          "name": "",
          "type": "string"
        }
      ],
      "stateMutability": "view",
      "type": "function"
    },
    {
      "inputs": [],
      "name": "name",
      "outputs": [
        {
          "internalType": "string",
          "name": "",
          "type": "string"
        }
      ],
      "stateMutability": "view",
      "type": "function"
    },
    {
      "inputs": [
        {
          "internalType": "address",
          "name": "",
          "type": "address"
        }
      ],
      "name": "noFeeList",
      "outputs": [
        {
          "internalType": "bool",
          "name": "",
          "type": "bool"
        }
      ],
      "stateMutability": "view",
      "type": "function"
    },
    {
      "inputs": [],
      "name": "sellFee",
      "outputs": [
        {
          "internalType": "uint256",
          "name": "",
          "type": "uint256"
        }
      ],
      "stateMutability": "view",
      "type": "function"
    },
    {
      "inputs": [],
      "name": "stackingPhase",
      "outputs": [
        {
          "internalType": "uint256",
          "name": "",
          "type": "uint256"
        }
      ],
      "stateMutability": "view",
      "type": "function"
    },
    {
      "inputs": [],
      "name": "symbol",
      "outputs": [
        {
          "internalType": "string",
          "name": "",
          "type": "string"
        }
      ],
      "stateMutability": "view",
      "type": "function"
    },
    {
      "inputs": [],
      "name": "totalCap",
      "outputs": [
        {
          "internalType": "uint256",
          "name": "",
          "type": "uint256"
        }
      ],
      "stateMutability": "view",
      "type": "function"
    },
    {
      "inputs": [],
      "name": "totalETHContributed",
      "outputs": [
        {
          "internalType": "uint256",
          "name": "",
          "type": "uint256"
        }
      ],
      "stateMutability": "view",
      "type": "function"
    },
    {
      "inputs": [],
      "name": "totalLPTokensMinted",
      "outputs": [
        {
          "internalType": "uint256",
          "name": "",
          "type": "uint256"
        }
      ],
      "stateMutability": "view",
      "type": "function"
    },
    {
      "inputs": [],
      "name": "totalSupply",
      "outputs": [
        {
          "internalType": "uint256",
          "name": "",
          "type": "uint256"
        }
      ],
      "stateMutability": "view",
      "type": "function"
    },
    {
      "inputs": [
        {
          "internalType": "address",
          "name": "recipient",
          "type": "address"
        },
        {
          "internalType": "uint256",
          "name": "amount",
          "type": "uint256"
        }
      ],
      "name": "transfer",
      "outputs": [
        {
          "internalType": "bool",
          "name": "",
          "type": "bool"
        }
      ],
      "stateMutability": "nonpayable",
      "type": "function"
    },
    {
      "inputs": [
        {
          "internalType": "address",
          "name": "sender",
          "type": "address"
        },
        {
          "internalType": "address",
          "name": "recipient",
          "type": "address"
        },
        {
          "internalType": "uint256",
          "name": "amount",
          "type": "uint256"
        }
      ],
      "name": "transferFrom",
      "outputs": [
        {
          "internalType": "bool",
          "name": "",
          "type": "bool"
        }
      ],
      "stateMutability": "nonpayable",
      "type": "function"
    },
    {
      "inputs": [],
      "name": "uniswapFactory",
      "outputs": [
        {
          "internalType": "contract IUniswapV2Factory",
          "name": "",
          "type": "address"
        }
      ],
      "stateMutability": "view",
      "type": "function"
    },
    {
      "inputs": [],
      "name": "uniswapRouterV2",
      "outputs": [
        {
          "internalType": "contract IUniswapV2Router02",
          "name": "",
          "type": "address"
        }
      ],
      "stateMutability": "view",
      "type": "function"
    },
    {
      "inputs": [],
      "name": "wUNIv2",
      "outputs": [
        {
          "internalType": "address",
          "name": "",
          "type": "address"
        }
      ],
      "stateMutability": "view",
      "type": "function"
    },
    {
      "inputs": [],
      "name": "initialSetup",
      "outputs": [],
      "stateMutability": "nonpayable",
      "type": "function"
    },
    {
      "inputs": [
        {
          "internalType": "address",
          "name": "_Vault",
          "type": "address"
        },
        {
          "internalType": "address",
          "name": "_wUNIv2",
          "type": "address"
        }
      ],
      "name": "secondarySetup",
      "outputs": [],
      "stateMutability": "nonpayable",
      "type": "function"
    },
    {
      "inputs": [],
      "name": "emergencyDrain24hAfterLiquidityGenerationEventIsDone",
      "outputs": [],
      "stateMutability": "nonpayable",
      "type": "function"
    },
    {
      "inputs": [
        {
          "internalType": "bool",
          "name": "agreesToTermsOutlinedInLiquidityGenerationParticipationAgreement",
          "type": "bool"
        }
      ],
      "name": "USER_PledgeLiquidity",
      "outputs": [],
      "stateMutability": "payable",
      "type": "function"
    },
    {
      "inputs": [],
      "name": "USER_UNPledgeLiquidity",
      "outputs": [],
      "stateMutability": "nonpayable",
      "type": "function"
    },
    {
      "inputs": [],
      "name": "POOL_CreateLiquidity",
      "outputs": [],
      "stateMutability": "nonpayable",
      "type": "function"
    },
    {
      "inputs": [],
      "name": "USER_ClaimWrappedLiquidity",
      "outputs": [],
      "stateMutability": "nonpayable",
      "type": "function"
    },
    {
      "inputs": [
        {
          "internalType": "address",
          "name": "sender",
          "type": "address"
        },
        {
          "internalType": "uint256",
          "name": "amount",
          "type": "uint256"
        }
      ],
      "name": "calculateAmountAndFee",
      "outputs": [
        {
          "internalType": "uint256",
          "name": "netAmount",
          "type": "uint256"
        },
        {
          "internalType": "uint256",
          "name": "fee",
          "type": "uint256"
        }
      ],
      "stateMutability": "view",
      "type": "function"
    },
    {
      "inputs": [
        {
          "internalType": "address",
          "name": "_address",
          "type": "address"
        },
        {
          "internalType": "uint8",
          "name": "_level",
          "type": "uint8"
        }
      ],
      "name": "setGovernanceLevel",
      "outputs": [],
      "stateMutability": "nonpayable",
      "type": "function"
    },
    {
      "inputs": [
        {
          "internalType": "address",
          "name": "_address",
          "type": "address"
        }
      ],
      "name": "viewGovernanceLevel",
      "outputs": [
        {
          "internalType": "uint8",
          "name": "",
          "type": "uint8"
        }
      ],
      "stateMutability": "view",
      "type": "function"
    },
    {
      "inputs": [
        {
          "internalType": "address",
          "name": "_UniswapPair",
          "type": "address"
        }
      ],
      "name": "setUniswapPair",
      "outputs": [],
      "stateMutability": "nonpayable",
      "type": "function"
    },
    {
      "inputs": [
        {
          "internalType": "address",
          "name": "_Vault",
          "type": "address"
        }
      ],
      "name": "setVault",
      "outputs": [],
      "stateMutability": "nonpayable",
      "type": "function"
    },
    {
      "inputs": [
        {
          "internalType": "address",
          "name": "_wrapper",
          "type": "address"
        }
      ],
      "name": "setwUNIv2",
      "outputs": [],
      "stateMutability": "nonpayable",
      "type": "function"
    },
    {
      "inputs": [
        {
          "internalType": "uint256",
          "name": "amount",
          "type": "uint256"
        }
      ],
      "name": "burnToken",
      "outputs": [],
      "stateMutability": "nonpayable",
      "type": "function"
    },
    {
      "inputs": [
        {
          "internalType": "uint256",
          "name": "_buyFee",
          "type": "uint256"
        },
        {
          "internalType": "uint256",
          "name": "_sellFee",
          "type": "uint256"
        }
      ],
      "name": "setBuySellFees",
      "outputs": [],
      "stateMutability": "nonpayable",
      "type": "function"
    },
    {
      "inputs": [
        {
          "internalType": "address",
          "name": "_address",
          "type": "address"
        },
        {
          "internalType": "bool",
          "name": "_bool",
          "type": "bool"
        }
      ],
      "name": "setNoFeeList",
      "outputs": [],
      "stateMutability": "nonpayable",
      "type": "function"
    },
    {
      "inputs": [
        {
          "internalType": "uint256",
          "name": "_ratioBase100",
          "type": "uint256"
        }
      ],
      "name": "setPublicWrappingRatio",
      "outputs": [],
      "stateMutability": "nonpayable",
      "type": "function"
    },
    {
      "inputs": [],
      "name": "viewUNIv2",
      "outputs": [
        {
          "internalType": "address",
          "name": "",
          "type": "address"
        }
      ],
      "stateMutability": "view",
      "type": "function"
    },
    {
      "inputs": [],
      "name": "viewwWrappedUNIv2",
      "outputs": [
        {
          "internalType": "address",
          "name": "",
          "type": "address"
        }
      ],
      "stateMutability": "view",
      "type": "function"
    },
    {
      "inputs": [],
      "name": "viewVault",
      "outputs": [
        {
          "internalType": "address",
          "name": "",
          "type": "address"
        }
      ],
      "stateMutability": "view",
      "type": "function"
    },
    {
      "inputs": [
        {
          "internalType": "uint256",
          "name": "_ratiobase1000",
          "type": "uint256"
        }
      ],
      "name": "setUniBurn",
      "outputs": [],
      "stateMutability": "nonpayable",
      "type": "function"
    },
    {
      "inputs": [],
      "name": "viewUniBurn",
      "outputs": [
        {
          "internalType": "uint256",
          "name": "",
          "type": "uint256"
        }
      ],
      "stateMutability": "view",
      "type": "function"
    },
    {
      "inputs": [],
      "name": "burnFromUni",
      "outputs": [],
      "stateMutability": "nonpayable",
      "type": "function"
    }
  ],
  "bytecode": "0x60806040526040518060a001604052806067815260200162005425606791396016908051906020019062000035929190620003e6565b503480156200004357600080fd5b506040518060400160405280600c81526020017f546573745f556e69636f726500000000000000000000000000000000000000008152506040518060400160405280600981526020017f545f554e49434f524500000000000000000000000000000000000000000000008152508160039080519060200190620000c8929190620003e6565b508060049080519060200190620000e1929190620003e6565b506012600560006101000a81548160ff021916908360ff16021790555050506200011b30683635c9adc5dea000006200017a60201b60201c565b6002601860003373ffffffffffffffffffffffffffffffffffffffff1673ffffffffffffffffffffffffffffffffffffffff16815260200190815260200160002060006101000a81548160ff021916908360ff16021790555062000495565b600073ffffffffffffffffffffffffffffffffffffffff168273ffffffffffffffffffffffffffffffffffffffff1614156200021e576040517f08c379a000000000000000000000000000000000000000000000000000000000815260040180806020018281038252601f8152602001807f45524332303a206d696e7420746f20746865207a65726f20616464726573730081525060200191505060405180910390fd5b62000232600083836200035860201b60201c565b6200024e816002546200035d60201b620042871790919060201c565b600281905550620002ac816000808573ffffffffffffffffffffffffffffffffffffffff1673ffffffffffffffffffffffffffffffffffffffff168152602001908152602001600020546200035d60201b620042871790919060201c565b6000808473ffffffffffffffffffffffffffffffffffffffff1673ffffffffffffffffffffffffffffffffffffffff168152602001908152602001600020819055508173ffffffffffffffffffffffffffffffffffffffff16600073ffffffffffffffffffffffffffffffffffffffff167fddf252ad1be2c89b69c2b068fc378daa952ba7f163c4a11628f55a4df523b3ef836040518082815260200191505060405180910390a35050565b505050565b600080828401905083811015620003dc576040517f08c379a000000000000000000000000000000000000000000000000000000000815260040180806020018281038252601b8152602001807f536166654d6174683a206164646974696f6e206f766572666c6f77000000000081525060200191505060405180910390fd5b8091505092915050565b828054600181600116156101000203166002900490600052602060002090601f016020900481019282601f106200042957805160ff19168380011785556200045a565b828001600101855582156200045a579182015b82811115620004595782518255916020019190600101906200043c565b5b5090506200046991906200046d565b5090565b6200049291905b808211156200048e57600081600090555060010162000474565b5090565b90565b614f8080620004a56000396000f3fe6080604052600436106103745760003560e01c80635ef17012116101d1578063a19b083711610102578063c25cc8af116100a0578063dd912c411161006f578063dd912c41146112d6578063de5099cc14611333578063e65295a714611378578063f96f5b351461138f57610374565b8063c25cc8af1461116a578063d5aed6bf146111d5578063db1a190314611226578063dd62ed3e1461125157610374565b8063a9059cbb116100dc578063a9059cbb14611099578063b71228681461110c578063b8752e7014611123578063b88c712e1461113a57610374565b8063a19b083714610f78578063a2b0a66e14610fcf578063a457c2d71461102657610374565b80637b47ec1a1161016f5780638bdb2afa116101495780638bdb2afa14610dc65780638e8e292514610e1d57806395d89b4114610ead57806397a40a8314610f3d57610374565b80637b47ec1a14610ccb578063803486e714610d065780638aa1ff7014610d5d57610374565b80636817031b116101ab5780636817031b14610b6757806370a0823114610bb8578063713a83e514610c1d57806378a63f3414610c7457610374565b80635ef1701214610a9b578063623d20f614610b11578063639d7e8614610b3c57610374565b80632e7fae31116102ab5780633950935111610249578063470624021161022357806347062402146109c75780634f1a0f7d146109f25780635784cacc14610a09578063596fa9e314610a4457610374565b806339509351146109125780634051b38414610985578063418c3f7a1461099c57610374565b8063337a87c611610285578063337a87c614610820578063343a6ea5146108915780633528f4d7146108bc578063378dc3dc146108e757610374565b80632e7fae3114610766578063313ce567146107c457806331a22a20146107f557610374565b8063164500921161031857806323b872dd116102f257806323b872dd1461063a5780632b14ca56146106cd5780632d2c44f2146106f85780632da9181c1461074f57610374565b806316450092146105b957806318160ddd146105e4578063233994341461060f57610374565b8063029496b511610354578063029496b5146103fa57806306fdde031461044b578063095ea7b3146104db578063129145951461054e57610374565b80622b132914610379578062b34747146103a45780630276650b146103cf575b600080fd5b34801561038557600080fd5b5061038e6113f4565b6040518082815260200191505060405180910390f35b3480156103b057600080fd5b506103b96113fa565b6040518082815260200191505060405180910390f35b3480156103db57600080fd5b506103e4611400565b6040518082815260200191505060405180910390f35b34801561040657600080fd5b506104496004803603602081101561041d57600080fd5b81019080803573ffffffffffffffffffffffffffffffffffffffff16906020019092919050505061140c565b005b34801561045757600080fd5b50610460611573565b6040518080602001828103825283818151815260200191508051906020019080838360005b838110156104a0578082015181840152602081019050610485565b50505050905090810190601f1680156104cd5780820380516001836020036101000a031916815260200191505b509250505060405180910390f35b3480156104e757600080fd5b50610534600480360360408110156104fe57600080fd5b81019080803573ffffffffffffffffffffffffffffffffffffffff16906020019092919080359060200190929190505050611615565b604051808215151515815260200191505060405180910390f35b34801561055a57600080fd5b5061059d6004803603602081101561057157600080fd5b81019080803573ffffffffffffffffffffffffffffffffffffffff169060200190929190505050611633565b604051808260ff1660ff16815260200191505060405180910390f35b3480156105c557600080fd5b506105ce611653565b6040518082815260200191505060405180910390f35b3480156105f057600080fd5b506105f961165f565b6040518082815260200191505060405180910390f35b34801561061b57600080fd5b50610624611669565b6040518082815260200191505060405180910390f35b34801561064657600080fd5b506106b36004803603606081101561065d57600080fd5b81019080803573ffffffffffffffffffffffffffffffffffffffff169060200190929190803573ffffffffffffffffffffffffffffffffffffffff1690602001909291908035906020019092919050505061166f565b604051808215151515815260200191505060405180910390f35b3480156106d957600080fd5b506106e2611748565b6040518082815260200191505060405180910390f35b34801561070457600080fd5b5061070d61174e565b604051808273ffffffffffffffffffffffffffffffffffffffff1673ffffffffffffffffffffffffffffffffffffffff16815260200191505060405180910390f35b34801561075b57600080fd5b50610764611774565b005b34801561077257600080fd5b506107c26004803603604081101561078957600080fd5b81019080803573ffffffffffffffffffffffffffffffffffffffff169060200190929190803560ff169060200190929190505050611a2c565b005b3480156107d057600080fd5b506107d9611b52565b604051808260ff1660ff16815260200191505060405180910390f35b34801561080157600080fd5b5061080a611b69565b6040518082815260200191505060405180910390f35b34801561082c57600080fd5b5061088f6004803603604081101561084357600080fd5b81019080803573ffffffffffffffffffffffffffffffffffffffff169060200190929190803573ffffffffffffffffffffffffffffffffffffffff169060200190929190505050611b6f565b005b34801561089d57600080fd5b506108a6611daf565b6040518082815260200191505060405180910390f35b3480156108c857600080fd5b506108d1611db5565b6040518082815260200191505060405180910390f35b3480156108f357600080fd5b506108fc611dbc565b6040518082815260200191505060405180910390f35b34801561091e57600080fd5b5061096b6004803603604081101561093557600080fd5b81019080803573ffffffffffffffffffffffffffffffffffffffff16906020019092919080359060200190929190505050611dc9565b604051808215151515815260200191505060405180910390f35b34801561099157600080fd5b5061099a611e7c565b005b3480156109a857600080fd5b506109b1611f8e565b6040518082815260200191505060405180910390f35b3480156109d357600080fd5b506109dc611f94565b6040518082815260200191505060405180910390f35b3480156109fe57600080fd5b50610a07611f9a565b005b348015610a1557600080fd5b50610a4260048036036020811015610a2c57600080fd5b81019080803590602001909291905050506121d5565b005b348015610a5057600080fd5b50610a59612320565b604051808273ffffffffffffffffffffffffffffffffffffffff1673ffffffffffffffffffffffffffffffffffffffff16815260200191505060405180910390f35b348015610aa757600080fd5b50610af460048036036040811015610abe57600080fd5b81019080803573ffffffffffffffffffffffffffffffffffffffff16906020019092919080359060200190929190505050612346565b604051808381526020018281526020019250505060405180910390f35b348015610b1d57600080fd5b50610b26612473565b6040518082815260200191505060405180910390f35b348015610b4857600080fd5b50610b5161247d565b6040518082815260200191505060405180910390f35b348015610b7357600080fd5b50610bb660048036036020811015610b8a57600080fd5b81019080803573ffffffffffffffffffffffffffffffffffffffff169060200190929190505050612483565b005b348015610bc457600080fd5b50610c0760048036036020811015610bdb57600080fd5b81019080803573ffffffffffffffffffffffffffffffffffffffff1690602001909291905050506125ea565b6040518082815260200191505060405180910390f35b348015610c2957600080fd5b50610c32612632565b604051808273ffffffffffffffffffffffffffffffffffffffff1673ffffffffffffffffffffffffffffffffffffffff16815260200191505060405180910390f35b348015610c8057600080fd5b50610c89612658565b604051808273ffffffffffffffffffffffffffffffffffffffff1673ffffffffffffffffffffffffffffffffffffffff16815260200191505060405180910390f35b348015610cd757600080fd5b50610d0460048036036020811015610cee57600080fd5b810190808035906020019092919050505061267e565b005b348015610d1257600080fd5b50610d1b612756565b604051808273ffffffffffffffffffffffffffffffffffffffff1673ffffffffffffffffffffffffffffffffffffffff16815260200191505060405180910390f35b348015610d6957600080fd5b50610dac60048036036020811015610d8057600080fd5b81019080803573ffffffffffffffffffffffffffffffffffffffff169060200190929190505050612780565b604051808215151515815260200191505060405180910390f35b348015610dd257600080fd5b50610ddb6127a0565b604051808273ffffffffffffffffffffffffffffffffffffffff1673ffffffffffffffffffffffffffffffffffffffff16815260200191505060405180910390f35b348015610e2957600080fd5b50610e326127c6565b6040518080602001828103825283818151815260200191508051906020019080838360005b83811015610e72578082015181840152602081019050610e57565b50505050905090810190601f168015610e9f5780820380516001836020036101000a031916815260200191505b509250505060405180910390f35b348015610eb957600080fd5b50610ec2612864565b6040518080602001828103825283818151815260200191508051906020019080838360005b83811015610f02578082015181840152602081019050610ee7565b50505050905090810190601f168015610f2f5780820380516001836020036101000a031916815260200191505b509250505060405180910390f35b348015610f4957600080fd5b50610f7660048036036020811015610f6057600080fd5b8101908080359060200190929190505050612906565b005b348015610f8457600080fd5b50610f8d612a61565b604051808273ffffffffffffffffffffffffffffffffffffffff1673ffffffffffffffffffffffffffffffffffffffff16815260200191505060405180910390f35b348015610fdb57600080fd5b50610fe4612a8b565b604051808273ffffffffffffffffffffffffffffffffffffffff1673ffffffffffffffffffffffffffffffffffffffff16815260200191505060405180910390f35b34801561103257600080fd5b5061107f6004803603604081101561104957600080fd5b81019080803573ffffffffffffffffffffffffffffffffffffffff16906020019092919080359060200190929190505050612ab5565b604051808215151515815260200191505060405180910390f35b3480156110a557600080fd5b506110f2600480360360408110156110bc57600080fd5b81019080803573ffffffffffffffffffffffffffffffffffffffff16906020019092919080359060200190929190505050612b82565b604051808215151515815260200191505060405180910390f35b34801561111857600080fd5b50611121612ba0565b005b34801561112f57600080fd5b506111386131aa565b005b6111686004803603602081101561115057600080fd5b810190808035151590602001909291905050506132ca565b005b34801561117657600080fd5b506111b96004803603602081101561118d57600080fd5b81019080803573ffffffffffffffffffffffffffffffffffffffff1690602001909291905050506135b4565b604051808260ff1660ff16815260200191505060405180910390f35b3480156111e157600080fd5b50611224600480360360208110156111f857600080fd5b81019080803573ffffffffffffffffffffffffffffffffffffffff16906020019092919050505061360a565b005b34801561123257600080fd5b5061123b613771565b6040518082815260200191505060405180910390f35b34801561125d57600080fd5b506112c06004803603604081101561127457600080fd5b81019080803573ffffffffffffffffffffffffffffffffffffffff169060200190929190803573ffffffffffffffffffffffffffffffffffffffff169060200190929190505050613777565b6040518082815260200191505060405180910390f35b3480156112e257600080fd5b50611331600480360360408110156112f957600080fd5b81019080803573ffffffffffffffffffffffffffffffffffffffff1690602001909291908035151590602001909291905050506137fe565b005b34801561133f57600080fd5b506113766004803603604081101561135657600080fd5b810190808035906020019092919080359060200190929190505050613924565b005b34801561138457600080fd5b5061138d613a01565b005b34801561139b57600080fd5b506113de600480360360208110156113b257600080fd5b81019080803573ffffffffffffffffffffffffffffffffffffffff169060200190929190505050613aeb565b6040518082815260200191505060405180910390f35b600d5481565b600a5481565b67016345785d8a000081565b60028060ff16601860003373ffffffffffffffffffffffffffffffffffffffff1673ffffffffffffffffffffffffffffffffffffffff16815260200190815260200160002060009054906101000a900460ff1660ff1610156114d6576040517f08c379a000000000000000000000000000000000000000000000000000000000815260040180806020018281038252601b8152602001807f47726f7720736f6d65206d75737461636865206b6964646f2e2e2e000000000081525060200191505060405180910390fd5b81601260006101000a81548173ffffffffffffffffffffffffffffffffffffffff021916908373ffffffffffffffffffffffffffffffffffffffff1602179055506001601760008473ffffffffffffffffffffffffffffffffffffffff1673ffffffffffffffffffffffffffffffffffffffff16815260200190815260200160002060006101000a81548160ff0219169083151502179055505050565b606060038054600181600116156101000203166002900480601f01602080910402602001604051908101604052809291908181526020018280546001816001161561010002031660029004801561160b5780601f106115e05761010080835404028352916020019161160b565b820191906000526020600020905b8154815290600101906020018083116115ee57829003601f168201915b5050505050905090565b6000611629611622613b03565b8484613b0b565b6001905092915050565b60186020528060005260406000206000915054906101000a900460ff1681565b670429d069189e000081565b6000600254905090565b600e5481565b600061167c848484613d02565b61173d84611688613b03565b61173885604051806060016040528060288152602001614e5160289139600160008b73ffffffffffffffffffffffffffffffffffffffff1673ffffffffffffffffffffffffffffffffffffffff16815260200190815260200160002060006116ee613b03565b73ffffffffffffffffffffffffffffffffffffffff1673ffffffffffffffffffffffffffffffffffffffff168152602001908152602001600020546140f79092919063ffffffff16565b613b0b565b600190509392505050565b601a5481565b601360009054906101000a900473ffffffffffffffffffffffffffffffffffffffff1681565b6000600c541161178357600080fd5b600c54421161179157600080fd5b6000601060003373ffffffffffffffffffffffffffffffffffffffff1673ffffffffffffffffffffffffffffffffffffffff1681526020019081526020016000205411611846576040517f08c379a000000000000000000000000000000000000000000000000000000000815260040180806020018281038252601c8152602001807f4e6f7468696e6720746f20636c61696d2c206d6f766520616c6f6e670000000081525060200191505060405180910390fd5b60006118b6670de0b6b3a76400006118a8600f54601060003373ffffffffffffffffffffffffffffffffffffffff1673ffffffffffffffffffffffffffffffffffffffff168152602001908152602001600020546141b790919063ffffffff16565b61423d90919063ffffffff16565b9050601260009054906101000a900473ffffffffffffffffffffffffffffffffffffffff1673ffffffffffffffffffffffffffffffffffffffff16634ebc069433836040518363ffffffff1660e01b8152600401808373ffffffffffffffffffffffffffffffffffffffff1673ffffffffffffffffffffffffffffffffffffffff16815260200182815260200192505050600060405180830381600087803b15801561196157600080fd5b505af1158015611975573d6000803e3d6000fd5b505050506000601060003373ffffffffffffffffffffffffffffffffffffffff1673ffffffffffffffffffffffffffffffffffffffff168152602001908152602001600020819055507f586e28f4f60b4d906fc69694ea6d7fe5c5668730ce3286d7af8eca868f3c27603382604051808373ffffffffffffffffffffffffffffffffffffffff1673ffffffffffffffffffffffffffffffffffffffff1681526020018281526020019250505060405180910390a150565b808060ff16601860003373ffffffffffffffffffffffffffffffffffffffff1673ffffffffffffffffffffffffffffffffffffffff16815260200190815260200160002060009054906101000a900460ff1660ff161015611af5576040517f08c379a000000000000000000000000000000000000000000000000000000000815260040180806020018281038252601b8152602001807f47726f7720736f6d65206d75737461636865206b6964646f2e2e2e000000000081525060200191505060405180910390fd5b81601860008573ffffffffffffffffffffffffffffffffffffffff1673ffffffffffffffffffffffffffffffffffffffff16815260200190815260200160002060006101000a81548160ff021916908360ff160217905550505050565b6000600560009054906101000a900460ff16905090565b600f5481565b60028060ff16601860003373ffffffffffffffffffffffffffffffffffffffff1673ffffffffffffffffffffffffffffffffffffffff16815260200190815260200160002060009054906101000a900460ff1660ff161015611c39576040517f08c379a000000000000000000000000000000000000000000000000000000000815260040180806020018281038252601b8152602001807f47726f7720736f6d65206d75737461636865206b6964646f2e2e2e000000000081525060200191505060405180910390fd5b6000600a54118015611c4d57506000600b54145b611c5657600080fd5b611c5f83612483565b81601260006101000a81548173ffffffffffffffffffffffffffffffffffffffff021916908373ffffffffffffffffffffffffffffffffffffffff160217905550600073ffffffffffffffffffffffffffffffffffffffff16601360009054906101000a900473ffffffffffffffffffffffffffffffffffffffff1673ffffffffffffffffffffffffffffffffffffffff1614158015611d4e5750600073ffffffffffffffffffffffffffffffffffffffff16601260009054906101000a900473ffffffffffffffffffffffffffffffffffffffff1673ffffffffffffffffffffffffffffffffffffffff1614155b611da3576040517f08c379a0000000000000000000000000000000000000000000000000000000008152600401808060200182810382526021815260200180614ee16021913960400191505060405180910390fd5b42600b81905550505050565b600c5481565b6201518081565b683635c9adc5dea0000081565b6000611e72611dd6613b03565b84611e6d8560016000611de7613b03565b73ffffffffffffffffffffffffffffffffffffffff1673ffffffffffffffffffffffffffffffffffffffff16815260200190815260200160002060008973ffffffffffffffffffffffffffffffffffffffff1673ffffffffffffffffffffffffffffffffffffffff1681526020019081526020016000205461428790919063ffffffff16565b613b0b565b6001905092915050565b60028060ff16601860003373ffffffffffffffffffffffffffffffffffffffff1673ffffffffffffffffffffffffffffffffffffffff16815260200190815260200160002060009054906101000a900460ff1660ff161015611f46576040517f08c379a000000000000000000000000000000000000000000000000000000000815260040180806020018281038252601b8152602001807f47726f7720736f6d65206d75737461636865206b6964646f2e2e2e000000000081525060200191505060405180910390fd5b42600a81905550611f58600a80613924565b611f8a737a250d5630b4cf539739df2c5dacb4c659f2488d735c69bee701ef814a2b6a3edd4b1652cb9cc5aa6f61430f565b5050565b600b5481565b60195481565b60028060ff16601860003373ffffffffffffffffffffffffffffffffffffffff1673ffffffffffffffffffffffffffffffffffffffff16815260200190815260200160002060009054906101000a900460ff1660ff161015612064576040517f08c379a000000000000000000000000000000000000000000000000000000000815260040180806020018281038252601b8152602001807f47726f7720736f6d65206d75737461636865206b6964646f2e2e2e000000000081525060200191505060405180910390fd5b6000600b541161207357600080fd5b4261208c62015180600b5461428790919063ffffffff16565b106120e2576040517f08c379a000000000000000000000000000000000000000000000000000000000815260040180806020018281038252602f815260200180614e01602f913960400191505060405180910390fd5b60003373ffffffffffffffffffffffffffffffffffffffff164760405180600001905060006040518083038185875af1925050503d8060008114612142576040519150601f19603f3d011682016040523d82523d6000602084013e612147565b606091505b50509050806121be576040517f08c379a00000000000000000000000000000000000000000000000000000000081526004018080602001828103825260108152602001807f5472616e73666572206661696c65642e0000000000000000000000000000000081525060200191505060405180910390fd5b6121d130336121cc306125ea565b61478b565b5050565b60018060ff16601860003373ffffffffffffffffffffffffffffffffffffffff1673ffffffffffffffffffffffffffffffffffffffff16815260200190815260200160002060009054906101000a900460ff1660ff16101561229f576040517f08c379a000000000000000000000000000000000000000000000000000000000815260040180806020018281038252601b8152602001807f47726f7720736f6d65206d75737461636865206b6964646f2e2e2e000000000081525060200191505060405180910390fd5b60328210612315576040517f08c379a00000000000000000000000000000000000000000000000000000000081526004018080602001828103825260138152602001807f6d617820352520666f7220736c6970706167650000000000000000000000000081525060200191505060405180910390fd5b81601b819055505050565b601460009054906101000a900473ffffffffffffffffffffffffffffffffffffffff1681565b600080601760008573ffffffffffffffffffffffffffffffffffffffff1673ffffffffffffffffffffffffffffffffffffffff16815260200190815260200160002060009054906101000a900460ff16156123a45760009050612457565b601160009054906101000a900473ffffffffffffffffffffffffffffffffffffffff1673ffffffffffffffffffffffffffffffffffffffff168473ffffffffffffffffffffffffffffffffffffffff16141561242a576124236103e8612415601954866141b790919063ffffffff16565b61423d90919063ffffffff16565b9050612456565b6124536103e8612445601a54866141b790919063ffffffff16565b61423d90919063ffffffff16565b90505b5b61246a8184614a4c90919063ffffffff16565b91509250929050565b6000601b54905090565b612a3081565b60028060ff16601860003373ffffffffffffffffffffffffffffffffffffffff1673ffffffffffffffffffffffffffffffffffffffff16815260200190815260200160002060009054906101000a900460ff1660ff16101561254d576040517f08c379a000000000000000000000000000000000000000000000000000000000815260040180806020018281038252601b8152602001807f47726f7720736f6d65206d75737461636865206b6964646f2e2e2e000000000081525060200191505060405180910390fd5b81601360006101000a81548173ffffffffffffffffffffffffffffffffffffffff021916908373ffffffffffffffffffffffffffffffffffffffff1602179055506001601760008473ffffffffffffffffffffffffffffffffffffffff1673ffffffffffffffffffffffffffffffffffffffff16815260200190815260200160002060006101000a81548160ff0219169083151502179055505050565b60008060008373ffffffffffffffffffffffffffffffffffffffff1673ffffffffffffffffffffffffffffffffffffffff168152602001908152602001600020549050919050565b601260009054906101000a900473ffffffffffffffffffffffffffffffffffffffff1681565b601160009054906101000a900473ffffffffffffffffffffffffffffffffffffffff1681565b60018060ff16601860003373ffffffffffffffffffffffffffffffffffffffff1673ffffffffffffffffffffffffffffffffffffffff16815260200190815260200160002060009054906101000a900460ff1660ff161015612748576040517f08c379a000000000000000000000000000000000000000000000000000000000815260040180806020018281038252601b8152602001807f47726f7720736f6d65206d75737461636865206b6964646f2e2e2e000000000081525060200191505060405180910390fd5b6127523083614a96565b5050565b6000601360009054906101000a900473ffffffffffffffffffffffffffffffffffffffff16905090565b60176020528060005260406000206000915054906101000a900460ff1681565b601560009054906101000a900473ffffffffffffffffffffffffffffffffffffffff1681565b60168054600181600116156101000203166002900480601f01602080910402602001604051908101604052809291908181526020018280546001816001161561010002031660029004801561285c5780601f106128315761010080835404028352916020019161285c565b820191906000526020600020905b81548152906001019060200180831161283f57829003601f168201915b505050505081565b606060048054600181600116156101000203166002900480601f0160208091040260200160405190810160405280929190818152602001828054600181600116156101000203166002900480156128fc5780601f106128d1576101008083540402835291602001916128fc565b820191906000526020600020905b8154815290600101906020018083116128df57829003601f168201915b5050505050905090565b60018060ff16601860003373ffffffffffffffffffffffffffffffffffffffff1673ffffffffffffffffffffffffffffffffffffffff16815260200190815260200160002060009054906101000a900460ff1660ff1610156129d0576040517f08c379a000000000000000000000000000000000000000000000000000000000815260040180806020018281038252601b8152602001807f47726f7720736f6d65206d75737461636865206b6964646f2e2e2e000000000081525060200191505060405180910390fd5b601260009054906101000a900473ffffffffffffffffffffffffffffffffffffffff1673ffffffffffffffffffffffffffffffffffffffff166397a40a83836040518263ffffffff1660e01b815260040180828152602001915050600060405180830381600087803b158015612a4557600080fd5b505af1158015612a59573d6000803e3d6000fd5b505050505050565b6000601160009054906101000a900473ffffffffffffffffffffffffffffffffffffffff16905090565b6000601260009054906101000a900473ffffffffffffffffffffffffffffffffffffffff16905090565b6000612b78612ac2613b03565b84612b7385604051806060016040528060258152602001614f266025913960016000612aec613b03565b73ffffffffffffffffffffffffffffffffffffffff1673ffffffffffffffffffffffffffffffffffffffff16815260200190815260200160002060008a73ffffffffffffffffffffffffffffffffffffffff1673ffffffffffffffffffffffffffffffffffffffff168152602001908152602001600020546140f79092919063ffffffff16565b613b0b565b6001905092915050565b6000612b96612b8f613b03565b8484613d02565b6001905092915050565b612bcf6064612bc16063670429d069189e00006141b790919063ffffffff16565b61423d90919063ffffffff16565b600e541015612c0a576000600b5411612be757600080fd5b612bfe612a30600b5461428790919063ffffffff16565b4211612c0957600080fd5b5b47600e819055506000601160009054906101000a900473ffffffffffffffffffffffffffffffffffffffff1690506000601460009054906101000a900473ffffffffffffffffffffffffffffffffffffffff1673ffffffffffffffffffffffffffffffffffffffff1663ad5c46486040518163ffffffff1660e01b815260040160206040518083038186803b158015612ca257600080fd5b505afa158015612cb6573d6000803e3d6000fd5b505050506040513d6020811015612ccc57600080fd5b810190808051906020019092919050505090508073ffffffffffffffffffffffffffffffffffffffff1663d0e30db0600e546040518263ffffffff1660e01b81526004016000604051808303818588803b158015612d2957600080fd5b505af1158015612d3d573d6000803e3d6000fd5b505050505060004714612db8576040517f08c379a000000000000000000000000000000000000000000000000000000000815260040180806020018281038252600f8152602001807f5472616e73666572204661696c6564000000000000000000000000000000000081525060200191505060405180910390fd5b8073ffffffffffffffffffffffffffffffffffffffff1663a9059cbb83600e546040518363ffffffff1660e01b8152600401808373ffffffffffffffffffffffffffffffffffffffff1673ffffffffffffffffffffffffffffffffffffffff16815260200182815260200192505050602060405180830381600087803b158015612e4157600080fd5b505af1158015612e55573d6000803e3d6000fd5b505050506040513d6020811015612e6b57600080fd5b8101908080519060200190929190505050508173ffffffffffffffffffffffffffffffffffffffff163073ffffffffffffffffffffffffffffffffffffffff167fddf252ad1be2c89b69c2b068fc378daa952ba7f163c4a11628f55a4df523b3ef612ed5306125ea565b6040518082815260200191505060405180910390a3612efd3083612ef8306125ea565b61478b565b8173ffffffffffffffffffffffffffffffffffffffff16636a627842306040518263ffffffff1660e01b8152600401808273ffffffffffffffffffffffffffffffffffffffff1673ffffffffffffffffffffffffffffffffffffffff168152602001915050602060405180830381600087803b158015612f7c57600080fd5b505af1158015612f90573d6000803e3d6000fd5b505050506040513d6020811015612fa657600080fd5b8101908080519060200190929190505050508173ffffffffffffffffffffffffffffffffffffffff166370a08231306040518263ffffffff1660e01b8152600401808273ffffffffffffffffffffffffffffffffffffffff1673ffffffffffffffffffffffffffffffffffffffff16815260200191505060206040518083038186803b15801561303557600080fd5b505afa158015613049573d6000803e3d6000fd5b505050506040513d602081101561305f57600080fd5b8101908080519060200190929190505050600d819055506000600d5414156130ef576040517f08c379a00000000000000000000000000000000000000000000000000000000081526004018080602001828103825260128152602001807f4c50206372656174696f6e206661696c6564000000000000000000000000000081525060200191505060405180910390fd5b613120600e54613112670de0b6b3a7640000600d546141b790919063ffffffff16565b61423d90919063ffffffff16565b600f819055506000600f54141561319f576040517f08c379a00000000000000000000000000000000000000000000000000000000081526004018080602001828103825260128152602001807f4c50206372656174696f6e206661696c6564000000000000000000000000000081525060200191505060405180910390fd5b42600c819055505050565b6000600b54116131b957600080fd5b6131d0612a30600b5461428790919063ffffffff16565b4211156131dc57600080fd5b6000601060003373ffffffffffffffffffffffffffffffffffffffff1673ffffffffffffffffffffffffffffffffffffffff1681526020019081526020016000205490506000601060003373ffffffffffffffffffffffffffffffffffffffff1673ffffffffffffffffffffffffffffffffffffffff168152602001908152602001600020819055503373ffffffffffffffffffffffffffffffffffffffff166108fc829081150290604051600060405180830381858888f193505050501580156132ab573d6000803e3d6000fd5b506132c181600e54614a4c90919063ffffffff16565b600e8190555050565b6000600b54116132d957600080fd5b6132f0612a30600b5461428790919063ffffffff16565b4211156132fc57600080fd5b67016345785d8a000061335734601060003373ffffffffffffffffffffffffffffffffffffffff1673ffffffffffffffffffffffffffffffffffffffff1681526020019081526020016000205461428790919063ffffffff16565b11156133ae576040517f08c379a0000000000000000000000000000000000000000000000000000000008152600401808060200182810382526022815260200180614e796022913960400191505060405180910390fd5b670429d069189e00006133cc34600e5461428790919063ffffffff16565b1115613440576040517f08c379a00000000000000000000000000000000000000000000000000000000081526004018080602001828103825260108152602001807f353030204554482048617264206361700000000000000000000000000000000081525060200191505060405180910390fd5b806134b3576040517f08c379a00000000000000000000000000000000000000000000000000000000081526004018080602001828103825260158152602001807f4e6f2061677265656d656e742070726f7669646564000000000000000000000081525060200191505060405180910390fd5b61350534601060003373ffffffffffffffffffffffffffffffffffffffff1673ffffffffffffffffffffffffffffffffffffffff1681526020019081526020016000205461428790919063ffffffff16565b601060003373ffffffffffffffffffffffffffffffffffffffff1673ffffffffffffffffffffffffffffffffffffffff1681526020019081526020016000208190555061355d34600e5461428790919063ffffffff16565b600e819055503373ffffffffffffffffffffffffffffffffffffffff167f20b711375edba008429d2f91787c68aa13aab7f267c346bf91be1a104d8b7b8b346040518082815260200191505060405180910390a250565b6000601860008373ffffffffffffffffffffffffffffffffffffffff1673ffffffffffffffffffffffffffffffffffffffff16815260200190815260200160002060009054906101000a900460ff169050919050565b60028060ff16601860003373ffffffffffffffffffffffffffffffffffffffff1673ffffffffffffffffffffffffffffffffffffffff16815260200190815260200160002060009054906101000a900460ff1660ff1610156136d4576040517f08c379a000000000000000000000000000000000000000000000000000000000815260040180806020018281038252601b8152602001807f47726f7720736f6d65206d75737461636865206b6964646f2e2e2e000000000081525060200191505060405180910390fd5b81601160006101000a81548173ffffffffffffffffffffffffffffffffffffffff021916908373ffffffffffffffffffffffffffffffffffffffff1602179055506000601760008473ffffffffffffffffffffffffffffffffffffffff1673ffffffffffffffffffffffffffffffffffffffff16815260200190815260200160002060006101000a81548160ff0219169083151502179055505050565b610e1081565b6000600160008473ffffffffffffffffffffffffffffffffffffffff1673ffffffffffffffffffffffffffffffffffffffff16815260200190815260200160002060008373ffffffffffffffffffffffffffffffffffffffff1673ffffffffffffffffffffffffffffffffffffffff16815260200190815260200160002054905092915050565b60018060ff16601860003373ffffffffffffffffffffffffffffffffffffffff1673ffffffffffffffffffffffffffffffffffffffff16815260200190815260200160002060009054906101000a900460ff1660ff1610156138c8576040517f08c379a000000000000000000000000000000000000000000000000000000000815260040180806020018281038252601b8152602001807f47726f7720736f6d65206d75737461636865206b6964646f2e2e2e000000000081525060200191505060405180910390fd5b81601760008573ffffffffffffffffffffffffffffffffffffffff1673ffffffffffffffffffffffffffffffffffffffff16815260200190815260200160002060006101000a81548160ff021916908315150217905550505050565b60018060ff16601860003373ffffffffffffffffffffffffffffffffffffffff1673ffffffffffffffffffffffffffffffffffffffff16815260200190815260200160002060009054906101000a900460ff1660ff1610156139ee576040517f08c379a000000000000000000000000000000000000000000000000000000000815260040180806020018281038252601b8152602001807f47726f7720736f6d65206d75737461636865206b6964646f2e2e2e000000000081525060200191505060405180910390fd5b8260198190555081601a81905550505050565b601360009054906101000a900473ffffffffffffffffffffffffffffffffffffffff1673ffffffffffffffffffffffffffffffffffffffff163373ffffffffffffffffffffffffffffffffffffffff1614613a5b57600080fd5b6000613ab06103e8613aa2601b54613a94601160009054906101000a900473ffffffffffffffffffffffffffffffffffffffff166125ea565b6141b790919063ffffffff16565b61423d90919063ffffffff16565b90506000811115613ae857613ae7601160009054906101000a900473ffffffffffffffffffffffffffffffffffffffff1682614a96565b5b50565b60106020528060005260406000206000915090505481565b600033905090565b600073ffffffffffffffffffffffffffffffffffffffff168373ffffffffffffffffffffffffffffffffffffffff161415613b91576040517f08c379a0000000000000000000000000000000000000000000000000000000008152600401808060200182810382526024815260200180614f026024913960400191505060405180910390fd5b600073ffffffffffffffffffffffffffffffffffffffff168273ffffffffffffffffffffffffffffffffffffffff161415613c17576040517f08c379a0000000000000000000000000000000000000000000000000000000008152600401808060200182810382526022815260200180614db96022913960400191505060405180910390fd5b80600160008573ffffffffffffffffffffffffffffffffffffffff1673ffffffffffffffffffffffffffffffffffffffff16815260200190815260200160002060008473ffffffffffffffffffffffffffffffffffffffff1673ffffffffffffffffffffffffffffffffffffffff168152602001908152602001600020819055508173ffffffffffffffffffffffffffffffffffffffff168373ffffffffffffffffffffffffffffffffffffffff167f8c5be1e5ebec7d5bd14f71427d1e84f3dd0314c0f7b2291e5b200ac8c7c3b925836040518082815260200191505060405180910390a3505050565b6000600c5411613d1157600080fd5b613d28610e10600c5461428790919063ffffffff16565b4211613d3357600080fd5b600073ffffffffffffffffffffffffffffffffffffffff168373ffffffffffffffffffffffffffffffffffffffff161415613db9576040517f08c379a0000000000000000000000000000000000000000000000000000000008152600401808060200182810382526025815260200180614ebc6025913960400191505060405180910390fd5b600073ffffffffffffffffffffffffffffffffffffffff168273ffffffffffffffffffffffffffffffffffffffff161415613e3f576040517f08c379a0000000000000000000000000000000000000000000000000000000008152600401808060200182810382526023815260200180614d746023913960400191505060405180910390fd5b613e7d83613e7883604051806060016040528060268152602001614ddb60269139613e69886125ea565b6140f79092919063ffffffff16565b614c5a565b50600080613e8b8584612346565b91509150600081118015613eee5750600073ffffffffffffffffffffffffffffffffffffffff16601360009054906101000a900473ffffffffffffffffffffffffffffffffffffffff1673ffffffffffffffffffffffffffffffffffffffff1614155b1561406657613f5b601360009054906101000a900473ffffffffffffffffffffffffffffffffffffffff16613f5683613f48601360009054906101000a900473ffffffffffffffffffffffffffffffffffffffff166125ea565b61428790919063ffffffff16565b614c5a565b50601360009054906101000a900473ffffffffffffffffffffffffffffffffffffffff1673ffffffffffffffffffffffffffffffffffffffff16633e158b0c6040518163ffffffff1660e01b8152600401600060405180830381600087803b158015613fc657600080fd5b505af1158015613fda573d6000803e3d6000fd5b50505050601360009054906101000a900473ffffffffffffffffffffffffffffffffffffffff1673ffffffffffffffffffffffffffffffffffffffff168573ffffffffffffffffffffffffffffffffffffffff167fddf252ad1be2c89b69c2b068fc378daa952ba7f163c4a11628f55a4df523b3ef836040518082815260200191505060405180910390a35b61408a8461408584614077886125ea565b61428790919063ffffffff16565b614c5a565b508373ffffffffffffffffffffffffffffffffffffffff168573ffffffffffffffffffffffffffffffffffffffff167fddf252ad1be2c89b69c2b068fc378daa952ba7f163c4a11628f55a4df523b3ef846040518082815260200191505060405180910390a35050505050565b60008383111582906141a4576040517f08c379a00000000000000000000000000000000000000000000000000000000081526004018080602001828103825283818151815260200191508051906020019080838360005b8381101561416957808201518184015260208101905061414e565b50505050905090810190601f1680156141965780820380516001836020036101000a031916815260200191505b509250505060405180910390fd5b5060008385039050809150509392505050565b6000808314156141ca5760009050614237565b60008284029050828482816141db57fe5b0414614232576040517f08c379a0000000000000000000000000000000000000000000000000000000008152600401808060200182810382526021815260200180614e306021913960400191505060405180910390fd5b809150505b92915050565b600061427f83836040518060400160405280601a81526020017f536166654d6174683a206469766973696f6e206279207a65726f000000000000815250614ca8565b905092915050565b600080828401905083811015614305576040517f08c379a000000000000000000000000000000000000000000000000000000000815260040180806020018281038252601b8152602001807f536166654d6174683a206164646974696f6e206f766572666c6f77000000000081525060200191505060405180910390fd5b8091505092915050565b600080600a5411614388576040517f08c379a000000000000000000000000000000000000000000000000000000000815260040180806020018281038252600d8152602001807f696e7469616c697a65203173740000000000000000000000000000000000000081525060200191505060405180910390fd5b600073ffffffffffffffffffffffffffffffffffffffff168373ffffffffffffffffffffffffffffffffffffffff1614156143d757737a250d5630b4cf539739df2c5dacb4c659f2488d6143d9565b825b601460006101000a81548173ffffffffffffffffffffffffffffffffffffffff021916908373ffffffffffffffffffffffffffffffffffffffff160217905550600073ffffffffffffffffffffffffffffffffffffffff168273ffffffffffffffffffffffffffffffffffffffff16141561446857735c69bee701ef814a2b6a3edd4b1652cb9cc5aa6f61446a565b815b601560006101000a81548173ffffffffffffffffffffffffffffffffffffffff021916908373ffffffffffffffffffffffffffffffffffffffff160217905550600073ffffffffffffffffffffffffffffffffffffffff16601160009054906101000a900473ffffffffffffffffffffffffffffffffffffffff1673ffffffffffffffffffffffffffffffffffffffff161461456e576040517f08c379a000000000000000000000000000000000000000000000000000000000815260040180806020018281038252601b8152602001807f546f6b656e3a20706f6f6c20616c72656164792063726561746564000000000081525060200191505060405180910390fd5b601560009054906101000a900473ffffffffffffffffffffffffffffffffffffffff1673ffffffffffffffffffffffffffffffffffffffff1663c9c65396601460009054906101000a900473ffffffffffffffffffffffffffffffffffffffff1673ffffffffffffffffffffffffffffffffffffffff1663ad5c46486040518163ffffffff1660e01b815260040160206040518083038186803b15801561461457600080fd5b505afa158015614628573d6000803e3d6000fd5b505050506040513d602081101561463e57600080fd5b8101908080519060200190929190505050306040518363ffffffff1660e01b8152600401808373ffffffffffffffffffffffffffffffffffffffff1673ffffffffffffffffffffffffffffffffffffffff1681526020018273ffffffffffffffffffffffffffffffffffffffff1673ffffffffffffffffffffffffffffffffffffffff16815260200192505050602060405180830381600087803b1580156146e557600080fd5b505af11580156146f9573d6000803e3d6000fd5b505050506040513d602081101561470f57600080fd5b8101908080519060200190929190505050601160006101000a81548173ffffffffffffffffffffffffffffffffffffffff021916908373ffffffffffffffffffffffffffffffffffffffff160217905550601160009054906101000a900473ffffffffffffffffffffffffffffffffffffffff16905092915050565b600073ffffffffffffffffffffffffffffffffffffffff168373ffffffffffffffffffffffffffffffffffffffff161415614811576040517f08c379a0000000000000000000000000000000000000000000000000000000008152600401808060200182810382526025815260200180614ebc6025913960400191505060405180910390fd5b600073ffffffffffffffffffffffffffffffffffffffff168273ffffffffffffffffffffffffffffffffffffffff161415614897576040517f08c379a0000000000000000000000000000000000000000000000000000000008152600401808060200182810382526023815260200180614d746023913960400191505060405180910390fd5b6148a2838383614d6e565b61490d81604051806060016040528060268152602001614ddb602691396000808773ffffffffffffffffffffffffffffffffffffffff1673ffffffffffffffffffffffffffffffffffffffff168152602001908152602001600020546140f79092919063ffffffff16565b6000808573ffffffffffffffffffffffffffffffffffffffff1673ffffffffffffffffffffffffffffffffffffffff168152602001908152602001600020819055506149a0816000808573ffffffffffffffffffffffffffffffffffffffff1673ffffffffffffffffffffffffffffffffffffffff1681526020019081526020016000205461428790919063ffffffff16565b6000808473ffffffffffffffffffffffffffffffffffffffff1673ffffffffffffffffffffffffffffffffffffffff168152602001908152602001600020819055508173ffffffffffffffffffffffffffffffffffffffff168373ffffffffffffffffffffffffffffffffffffffff167fddf252ad1be2c89b69c2b068fc378daa952ba7f163c4a11628f55a4df523b3ef836040518082815260200191505060405180910390a3505050565b6000614a8e83836040518060400160405280601e81526020017f536166654d6174683a207375627472616374696f6e206f766572666c6f7700008152506140f7565b905092915050565b600073ffffffffffffffffffffffffffffffffffffffff168273ffffffffffffffffffffffffffffffffffffffff161415614b1c576040517f08c379a0000000000000000000000000000000000000000000000000000000008152600401808060200182810382526021815260200180614e9b6021913960400191505060405180910390fd5b614b2882600083614d6e565b614b9381604051806060016040528060228152602001614d97602291396000808673ffffffffffffffffffffffffffffffffffffffff1673ffffffffffffffffffffffffffffffffffffffff168152602001908152602001600020546140f79092919063ffffffff16565b6000808473ffffffffffffffffffffffffffffffffffffffff1673ffffffffffffffffffffffffffffffffffffffff16815260200190815260200160002081905550614bea81600254614a4c90919063ffffffff16565b600281905550600073ffffffffffffffffffffffffffffffffffffffff168273ffffffffffffffffffffffffffffffffffffffff167fddf252ad1be2c89b69c2b068fc378daa952ba7f163c4a11628f55a4df523b3ef836040518082815260200191505060405180910390a35050565b6000816000808573ffffffffffffffffffffffffffffffffffffffff1673ffffffffffffffffffffffffffffffffffffffff1681526020019081526020016000208190555081905092915050565b60008083118290614d54576040517f08c379a00000000000000000000000000000000000000000000000000000000081526004018080602001828103825283818151815260200191508051906020019080838360005b83811015614d19578082015181840152602081019050614cfe565b50505050905090810190601f168015614d465780820380516001836020036101000a031916815260200191505b509250505060405180910390fd5b506000838581614d6057fe5b049050809150509392505050565b50505056fe45524332303a207472616e7366657220746f20746865207a65726f206164647265737345524332303a206275726e20616d6f756e7420657863656564732062616c616e636545524332303a20617070726f766520746f20746865207a65726f206164647265737345524332303a207472616e7366657220616d6f756e7420657863656564732062616c616e63654c69717569646974792067656e65726174696f6e20677261636520706572696f64207374696c6c206f6e676f696e67536166654d6174683a206d756c7469706c69636174696f6e206f766572666c6f7745524332303a207472616e7366657220616d6f756e74206578636565647320616c6c6f77616e63656d617820323545544820636f6e747269627574696f6e20706572206164647265737345524332303a206275726e2066726f6d20746865207a65726f206164647265737345524332303a207472616e736665722066726f6d20746865207a65726f20616464726573735772617070657220546f6b656e20616e64205661756c74206e6f7420536574757045524332303a20617070726f76652066726f6d20746865207a65726f206164647265737345524332303a2064656372656173656420616c6c6f77616e63652062656c6f77207a65726fa264697066735822122068f658354d9f4c01d44c3aea79b5de49ea72c561b183eb88c0645b03daef41a764736f6c634300060600334920616772656520746861742074686520646576656c6f7065727320616e6420616666696c69617465642070617274696573206f662074686520556e69436f7265207465616d20617265206e6f7420726573706f6e7369626c6520666f72206d792066756e6473",
  "immutableReferences": {},
  "source": "// SPDX-License-Identifier: WHO GIVES A FUCK ANYWAY??\n\npragma solidity >=0.6.0;\n\nimport \"./UniCore_ERC20.sol\";\n\ncontract UniCore_Token is ERC20 {\n    using SafeMath for uint256;\n    using Address for address;\n\n    event LiquidityAddition(address indexed dst, uint value);\n    event LPTokenClaimed(address dst, uint value);\n\n    //ERC20\n    uint256 private _totalSupply;\n    string private _name;\n    string private _symbol;\n    uint8 private _decimals;\n    uint256 public constant initialSupply = 1000*1e18; // 1k\n    \n    //timeStamps\n    uint256 public contractInitialized;\n    uint256 public contractStart_Timestamp;\n    uint256 public LGECompleted_Timestamp;\n    uint256 public constant contributionPhase = 3 hours; //3 days;\n    uint256 public constant stackingPhase = 1 hours;//2 hours;\n    uint256 public constant emergencyPeriod = 1 days;//4 days;\n    \n    //Tokenomics\n    uint256 public totalLPTokensMinted;\n    uint256 public totalETHContributed;\n    uint256 public LPperETHUnit;\n    mapping (address => uint)  public ethContributed;\n    uint256 public constant individualCap = 1e17; //25*1e18;\n    uint256 public constant totalCap = 3*1e17; //500*1e18;\n    \n    \n    //Ecosystem\n    address public UniswapPair;\n    address public wUNIv2;\n    address public Vault;\n    IUniswapV2Router02 public uniswapRouterV2;\n    IUniswapV2Factory public uniswapFactory;\n    \n//=========================================================================================================================================\n\n    constructor() ERC20(\"Test_Unicore\", \"T_UNICORE\") public {\n        _mint(address(this), initialSupply);\n        governanceLevels[msg.sender] = 2;\n    }\n    \n    function initialSetup() public governanceLevel(2) {\n        contractInitialized = block.timestamp;\n        setBuySellFees(10, 10); //1% on buy, 1% on sell.\n        \n        POOL_CreateUniswapPair(0x7a250d5630B4cF539739dF2C5dAcb4c659F2488D, 0x5C69bEe701ef814a2B6a3EDD4B1652CB9cc5aA6f);\n        //0x7a250d5630B4cF539739dF2C5dAcb4c659F2488D = UniswapV2Router02\n        //0x5C69bEe701ef814a2B6a3EDD4B1652CB9cc5aA6f = UniswapV2Factory\n    }\n    \n    //Pool UniSwap pair creation method (called by  initialSetup() )\n    function POOL_CreateUniswapPair(address router, address factory) internal returns (address) {\n        require(contractInitialized > 0, \"intialize 1st\");\n        \n        uniswapRouterV2 = IUniswapV2Router02(router != address(0) ? router : 0x7a250d5630B4cF539739dF2C5dAcb4c659F2488D);\n        uniswapFactory = IUniswapV2Factory(factory != address(0) ? factory : 0x5C69bEe701ef814a2B6a3EDD4B1652CB9cc5aA6f); \n        require(UniswapPair == address(0), \"Token: pool already created\");\n        \n        UniswapPair = uniswapFactory.createPair(address(uniswapRouterV2.WETH()),address(this));\n        \n        return UniswapPair;\n    }\n    \n    /* Once initialSetup has been invoked\n    * Team will create the Vault and the LP wrapper token\n    *  \n    * Only AFTER these 2 addresses have been created the users\n    * can start contributing in ETH\n    */\n    function secondarySetup(address _Vault, address _wUNIv2) public governanceLevel(2) {\n        require(contractInitialized > 0 && contractStart_Timestamp == 0);\n        setVault(_Vault); //also adds the Vault to noFeeList\n        wUNIv2 = _wUNIv2;\n        \n        require(Vault != address(0) && wUNIv2 != address(0), \"Wrapper Token and Vault not Setup\");\n        contractStart_Timestamp = block.timestamp;\n    }\n    \n\n//=========================================================================================================================================\n    /* Liquidity generation logic\n    * Steps - All tokens that will ever exist go to this contract\n    *  \n    * This contract accepts ETH as payable\n    * ETH is mapped to people\n    *    \n    * When liquidity generation event is over \n    * everyone can call the mint LP function.\n    *    \n    * which will put all the ETH and tokens inside the uniswap contract\n    * without any involvement\n    *    \n    * This LP will go into this contract\n    * And will be able to proportionally be withdrawn based on ETH put in\n    *\n    * emergency drain function allows the contract owner to drain all ETH and tokens from this contract\n    * After the liquidity generation event happened. In case something goes wrong, to send ETH back\n    */\n\n    string public liquidityGenerationParticipationAgreement = \"I agree that the developers and affiliated parties of the UniCore team are not responsible for my funds\";\n\n    \n    /* @dev List of modifiers used to differentiate the project phases\n     *      ETH_ContributionPhase lets users send ETH to the token contract\n     *      LGP_possible triggers after the contributionPhase duration\n     *      Trading_Possible: this modifiers prevent Unicore _transfer right\n     *      after the LGE. It gives time for contributors to stake their \n     *      tokens before fees are generated.\n     */\n    \n    modifier ETH_ContributionPhase() {\n        require(contractStart_Timestamp > 0);\n        require(block.timestamp <= contractStart_Timestamp.add(contributionPhase));\n        _;\n    }\n    \n    /* if totalETHContributed is bigger than 99% of the cap\n     * the LGE can happen (allows the LGE to happen sooner if needed)\n     * otherwise (ETHcontributed < 99% totalCap), time contraint applies\n     */\n    modifier LGE_Possible() {\n         \n        if(totalETHContributed < totalCap.mul(99).div(100)){ \n        require(contractStart_Timestamp > 0);\n        require(block.timestamp > contractStart_Timestamp.add(contributionPhase));\n        }\n       _; \n    }\n    \n    modifier LGE_happened() {\n        require(LGECompleted_Timestamp > 0);\n        require(block.timestamp > LGECompleted_Timestamp);\n        _;\n    }\n    modifier Trading_Possible() {\n         require(LGECompleted_Timestamp > 0);\n         require(block.timestamp > LGECompleted_Timestamp.add(stackingPhase));\n        _;\n    }\n    \n\n//=========================================================================================================================================\n  \n    // Emergency drain in case of a bug\n    function emergencyDrain24hAfterLiquidityGenerationEventIsDone() public governanceLevel(2) {\n        require(contractStart_Timestamp > 0);\n        require(contractStart_Timestamp.add(emergencyPeriod) < block.timestamp, \"Liquidity generation grace period still ongoing\"); // About 24h after liquidity generation happens\n        \n        (bool success, ) = msg.sender.call{value:(address(this).balance)}(\"\");\n        require(success, \"Transfer failed.\");\n       \n        ERC20._transfer(address(this), msg.sender, balanceOf(address(this)));\n    }\n\n//During ETH_ContributionPhase: Users deposit funds\n\n    //funds sent to TOKEN contract.\n    function USER_PledgeLiquidity(bool agreesToTermsOutlinedInLiquidityGenerationParticipationAgreement) public payable ETH_ContributionPhase {\n        require(ethContributed[msg.sender].add(msg.value) <= individualCap, \"max 25ETH contribution per address\");\n        require(totalETHContributed.add(msg.value) <= totalCap, \"500 ETH Hard cap\"); \n        \n        require(agreesToTermsOutlinedInLiquidityGenerationParticipationAgreement, \"No agreement provided\");\n        \n        ethContributed[msg.sender] = ethContributed[msg.sender].add(msg.value);\n        totalETHContributed = totalETHContributed.add(msg.value); // for front end display during LGE\n        emit LiquidityAddition(msg.sender, msg.value);\n    }\n    \n    function USER_UNPledgeLiquidity() public ETH_ContributionPhase {\n        uint256 _amount = ethContributed[msg.sender];\n        ethContributed[msg.sender] = 0;\n        msg.sender.transfer(_amount); //MUST CALL THE ETHERUM TRANSFER, not the TOKEN one!!!\n        totalETHContributed = totalETHContributed.sub(_amount);\n    }\n\n\n// After ETH_ContributionPhase: Pool can create liquidity.\n// Vault and wrapped UNIv2 contracts need to be setup in advance.\n\n    function POOL_CreateLiquidity() public LGE_Possible {\n\n        totalETHContributed = address(this).balance;\n        IUniswapV2Pair pair = IUniswapV2Pair(UniswapPair);\n        \n        //Wrap eth\n        address WETH = uniswapRouterV2.WETH();\n        \n        //Send to UniSwap\n        IWETH(WETH).deposit{value : totalETHContributed}();\n        require(address(this).balance == 0 , \"Transfer Failed\");\n        IWETH(WETH).transfer(address(pair),totalETHContributed);\n        \n        emit Transfer(address(this), address(pair), balanceOf(address(this)));\n        \n        //UniCore balances transfer\n        ERC20._transfer(address(this), address(pair), balanceOf(address(this)));\n        pair.mint(address(this));       //mint LP tokens. lock method in UniSwapPairV2 PREVENTS FROM DOING IT TWICE\n        \n        totalLPTokensMinted = pair.balanceOf(address(this));\n        \n        require(totalLPTokensMinted != 0 , \"LP creation failed\");\n        LPperETHUnit = totalLPTokensMinted.mul(1e18).div(totalETHContributed); // 1e18x for  change\n        require(LPperETHUnit != 0 , \"LP creation failed\");\n        \n        LGECompleted_Timestamp = block.timestamp;\n    }\n    \n \n//After ETH_ContributionPhase: Pool can create liquidity.\n    function USER_ClaimWrappedLiquidity() public LGE_happened {\n        require(ethContributed[msg.sender] > 0 , \"Nothing to claim, move along\");\n        \n        uint256 amountLPToTransfer = ethContributed[msg.sender].mul(LPperETHUnit).div(1e18);\n        IReactor(wUNIv2).wTransfer(msg.sender, amountLPToTransfer); // stored as 1e18x value for change\n        ethContributed[msg.sender] = 0;\n        \n        emit LPTokenClaimed(msg.sender, amountLPToTransfer);\n    }\n\n\n//=========================================================================================================================================\n    //overriden _transfer to take Fees\n    function _transfer(address sender, address recipient, uint256 amount) internal override Trading_Possible {\n        \n        require(sender != address(0), \"ERC20: transfer from the zero address\");\n        require(recipient != address(0), \"ERC20: transfer to the zero address\");\n    \n        //updates _balances\n        setBalance(sender, balanceOf(sender).sub(amount, \"ERC20: transfer amount exceeds balance\"));\n\n        //calculate net amounts and fee\n        (uint256 toAmount, uint256 toFee) = calculateAmountAndFee(sender, amount);\n        \n        //Send Reward to Vault 1st\n        if(toFee > 0 && Vault != address(0)){\n            setBalance(Vault, balanceOf(Vault).add(toFee));\n            IVault(Vault).updateRewards(); //updating the vault with rewards sent.\n            emit Transfer(sender, Vault, toFee);\n        }\n        \n        //transfer to recipient\n        setBalance(recipient, balanceOf(recipient).add(toAmount));\n        emit Transfer(sender, recipient, toAmount);\n\n    }\n    \n//=========================================================================================================================================\n//FEE_APPROVER (now included into the token code)\n\n    mapping (address => bool) public noFeeList;\n    \n    function calculateAmountAndFee(address sender, uint256 amount) public view returns (uint256 netAmount, uint256 fee){\n\n        if(noFeeList[sender]) { fee = 0;} // Don't have a fee when Vault is sending, or infinite loop\n        else if(sender == UniswapPair){ fee = amount.mul(buyFee).div(1000);}\n        else { fee = amount.mul(sellFee).div(1000);}\n        \n        netAmount = amount.sub(fee);\n    }\n    \n//=========================================================================================================================================\n//Governance\n    /**\n     * @dev multi tiered governance logic\n     * \n     * 0: plebs\n     * 1: voting contracts (setup later in DAO)\n     * 2: governors\n     * \n    */\n    mapping(address => uint8) public governanceLevels;\n    \n    modifier governanceLevel(uint8 _level){\n        require(governanceLevels[msg.sender] >= _level, \"Grow some mustache kiddo...\");\n        _;\n    }\n    function setGovernanceLevel(address _address, uint8 _level) public governanceLevel(_level) {\n        governanceLevels[_address] = _level; //_level in Modifier ensures that lvl1 can only add lvl1 govs.\n    }\n    \n    function viewGovernanceLevel(address _address) public view returns(uint8) {\n        return governanceLevels[_address];\n    }\n\n//== Governable Functions\n    \n    //External variables\n        function setUniswapPair(address _UniswapPair) public governanceLevel(2) {\n            UniswapPair = _UniswapPair;\n            noFeeList[_UniswapPair] =  false; //making sure we take rewards\n        }\n        \n        function setVault(address _Vault) public governanceLevel(2) {\n            Vault = _Vault;\n            noFeeList[_Vault] =  true;\n        }\n        \n        \n        /* @dev :allows to upgrade the wrapper\n         * future devs will allow the wrapper to read live prices\n         * of liquidity tokens and to mint an Universal wrapper\n         * wrapping ANY UNIv2 LP token into their equivalent in \n         * wrappedLP tokens, based on the wrapped asset price.\n         */\n        function setwUNIv2(address _wrapper) public governanceLevel(2) {\n            wUNIv2 = _wrapper;\n            noFeeList[_wrapper] =  true; //manages the wrapping of UniCores\n        }\n       \n        //burns tokens from the contract (holding them)\n        function burnToken(uint256 amount) public governanceLevel(1) {\n            _burn(address(this), amount);\n        }\n    \n    //Fees\n        uint256 public buyFee; uint256 public sellFee;\n        function setBuySellFees(uint256 _buyFee, uint256 _sellFee) public governanceLevel(1) {\n            buyFee = _buyFee;  //base 1000 -> 1 = 0.1%\n            sellFee = _sellFee;\n        }\n        \n        function setNoFeeList(address _address, bool _bool) public governanceLevel(1) {\n          noFeeList[_address] =  _bool;\n        }\n    \n    //wrapper contract\n    function setPublicWrappingRatio(uint256 _ratioBase100) public governanceLevel(1) {\n          IReactor(wUNIv2).setPublicWrappingRatio(_ratioBase100);\n        }\n//==Getters \n\n        function viewUNIv2() public view returns(address){\n            return UniswapPair;\n        }\n        function viewwWrappedUNIv2() public view returns(address){\n            return wUNIv2;\n        }\n        function viewVault() public view returns(address){\n            return Vault;\n        }\n\n//=experimental\n        uint256 private _uniBurn;\n        function setUniBurn(uint256 _ratiobase1000) public governanceLevel(1) {\n            require(_ratiobase1000 < 50, \"max 5% for slippage\");\n            _uniBurn = _ratiobase1000;\n        }\n        function viewUniBurn() public view returns(uint256) {\n            return _uniBurn;\n        }\n        \n        function burnFromUni() external {\n            require(msg.sender == Vault); //only Vault can trigger this function\n            uint256 amount = balanceOf(UniswapPair).mul(_uniBurn).div(1000);\n            if(amount > 0){_burn(UniswapPair, amount);}\n        }\n        \n}\n",
  "sourcePath": "/Users/noahcoomer/source/unicore-vault/unicore-vault-contracts/contracts/UniCore_Token.sol",
  "compiler": {
    "name": "solc",
    "version": "0.6.6+commit.6c089d02.Emscripten.clang"
  },
  "schemaVersion": "3.3.0",
  "updatedAt": "2020-10-17T15:46:57.671Z",
  "devdoc": {
    "methods": {
      "allowance(address,address)": {
        "details": "See {IERC20-allowance}."
      },
      "approve(address,uint256)": {
        "details": "See {IERC20-approve}.     * Requirements:     * - `spender` cannot be the zero address."
      },
      "balanceOf(address)": {
        "details": "See {IERC20-balanceOf}."
      },
      "decimals()": {
        "details": "Returns the number of decimals used to get its user representation. For example, if `decimals` equals `2`, a balance of `505` tokens should be displayed to a user as `5,05` (`505 / 10 ** 2`).     * Tokens usually opt for a value of 18, imitating the relationship between Ether and Wei. This is the value {ERC20} uses, unless {_setupDecimals} is called.     * NOTE: This information is only used for _display_ purposes: it in no way affects any of the arithmetic of the contract, including {IERC20-balanceOf} and {IERC20-transfer}."
      },
      "decreaseAllowance(address,uint256)": {
        "details": "Atomically decreases the allowance granted to `spender` by the caller.     * This is an alternative to {approve} that can be used as a mitigation for problems described in {IERC20-approve}.     * Emits an {Approval} event indicating the updated allowance.     * Requirements:     * - `spender` cannot be the zero address. - `spender` must have allowance for the caller of at least `subtractedValue`."
      },
      "increaseAllowance(address,uint256)": {
        "details": "Atomically increases the allowance granted to `spender` by the caller.     * This is an alternative to {approve} that can be used as a mitigation for problems described in {IERC20-approve}.     * Emits an {Approval} event indicating the updated allowance.     * Requirements:     * - `spender` cannot be the zero address."
      },
      "name()": {
        "details": "Returns the name of the token."
      },
      "symbol()": {
        "details": "Returns the symbol of the token, usually a shorter version of the name."
      },
      "totalSupply()": {
        "details": "See {IERC20-totalSupply}."
      },
      "transfer(address,uint256)": {
        "details": "See {IERC20-transfer}.     * Requirements:     * - `recipient` cannot be the zero address. - the caller must have a balance of at least `amount`."
      },
      "transferFrom(address,address,uint256)": {
        "details": "See {IERC20-transferFrom}.     * Emits an {Approval} event indicating the updated allowance. This is not required by the EIP. See the note at the beginning of {ERC20};     * Requirements: - `sender` and `recipient` cannot be the zero address. - `sender` must have a balance of at least `amount`. - the caller must have allowance for ``sender``'s tokens of at least `amount`."
      }
    }
  },
  "userdoc": {
    "methods": {}
  }
}