{
  "contractName": "UniCore_Token",
  "abi": [
    {
      "inputs": [],
      "stateMutability": "nonpayable",
      "type": "constructor"
    },
    {
      "anonymous": false,
      "inputs": [
        {
          "indexed": true,
          "internalType": "address",
          "name": "owner",
          "type": "address"
        },
        {
          "indexed": true,
          "internalType": "address",
          "name": "spender",
          "type": "address"
        },
        {
          "indexed": false,
          "internalType": "uint256",
          "name": "value",
          "type": "uint256"
        }
      ],
      "name": "Approval",
      "type": "event"
    },
    {
      "anonymous": false,
      "inputs": [
        {
          "indexed": false,
          "internalType": "address",
          "name": "dst",
          "type": "address"
        },
        {
          "indexed": false,
          "internalType": "uint256",
          "name": "value",
          "type": "uint256"
        }
      ],
      "name": "LPTokenClaimed",
      "type": "event"
    },
    {
      "anonymous": false,
      "inputs": [
        {
          "indexed": true,
          "internalType": "address",
          "name": "dst",
          "type": "address"
        },
        {
          "indexed": false,
          "internalType": "uint256",
          "name": "value",
          "type": "uint256"
        }
      ],
      "name": "LiquidityAddition",
      "type": "event"
    },
    {
      "anonymous": false,
      "inputs": [
        {
          "indexed": false,
          "internalType": "string",
          "name": "log",
          "type": "string"
        }
      ],
      "name": "Log",
      "type": "event"
    },
    {
      "anonymous": false,
      "inputs": [
        {
          "indexed": true,
          "internalType": "address",
          "name": "from",
          "type": "address"
        },
        {
          "indexed": true,
          "internalType": "address",
          "name": "to",
          "type": "address"
        },
        {
          "indexed": false,
          "internalType": "uint256",
          "name": "value",
          "type": "uint256"
        }
      ],
      "name": "Transfer",
      "type": "event"
    },
    {
      "inputs": [],
      "name": "LGECompleted_Timestamp",
      "outputs": [
        {
          "internalType": "uint256",
          "name": "",
          "type": "uint256"
        }
      ],
      "stateMutability": "view",
      "type": "function"
    },
    {
      "inputs": [],
      "name": "LPperETHUnit",
      "outputs": [
        {
          "internalType": "uint256",
          "name": "",
          "type": "uint256"
        }
      ],
      "stateMutability": "view",
      "type": "function"
    },
    {
      "inputs": [],
      "name": "UniswapPair",
      "outputs": [
        {
          "internalType": "address",
          "name": "",
          "type": "address"
        }
      ],
      "stateMutability": "view",
      "type": "function"
    },
    {
      "inputs": [],
      "name": "Vault",
      "outputs": [
        {
          "internalType": "address",
          "name": "",
          "type": "address"
        }
      ],
      "stateMutability": "view",
      "type": "function"
    },
    {
      "inputs": [
        {
          "internalType": "address",
          "name": "owner",
          "type": "address"
        },
        {
          "internalType": "address",
          "name": "spender",
          "type": "address"
        }
      ],
      "name": "allowance",
      "outputs": [
        {
          "internalType": "uint256",
          "name": "",
          "type": "uint256"
        }
      ],
      "stateMutability": "view",
      "type": "function"
    },
    {
      "inputs": [
        {
          "internalType": "address",
          "name": "spender",
          "type": "address"
        },
        {
          "internalType": "uint256",
          "name": "amount",
          "type": "uint256"
        }
      ],
      "name": "approve",
      "outputs": [
        {
          "internalType": "bool",
          "name": "",
          "type": "bool"
        }
      ],
      "stateMutability": "nonpayable",
      "type": "function"
    },
    {
      "inputs": [
        {
          "internalType": "address",
          "name": "account",
          "type": "address"
        }
      ],
      "name": "balanceOf",
      "outputs": [
        {
          "internalType": "uint256",
          "name": "",
          "type": "uint256"
        }
      ],
      "stateMutability": "view",
      "type": "function"
    },
    {
      "inputs": [],
      "name": "buyFee",
      "outputs": [
        {
          "internalType": "uint256",
          "name": "",
          "type": "uint256"
        }
      ],
      "stateMutability": "view",
      "type": "function"
    },
    {
      "inputs": [],
      "name": "contractInitialized",
      "outputs": [
        {
          "internalType": "uint256",
          "name": "",
          "type": "uint256"
        }
      ],
      "stateMutability": "view",
      "type": "function"
    },
    {
      "inputs": [],
      "name": "contractStart_Timestamp",
      "outputs": [
        {
          "internalType": "uint256",
          "name": "",
          "type": "uint256"
        }
      ],
      "stateMutability": "view",
      "type": "function"
    },
    {
      "inputs": [],
      "name": "contributionPhase",
      "outputs": [
        {
          "internalType": "uint256",
          "name": "",
          "type": "uint256"
        }
      ],
      "stateMutability": "view",
      "type": "function"
    },
    {
      "inputs": [],
      "name": "decimals",
      "outputs": [
        {
          "internalType": "uint8",
          "name": "",
          "type": "uint8"
        }
      ],
      "stateMutability": "view",
      "type": "function"
    },
    {
      "inputs": [
        {
          "internalType": "address",
          "name": "spender",
          "type": "address"
        },
        {
          "internalType": "uint256",
          "name": "subtractedValue",
          "type": "uint256"
        }
      ],
      "name": "decreaseAllowance",
      "outputs": [
        {
          "internalType": "bool",
          "name": "",
          "type": "bool"
        }
      ],
      "stateMutability": "nonpayable",
      "type": "function"
    },
    {
      "inputs": [],
      "name": "emergencyPeriod",
      "outputs": [
        {
          "internalType": "uint256",
          "name": "",
          "type": "uint256"
        }
      ],
      "stateMutability": "view",
      "type": "function"
    },
    {
      "inputs": [
        {
          "internalType": "address",
          "name": "",
          "type": "address"
        }
      ],
      "name": "ethContributed",
      "outputs": [
        {
          "internalType": "uint256",
          "name": "",
          "type": "uint256"
        }
      ],
      "stateMutability": "view",
      "type": "function"
    },
    {
      "inputs": [
        {
          "internalType": "address",
          "name": "",
          "type": "address"
        }
      ],
      "name": "governanceLevels",
      "outputs": [
        {
          "internalType": "uint8",
          "name": "",
          "type": "uint8"
        }
      ],
      "stateMutability": "view",
      "type": "function"
    },
    {
      "inputs": [
        {
          "internalType": "address",
          "name": "spender",
          "type": "address"
        },
        {
          "internalType": "uint256",
          "name": "addedValue",
          "type": "uint256"
        }
      ],
      "name": "increaseAllowance",
      "outputs": [
        {
          "internalType": "bool",
          "name": "",
          "type": "bool"
        }
      ],
      "stateMutability": "nonpayable",
      "type": "function"
    },
    {
      "inputs": [],
      "name": "individualCap",
      "outputs": [
        {
          "internalType": "uint256",
          "name": "",
          "type": "uint256"
        }
      ],
      "stateMutability": "view",
      "type": "function"
    },
    {
      "inputs": [],
      "name": "initialSupply",
      "outputs": [
        {
          "internalType": "uint256",
          "name": "",
          "type": "uint256"
        }
      ],
      "stateMutability": "view",
      "type": "function"
    },
    {
      "inputs": [],
      "name": "liquidityGenerationParticipationAgreement",
      "outputs": [
        {
          "internalType": "string",
          "name": "",
          "type": "string"
        }
      ],
      "stateMutability": "view",
      "type": "function"
    },
    {
      "inputs": [],
      "name": "name",
      "outputs": [
        {
          "internalType": "string",
          "name": "",
          "type": "string"
        }
      ],
      "stateMutability": "view",
      "type": "function"
    },
    {
      "inputs": [
        {
          "internalType": "address",
          "name": "",
          "type": "address"
        }
      ],
      "name": "noFeeList",
      "outputs": [
        {
          "internalType": "bool",
          "name": "",
          "type": "bool"
        }
      ],
      "stateMutability": "view",
      "type": "function"
    },
    {
      "inputs": [],
      "name": "sellFee",
      "outputs": [
        {
          "internalType": "uint256",
          "name": "",
          "type": "uint256"
        }
      ],
      "stateMutability": "view",
      "type": "function"
    },
    {
      "inputs": [],
      "name": "stackingPhase",
      "outputs": [
        {
          "internalType": "uint256",
          "name": "",
          "type": "uint256"
        }
      ],
      "stateMutability": "view",
      "type": "function"
    },
    {
      "inputs": [],
      "name": "symbol",
      "outputs": [
        {
          "internalType": "string",
          "name": "",
          "type": "string"
        }
      ],
      "stateMutability": "view",
      "type": "function"
    },
    {
      "inputs": [],
      "name": "totalCap",
      "outputs": [
        {
          "internalType": "uint256",
          "name": "",
          "type": "uint256"
        }
      ],
      "stateMutability": "view",
      "type": "function"
    },
    {
      "inputs": [],
      "name": "totalETHContributed",
      "outputs": [
        {
          "internalType": "uint256",
          "name": "",
          "type": "uint256"
        }
      ],
      "stateMutability": "view",
      "type": "function"
    },
    {
      "inputs": [],
      "name": "totalLPTokensMinted",
      "outputs": [
        {
          "internalType": "uint256",
          "name": "",
          "type": "uint256"
        }
      ],
      "stateMutability": "view",
      "type": "function"
    },
    {
      "inputs": [],
      "name": "totalSupply",
      "outputs": [
        {
          "internalType": "uint256",
          "name": "",
          "type": "uint256"
        }
      ],
      "stateMutability": "view",
      "type": "function"
    },
    {
      "inputs": [
        {
          "internalType": "address",
          "name": "recipient",
          "type": "address"
        },
        {
          "internalType": "uint256",
          "name": "amount",
          "type": "uint256"
        }
      ],
      "name": "transfer",
      "outputs": [
        {
          "internalType": "bool",
          "name": "",
          "type": "bool"
        }
      ],
      "stateMutability": "nonpayable",
      "type": "function"
    },
    {
      "inputs": [
        {
          "internalType": "address",
          "name": "sender",
          "type": "address"
        },
        {
          "internalType": "address",
          "name": "recipient",
          "type": "address"
        },
        {
          "internalType": "uint256",
          "name": "amount",
          "type": "uint256"
        }
      ],
      "name": "transferFrom",
      "outputs": [
        {
          "internalType": "bool",
          "name": "",
          "type": "bool"
        }
      ],
      "stateMutability": "nonpayable",
      "type": "function"
    },
    {
      "inputs": [],
      "name": "uniswapFactory",
      "outputs": [
        {
          "internalType": "contract IUniswapV2Factory",
          "name": "",
          "type": "address"
        }
      ],
      "stateMutability": "view",
      "type": "function"
    },
    {
      "inputs": [],
      "name": "uniswapRouterV2",
      "outputs": [
        {
          "internalType": "contract IUniswapV2Router02",
          "name": "",
          "type": "address"
        }
      ],
      "stateMutability": "view",
      "type": "function"
    },
    {
      "inputs": [],
      "name": "wUNIv2",
      "outputs": [
        {
          "internalType": "address",
          "name": "",
          "type": "address"
        }
      ],
      "stateMutability": "view",
      "type": "function"
    },
    {
      "inputs": [],
      "name": "initialSetup",
      "outputs": [],
      "stateMutability": "nonpayable",
      "type": "function"
    },
    {
      "inputs": [
        {
          "internalType": "address",
          "name": "_Vault",
          "type": "address"
        },
        {
          "internalType": "address",
          "name": "_wUNIv2",
          "type": "address"
        }
      ],
      "name": "secondarySetup",
      "outputs": [],
      "stateMutability": "nonpayable",
      "type": "function"
    },
    {
      "inputs": [],
      "name": "emergencyDrain24hAfterLiquidityGenerationEventIsDone",
      "outputs": [],
      "stateMutability": "nonpayable",
      "type": "function"
    },
    {
      "inputs": [
        {
          "internalType": "bool",
          "name": "agreesToTermsOutlinedInLiquidityGenerationParticipationAgreement",
          "type": "bool"
        }
      ],
      "name": "USER_PledgeLiquidity",
      "outputs": [],
      "stateMutability": "payable",
      "type": "function"
    },
    {
      "inputs": [],
      "name": "USER_UNPledgeLiquidity",
      "outputs": [],
      "stateMutability": "nonpayable",
      "type": "function"
    },
    {
      "inputs": [],
      "name": "POOL_CreateLiquidity",
      "outputs": [],
      "stateMutability": "nonpayable",
      "type": "function"
    },
    {
      "inputs": [],
      "name": "USER_ClaimWrappedLiquidity",
      "outputs": [],
      "stateMutability": "nonpayable",
      "type": "function"
    },
    {
      "inputs": [
        {
          "internalType": "address",
          "name": "sender",
          "type": "address"
        },
        {
          "internalType": "uint256",
          "name": "amount",
          "type": "uint256"
        }
      ],
      "name": "calculateAmountAndFee",
      "outputs": [
        {
          "internalType": "uint256",
          "name": "netAmount",
          "type": "uint256"
        },
        {
          "internalType": "uint256",
          "name": "fee",
          "type": "uint256"
        }
      ],
      "stateMutability": "view",
      "type": "function"
    },
    {
      "inputs": [
        {
          "internalType": "address",
          "name": "_address",
          "type": "address"
        },
        {
          "internalType": "uint8",
          "name": "_level",
          "type": "uint8"
        }
      ],
      "name": "setGovernanceLevel",
      "outputs": [],
      "stateMutability": "nonpayable",
      "type": "function"
    },
    {
      "inputs": [
        {
          "internalType": "address",
          "name": "_address",
          "type": "address"
        }
      ],
      "name": "viewGovernanceLevel",
      "outputs": [
        {
          "internalType": "uint8",
          "name": "",
          "type": "uint8"
        }
      ],
      "stateMutability": "view",
      "type": "function"
    },
    {
      "inputs": [
        {
          "internalType": "address",
          "name": "_UniswapPair",
          "type": "address"
        }
      ],
      "name": "setUniswapPair",
      "outputs": [],
      "stateMutability": "nonpayable",
      "type": "function"
    },
    {
      "inputs": [
        {
          "internalType": "address",
          "name": "_Vault",
          "type": "address"
        }
      ],
      "name": "setVault",
      "outputs": [],
      "stateMutability": "nonpayable",
      "type": "function"
    },
    {
      "inputs": [
        {
          "internalType": "address",
          "name": "_wrapper",
          "type": "address"
        }
      ],
      "name": "setwUNIv2",
      "outputs": [],
      "stateMutability": "nonpayable",
      "type": "function"
    },
    {
      "inputs": [
        {
          "internalType": "uint256",
          "name": "amount",
          "type": "uint256"
        }
      ],
      "name": "burnToken",
      "outputs": [],
      "stateMutability": "nonpayable",
      "type": "function"
    },
    {
      "inputs": [
        {
          "internalType": "uint256",
          "name": "_buyFee",
          "type": "uint256"
        },
        {
          "internalType": "uint256",
          "name": "_sellFee",
          "type": "uint256"
        }
      ],
      "name": "setBuySellFees",
      "outputs": [],
      "stateMutability": "nonpayable",
      "type": "function"
    },
    {
      "inputs": [
        {
          "internalType": "address",
          "name": "_address",
          "type": "address"
        },
        {
          "internalType": "bool",
          "name": "_bool",
          "type": "bool"
        }
      ],
      "name": "setNoFeeList",
      "outputs": [],
      "stateMutability": "nonpayable",
      "type": "function"
    },
    {
      "inputs": [
        {
          "internalType": "uint256",
          "name": "_ratioBase100",
          "type": "uint256"
        }
      ],
      "name": "setPublicWrappingRatio",
      "outputs": [],
      "stateMutability": "nonpayable",
      "type": "function"
    },
    {
      "inputs": [],
      "name": "viewUNIv2",
      "outputs": [
        {
          "internalType": "address",
          "name": "",
          "type": "address"
        }
      ],
      "stateMutability": "view",
      "type": "function"
    },
    {
      "inputs": [],
      "name": "viewwWrappedUNIv2",
      "outputs": [
        {
          "internalType": "address",
          "name": "",
          "type": "address"
        }
      ],
      "stateMutability": "view",
      "type": "function"
    },
    {
      "inputs": [],
      "name": "viewVault",
      "outputs": [
        {
          "internalType": "address",
          "name": "",
          "type": "address"
        }
      ],
      "stateMutability": "view",
      "type": "function"
    },
    {
      "inputs": [
        {
          "internalType": "bool",
          "name": "_bool",
          "type": "bool"
        }
      ],
      "name": "setUniBurn",
      "outputs": [],
      "stateMutability": "nonpayable",
      "type": "function"
    },
    {
      "inputs": [],
      "name": "viewUniBurnEnabled",
      "outputs": [
        {
          "internalType": "bool",
          "name": "",
          "type": "bool"
        }
      ],
      "stateMutability": "view",
      "type": "function"
    },
    {
      "inputs": [
        {
          "internalType": "uint256",
          "name": "_amount",
          "type": "uint256"
        }
      ],
      "name": "burnFromUni",
      "outputs": [],
      "stateMutability": "nonpayable",
      "type": "function"
    }
  ],
  "bytecode": "0x60806040526040518060a0016040528060678152602001620054fd606791396016908051906020019062000035929190620003e6565b503480156200004357600080fd5b506040518060400160405280600c81526020017f546573745f556e69636f726500000000000000000000000000000000000000008152506040518060400160405280600981526020017f545f554e49434f524500000000000000000000000000000000000000000000008152508160039080519060200190620000c8929190620003e6565b508060049080519060200190620000e1929190620003e6565b506012600560006101000a81548160ff021916908360ff16021790555050506200011b30683635c9adc5dea000006200017a60201b60201c565b6002601860003373ffffffffffffffffffffffffffffffffffffffff1673ffffffffffffffffffffffffffffffffffffffff16815260200190815260200160002060006101000a81548160ff021916908360ff16021790555062000495565b600073ffffffffffffffffffffffffffffffffffffffff168273ffffffffffffffffffffffffffffffffffffffff1614156200021e576040517f08c379a000000000000000000000000000000000000000000000000000000000815260040180806020018281038252601f8152602001807f45524332303a206d696e7420746f20746865207a65726f20616464726573730081525060200191505060405180910390fd5b62000232600083836200035860201b60201c565b6200024e816002546200035d60201b620045231790919060201c565b600281905550620002ac816000808573ffffffffffffffffffffffffffffffffffffffff1673ffffffffffffffffffffffffffffffffffffffff168152602001908152602001600020546200035d60201b620045231790919060201c565b6000808473ffffffffffffffffffffffffffffffffffffffff1673ffffffffffffffffffffffffffffffffffffffff168152602001908152602001600020819055508173ffffffffffffffffffffffffffffffffffffffff16600073ffffffffffffffffffffffffffffffffffffffff167fddf252ad1be2c89b69c2b068fc378daa952ba7f163c4a11628f55a4df523b3ef836040518082815260200191505060405180910390a35050565b505050565b600080828401905083811015620003dc576040517f08c379a000000000000000000000000000000000000000000000000000000000815260040180806020018281038252601b8152602001807f536166654d6174683a206164646974696f6e206f766572666c6f77000000000081525060200191505060405180910390fd5b8091505092915050565b828054600181600116156101000203166002900490600052602060002090601f016020900481019282601f106200042957805160ff19168380011785556200045a565b828001600101855582156200045a579182015b82811115620004595782518255916020019190600101906200043c565b5b5090506200046991906200046d565b5090565b6200049291905b808211156200048e57600081600090555060010162000474565b5090565b90565b61505880620004a56000396000f3fe6080604052600436106103745760003560e01c80635ef17012116101d1578063a19b083711610102578063baecc4ce116100a0578063dd62ed3e1161006f578063dd62ed3e14611292578063dd912c4114611317578063de5099cc14611374578063f96f5b35146113b957610374565b8063baecc4ce1461116e578063c25cc8af146111ab578063d5aed6bf14611216578063db1a19031461126757610374565b8063a9059cbb116100dc578063a9059cbb1461109d578063b712286814611110578063b8752e7014611127578063b88c712e1461113e57610374565b8063a19b083714610f7c578063a2b0a66e14610fd3578063a457c2d71461102a57610374565b80637e31ea111161016f5780638bdb2afa116101495780638bdb2afa14610dca5780638e8e292514610e2157806395d89b4114610eb157806397a40a8314610f4157610374565b80637e31ea1114610cdb578063803486e714610d0a5780638aa1ff7014610d6157610374565b806370a08231116101ab57806370a0823114610b8d578063713a83e514610bf257806378a63f3414610c495780637b47ec1a14610ca057610374565b80635ef1701214610a9b578063639d7e8614610b115780636817031b14610b3c57610374565b80632da9181c116102ab578063378dc3dc11610249578063418c3f7a11610223578063418c3f7a146109d75780634706240214610a025780634f1a0f7d14610a2d578063596fa9e314610a4457610374565b8063378dc3dc14610922578063395093511461094d5780634051b384146109c057610374565b806331a22a201161028557806331a22a2014610830578063337a87c61461085b578063343a6ea5146108cc5780633528f4d7146108f757610374565b80632da9181c1461078a5780632e7fae31146107a1578063313ce567146107ff57610374565b8063164500921161031857806323399434116102f2578063233994341461064a57806323b872dd146106755780632b14ca56146107085780632d2c44f21461073357610374565b806316450092146105b957806318160ddd146105e45780631fca1d651461060f57610374565b8063029496b511610354578063029496b5146103fa57806306fdde031461044b578063095ea7b3146104db578063129145951461054e57610374565b80622b132914610379578062b34747146103a45780630276650b146103cf575b600080fd5b34801561038557600080fd5b5061038e61141e565b6040518082815260200191505060405180910390f35b3480156103b057600080fd5b506103b9611424565b6040518082815260200191505060405180910390f35b3480156103db57600080fd5b506103e461142a565b6040518082815260200191505060405180910390f35b34801561040657600080fd5b506104496004803603602081101561041d57600080fd5b81019080803573ffffffffffffffffffffffffffffffffffffffff169060200190929190505050611436565b005b34801561045757600080fd5b5061046061159d565b6040518080602001828103825283818151815260200191508051906020019080838360005b838110156104a0578082015181840152602081019050610485565b50505050905090810190601f1680156104cd5780820380516001836020036101000a031916815260200191505b509250505060405180910390f35b3480156104e757600080fd5b50610534600480360360408110156104fe57600080fd5b81019080803573ffffffffffffffffffffffffffffffffffffffff1690602001909291908035906020019092919050505061163f565b604051808215151515815260200191505060405180910390f35b34801561055a57600080fd5b5061059d6004803603602081101561057157600080fd5b81019080803573ffffffffffffffffffffffffffffffffffffffff16906020019092919050505061165d565b604051808260ff1660ff16815260200191505060405180910390f35b3480156105c557600080fd5b506105ce61167d565b6040518082815260200191505060405180910390f35b3480156105f057600080fd5b506105f9611689565b6040518082815260200191505060405180910390f35b34801561061b57600080fd5b506106486004803603602081101561063257600080fd5b8101908080359060200190929190505050611693565b005b34801561065657600080fd5b5061065f611881565b6040518082815260200191505060405180910390f35b34801561068157600080fd5b506106ee6004803603606081101561069857600080fd5b81019080803573ffffffffffffffffffffffffffffffffffffffff169060200190929190803573ffffffffffffffffffffffffffffffffffffffff16906020019092919080359060200190929190505050611887565b604051808215151515815260200191505060405180910390f35b34801561071457600080fd5b5061071d611960565b6040518082815260200191505060405180910390f35b34801561073f57600080fd5b50610748611966565b604051808273ffffffffffffffffffffffffffffffffffffffff1673ffffffffffffffffffffffffffffffffffffffff16815260200191505060405180910390f35b34801561079657600080fd5b5061079f61198c565b005b3480156107ad57600080fd5b506107fd600480360360408110156107c457600080fd5b81019080803573ffffffffffffffffffffffffffffffffffffffff169060200190929190803560ff169060200190929190505050611c44565b005b34801561080b57600080fd5b50610814611d6a565b604051808260ff1660ff16815260200191505060405180910390f35b34801561083c57600080fd5b50610845611d81565b6040518082815260200191505060405180910390f35b34801561086757600080fd5b506108ca6004803603604081101561087e57600080fd5b81019080803573ffffffffffffffffffffffffffffffffffffffff169060200190929190803573ffffffffffffffffffffffffffffffffffffffff169060200190929190505050611d87565b005b3480156108d857600080fd5b506108e1611fc7565b6040518082815260200191505060405180910390f35b34801561090357600080fd5b5061090c611fcd565b6040518082815260200191505060405180910390f35b34801561092e57600080fd5b50610937611fd4565b6040518082815260200191505060405180910390f35b34801561095957600080fd5b506109a66004803603604081101561097057600080fd5b81019080803573ffffffffffffffffffffffffffffffffffffffff16906020019092919080359060200190929190505050611fe1565b604051808215151515815260200191505060405180910390f35b3480156109cc57600080fd5b506109d5612094565b005b3480156109e357600080fd5b506109ec6121a6565b6040518082815260200191505060405180910390f35b348015610a0e57600080fd5b50610a176121ac565b6040518082815260200191505060405180910390f35b348015610a3957600080fd5b50610a426121b2565b005b348015610a5057600080fd5b50610a596123ed565b604051808273ffffffffffffffffffffffffffffffffffffffff1673ffffffffffffffffffffffffffffffffffffffff16815260200191505060405180910390f35b348015610aa757600080fd5b50610af460048036036040811015610abe57600080fd5b81019080803573ffffffffffffffffffffffffffffffffffffffff16906020019092919080359060200190929190505050612413565b604051808381526020018281526020019250505060405180910390f35b348015610b1d57600080fd5b50610b26612540565b6040518082815260200191505060405180910390f35b348015610b4857600080fd5b50610b8b60048036036020811015610b5f57600080fd5b81019080803573ffffffffffffffffffffffffffffffffffffffff169060200190929190505050612546565b005b348015610b9957600080fd5b50610bdc60048036036020811015610bb057600080fd5b81019080803573ffffffffffffffffffffffffffffffffffffffff1690602001909291905050506126ad565b6040518082815260200191505060405180910390f35b348015610bfe57600080fd5b50610c076126f5565b604051808273ffffffffffffffffffffffffffffffffffffffff1673ffffffffffffffffffffffffffffffffffffffff16815260200191505060405180910390f35b348015610c5557600080fd5b50610c5e61271b565b604051808273ffffffffffffffffffffffffffffffffffffffff1673ffffffffffffffffffffffffffffffffffffffff16815260200191505060405180910390f35b348015610cac57600080fd5b50610cd960048036036020811015610cc357600080fd5b8101908080359060200190929190505050612741565b005b348015610ce757600080fd5b50610cf0612819565b604051808215151515815260200191505060405180910390f35b348015610d1657600080fd5b50610d1f612830565b604051808273ffffffffffffffffffffffffffffffffffffffff1673ffffffffffffffffffffffffffffffffffffffff16815260200191505060405180910390f35b348015610d6d57600080fd5b50610db060048036036020811015610d8457600080fd5b81019080803573ffffffffffffffffffffffffffffffffffffffff16906020019092919050505061285a565b604051808215151515815260200191505060405180910390f35b348015610dd657600080fd5b50610ddf61287a565b604051808273ffffffffffffffffffffffffffffffffffffffff1673ffffffffffffffffffffffffffffffffffffffff16815260200191505060405180910390f35b348015610e2d57600080fd5b50610e366128a0565b6040518080602001828103825283818151815260200191508051906020019080838360005b83811015610e76578082015181840152602081019050610e5b565b50505050905090810190601f168015610ea35780820380516001836020036101000a031916815260200191505b509250505060405180910390f35b348015610ebd57600080fd5b50610ec661293e565b6040518080602001828103825283818151815260200191508051906020019080838360005b83811015610f06578082015181840152602081019050610eeb565b50505050905090810190601f168015610f335780820380516001836020036101000a031916815260200191505b509250505060405180910390f35b348015610f4d57600080fd5b50610f7a60048036036020811015610f6457600080fd5b81019080803590602001909291905050506129e0565b005b348015610f8857600080fd5b50610f91612b3b565b604051808273ffffffffffffffffffffffffffffffffffffffff1673ffffffffffffffffffffffffffffffffffffffff16815260200191505060405180910390f35b348015610fdf57600080fd5b50610fe8612b65565b604051808273ffffffffffffffffffffffffffffffffffffffff1673ffffffffffffffffffffffffffffffffffffffff16815260200191505060405180910390f35b34801561103657600080fd5b506110836004803603604081101561104d57600080fd5b81019080803573ffffffffffffffffffffffffffffffffffffffff16906020019092919080359060200190929190505050612b8f565b604051808215151515815260200191505060405180910390f35b3480156110a957600080fd5b506110f6600480360360408110156110c057600080fd5b81019080803573ffffffffffffffffffffffffffffffffffffffff16906020019092919080359060200190929190505050612c5c565b604051808215151515815260200191505060405180910390f35b34801561111c57600080fd5b50611125612c7a565b005b34801561113357600080fd5b5061113c613284565b005b61116c6004803603602081101561115457600080fd5b810190808035151590602001909291905050506133a4565b005b34801561117a57600080fd5b506111a96004803603602081101561119157600080fd5b8101908080351515906020019092919050505061368e565b005b3480156111b757600080fd5b506111fa600480360360208110156111ce57600080fd5b81019080803573ffffffffffffffffffffffffffffffffffffffff169060200190929190505050613776565b604051808260ff1660ff16815260200191505060405180910390f35b34801561122257600080fd5b506112656004803603602081101561123957600080fd5b81019080803573ffffffffffffffffffffffffffffffffffffffff1690602001909291905050506137cc565b005b34801561127357600080fd5b5061127c613933565b6040518082815260200191505060405180910390f35b34801561129e57600080fd5b50611301600480360360408110156112b557600080fd5b81019080803573ffffffffffffffffffffffffffffffffffffffff169060200190929190803573ffffffffffffffffffffffffffffffffffffffff169060200190929190505050613939565b6040518082815260200191505060405180910390f35b34801561132357600080fd5b506113726004803603604081101561133a57600080fd5b81019080803573ffffffffffffffffffffffffffffffffffffffff1690602001909291908035151590602001909291905050506139c0565b005b34801561138057600080fd5b506113b76004803603604081101561139757600080fd5b810190808035906020019092919080359060200190929190505050613ae6565b005b3480156113c557600080fd5b50611408600480360360208110156113dc57600080fd5b81019080803573ffffffffffffffffffffffffffffffffffffffff169060200190929190505050613bc3565b6040518082815260200191505060405180910390f35b600d5481565b600a5481565b67016345785d8a000081565b60028060ff16601860003373ffffffffffffffffffffffffffffffffffffffff1673ffffffffffffffffffffffffffffffffffffffff16815260200190815260200160002060009054906101000a900460ff1660ff161015611500576040517f08c379a000000000000000000000000000000000000000000000000000000000815260040180806020018281038252601b8152602001807f47726f7720736f6d65206d75737461636865206b6964646f2e2e2e000000000081525060200191505060405180910390fd5b81601260006101000a81548173ffffffffffffffffffffffffffffffffffffffff021916908373ffffffffffffffffffffffffffffffffffffffff1602179055506001601760008473ffffffffffffffffffffffffffffffffffffffff1673ffffffffffffffffffffffffffffffffffffffff16815260200190815260200160002060006101000a81548160ff0219169083151502179055505050565b606060038054600181600116156101000203166002900480601f0160208091040260200160405190810160405280929190818152602001828054600181600116156101000203166002900480156116355780601f1061160a57610100808354040283529160200191611635565b820191906000526020600020905b81548152906001019060200180831161161857829003601f168201915b5050505050905090565b600061165361164c613bdb565b8484613be3565b6001905092915050565b60186020528060005260406000206000915054906101000a900460ff1681565b670429d069189e000081565b6000600254905090565b601360009054906101000a900473ffffffffffffffffffffffffffffffffffffffff1673ffffffffffffffffffffffffffffffffffffffff163373ffffffffffffffffffffffffffffffffffffffff16146116ed57600080fd5b60006117be601260009054906101000a900473ffffffffffffffffffffffffffffffffffffffff1673ffffffffffffffffffffffffffffffffffffffff166318160ddd6040518163ffffffff1660e01b815260040160206040518083038186803b15801561175a57600080fd5b505afa15801561176e573d6000803e3d6000fd5b505050506040513d602081101561178457600080fd5b81019080805190602001909291905050506117b0670de0b6b3a764000085613dda90919063ffffffff16565b613e6090919063ffffffff16565b9050600061182c600a61181e670de0b6b3a7640000611810611801601160009054906101000a900473ffffffffffffffffffffffffffffffffffffffff166126ad565b87613dda90919063ffffffff16565b613e6090919063ffffffff16565b613e6090919063ffffffff16565b905060008111801561184a5750601b60009054906101000a900460ff165b1561187c5761187b601160009054906101000a900473ffffffffffffffffffffffffffffffffffffffff1682613eaa565b5b505050565b600e5481565b600061189484848461406e565b611955846118a0613bdb565b61195085604051806060016040528060288152602001614f2960289139600160008b73ffffffffffffffffffffffffffffffffffffffff1673ffffffffffffffffffffffffffffffffffffffff1681526020019081526020016000206000611906613bdb565b73ffffffffffffffffffffffffffffffffffffffff1673ffffffffffffffffffffffffffffffffffffffff168152602001908152602001600020546144639092919063ffffffff16565b613be3565b600190509392505050565b601a5481565b601360009054906101000a900473ffffffffffffffffffffffffffffffffffffffff1681565b6000600c541161199b57600080fd5b600c5442116119a957600080fd5b6000601060003373ffffffffffffffffffffffffffffffffffffffff1673ffffffffffffffffffffffffffffffffffffffff1681526020019081526020016000205411611a5e576040517f08c379a000000000000000000000000000000000000000000000000000000000815260040180806020018281038252601c8152602001807f4e6f7468696e6720746f20636c61696d2c206d6f766520616c6f6e670000000081525060200191505060405180910390fd5b6000611ace670de0b6b3a7640000611ac0600f54601060003373ffffffffffffffffffffffffffffffffffffffff1673ffffffffffffffffffffffffffffffffffffffff16815260200190815260200160002054613dda90919063ffffffff16565b613e6090919063ffffffff16565b9050601260009054906101000a900473ffffffffffffffffffffffffffffffffffffffff1673ffffffffffffffffffffffffffffffffffffffff16634ebc069433836040518363ffffffff1660e01b8152600401808373ffffffffffffffffffffffffffffffffffffffff1673ffffffffffffffffffffffffffffffffffffffff16815260200182815260200192505050600060405180830381600087803b158015611b7957600080fd5b505af1158015611b8d573d6000803e3d6000fd5b505050506000601060003373ffffffffffffffffffffffffffffffffffffffff1673ffffffffffffffffffffffffffffffffffffffff168152602001908152602001600020819055507f586e28f4f60b4d906fc69694ea6d7fe5c5668730ce3286d7af8eca868f3c27603382604051808373ffffffffffffffffffffffffffffffffffffffff1673ffffffffffffffffffffffffffffffffffffffff1681526020018281526020019250505060405180910390a150565b808060ff16601860003373ffffffffffffffffffffffffffffffffffffffff1673ffffffffffffffffffffffffffffffffffffffff16815260200190815260200160002060009054906101000a900460ff1660ff161015611d0d576040517f08c379a000000000000000000000000000000000000000000000000000000000815260040180806020018281038252601b8152602001807f47726f7720736f6d65206d75737461636865206b6964646f2e2e2e000000000081525060200191505060405180910390fd5b81601860008573ffffffffffffffffffffffffffffffffffffffff1673ffffffffffffffffffffffffffffffffffffffff16815260200190815260200160002060006101000a81548160ff021916908360ff160217905550505050565b6000600560009054906101000a900460ff16905090565b600f5481565b60028060ff16601860003373ffffffffffffffffffffffffffffffffffffffff1673ffffffffffffffffffffffffffffffffffffffff16815260200190815260200160002060009054906101000a900460ff1660ff161015611e51576040517f08c379a000000000000000000000000000000000000000000000000000000000815260040180806020018281038252601b8152602001807f47726f7720736f6d65206d75737461636865206b6964646f2e2e2e000000000081525060200191505060405180910390fd5b6000600a54118015611e6557506000600b54145b611e6e57600080fd5b611e7783612546565b81601260006101000a81548173ffffffffffffffffffffffffffffffffffffffff021916908373ffffffffffffffffffffffffffffffffffffffff160217905550600073ffffffffffffffffffffffffffffffffffffffff16601360009054906101000a900473ffffffffffffffffffffffffffffffffffffffff1673ffffffffffffffffffffffffffffffffffffffff1614158015611f665750600073ffffffffffffffffffffffffffffffffffffffff16601260009054906101000a900473ffffffffffffffffffffffffffffffffffffffff1673ffffffffffffffffffffffffffffffffffffffff1614155b611fbb576040517f08c379a0000000000000000000000000000000000000000000000000000000008152600401808060200182810382526021815260200180614fb96021913960400191505060405180910390fd5b42600b81905550505050565b600c5481565b6201518081565b683635c9adc5dea0000081565b600061208a611fee613bdb565b846120858560016000611fff613bdb565b73ffffffffffffffffffffffffffffffffffffffff1673ffffffffffffffffffffffffffffffffffffffff16815260200190815260200160002060008973ffffffffffffffffffffffffffffffffffffffff1673ffffffffffffffffffffffffffffffffffffffff1681526020019081526020016000205461452390919063ffffffff16565b613be3565b6001905092915050565b60028060ff16601860003373ffffffffffffffffffffffffffffffffffffffff1673ffffffffffffffffffffffffffffffffffffffff16815260200190815260200160002060009054906101000a900460ff1660ff16101561215e576040517f08c379a000000000000000000000000000000000000000000000000000000000815260040180806020018281038252601b8152602001807f47726f7720736f6d65206d75737461636865206b6964646f2e2e2e000000000081525060200191505060405180910390fd5b42600a81905550612170600a80613ae6565b6121a2737a250d5630b4cf539739df2c5dacb4c659f2488d735c69bee701ef814a2b6a3edd4b1652cb9cc5aa6f6145ab565b5050565b600b5481565b60195481565b60028060ff16601860003373ffffffffffffffffffffffffffffffffffffffff1673ffffffffffffffffffffffffffffffffffffffff16815260200190815260200160002060009054906101000a900460ff1660ff16101561227c576040517f08c379a000000000000000000000000000000000000000000000000000000000815260040180806020018281038252601b8152602001807f47726f7720736f6d65206d75737461636865206b6964646f2e2e2e000000000081525060200191505060405180910390fd5b6000600b541161228b57600080fd5b426122a462015180600b5461452390919063ffffffff16565b106122fa576040517f08c379a000000000000000000000000000000000000000000000000000000000815260040180806020018281038252602f815260200180614ed9602f913960400191505060405180910390fd5b60003373ffffffffffffffffffffffffffffffffffffffff164760405180600001905060006040518083038185875af1925050503d806000811461235a576040519150601f19603f3d011682016040523d82523d6000602084013e61235f565b606091505b50509050806123d6576040517f08c379a00000000000000000000000000000000000000000000000000000000081526004018080602001828103825260108152602001807f5472616e73666572206661696c65642e0000000000000000000000000000000081525060200191505060405180910390fd5b6123e930336123e4306126ad565b614a27565b5050565b601460009054906101000a900473ffffffffffffffffffffffffffffffffffffffff1681565b600080601760008573ffffffffffffffffffffffffffffffffffffffff1673ffffffffffffffffffffffffffffffffffffffff16815260200190815260200160002060009054906101000a900460ff16156124715760009050612524565b601160009054906101000a900473ffffffffffffffffffffffffffffffffffffffff1673ffffffffffffffffffffffffffffffffffffffff168473ffffffffffffffffffffffffffffffffffffffff1614156124f7576124f06103e86124e260195486613dda90919063ffffffff16565b613e6090919063ffffffff16565b9050612523565b6125206103e8612512601a5486613dda90919063ffffffff16565b613e6090919063ffffffff16565b90505b5b6125378184614ce890919063ffffffff16565b91509250929050565b612a3081565b60028060ff16601860003373ffffffffffffffffffffffffffffffffffffffff1673ffffffffffffffffffffffffffffffffffffffff16815260200190815260200160002060009054906101000a900460ff1660ff161015612610576040517f08c379a000000000000000000000000000000000000000000000000000000000815260040180806020018281038252601b8152602001807f47726f7720736f6d65206d75737461636865206b6964646f2e2e2e000000000081525060200191505060405180910390fd5b81601360006101000a81548173ffffffffffffffffffffffffffffffffffffffff021916908373ffffffffffffffffffffffffffffffffffffffff1602179055506001601760008473ffffffffffffffffffffffffffffffffffffffff1673ffffffffffffffffffffffffffffffffffffffff16815260200190815260200160002060006101000a81548160ff0219169083151502179055505050565b60008060008373ffffffffffffffffffffffffffffffffffffffff1673ffffffffffffffffffffffffffffffffffffffff168152602001908152602001600020549050919050565b601260009054906101000a900473ffffffffffffffffffffffffffffffffffffffff1681565b601160009054906101000a900473ffffffffffffffffffffffffffffffffffffffff1681565b60018060ff16601860003373ffffffffffffffffffffffffffffffffffffffff1673ffffffffffffffffffffffffffffffffffffffff16815260200190815260200160002060009054906101000a900460ff1660ff16101561280b576040517f08c379a000000000000000000000000000000000000000000000000000000000815260040180806020018281038252601b8152602001807f47726f7720736f6d65206d75737461636865206b6964646f2e2e2e000000000081525060200191505060405180910390fd5b6128153083613eaa565b5050565b6000601b60009054906101000a900460ff16905090565b6000601360009054906101000a900473ffffffffffffffffffffffffffffffffffffffff16905090565b60176020528060005260406000206000915054906101000a900460ff1681565b601560009054906101000a900473ffffffffffffffffffffffffffffffffffffffff1681565b60168054600181600116156101000203166002900480601f0160208091040260200160405190810160405280929190818152602001828054600181600116156101000203166002900480156129365780601f1061290b57610100808354040283529160200191612936565b820191906000526020600020905b81548152906001019060200180831161291957829003601f168201915b505050505081565b606060048054600181600116156101000203166002900480601f0160208091040260200160405190810160405280929190818152602001828054600181600116156101000203166002900480156129d65780601f106129ab576101008083540402835291602001916129d6565b820191906000526020600020905b8154815290600101906020018083116129b957829003601f168201915b5050505050905090565b60018060ff16601860003373ffffffffffffffffffffffffffffffffffffffff1673ffffffffffffffffffffffffffffffffffffffff16815260200190815260200160002060009054906101000a900460ff1660ff161015612aaa576040517f08c379a000000000000000000000000000000000000000000000000000000000815260040180806020018281038252601b8152602001807f47726f7720736f6d65206d75737461636865206b6964646f2e2e2e000000000081525060200191505060405180910390fd5b601260009054906101000a900473ffffffffffffffffffffffffffffffffffffffff1673ffffffffffffffffffffffffffffffffffffffff166397a40a83836040518263ffffffff1660e01b815260040180828152602001915050600060405180830381600087803b158015612b1f57600080fd5b505af1158015612b33573d6000803e3d6000fd5b505050505050565b6000601160009054906101000a900473ffffffffffffffffffffffffffffffffffffffff16905090565b6000601260009054906101000a900473ffffffffffffffffffffffffffffffffffffffff16905090565b6000612c52612b9c613bdb565b84612c4d85604051806060016040528060258152602001614ffe6025913960016000612bc6613bdb565b73ffffffffffffffffffffffffffffffffffffffff1673ffffffffffffffffffffffffffffffffffffffff16815260200190815260200160002060008a73ffffffffffffffffffffffffffffffffffffffff1673ffffffffffffffffffffffffffffffffffffffff168152602001908152602001600020546144639092919063ffffffff16565b613be3565b6001905092915050565b6000612c70612c69613bdb565b848461406e565b6001905092915050565b612ca96064612c9b6063670429d069189e0000613dda90919063ffffffff16565b613e6090919063ffffffff16565b600e541015612ce4576000600b5411612cc157600080fd5b612cd8612a30600b5461452390919063ffffffff16565b4211612ce357600080fd5b5b47600e819055506000601160009054906101000a900473ffffffffffffffffffffffffffffffffffffffff1690506000601460009054906101000a900473ffffffffffffffffffffffffffffffffffffffff1673ffffffffffffffffffffffffffffffffffffffff1663ad5c46486040518163ffffffff1660e01b815260040160206040518083038186803b158015612d7c57600080fd5b505afa158015612d90573d6000803e3d6000fd5b505050506040513d6020811015612da657600080fd5b810190808051906020019092919050505090508073ffffffffffffffffffffffffffffffffffffffff1663d0e30db0600e546040518263ffffffff1660e01b81526004016000604051808303818588803b158015612e0357600080fd5b505af1158015612e17573d6000803e3d6000fd5b505050505060004714612e92576040517f08c379a000000000000000000000000000000000000000000000000000000000815260040180806020018281038252600f8152602001807f5472616e73666572204661696c6564000000000000000000000000000000000081525060200191505060405180910390fd5b8073ffffffffffffffffffffffffffffffffffffffff1663a9059cbb83600e546040518363ffffffff1660e01b8152600401808373ffffffffffffffffffffffffffffffffffffffff1673ffffffffffffffffffffffffffffffffffffffff16815260200182815260200192505050602060405180830381600087803b158015612f1b57600080fd5b505af1158015612f2f573d6000803e3d6000fd5b505050506040513d6020811015612f4557600080fd5b8101908080519060200190929190505050508173ffffffffffffffffffffffffffffffffffffffff163073ffffffffffffffffffffffffffffffffffffffff167fddf252ad1be2c89b69c2b068fc378daa952ba7f163c4a11628f55a4df523b3ef612faf306126ad565b6040518082815260200191505060405180910390a3612fd73083612fd2306126ad565b614a27565b8173ffffffffffffffffffffffffffffffffffffffff16636a627842306040518263ffffffff1660e01b8152600401808273ffffffffffffffffffffffffffffffffffffffff1673ffffffffffffffffffffffffffffffffffffffff168152602001915050602060405180830381600087803b15801561305657600080fd5b505af115801561306a573d6000803e3d6000fd5b505050506040513d602081101561308057600080fd5b8101908080519060200190929190505050508173ffffffffffffffffffffffffffffffffffffffff166370a08231306040518263ffffffff1660e01b8152600401808273ffffffffffffffffffffffffffffffffffffffff1673ffffffffffffffffffffffffffffffffffffffff16815260200191505060206040518083038186803b15801561310f57600080fd5b505afa158015613123573d6000803e3d6000fd5b505050506040513d602081101561313957600080fd5b8101908080519060200190929190505050600d819055506000600d5414156131c9576040517f08c379a00000000000000000000000000000000000000000000000000000000081526004018080602001828103825260128152602001807f4c50206372656174696f6e206661696c6564000000000000000000000000000081525060200191505060405180910390fd5b6131fa600e546131ec670de0b6b3a7640000600d54613dda90919063ffffffff16565b613e6090919063ffffffff16565b600f819055506000600f541415613279576040517f08c379a00000000000000000000000000000000000000000000000000000000081526004018080602001828103825260128152602001807f4c50206372656174696f6e206661696c6564000000000000000000000000000081525060200191505060405180910390fd5b42600c819055505050565b6000600b541161329357600080fd5b6132aa612a30600b5461452390919063ffffffff16565b4211156132b657600080fd5b6000601060003373ffffffffffffffffffffffffffffffffffffffff1673ffffffffffffffffffffffffffffffffffffffff1681526020019081526020016000205490506000601060003373ffffffffffffffffffffffffffffffffffffffff1673ffffffffffffffffffffffffffffffffffffffff168152602001908152602001600020819055503373ffffffffffffffffffffffffffffffffffffffff166108fc829081150290604051600060405180830381858888f19350505050158015613385573d6000803e3d6000fd5b5061339b81600e54614ce890919063ffffffff16565b600e8190555050565b6000600b54116133b357600080fd5b6133ca612a30600b5461452390919063ffffffff16565b4211156133d657600080fd5b67016345785d8a000061343134601060003373ffffffffffffffffffffffffffffffffffffffff1673ffffffffffffffffffffffffffffffffffffffff1681526020019081526020016000205461452390919063ffffffff16565b1115613488576040517f08c379a0000000000000000000000000000000000000000000000000000000008152600401808060200182810382526022815260200180614f516022913960400191505060405180910390fd5b670429d069189e00006134a634600e5461452390919063ffffffff16565b111561351a576040517f08c379a00000000000000000000000000000000000000000000000000000000081526004018080602001828103825260108152602001807f353030204554482048617264206361700000000000000000000000000000000081525060200191505060405180910390fd5b8061358d576040517f08c379a00000000000000000000000000000000000000000000000000000000081526004018080602001828103825260158152602001807f4e6f2061677265656d656e742070726f7669646564000000000000000000000081525060200191505060405180910390fd5b6135df34601060003373ffffffffffffffffffffffffffffffffffffffff1673ffffffffffffffffffffffffffffffffffffffff1681526020019081526020016000205461452390919063ffffffff16565b601060003373ffffffffffffffffffffffffffffffffffffffff1673ffffffffffffffffffffffffffffffffffffffff1681526020019081526020016000208190555061363734600e5461452390919063ffffffff16565b600e819055503373ffffffffffffffffffffffffffffffffffffffff167f20b711375edba008429d2f91787c68aa13aab7f267c346bf91be1a104d8b7b8b346040518082815260200191505060405180910390a250565b60018060ff16601860003373ffffffffffffffffffffffffffffffffffffffff1673ffffffffffffffffffffffffffffffffffffffff16815260200190815260200160002060009054906101000a900460ff1660ff161015613758576040517f08c379a000000000000000000000000000000000000000000000000000000000815260040180806020018281038252601b8152602001807f47726f7720736f6d65206d75737461636865206b6964646f2e2e2e000000000081525060200191505060405180910390fd5b81601b60006101000a81548160ff0219169083151502179055505050565b6000601860008373ffffffffffffffffffffffffffffffffffffffff1673ffffffffffffffffffffffffffffffffffffffff16815260200190815260200160002060009054906101000a900460ff169050919050565b60028060ff16601860003373ffffffffffffffffffffffffffffffffffffffff1673ffffffffffffffffffffffffffffffffffffffff16815260200190815260200160002060009054906101000a900460ff1660ff161015613896576040517f08c379a000000000000000000000000000000000000000000000000000000000815260040180806020018281038252601b8152602001807f47726f7720736f6d65206d75737461636865206b6964646f2e2e2e000000000081525060200191505060405180910390fd5b81601160006101000a81548173ffffffffffffffffffffffffffffffffffffffff021916908373ffffffffffffffffffffffffffffffffffffffff1602179055506000601760008473ffffffffffffffffffffffffffffffffffffffff1673ffffffffffffffffffffffffffffffffffffffff16815260200190815260200160002060006101000a81548160ff0219169083151502179055505050565b610e1081565b6000600160008473ffffffffffffffffffffffffffffffffffffffff1673ffffffffffffffffffffffffffffffffffffffff16815260200190815260200160002060008373ffffffffffffffffffffffffffffffffffffffff1673ffffffffffffffffffffffffffffffffffffffff16815260200190815260200160002054905092915050565b60018060ff16601860003373ffffffffffffffffffffffffffffffffffffffff1673ffffffffffffffffffffffffffffffffffffffff16815260200190815260200160002060009054906101000a900460ff1660ff161015613a8a576040517f08c379a000000000000000000000000000000000000000000000000000000000815260040180806020018281038252601b8152602001807f47726f7720736f6d65206d75737461636865206b6964646f2e2e2e000000000081525060200191505060405180910390fd5b81601760008573ffffffffffffffffffffffffffffffffffffffff1673ffffffffffffffffffffffffffffffffffffffff16815260200190815260200160002060006101000a81548160ff021916908315150217905550505050565b60018060ff16601860003373ffffffffffffffffffffffffffffffffffffffff1673ffffffffffffffffffffffffffffffffffffffff16815260200190815260200160002060009054906101000a900460ff1660ff161015613bb0576040517f08c379a000000000000000000000000000000000000000000000000000000000815260040180806020018281038252601b8152602001807f47726f7720736f6d65206d75737461636865206b6964646f2e2e2e000000000081525060200191505060405180910390fd5b8260198190555081601a81905550505050565b60106020528060005260406000206000915090505481565b600033905090565b600073ffffffffffffffffffffffffffffffffffffffff168373ffffffffffffffffffffffffffffffffffffffff161415613c69576040517f08c379a0000000000000000000000000000000000000000000000000000000008152600401808060200182810382526024815260200180614fda6024913960400191505060405180910390fd5b600073ffffffffffffffffffffffffffffffffffffffff168273ffffffffffffffffffffffffffffffffffffffff161415613cef576040517f08c379a0000000000000000000000000000000000000000000000000000000008152600401808060200182810382526022815260200180614e916022913960400191505060405180910390fd5b80600160008573ffffffffffffffffffffffffffffffffffffffff1673ffffffffffffffffffffffffffffffffffffffff16815260200190815260200160002060008473ffffffffffffffffffffffffffffffffffffffff1673ffffffffffffffffffffffffffffffffffffffff168152602001908152602001600020819055508173ffffffffffffffffffffffffffffffffffffffff168373ffffffffffffffffffffffffffffffffffffffff167f8c5be1e5ebec7d5bd14f71427d1e84f3dd0314c0f7b2291e5b200ac8c7c3b925836040518082815260200191505060405180910390a3505050565b600080831415613ded5760009050613e5a565b6000828402905082848281613dfe57fe5b0414613e55576040517f08c379a0000000000000000000000000000000000000000000000000000000008152600401808060200182810382526021815260200180614f086021913960400191505060405180910390fd5b809150505b92915050565b6000613ea283836040518060400160405280601a81526020017f536166654d6174683a206469766973696f6e206279207a65726f000000000000815250614d32565b905092915050565b600073ffffffffffffffffffffffffffffffffffffffff168273ffffffffffffffffffffffffffffffffffffffff161415613f30576040517f08c379a0000000000000000000000000000000000000000000000000000000008152600401808060200182810382526021815260200180614f736021913960400191505060405180910390fd5b613f3c82600083614df8565b613fa781604051806060016040528060228152602001614e6f602291396000808673ffffffffffffffffffffffffffffffffffffffff1673ffffffffffffffffffffffffffffffffffffffff168152602001908152602001600020546144639092919063ffffffff16565b6000808473ffffffffffffffffffffffffffffffffffffffff1673ffffffffffffffffffffffffffffffffffffffff16815260200190815260200160002081905550613ffe81600254614ce890919063ffffffff16565b600281905550600073ffffffffffffffffffffffffffffffffffffffff168273ffffffffffffffffffffffffffffffffffffffff167fddf252ad1be2c89b69c2b068fc378daa952ba7f163c4a11628f55a4df523b3ef836040518082815260200191505060405180910390a35050565b6000600c541161407d57600080fd5b614094610e10600c5461452390919063ffffffff16565b421161409f57600080fd5b600073ffffffffffffffffffffffffffffffffffffffff168373ffffffffffffffffffffffffffffffffffffffff161415614125576040517f08c379a0000000000000000000000000000000000000000000000000000000008152600401808060200182810382526025815260200180614f946025913960400191505060405180910390fd5b600073ffffffffffffffffffffffffffffffffffffffff168273ffffffffffffffffffffffffffffffffffffffff1614156141ab576040517f08c379a0000000000000000000000000000000000000000000000000000000008152600401808060200182810382526023815260200180614e4c6023913960400191505060405180910390fd5b6141e9836141e483604051806060016040528060268152602001614eb3602691396141d5886126ad565b6144639092919063ffffffff16565b614dfd565b506000806141f78584612413565b9150915060008111801561425a5750600073ffffffffffffffffffffffffffffffffffffffff16601360009054906101000a900473ffffffffffffffffffffffffffffffffffffffff1673ffffffffffffffffffffffffffffffffffffffff1614155b156143d2576142c7601360009054906101000a900473ffffffffffffffffffffffffffffffffffffffff166142c2836142b4601360009054906101000a900473ffffffffffffffffffffffffffffffffffffffff166126ad565b61452390919063ffffffff16565b614dfd565b50601360009054906101000a900473ffffffffffffffffffffffffffffffffffffffff1673ffffffffffffffffffffffffffffffffffffffff16633e158b0c6040518163ffffffff1660e01b8152600401600060405180830381600087803b15801561433257600080fd5b505af1158015614346573d6000803e3d6000fd5b50505050601360009054906101000a900473ffffffffffffffffffffffffffffffffffffffff1673ffffffffffffffffffffffffffffffffffffffff168573ffffffffffffffffffffffffffffffffffffffff167fddf252ad1be2c89b69c2b068fc378daa952ba7f163c4a11628f55a4df523b3ef836040518082815260200191505060405180910390a35b6143f6846143f1846143e3886126ad565b61452390919063ffffffff16565b614dfd565b508373ffffffffffffffffffffffffffffffffffffffff168573ffffffffffffffffffffffffffffffffffffffff167fddf252ad1be2c89b69c2b068fc378daa952ba7f163c4a11628f55a4df523b3ef846040518082815260200191505060405180910390a35050505050565b6000838311158290614510576040517f08c379a00000000000000000000000000000000000000000000000000000000081526004018080602001828103825283818151815260200191508051906020019080838360005b838110156144d55780820151818401526020810190506144ba565b50505050905090810190601f1680156145025780820380516001836020036101000a031916815260200191505b509250505060405180910390fd5b5060008385039050809150509392505050565b6000808284019050838110156145a1576040517f08c379a000000000000000000000000000000000000000000000000000000000815260040180806020018281038252601b8152602001807f536166654d6174683a206164646974696f6e206f766572666c6f77000000000081525060200191505060405180910390fd5b8091505092915050565b600080600a5411614624576040517f08c379a000000000000000000000000000000000000000000000000000000000815260040180806020018281038252600d8152602001807f696e7469616c697a65203173740000000000000000000000000000000000000081525060200191505060405180910390fd5b600073ffffffffffffffffffffffffffffffffffffffff168373ffffffffffffffffffffffffffffffffffffffff16141561467357737a250d5630b4cf539739df2c5dacb4c659f2488d614675565b825b601460006101000a81548173ffffffffffffffffffffffffffffffffffffffff021916908373ffffffffffffffffffffffffffffffffffffffff160217905550600073ffffffffffffffffffffffffffffffffffffffff168273ffffffffffffffffffffffffffffffffffffffff16141561470457735c69bee701ef814a2b6a3edd4b1652cb9cc5aa6f614706565b815b601560006101000a81548173ffffffffffffffffffffffffffffffffffffffff021916908373ffffffffffffffffffffffffffffffffffffffff160217905550600073ffffffffffffffffffffffffffffffffffffffff16601160009054906101000a900473ffffffffffffffffffffffffffffffffffffffff1673ffffffffffffffffffffffffffffffffffffffff161461480a576040517f08c379a000000000000000000000000000000000000000000000000000000000815260040180806020018281038252601b8152602001807f546f6b656e3a20706f6f6c20616c72656164792063726561746564000000000081525060200191505060405180910390fd5b601560009054906101000a900473ffffffffffffffffffffffffffffffffffffffff1673ffffffffffffffffffffffffffffffffffffffff1663c9c65396601460009054906101000a900473ffffffffffffffffffffffffffffffffffffffff1673ffffffffffffffffffffffffffffffffffffffff1663ad5c46486040518163ffffffff1660e01b815260040160206040518083038186803b1580156148b057600080fd5b505afa1580156148c4573d6000803e3d6000fd5b505050506040513d60208110156148da57600080fd5b8101908080519060200190929190505050306040518363ffffffff1660e01b8152600401808373ffffffffffffffffffffffffffffffffffffffff1673ffffffffffffffffffffffffffffffffffffffff1681526020018273ffffffffffffffffffffffffffffffffffffffff1673ffffffffffffffffffffffffffffffffffffffff16815260200192505050602060405180830381600087803b15801561498157600080fd5b505af1158015614995573d6000803e3d6000fd5b505050506040513d60208110156149ab57600080fd5b8101908080519060200190929190505050601160006101000a81548173ffffffffffffffffffffffffffffffffffffffff021916908373ffffffffffffffffffffffffffffffffffffffff160217905550601160009054906101000a900473ffffffffffffffffffffffffffffffffffffffff16905092915050565b600073ffffffffffffffffffffffffffffffffffffffff168373ffffffffffffffffffffffffffffffffffffffff161415614aad576040517f08c379a0000000000000000000000000000000000000000000000000000000008152600401808060200182810382526025815260200180614f946025913960400191505060405180910390fd5b600073ffffffffffffffffffffffffffffffffffffffff168273ffffffffffffffffffffffffffffffffffffffff161415614b33576040517f08c379a0000000000000000000000000000000000000000000000000000000008152600401808060200182810382526023815260200180614e4c6023913960400191505060405180910390fd5b614b3e838383614df8565b614ba981604051806060016040528060268152602001614eb3602691396000808773ffffffffffffffffffffffffffffffffffffffff1673ffffffffffffffffffffffffffffffffffffffff168152602001908152602001600020546144639092919063ffffffff16565b6000808573ffffffffffffffffffffffffffffffffffffffff1673ffffffffffffffffffffffffffffffffffffffff16815260200190815260200160002081905550614c3c816000808573ffffffffffffffffffffffffffffffffffffffff1673ffffffffffffffffffffffffffffffffffffffff1681526020019081526020016000205461452390919063ffffffff16565b6000808473ffffffffffffffffffffffffffffffffffffffff1673ffffffffffffffffffffffffffffffffffffffff168152602001908152602001600020819055508173ffffffffffffffffffffffffffffffffffffffff168373ffffffffffffffffffffffffffffffffffffffff167fddf252ad1be2c89b69c2b068fc378daa952ba7f163c4a11628f55a4df523b3ef836040518082815260200191505060405180910390a3505050565b6000614d2a83836040518060400160405280601e81526020017f536166654d6174683a207375627472616374696f6e206f766572666c6f770000815250614463565b905092915050565b60008083118290614dde576040517f08c379a00000000000000000000000000000000000000000000000000000000081526004018080602001828103825283818151815260200191508051906020019080838360005b83811015614da3578082015181840152602081019050614d88565b50505050905090810190601f168015614dd05780820380516001836020036101000a031916815260200191505b509250505060405180910390fd5b506000838581614dea57fe5b049050809150509392505050565b505050565b6000816000808573ffffffffffffffffffffffffffffffffffffffff1673ffffffffffffffffffffffffffffffffffffffff168152602001908152602001600020819055508190509291505056fe45524332303a207472616e7366657220746f20746865207a65726f206164647265737345524332303a206275726e20616d6f756e7420657863656564732062616c616e636545524332303a20617070726f766520746f20746865207a65726f206164647265737345524332303a207472616e7366657220616d6f756e7420657863656564732062616c616e63654c69717569646974792067656e65726174696f6e20677261636520706572696f64207374696c6c206f6e676f696e67536166654d6174683a206d756c7469706c69636174696f6e206f766572666c6f7745524332303a207472616e7366657220616d6f756e74206578636565647320616c6c6f77616e63656d617820323545544820636f6e747269627574696f6e20706572206164647265737345524332303a206275726e2066726f6d20746865207a65726f206164647265737345524332303a207472616e736665722066726f6d20746865207a65726f20616464726573735772617070657220546f6b656e20616e64205661756c74206e6f7420536574757045524332303a20617070726f76652066726f6d20746865207a65726f206164647265737345524332303a2064656372656173656420616c6c6f77616e63652062656c6f77207a65726fa2646970667358221220e41f279dcc5d64c513a786d275a2400d677e1781cbb379590b676d07ba6fd0db64736f6c634300060600334920616772656520746861742074686520646576656c6f7065727320616e6420616666696c69617465642070617274696573206f662074686520556e69436f7265207465616d20617265206e6f7420726573706f6e7369626c6520666f72206d792066756e6473",
  "immutableReferences": {},
  "source": "// SPDX-License-Identifier: WHO GIVES A FUCK ANYWAY??\n\npragma solidity >=0.6.0;\n\nimport \"./UniCore_ERC20.sol\";\n\ncontract UniCore_Token is ERC20 {\n    using SafeMath for uint256;\n    using Address for address;\n\n    event LiquidityAddition(address indexed dst, uint value);\n    event LPTokenClaimed(address dst, uint value);\n\n    //ERC20\n    uint256 private _totalSupply;\n    string private _name;\n    string private _symbol;\n    uint8 private _decimals;\n    uint256 public constant initialSupply = 1000*1e18; // 1k\n    \n    //timeStamps\n    uint256 public contractInitialized;\n    uint256 public contractStart_Timestamp;\n    uint256 public LGECompleted_Timestamp;\n    uint256 public constant contributionPhase = 3 hours; //3 days;\n    uint256 public constant stackingPhase = 1 hours;//2 hours;\n    uint256 public constant emergencyPeriod = 1 days;//4 days;\n    \n    //Tokenomics\n    uint256 public totalLPTokensMinted;\n    uint256 public totalETHContributed;\n    uint256 public LPperETHUnit;\n    mapping (address => uint)  public ethContributed;\n    uint256 public constant individualCap = 1e17; //25*1e18;\n    uint256 public constant totalCap = 3*1e17; //500*1e18;\n    \n    \n    //Ecosystem\n    address public UniswapPair;\n    address public wUNIv2;\n    address public Vault;\n    IUniswapV2Router02 public uniswapRouterV2;\n    IUniswapV2Factory public uniswapFactory;\n    \n//=========================================================================================================================================\n\n    constructor() ERC20(\"Test_Unicore\", \"T_UNICORE\") public {\n        _mint(address(this), initialSupply);\n        governanceLevels[msg.sender] = 2;\n    }\n    \n    function initialSetup() public governanceLevel(2) {\n        contractInitialized = block.timestamp;\n        setBuySellFees(10, 10); //1% on buy, 1% on sell.\n        \n        POOL_CreateUniswapPair(0x7a250d5630B4cF539739dF2C5dAcb4c659F2488D, 0x5C69bEe701ef814a2B6a3EDD4B1652CB9cc5aA6f);\n        //0x7a250d5630B4cF539739dF2C5dAcb4c659F2488D = UniswapV2Router02\n        //0x5C69bEe701ef814a2B6a3EDD4B1652CB9cc5aA6f = UniswapV2Factory\n    }\n    \n    //Pool UniSwap pair creation method (called by  initialSetup() )\n    function POOL_CreateUniswapPair(address router, address factory) internal returns (address) {\n        require(contractInitialized > 0, \"intialize 1st\");\n        \n        uniswapRouterV2 = IUniswapV2Router02(router != address(0) ? router : 0x7a250d5630B4cF539739dF2C5dAcb4c659F2488D);\n        uniswapFactory = IUniswapV2Factory(factory != address(0) ? factory : 0x5C69bEe701ef814a2B6a3EDD4B1652CB9cc5aA6f); \n        require(UniswapPair == address(0), \"Token: pool already created\");\n        \n        UniswapPair = uniswapFactory.createPair(address(uniswapRouterV2.WETH()),address(this));\n        \n        return UniswapPair;\n    }\n    \n    /* Once initialSetup has been invoked\n    * Team will create the Vault and the LP wrapper token\n    *  \n    * Only AFTER these 2 addresses have been created the users\n    * can start contributing in ETH\n    */\n    function secondarySetup(address _Vault, address _wUNIv2) public governanceLevel(2) {\n        require(contractInitialized > 0 && contractStart_Timestamp == 0);\n        setVault(_Vault); //also adds the Vault to noFeeList\n        wUNIv2 = _wUNIv2;\n        \n        require(Vault != address(0) && wUNIv2 != address(0), \"Wrapper Token and Vault not Setup\");\n        contractStart_Timestamp = block.timestamp;\n    }\n    \n\n//=========================================================================================================================================\n    /* Liquidity generation logic\n    * Steps - All tokens that will ever exist go to this contract\n    *  \n    * This contract accepts ETH as payable\n    * ETH is mapped to people\n    *    \n    * When liquidity generation event is over \n    * everyone can call the mint LP function.\n    *    \n    * which will put all the ETH and tokens inside the uniswap contract\n    * without any involvement\n    *    \n    * This LP will go into this contract\n    * And will be able to proportionally be withdrawn based on ETH put in\n    *\n    * emergency drain function allows the contract owner to drain all ETH and tokens from this contract\n    * After the liquidity generation event happened. In case something goes wrong, to send ETH back\n    */\n\n    string public liquidityGenerationParticipationAgreement = \"I agree that the developers and affiliated parties of the UniCore team are not responsible for my funds\";\n\n    \n    /* @dev List of modifiers used to differentiate the project phases\n     *      ETH_ContributionPhase lets users send ETH to the token contract\n     *      LGP_possible triggers after the contributionPhase duration\n     *      Trading_Possible: this modifiers prevent Unicore _transfer right\n     *      after the LGE. It gives time for contributors to stake their \n     *      tokens before fees are generated.\n     */\n    \n    modifier ETH_ContributionPhase() {\n        require(contractStart_Timestamp > 0);\n        require(block.timestamp <= contractStart_Timestamp.add(contributionPhase));\n        _;\n    }\n    \n    /* if totalETHContributed is bigger than 99% of the cap\n     * the LGE can happen (allows the LGE to happen sooner if needed)\n     * otherwise (ETHcontributed < 99% totalCap), time contraint applies\n     */\n    modifier LGE_Possible() {\n         \n        if(totalETHContributed < totalCap.mul(99).div(100)){ \n        require(contractStart_Timestamp > 0);\n        require(block.timestamp > contractStart_Timestamp.add(contributionPhase));\n        }\n       _; \n    }\n    \n    modifier LGE_happened() {\n        require(LGECompleted_Timestamp > 0);\n        require(block.timestamp > LGECompleted_Timestamp);\n        _;\n    }\n    modifier Trading_Possible() {\n         require(LGECompleted_Timestamp > 0);\n         require(block.timestamp > LGECompleted_Timestamp.add(stackingPhase));\n        _;\n    }\n    \n\n//=========================================================================================================================================\n  \n    // Emergency drain in case of a bug\n    function emergencyDrain24hAfterLiquidityGenerationEventIsDone() public governanceLevel(2) {\n        require(contractStart_Timestamp > 0);\n        require(contractStart_Timestamp.add(emergencyPeriod) < block.timestamp, \"Liquidity generation grace period still ongoing\"); // About 24h after liquidity generation happens\n        \n        (bool success, ) = msg.sender.call{value:(address(this).balance)}(\"\");\n        require(success, \"Transfer failed.\");\n       \n        ERC20._transfer(address(this), msg.sender, balanceOf(address(this)));\n    }\n\n//During ETH_ContributionPhase: Users deposit funds\n\n    //funds sent to TOKEN contract.\n    function USER_PledgeLiquidity(bool agreesToTermsOutlinedInLiquidityGenerationParticipationAgreement) public payable ETH_ContributionPhase {\n        require(ethContributed[msg.sender].add(msg.value) <= individualCap, \"max 25ETH contribution per address\");\n        require(totalETHContributed.add(msg.value) <= totalCap, \"500 ETH Hard cap\"); \n        \n        require(agreesToTermsOutlinedInLiquidityGenerationParticipationAgreement, \"No agreement provided\");\n        \n        ethContributed[msg.sender] = ethContributed[msg.sender].add(msg.value);\n        totalETHContributed = totalETHContributed.add(msg.value); // for front end display during LGE\n        emit LiquidityAddition(msg.sender, msg.value);\n    }\n    \n    function USER_UNPledgeLiquidity() public ETH_ContributionPhase {\n        uint256 _amount = ethContributed[msg.sender];\n        ethContributed[msg.sender] = 0;\n        msg.sender.transfer(_amount); //MUST CALL THE ETHERUM TRANSFER, not the TOKEN one!!!\n        totalETHContributed = totalETHContributed.sub(_amount);\n    }\n\n\n// After ETH_ContributionPhase: Pool can create liquidity.\n// Vault and wrapped UNIv2 contracts need to be setup in advance.\n\n    function POOL_CreateLiquidity() public LGE_Possible {\n\n        totalETHContributed = address(this).balance;\n        IUniswapV2Pair pair = IUniswapV2Pair(UniswapPair);\n        \n        //Wrap eth\n        address WETH = uniswapRouterV2.WETH();\n        \n        //Send to UniSwap\n        IWETH(WETH).deposit{value : totalETHContributed}();\n        require(address(this).balance == 0 , \"Transfer Failed\");\n        IWETH(WETH).transfer(address(pair),totalETHContributed);\n        \n        emit Transfer(address(this), address(pair), balanceOf(address(this)));\n        \n        //UniCore balances transfer\n        ERC20._transfer(address(this), address(pair), balanceOf(address(this)));\n        pair.mint(address(this));       //mint LP tokens. lock method in UniSwapPairV2 PREVENTS FROM DOING IT TWICE\n        \n        totalLPTokensMinted = pair.balanceOf(address(this));\n        \n        require(totalLPTokensMinted != 0 , \"LP creation failed\");\n        LPperETHUnit = totalLPTokensMinted.mul(1e18).div(totalETHContributed); // 1e18x for  change\n        require(LPperETHUnit != 0 , \"LP creation failed\");\n        \n        LGECompleted_Timestamp = block.timestamp;\n    }\n    \n \n//After ETH_ContributionPhase: Pool can create liquidity.\n    function USER_ClaimWrappedLiquidity() public LGE_happened {\n        require(ethContributed[msg.sender] > 0 , \"Nothing to claim, move along\");\n        \n        uint256 amountLPToTransfer = ethContributed[msg.sender].mul(LPperETHUnit).div(1e18);\n        IReactor(wUNIv2).wTransfer(msg.sender, amountLPToTransfer); // stored as 1e18x value for change\n        ethContributed[msg.sender] = 0;\n        \n        emit LPTokenClaimed(msg.sender, amountLPToTransfer);\n    }\n\n\n//=========================================================================================================================================\n    //overriden _transfer to take Fees\n    function _transfer(address sender, address recipient, uint256 amount) internal override Trading_Possible {\n        \n        require(sender != address(0), \"ERC20: transfer from the zero address\");\n        require(recipient != address(0), \"ERC20: transfer to the zero address\");\n    \n        //updates _balances\n        setBalance(sender, balanceOf(sender).sub(amount, \"ERC20: transfer amount exceeds balance\"));\n\n        //calculate net amounts and fee\n        (uint256 toAmount, uint256 toFee) = calculateAmountAndFee(sender, amount);\n        \n        //Send Reward to Vault 1st\n        if(toFee > 0 && Vault != address(0)){\n            setBalance(Vault, balanceOf(Vault).add(toFee));\n            IVault(Vault).updateRewards(); //updating the vault with rewards sent.\n            emit Transfer(sender, Vault, toFee);\n        }\n        \n        //transfer to recipient\n        setBalance(recipient, balanceOf(recipient).add(toAmount));\n        emit Transfer(sender, recipient, toAmount);\n\n    }\n    \n//=========================================================================================================================================\n//FEE_APPROVER (now included into the token code)\n\n    mapping (address => bool) public noFeeList;\n    \n    function calculateAmountAndFee(address sender, uint256 amount) public view returns (uint256 netAmount, uint256 fee){\n\n        if(noFeeList[sender]) { fee = 0;} // Don't have a fee when Vault is sending, or infinite loop\n        else if(sender == UniswapPair){ fee = amount.mul(buyFee).div(1000);}\n        else { fee = amount.mul(sellFee).div(1000);}\n        \n        netAmount = amount.sub(fee);\n    }\n    \n//=========================================================================================================================================\n//Governance\n    /**\n     * @dev multi tiered governance logic\n     * \n     * 0: plebs\n     * 1: voting contracts (setup later in DAO)\n     * 2: governors\n     * \n    */\n    mapping(address => uint8) public governanceLevels;\n    \n    modifier governanceLevel(uint8 _level){\n        require(governanceLevels[msg.sender] >= _level, \"Grow some mustache kiddo...\");\n        _;\n    }\n    function setGovernanceLevel(address _address, uint8 _level) public governanceLevel(_level) {\n        governanceLevels[_address] = _level; //_level in Modifier ensures that lvl1 can only add lvl1 govs.\n    }\n    \n    function viewGovernanceLevel(address _address) public view returns(uint8) {\n        return governanceLevels[_address];\n    }\n\n//== Governable Functions\n    \n    //External variables\n        function setUniswapPair(address _UniswapPair) public governanceLevel(2) {\n            UniswapPair = _UniswapPair;\n            noFeeList[_UniswapPair] =  false; //making sure we take rewards\n        }\n        \n        function setVault(address _Vault) public governanceLevel(2) {\n            Vault = _Vault;\n            noFeeList[_Vault] =  true;\n        }\n        \n        \n        /* @dev :allows to upgrade the wrapper\n         * future devs will allow the wrapper to read live prices\n         * of liquidity tokens and to mint an Universal wrapper\n         * wrapping ANY UNIv2 LP token into their equivalent in \n         * wrappedLP tokens, based on the wrapped asset price.\n         */\n        function setwUNIv2(address _wrapper) public governanceLevel(2) {\n            wUNIv2 = _wrapper;\n            noFeeList[_wrapper] =  true; //manages the wrapping of UniCores\n        }\n       \n        //burns tokens from the contract (holding them)\n        function burnToken(uint256 amount) public governanceLevel(1) {\n            _burn(address(this), amount);\n        }\n    \n    //Fees\n        uint256 public buyFee; uint256 public sellFee;\n        function setBuySellFees(uint256 _buyFee, uint256 _sellFee) public governanceLevel(1) {\n            buyFee = _buyFee;  //base 1000 -> 1 = 0.1%\n            sellFee = _sellFee;\n        }\n        \n        function setNoFeeList(address _address, bool _bool) public governanceLevel(1) {\n          noFeeList[_address] =  _bool;\n        }\n    \n    //wrapper contract\n    function setPublicWrappingRatio(uint256 _ratioBase100) public governanceLevel(1) {\n          IReactor(wUNIv2).setPublicWrappingRatio(_ratioBase100);\n        }\n//==Getters \n\n        function viewUNIv2() public view returns(address){\n            return UniswapPair;\n        }\n        function viewwWrappedUNIv2() public view returns(address){\n            return wUNIv2;\n        }\n        function viewVault() public view returns(address){\n            return Vault;\n        }\n\n//=experimental\n        bool private _uniBurnEnabled;\n        function setUniBurn(bool _bool) public governanceLevel(1) {\n            _uniBurnEnabled = _bool;\n        }\n        function viewUniBurnEnabled() public view returns(bool) {\n            return _uniBurnEnabled;\n        }\n            \n        function burnFromUni(uint256 _amount) external {\n            require(msg.sender == Vault); //only Vault can trigger this function\n            \n            //   _amount / REACTOR total supply, 1e18 format.\n            uint256 amountRatio = _amount.mul(1e18).div(IERC20(wUNIv2).totalSupply());\n        \n            //apply amountRatio to the UniSwpaPair balance\n            uint256 amount = amountRatio.mul( balanceOf(UniswapPair)).div(1e18).div(10);\n            \n            \n            if(amount > 0 && _uniBurnEnabled){_burn(UniswapPair, amount);}\n        }\n        \n}\n\n",
  "sourcePath": "/Users/noahcoomer/source/unicore-vault/unicore-vault-contracts/contracts/UniCore_Token.sol",
  "compiler": {
    "name": "solc",
    "version": "0.6.6+commit.6c089d02.Emscripten.clang"
  },
  "schemaVersion": "3.3.0",
  "updatedAt": "2020-10-17T18:14:13.067Z",
  "devdoc": {
    "methods": {
      "allowance(address,address)": {
        "details": "See {IERC20-allowance}."
      },
      "approve(address,uint256)": {
        "details": "See {IERC20-approve}.     * Requirements:     * - `spender` cannot be the zero address."
      },
      "balanceOf(address)": {
        "details": "See {IERC20-balanceOf}."
      },
      "decimals()": {
        "details": "Returns the number of decimals used to get its user representation. For example, if `decimals` equals `2`, a balance of `505` tokens should be displayed to a user as `5,05` (`505 / 10 ** 2`).     * Tokens usually opt for a value of 18, imitating the relationship between Ether and Wei. This is the value {ERC20} uses, unless {_setupDecimals} is called.     * NOTE: This information is only used for _display_ purposes: it in no way affects any of the arithmetic of the contract, including {IERC20-balanceOf} and {IERC20-transfer}."
      },
      "decreaseAllowance(address,uint256)": {
        "details": "Atomically decreases the allowance granted to `spender` by the caller.     * This is an alternative to {approve} that can be used as a mitigation for problems described in {IERC20-approve}.     * Emits an {Approval} event indicating the updated allowance.     * Requirements:     * - `spender` cannot be the zero address. - `spender` must have allowance for the caller of at least `subtractedValue`."
      },
      "increaseAllowance(address,uint256)": {
        "details": "Atomically increases the allowance granted to `spender` by the caller.     * This is an alternative to {approve} that can be used as a mitigation for problems described in {IERC20-approve}.     * Emits an {Approval} event indicating the updated allowance.     * Requirements:     * - `spender` cannot be the zero address."
      },
      "name()": {
        "details": "Returns the name of the token."
      },
      "symbol()": {
        "details": "Returns the symbol of the token, usually a shorter version of the name."
      },
      "totalSupply()": {
        "details": "See {IERC20-totalSupply}."
      },
      "transfer(address,uint256)": {
        "details": "See {IERC20-transfer}.     * Requirements:     * - `recipient` cannot be the zero address. - the caller must have a balance of at least `amount`."
      },
      "transferFrom(address,address,uint256)": {
        "details": "See {IERC20-transferFrom}.     * Emits an {Approval} event indicating the updated allowance. This is not required by the EIP. See the note at the beginning of {ERC20};     * Requirements: - `sender` and `recipient` cannot be the zero address. - `sender` must have a balance of at least `amount`. - the caller must have allowance for ``sender``'s tokens of at least `amount`."
      }
    }
  },
  "userdoc": {
    "methods": {}
  }
}